:020000040800F2
:1000000068460020B1010008B14C0008E113000867
:100010009D3B0008890C00082FA500080000000087
:10002000000000000000000000000000B9640008AB
:10003000850D000800000000B95100082172000879
:10004000CB010008CB010008CB010008CB01000860
:10005000CB010008CB010008E10D0008CB0100082E
:10006000CB010008CB010008CB010008CB01000840
:10007000CB010008CB010008CB010008CB01000830
:10008000CB010008CB010008CB010008CB01000820
:10009000CB010008CB010008CB010008CB01000810
:1000A000CB010008CB010008CB010008CB01000800
:1000B0000173000859730008CB010008CB01000848
:1000C000CB010008CB010008CB010008CB010008E0
:1000D000CB010008CB010008CB010008CB010008D0
:1000E000810F0008CB010008CB010008CB010008FC
:1000F000CB010008CB010008CB010008CB010008B0
:10010000CB010008CB01000839740008CB010008BE
:10011000CB010008CB010008F5750008CB010008F1
:10012000CB010008CB010008CB010008CB0100087F
:10013000CB010008CB010008CB010008CB0100086F
:10014000CB010008CB010008CB010008CB0100085F
:10015000CB010008CB010008CB010008E9A2000890
:10016000CB010008CB010008CB010008CB0100083F
:10017000CB010008CB010008CB010008CB0100082F
:10018000CB010008CB010008DFF810D000F0DEFB47
:100190000048004775B40008AFF3008068460020AF
:1001A00030BF72B6704762B6704780F308887047F8
:1001B0000648804706480047FEE7FEE7FEE7FEE701
:1001C000FEE7FEE7FEE7FEE7FEE7FEE799720008BE
:1001D000890100082DE9F05F0546002092469B4604
:1001E00088460646814640241BE02846414647464D
:1001F000224600F073FA53465A46C01A914110D372
:1002000011461846224600F05AFA2D1A67EB0108EB
:100210004F4622460120002100F051FA17EB000959
:100220004E41201EA4F10104DFDC484631462A4637
:100230004346BDE8F09FD2B201E000F8012B491E11
:10024000FBD270470022F6E710B513460A46044673
:100250001946FFF7F0FF204610BD421C10F8011BA5
:100260000029FBD1801A704710B5002200E0521C13
:10027000835C8C5CA34201D1002BF8D1D8B2E1B2EF
:10028000401A10BD034611F8012B00F8012B002A7B
:10029000F9D11846704730B505460020034600E006
:1002A0005B1C934205D2EC5CC85C201A01D1002C87
:1002B000F6D130BD2DE9FE4F804681EA0300C00F24
:1002C0000C46009021F0004123F00045B8EB0200FD
:1002D000A94105D24046214690461C460B4602469F
:1002E00023F00040104347D0270DC7F30A00C3F3A3
:1002F0000A510290401A019040286BDAC3F31300B0
:1003000040F4801B0098924620B10023D2EB030AF0
:1003100063EB0B0B01985946C0F14002504600F0C8
:10032000CEF906460D4650465946019A00F0E6F9C8
:1003300010EB08006141002487EA115284EAE77358
:100340001A4340D0009A62B3019A012A4FEA075239
:1003500015DC001B61EB02014FF0004202EA07527C
:10036000CDE90042001C41F5801132462B4600F0D9
:100370001DFA03B0BDE8F08F40462146F9E7001BA7
:1003800061EB0201001C41F5801300185B4120184D
:10039000A2F5001747EB030140EAD570B6196D418D
:1003A00011E06D084FEA360645EAC0754FEA07527C
:1003B000001B61EB0201001C41F5801149084FEA66
:1003C00030000019514132462B4603B0BDE8F04FD2
:1003D00000F0DDB90098012240000023D0EB0202BA
:1003E00063EBE073009821464FEAE074B8EB00003D
:1003F00061EB0401E9E783F000435BE781F0004132
:1004000058E72DE9FE4F81EA030404F0004421F08F
:10041000004100944FF0000B23F0004350EA010428
:100420005ED052EA03045BD0C3F30A54C1F30A5509
:100430002C44A4F2F3340194A0FB0254C1F3130141
:1004400041F48011C3F3130343F4801301FB02440E
:1004500000FB034E840A970A44EA815447EA835713
:10046000A4FB076802958D0A05FB07854FEA932CCC
:1004700004FB0C542705029D4FEA065847EA16373D
:10048000B5EB08056EEB070C870E920E47EA811755
:1004900042EA8312A7FB0201B6EB0B0164EB0004F6
:1004A0002B0D43EA0C335E1844EB1C50DA465146E0
:1004B000E7FB0201C5F313044FEA0B3343EA14537D
:1004C0004FEA0432019C43EA0603A4F10C040294AF
:1004D000009CCDE900B400F069F903B0BDE8F08FED
:1004E00000200146F9E72DE9F04D81EA030404F00C
:1004F000004B21F0004514464FF0000A23F0004164
:1005000050EA050220D054EA01021DD0C5F30A5773
:100510000246C5F31303C1F31300C1F30A5640F4B6
:10052000801543F48013A7EB0608101BD64608F28B
:10053000FD3873EB050002D308F1010801E09218C1
:100540005B41B8F1000F03DA00200146BDE8F08DF1
:1005500000204FF48011064684460EE0171B73EB13
:10056000050705D3121B63EB050306434CEA010C98
:1005700049084FEA300092185B4150EA0107EDD17B
:1005800052EA030012D082EA040083EA050108431C
:1005900005D0101BAB4106D20122002306E0002249
:1005A0004FF0004302E06FF0010253101AEB060017
:1005B0004CEB085110EB0A0041EB0B01BDE8F04D8C
:1005C00000F0E5B830B4044696230800214604D074
:1005D000B62330BC002200F0ACB820460021F8E77A
:1005E0000EB540F2334102910021CDE900110A46D7
:1005F0000B4600F0DBF803B000BD3EB5CA17CB0FC9
:10060000002450405140C0186141DA0740F23343A2
:100610000094CDE901232246234600F0C7F803B039
:1006200030BD0EB540F2334202920022CDE90022E5
:10063000134600F0BBF803B000BDC1F30A5210B579
:10064000C1F3130140F2FF3341F480119A4201DA01
:10065000002010BD40F233439A42A2F2334203DC41
:10066000524200F03BF810BD904010BD00F0004237
:1006700030F000400AD0C10D01F56071C0F31600E2
:1006800042EA0151C2084007114370470020014669
:10069000704730B50B46014600202022012409E0B6
:1006A00021FA02F59D4205D303FA02F5491B04FA2B
:1006B00002F52844151EA2F10102F1DC30BD202A0A
:1006C00004DB203A00FA02F1002070479140C2F1A9
:1006D000200320FA03F3194390407047202A04DBDB
:1006E000203A21FA02F00021704721FA02F3D040AB
:1006F000C2F120029140084319467047202A06DBC8
:10070000CB17203A41FA02F043EAE07306E041FADF
:1007100002F3D040C2F120029140084319467047CD
:100720000029A8BF7047401C490008BF20F0010005
:10073000704710B4B0FA80FC00FA0CF050EA0104E3
:1007400004BF10BC704749B1CCF1200421FA04F475
:1007500011FA0CF118BF012121430843A3EB0C014E
:10076000CB1D4FEA00614FEA102042BF002010BCB1
:10077000704700EBC35010440029A4BF10BC704761
:10078000401C490008BF20F0010010BC704710B5A4
:10079000141E73F1000408DA401C41F100019218A4
:1007A0005B411A4301D120F0010010BD2DE9F04D4D
:1007B00092469B4611B1B1FA81F202E0B0FA80F2A2
:1007C00020329046FFF77BFF04460F4640EA0A00BE
:1007D00041EA0B0153465A46084313D0114653EAE7
:1007E000010019D0C8F140025046FFF777FF0546D7
:1007F0000E46504659464246FFF761FF084305D072
:10080000012004E020463946BDE8F08D0020054374
:1008100046EAE0762C4337430A986305E40AA0EBE6
:1008200008000022FD0A44EA47540A3002D500209D
:100830000146E9E7010510196941DDE9084500199C
:100840006941BDE8F04DA2E72DE9F04D00231A46BD
:100850001B1A8A4103DB00200146BDE8F08DC1F37D
:100860000A52C1F3130141F480154FF0000BD10778
:1008700002D100186D41521E0027044640F2FF11BC
:10088000384601EB620A3E468046024600204FF49D
:100890008011FFF723FFC2197141BB1846EB01001D
:1008A000B4EB030C75EB000C04D3E41A65EB000504
:1008B00017460E46241908F101006D418046342880
:1008C000E3DDF91946EB0600091BA84103D24FF0FE
:1008D000FF32134601E0002213461BEB070046EBF4
:1008E0000A51BDE8F04DFFF752BFC1F30A52C1F300
:1008F000130140F2FF3341F480119A4202DA0020E2
:100900000146704740F233439A42A2F2334202DC7E
:100910005242FFF7E3BEFFF7D2BE000030B5041E1F
:1009200071F1000404DB4FF00044404264EB01012C
:10093000141E73F1000405DB1C464FF000435242C5
:1009400063EB0403994208BF904230BD064C074D4B
:1009500006E0E06840F0010394E80700984710348F
:10096000AC42F6D3FFF714FC44D7000864D7000864
:1009700070B58C1810F8015B15F0070301D110F861
:10098000013B2A1106D110F8012B03E010F8016B8E
:1009900001F8016B5B1EF9D12B0705D40023521E11
:1009A0000DD401F8013BFAE710F8013BCB1A921C79
:1009B00003E013F8015B01F8015B521EF9D5A14277
:1009C000D8D3002070BD70B505460C46012D04D16A
:1009D0002046E11700F014F810E0022D04D1204663
:1009E000E11700F04FF809E0032D07D12046E11789
:1009F00000F006F82046E11700F044F870BD000052
:100A000070B52DED088B05460E4628463146FFF79A
:100A1000F4FD9FED150B53EC102BFFF7F2FC9FED4F
:100A2000140B53EC102BFFF745FC9FED130B53EC0D
:100A3000102BFFF73FFCFFF700FE84B21020104997
:100A4000088304204883201205F02EFCE0B205F054
:100A50002BFC10200A4948830420088308200883BF
:100A6000BDEC088B70BD00000000000000002040BD
:100A7000000000000000E03F00000000C0FFDF4079
:100A80000000024070B52DED088B05460E46284645
:100A90003146FFF7B2FD9FED150B53EC102BFFF71E
:100AA000B0FC9FED140B53EC102BFFF703FC9FEDF4
:100AB000130B53EC102BFFF7FDFBFFF7BEFD84B2C9
:100AC00010201049088308204883201205F0ECFB11
:100AD000E0B205F0E9FB10200A49488304200883AE
:100AE00008200883BDEC088B70BD000000000000EA
:100AF00000002040000000000000E03F0000000077
:100B0000C0FFDF400000024010B500F093FC10BDB4
:100B100070B506460C46154608E03046721C96B283
:100B200000F007F804F8010B681E85B2002DF4D11F
:100B300070BD70B50446002600F02EFDA02000F028
:100B4000F7FC00F075FD201200F0F2FC00F070FDE3
:100B50002546E11704EB11610912A4EB0121C8B28B
:100B600000F0E6FC00F064FD00F016FDA12000F0AE
:100B7000DFFC00F05DFD002000F0A8FC064600F060
:100B800031FD304670BD70B505460C46164606E090
:100B90002178284600F009F8681C85B2641C301ED4
:100BA000A6F101018EB2F3D170BD70B504460E46B8
:100BB00000F0F2FCA02000F0BBFC00F039FD201298
:100BC00000F0B6FC00F034FD2546E11704EB11619E
:100BD0000912A4EB0121C8B200F0AAFC00F028FD24
:100BE000304600F0A5FC00F023FD00F0FBFC0A20DD
:100BF00000F0CAF870BD00001CB50121202005F0EE
:100C0000DDF90121402005F0D9F901208DF804001B
:100C100000208DF8060003208DF8050001208DF8D6
:100C20000700C00300906946014800F055FB1CBD59
:100C3000001802401CB50AF0A9FA0121042005F0B1
:100C4000BDF93F20009000208DF8040001208DF8B0
:100C5000070069460B4800F03FFB4FF47C600090B2
:100C600001208DF8040000208DF8060003208DF887
:100C7000050001208DF807006946024800F02CFBB2
:100C80001CBD00000008024000BFFEE770B5024630
:100C90004FF6FF70002313E012F8015B6840002458
:100CA0000AE000F0010525B14AF2010585EA60007D
:100CB00000E04010651CECB2082CF2DB5D1CEBB2CE
:100CC0008B42E9DB70BD000000B585B00121022038
:100CD00005F074F90121880305F0B0F94FF4604084
:100CE000039000208DF8100001208DF8130003A957
:100CF000234800F0F1FA0D21012005F0DFFB0F2160
:100D0000012005F0DBFB4FF40050009000208DF82F
:100D1000040010208DF8050001208DF806006846BB
:100D200000F084F928208DF8080003208DF80900D0
:100D30008DF80A0001208DF80B0002A803F0BAFF1D
:100D40004FF40040009000208DF8040010208DF832
:100D5000050001208DF80600684600F067F928209C
:100D60008DF8080003208DF809008DF80A00012095
:100D70008DF80B0002A803F09DFF05B000BD000038
:100D8000000402407047000001B504490098086063
:100D900000BF024800680028FBD108BD0C000020FD
:100DA00010B500210B4806F048FC00200949243109
:100DB000086008492C3108604FF6FE700549103173
:100DC000088005488078032802D1012103488170FA
:100DD00010BD0000000C0040400000207C020020FC
:100DE00070B5012000F016F900287CD05A488078B0
:100DF00003285DD15948007818B158480078012877
:100E000056D155484078012806D15348D0F888007B
:100E100053494968086008E04F48407828B94E486F
:100E2000D0F830014E494968086002200BF06BF899
:100E30004C480068012827D100204B4908604B49E5
:100E4000C1F8800200214A48817001204949087098
:100E50004948008840F00100474908803F48007831
:100E600040B93F4A526811683B4A5078012203F06A
:100E70007BFF6DE03A4A526812685142364A507818
:100E8000012203F071FF63E03648006800285FD15B
:100E9000314948780122002103F066FF01203249E0
:100EA00008603249C1F880020020324908704FE0E2
:100EB0002948807803284BD128480078022803D09D
:100EC00026480078032843D105200BF01CF825485C
:100ED000006801283CD1002400251F4840780128E3
:100EE0000BD11D4800E036E0D0F888001C49496865
:100EF00008601948D0F890500BE01748407840B986
:100F00001548D0F830011649496808601248D0F8F1
:100F10003851E5B1012019490860FA20B5FBF0F01D
:100F2000441E483C0020104908601049C1F8800266
:100F300000210F48817001200E4908700E4800887A
:100F400040F001000C490880204600F0B9F800BFCD
:100F5000012000F059F870BD40000020B8010020C9
:100F6000980200200082404280024042000042423B
:100F70007C020020D402002000040040E401002094
:100F800010B51B48006800F4005080B364200AF0DC
:100F90004DF9184800681849D1F8381288420DD028
:100FA00016480078401C154908701548007890B123
:100FB00013480078401E124908700CE01048007871
:100FC000401C0F4908700D48007820B10B4800788C
:100FD000401E0A4908700B48408910B90120094990
:100FE00048810348006840F400500149086010BD82
:100FF000143C01403482404200804042DC02002028
:10100000DD020020C0060020014908607047000092
:10101000143C014001460020034A12680A400AB10C
:10102000012000E000207047143C014000212349CA
:101030008279002A3AD00A46126803689A430B461E
:101040001A600A1D126803689A430B1D1A60027920
:1010500011440A6803681A430A60184A0832126881
:1010600003689A43154B08331A601A1D1268036807
:101070009A43124B0C331A604279102A0ED11A1F70
:10108000126803681A430D4B08331A601A1D126860
:1010900003681A43094B0C331A600DE00749427983
:1010A00011440A6803681A430A6005E00279114492
:1010B0000A6803689A430A6070470000003C0140D8
:1010C00070B5044600252848007840B9274A526880
:1010D0001168274A5078012203F046FE23E0224897
:1010E0000078012809D1214A526812685142204AE9
:1010F0005078012203F038FE15E01B4800780228E2
:1011000008D11A4A52681168194A5078012203F02E
:101110002BFE08E0154A526812685142144A507872
:10112000012203F021FE10480078012801DC651C33
:1011300001E0601C45080F48056000200D49083992
:1011400008604FF6FE700B491C39088009482C389E
:10115000008840F0010007492C3908800120064929
:1011600008600649086070BDB801002098020020A0
:10117000400000202C0C004084824042C802002025
:1011800051B18200A2F1C042126842F00103820014
:10119000A2F1C042136009E08200A2F1C0421268CD
:1011A000034B1A408300A3F1C0431A60704700004C
:1011B000FEFF0F0030B50021002200230468A400C8
:1011C000A4F1C0442168424C2140D0E901452C43A0
:1011D000C5682C4305692C4345692C4385692C431C
:1011E000C5692C43056A2C43456A2C43856A2C4308
:1011F000C56A2C43056B2C4321430468A400A4F169
:10120000C04421608468082C0BD10468A400A4F1B8
:10121000C044246844F040050468A400A4F1C0441C
:1012200025600468641CA400A4F1C044226802F094
:101230004042446B2468456B6D6844EA0514456B75
:10124000AD6844EA0524456BAD8944EA0544456B25
:101250002D8A44EA0554456B2D7D44EA0564456BAF
:10126000AD692C4322430468641CA400A4F1C0446B
:101270002260C46AB4F5804F20D10468A400A4F1B0
:10128000C044D4F80431134C2340846B2468856B2C
:101290006D6844EA0514856BAD6844EA0524856BE6
:1012A000AD8944EA0544856BAD692C43234304684A
:1012B000A400A4F1C044C4F8043107E06FF0704505
:1012C0000468A400A4F1C044C4F8045130BD000077
:1012D0008000F7FF0000F0CFF0B50A4600210023A0
:1012E000002400BF3DE0012505FA01F3156805EA79
:1012F00003049C4234D105684F000326BE40B54329
:10130000056015794E00B5400668354305601579CE
:10131000012D02D01579022D16D185684F000326C4
:10132000BE40B543856055794E00B540866835436B
:101330008560456801268E40B543456045689679CD
:101340008E40B6B235434560C5684F000326BE40A7
:10135000B543C560D5794E00B540C6683543C56014
:10136000491C1029BFD3F0BDF0B5002300244D0760
:10137000ED0E02FA05F3CE1000F1200555F82650C7
:101380004E07F70E0F26BE40B543CF1000F12006E2
:1013900046F82750CE1000F1200555F8265045EAB2
:1013A0000304CE1000F1200545F82640F0BD41832E
:1013B000704701837047000010B516220749E620E8
:1013C000FFF7A6FB0548D0F81200401C0349C1F8FE
:1013D00012001622E620FFF7D6FB10BD40030020C6
:1013E00000BFFEE710B500200F4908600F480068F5
:1013F00020F440000D4908600846006840F4800071
:10140000086000200A49C1F8AC02042009F00EFF70
:10141000012005490860042009F008FF0020044964
:10142000C1F8A80210BD0000A8824042000402409A
:10143000008040421CB50121022004F0BFFD4FF4A2
:101440004060009001208DF804008DF80600032014
:101450008DF8050001208DF8070069460448FFF764
:101460003BFF0120034908600349C1F8A8021CBDE5
:1014700000040240AC8240420080404210B500208F
:101480000F4908600F48006820F440000D490860CB
:101490000846006840F48000086001200A49C1F84D
:1014A000AC02042009F0C2FE0120054908600420B6
:1014B00009F0BCFE00200449C1F8A80210BD0000DC
:1014C000A8824042000402400080404270B50546B8
:1014D00000241448006820F44000124908600026E7
:1014E00016E0002010490860042009F09FFE01204A
:1014F0000E49C1F8A8026006040E0B487C3800684B
:1015000008B1601CC4B2022009F090FE701CC6B283
:10151000082EE6DB15B9FFF7B1FF01E0FFF762FF28
:10152000204670BD00040240A88240420080404234
:1015300070B504461548006820F44000134908605F
:101540000846006840F480000860002010490860E8
:10155000002517E0E0090E49091D08606006040E29
:10156000042009F063FE01200A49C1F8A802042002
:1015700009F05CFE002006490860042009F056FED0
:10158000681CC5B2082DE5DB70BD000000040240F8
:10159000A88240420080404210B50F48006820F405
:1015A00040000D4908600846006840F4800008606B
:1015B00001200A4908600A49C1F8A802082009F078
:1015C00035FE002005490860082009F02FFE0020A4
:1015D0000349C1F8A80210BD00040240AC82404299
:1015E0000080404210B50F48006820F440000D49CB
:1015F00008600846006840F48000086000200A493E
:1016000008600A49C1F8AC02082009F00FFE012069
:1016100005490860082009F009FE01200349C1F8C6
:10162000AC0210BD00040240A8824042008040424B
:1016300010B500241248006820F4400010490860EA
:10164000012010490860022009F0F0FD01200E4938
:10165000C1F8A802022009F0E9FD07E0601CC4B24D
:10166000FA2C03DDFFF7BEFF012010BD05488038CE
:1016700000680028F2D10349091F086000BFF4E7A1
:1016800000040240AC824042008040421CB501216F
:10169000084604F093FC0121022004F08FFC012194
:1016A000022004F08BFC0121082004F087FC0121BA
:1016B000102004F083FC0121202004F07FFC012194
:1016C000402004F07BFC48F24000009001208DF89F
:1016D000040000208DF8060003208DF8050001208D
:1016E0008DF8070069465948FFF7F6FD4020009045
:1016F00001208DF8040000208DF8060003208DF8ED
:10170000050001208DF8070069465148FFF7E4FD08
:101710000820009069464F48FFF7DEFD4FF40C406B
:10172000009069464C48FFF7D7FD0C214748FFF76A
:1017300040FE4FF400414548FFF739FE41F60110E5
:10174000009001208DF8040000208DF80600032091
:101750008DF8050001208DF8070069463B48FFF72A
:10176000BBFD4FF43070009001208DF80400002084
:101770008DF8060003208DF8050001208DF8070084
:1017800069463648FFF7A8FD43F24C00009001205F
:101790008DF8040000208DF8060003208DF8050068
:1017A00001208DF8070069462D48FFF795FD4F2071
:1017B000009001208DF8040000208DF80600032021
:1017C0008DF8050001208DF8070069462048FFF7D5
:1017D00083FD012000908DF8040000208DF80600A4
:1017E00003208DF8050001208DF80700694619488F
:1017F000FFF772FD00201B4908601B49C1F88002F9
:101800001849091D0860012018490860091D086071
:10181000091D0860091D0860154908601549086020
:10182000144910310860091F08600E490C31086026
:101830000F492C390860091D08600D491C390860E2
:101840000B49091F08600C4908601CBD00000240DC
:101850000010024000140240001802400004024040
:10186000000C024098824042000040428002424206
:10187000B4824142A0024042808242424CF6CC40B7
:101880000149086070470000003000404AF6AA2075
:10189000014908607047000000300040014948607D
:1018A0007047000000300040014988607047000028
:1018B00000300040014908607047000000300040DF
:1018C0002DE9FC47002700200090019080468146CA
:1018D000002400254FF4A06003F028FA00F02CFA51
:1018E0004FF47A61052008F0F7FEFFF7CFFE4FF4C2
:1018F000E13008F01FFE84A008F000FF834808F0E4
:10190000FDFE83A008F0FAFE08F0E2FE042009F0D4
:10191000AFFC09F009FD01F0B3FA4FF4E13180A00A
:1019200008F0ECFE6420FFF72FFA08F0D1FE082043
:101930008649088086A008F0E1FE8CA008F0DEFE53
:101940004FF49670FFF720FA08F0C2FE01F0C8F9D4
:1019500091A008F0D3FEFFF74FF993A008F0CEFE58
:10196000FFF72AFD9448D0F8121094A008F0C6FEA4
:1019700009F06AFD08F0ACFEFFF75CF994A008F0EE
:10198000BDFE04F021FC00210320FFF71CF894A009
:1019900008F0B4FEFFF798F99CA008F0AFFE08F03D
:1019A00097FE05F0EDFF06F063F89DA008F0A6FE97
:1019B000002003F05BF905F00BFC08F089FE00F055
:1019C0003BFB08F085FE9DA008F098FE4FF41670D2
:1019D000FFF7DAF908F07CFE00F050FC9B488188A4
:1019E0009BA008F08BFE4FF4FA70FFF7CDF908F0DA
:1019F0006FFEFFF789F89DA008F080FE0AF020FA3C
:101A000008F066FE3220FFF7BFF902F0C9F89CA08B
:101A100008F074FE08F05CFE07F0E6FD08F058FEE2
:101A200040F2E73453252946204605F045FF98A0AB
:101A300008F064FE2A4621469AA008F05FFE601C6A
:101A4000691C10FB01F090FBF1F631469BA008F0F9
:101A500055FE08F03DFE142142F20F7005F0FEFE27
:101A600042F2CF01601C05F0CBFE3220FFF78CF96B
:101A700008F02EFE0020984908609848007818B1B8
:101A800096480078012802D105F07AFF01E005F0C0
:101A9000B3FF08F01DFE0020914908600120914924
:101AA000C1F880028E49091D086000208E49086037
:101AB000091D0860091D0860091D08608B49086040
:101AC0008B4908608A4910310860091F0860844901
:101AD0000C31086085492C390860091D086083496C
:101AE0001C3908608149091F08607B49303908604A
:101AF0000123022203217FA008F000FE84A008F049
:101B0000FDFDBDE8FC8700000D0A000000D70008BD
:101B10004D4355205374617274210D0A000000007A
:101B200044656267755F5561727420696E697420DF
:101B30004F4B21206261756420726174653D25649C
:101B4000206269742F730D0A0D0A000018140240F8
:101B5000416E676C6F6720706F7765722068617384
:101B6000206F70656E210D0A0000000057616974D6
:101B700020666F7220616E616C6F6720706F776591
:101B80007220746F2073746162696C697A652E2E9D
:101B90002E2E2E2E210D0A004C45445F496E69748D
:101BA000204F4B210D0A0000426565705F496E6948
:101BB00074204F4B210D0A00400300204D43555F18
:101BC000504F525F54696D65733A25640D0A0000E9
:101BD00042746E5F496E6974204F4B210D0A0000FC
:101BE0004144353534325F496E6974204F4B2C5374
:101BF000657420414435353432204F7574707574E6
:101C000020746F207A65726F210D0A00436F64653E
:101C1000635F496E6974204F4B210D0A000000007C
:101C2000547269676765724578494E31325F496E13
:101C30006974204F4B210D0A000000005265736546
:101C400074204C4344210D0A000000000042002093
:101C50004C4344204F4B21204C43444445565F495C
:101C6000443D307825780D0A00000000415432349C
:101C70004358585F496E6974204F4B210D0A00008C
:101C800047657420506172204F4B0D0A0000000020
:101C9000496E69742054696D657236204F4B210D71
:101CA0000A00000054696D657236204152523D258C
:101CB000642C5053433D25640D0A000054696D6542
:101CC0007236204F766572666C6F775F74696D65EA
:101CD0003D256475730D0A00B0824242B8010020B0
:101CE000988240420000404280024242B482414217
:101CF000A0024042736F6674776172655F766572A9
:101D000073696F6E3A25642E25642E25640D0A00D2
:101D1000486172647761726520696E6974204F4B07
:101D200021205379732072756E6E696E672E2E2E88
:101D30002E2E2E0D0A0D0A0010B5104800684FF423
:101D40007A71B0FBF1F4601EB0F1807F00D30FE038
:101D5000601E4FF0E02148610F214FF0FF3002F08C
:101D6000EFFF00204FF0E02188610720086100BFED
:101D70000021481E02F0E4FF10BD000028030020EF
:101D80000146062935DA0020A94A10600120A94A37
:101D9000C2F89C02A64A08321060121D1060121D83
:101DA0001060A44AC2F8AC02A1489838006808B98B
:101DB000002070479E489438006808B90120F8E771
:101DC0009B489038006808B90220F2E798488C38A0
:101DD000006808B90320ECE795488838006808B91E
:101DE0000420E6E7924884380068002873D1052073
:101DF000DFE70C2936DA01208D4A106000208D4A79
:101E0000C2F89C0201208A4A08321060121D10603C
:101E1000121D1060874AC2F8AC02854898380068E5
:101E200008B90620C5E782489438006808B9072039
:101E3000BFE77F489038006808B90820B9E77C48B8
:101E40008C38006808B90920B3E7794888380068F9
:101E500008B90A20ADE77648843800680028C5D163
:101E60000B20A6E7122937DA0120714A1060714A67
:101E7000C2F89C0200206E4A083210600120121D38
:101E80001060121D10606B4AC2F8AC0268489838A6
:101E9000006808B90C208CE765489438006808B9D8
:101EA0000D2086E762489038006808B90E2080E768
:101EB0005F488C38006808B90F207AE75C4888389A
:101EC000006808B9102074E7594884380068002871
:101ED0008CD111206DE7A1E0182936DA0120544A8F
:101EE0001060544AC2F89C02514A08321060002027
:101EF000121D10600120121D10604E4AC2F8AC0283
:101F00004B489838006808B9122052E7484894387E
:101F1000006808B913204CE745489038006808B9B4
:101F2000142046E742488C38006808B9152040E77D
:101F30003F488838006808B916203AE73C4884389A
:101F40000068002871D1172033E71E2935DA0120F7
:101F5000374A1060374AC2F89C02354A083210608E
:101F6000121D10600020121D10600120314AC2F8BD
:101F7000AC022F489838006808B9182019E72C4897
:101F80009438006808B9192013E729489038006888
:101F900008B91A200DE726488C38006808B91B20BC
:101FA00007E723488838006808B91C2001E7204863
:101FB0008438006890BB1D20FBE6242935DA012017
:101FC0001B4A10601B4AC2F89C02194A0832106072
:101FD000121D1060121D10600020164AC2F8AC02DB
:101FE00013489838006808B91E20E2E61048943873
:101FF000006808B91F20DCE60D489038006808B971
:102000002020D6E60A488C38006808B92120D0E69E
:1020100007488838006810B92220CAE605E004485D
:102020008438006808B92320C3E6FF20C1E6000019
:1020300098024142000041421CB50121102003F0EA
:10204000BDFF2020009001208DF8040000208DF8B5
:10205000060003208DF8050001208DF80700694671
:102060001048FFF739F908F033FB20200D49488369
:10207000C820FEF789FE20200A49088308F028FBC3
:102080004FF41670FEF780FE08F022FB2020054971
:102090004883C820FEF778FE20200249088308F014
:1020A00017FB1CBD0010024070B5044600261948FD
:1020B000058808F00DFB174840884543154880887F
:1020C00046F60401884216D112488079012812D1BF
:1020D0000020104988712A2048812B208881002106
:1020E000084600F0C1FC01200A4988712B20488174
:1020F0002A20888103E00021084600F0B5FC00F0AA
:10210000DDFD002602E004480480761CAE42FAD3CE
:1021100070BD0000004200200000026010B50446BF
:1021200008F0D6FADCB900201C498871F02008803C
:102130004FF4A07048800846808841F663118842B9
:1021400028D12C20154908812B2048812A208881FC
:102150004FF4F07008804FF4487048801AE0012076
:102160000E4988714FF4A0700880F020488008461E
:10217000808841F6631188420CD12C2007490881E0
:102180002A2048812B2088814FF4F07008804FF47A
:1021900088704880002000F0EDFA10BD0042002059
:1021A00070B504460D46164608F092FA1A48808823
:1021B00041F66311884227D11748807920B9164823
:1021C0000088401E001B84B21349488900F070FD4E
:1021D000201200F067FDE0B200F064FD201200F074
:1021E00061FDE0B200F05EFD0B49888900F060FD02
:1021F000281200F057FDE8B200F054FD281200F05C
:1022000051FDE8B200F04EFD034800890349088003
:10221000881C068070BD000000420020FEFF0160A7
:102220002DE9F05F05460E4617469846DDF828A0D2
:102230004FF0000B08F04CFA781B401C1FFA80FB93
:10224000344615E02146284600F00EFC00F036FD2D
:102250004FF0000906E00848A0F800A009F10100CD
:102260001FFA80F9D945F6DB08F032FA601C84B217
:102270004445E7DDBDE8F09F000002602DE9F04134
:10228000A2B0002500260027A8460121182003F04F
:1022900095FE0121084603F0A1FE4CF6B370209094
:1022A00002208DF8840000208DF8860003208DF830
:1022B000850001208DF8870020A9FB48FFF70CF866
:1022C0004FF68070209002208DF8840000208DF859
:1022D000860003208DF8850001208DF8870020A955
:1022E000F248FEF7F9FF0C220021EF48FFF73CF817
:1022F0000C220121EC48FFF737F80C220421EA48B0
:10230000FFF732F80C220521E748FFF72DF80C22E1
:102310000821E548FFF728F80C220921E248FFF7D9
:1023200023F80C220A21E048FFF71EF80C220E21A8
:10233000DD48FFF719F80C220F21DB48FFF714F8EE
:102340000C220721D948FFF70FF80C220821D748A3
:10235000FFF70AF80C220921D448FFF705F80C22F0
:102360000A21D248FFF700F80C220B21CF48FEF7D4
:10237000FBFF0C221146CD48FEF7F6FF0C220D2183
:10238000CA48FEF7F1FF0C220E21C848FEF7ECFF09
:102390000C220F21C548FEF7E7FF0C220721C24897
:1023A000FEF7E2FF0C220B21BF48FEF7DDFF1020F5
:1023B0000A9000200B903C200C9000200D900220F1
:1023C0000E9000200F901090122003900020049097
:1023D0001020059000200690079008900990119019
:1023E00012901390102014900020159017901690C2
:1023F000189019904FF480501A9000201B904FF4C1
:1024000080401C9000201D900AA81E9003A81F90D9
:1024100011A8FEF7CFFE01210020FEF7B1FE08F063
:1024200057F94FF44870FEF7AFFC08F051F900205F
:1024300000F062F99E498880084681889DA008F0D6
:102440005DF90020019002900024A12000F030FCF2
:10245000052008F0EBFE00F045F9C0B28DF804004D
:1024600000F040F9C0B28DF8050000F03BF9C0B2B1
:102470008DF8060000F036F9C0B28DF8070000F0C4
:1024800031F9C0B28DF808008FA008F037F900BF0D
:1024900006E001A8015D90A008F030F9601CC4B20C
:1024A000052CF6DB8EA008F029F9A12000F000FC35
:1024B00000F018F97E49888000F014F97C49888082
:1024C000084680884FF6FF7101EA0020784988802D
:1024D00000F008F9764989880843754988800846DC
:1024E000818874A008F00AF90A20FEF74DFC08F074
:1024F000EFF841F663106E4988800846808841F6FF
:10250000631188427ED108F0E3F8E22000F0D0FBAE
:102510001D2000F0C7FB022000F0C4FB042000F0E7
:10252000C1FB642008F082FEE02000F0C1FB012026
:1025300000F0B8FB0A20FEF727FCE02000F0B8FB13
:10254000032000F0AFFB0C20FEF71EFC012000F082
:10255000AFFB0A20FEF718FC4FF44870FEF714FC9E
:10256000E62000F0A5FB2F2000F09CFBFF2000F0F0
:1025700099FBFF2000F096FBB02000F099FB1020A3
:1025800000F090FB002000F08DFB08F0A1F8012086
:1025900000F088FB40F2DF1000F084FB012000F027
:1025A00081FB40F20F1000F07DFB002000F07AFB71
:1025B000B42000F07DFB022000F074FB40F2DF202D
:1025C00000F070FB002000F06DFB2E2000F06AFB95
:1025D000002000F067FB002000F064FB002000F00A
:1025E00061FB002000F05EFB08F072F8B62000F0FE
:1025F0005FFB012000F056FB4FF49E7000F052FB91
:10260000002000E045E000F04DFB172000F04AFB01
:10261000152000F047FB002000F044FB002000F0F4
:1026200041FBF02000F044FB032000F03BFB29209D
:1026300000F03EFBD02000F03BFB002000F032FB1E
:10264000BE2000F035FB052000F02CFBFE2000F042
:1026500029FB012000F026FB002000F023FB0020D6
:1026600000F020FB002000F01DFB08F031F8B8203E
:1026700000F01EFB032000F015FB012000F012FB10
:10268000BA2000F015FB012000F00CFB002000F048
:102690003FF80120FFF742FD42F20410FFF704FD6E
:1026A00022B0BDE8F0810000000C024000100240A2
:1026B000004200206C63646465762E69643D307866
:1026C00025780D0A000000006765745F6C63645F25
:1026D0006D6F64653A0000002030782578000000B6
:1026E0000D0A000008B5034800880090BDF80000FE
:1026F00008BD00000000026010B50446204600F04E
:10270000D7FA052008F092FDFFF7ECFF10BD00009E
:1027100070B52DED048B044607F0DAFFBE2000F003
:10272000C7FA052000F0BEFA2046FDF759FF41EC3C
:10273000190B9FED0E0B53EC102BFDF762FE41ECD5
:10274000180BFDF77AFF85B2284600F0ABFA01209E
:1027500000F0A8FAFF2000F0A5FA002000F0A2FA8D
:10276000002000F09FFABDEC048B70BD66666666C3
:10277000666604402DE9F04105460024002707F075
:10278000A7FFB848807901280BD1B648808846F663
:102790000401884205D0B348808841F6631188421D
:1027A00008D1B0488079F0B9AE48808841F663110D
:1027B000884218D1082D15D2DFE805F00406080A72
:1027C0000C0E101206250DE007250BE0042509E08C
:1027D000052507E0012505E0002503E0032501E0CC
:1027E000022500BF00BF9F48808849F241318842DE
:1027F00017D09C48808846F60401884211D0994839
:10280000808845F2103188420BD09648808845F286
:102810001051884205D09348808841F66311884260
:102820007ED1082D1CD2DFE805F00406090C0F123A
:10283000151800BF14E044F0800411E044F0400497
:102840000EE044F0C0040BE044F0200408E044F043
:10285000600405E044F0A00402E044F0E00400BF9E
:1028600000BF8048808845F21051884202D14FF461
:10287000585700E036277B48808845F2103188425F
:102880000DD07848808845F21051884207D07548AD
:10289000808841F66311884201D044F008047148F1
:1028A000808846F60401884201D144F002042146A2
:1028B000384600F00DFA6B48808841F66311884273
:1028C0001DD004F0200068B1664800886549498839
:1028D000884214DA634806884088624908800846BE
:1028E00046800CE05F4800885E494988884206DDE2
:1028F0005C48068840885B490880084646805948FD
:10290000808845F21051884254D15649488900F0D8
:10291000CFF9002000F0C6F952494989491C00E06E
:1029200077E088B200F0C4F9002000F0BBF94D490F
:102930004989891C88B200F0BBF94A490988491EB7
:10294000C1F30F2000F0AEF946494989C91C88B28D
:1029500000F0AEF943490978491EC8B200F0A2F967
:102960004049888900F0A4F9002000F09BF93D4916
:102970008989491C88B200F09BF9002000F092F987
:1029800038498989891C88B200F092F9354949880B
:10299000491EC1F30F2000F085F932498989C91C0D
:1029A00088B200F085F92F498978491EC8B200F035
:1029B00079F955E02B49488900F07AF9002000F0B8
:1029C00071F9002000F06EF926490988491EC1F30B
:1029D0000F2000F067F923490978491EC8B200F0BA
:1029E00061F92049888900F063F9002000F05AF964
:1029F000002000F057F91B494988491EC1F30F20F8
:102A000000F050F917498978491EC8B200F04AF918
:102A100026E0082D1CD2DFE805F004070A0D0F128E
:102A2000151844F0300413E044F0100410E044F0B2
:102A300020040DE000BF0BE044F0380408E044F04F
:102A4000280405E044F0180402E044F0080400BF44
:102A500000BF032744F480542146384600F038F97B
:102A6000BDE8F0810042002070B504460D462848BC
:102A7000808841F66311884248D107F029FE244836
:102A80008079A8B922480088401E001B84B22049E2
:102A9000488900F00DF9201200F004F9E0B200F0CE
:102AA00001F9201200F0FEF8E0B200F0FBF816E0A9
:102AB0001749488900F0FCF8201200F0F3F8E0B262
:102AC00000F0F0F812490988491EC1F30F2000F008
:102AD000E9F80F490978491EC8B200F0E3F80C493B
:102AE000888900F0E5F8281200F0DCF8E8B200F080
:102AF000D9F807494988491EC1F30F2000F0D2F8E0
:102B000003498978491EC8B200F0CCF870BD0000B6
:102B1000004200202DE9F84F80460E4617461C461D
:102B2000B3462046E31704EB5373DB1021464FEA0C
:102B3000E47C04EB5C7C4FEAEC0CA4EBCC0CBCF129
:102B4000000F02D04FF0010C01E04FF0000C634485
:102B5000224604EBD27C4FEA6C0C03FB0CF3DBB295
:102B6000009307F0B5FDA7F12000C7B2002554E09F
:102B70000C2C07D107EB47002A4901EB800010F825
:102B8000059013E0102C05D1274800EB071010F832
:102B900005900BE0182C07D107EBC700234901EB88
:102BA000800010F8059001E0BDE8F88F4FF0000AB2
:102BB0002DE009F0800028B1314640460C9AFFF71D
:102BC000EFFA06E00A9820B9314640460B9AFFF723
:102BD000E7FA4FEA49604FEA1069701C86B2144860
:102BE0004088B04200DCDFE7A6EB0B00A0420AD130
:102BF0005E4608F101001FFA80F80D480088404544
:102C000000DCD1E706E00AF1010000F0FF0ABAF1AA
:102C1000080FCEDB00BF681CC5B200988542A7DB59
:102C200000BFC1E740BF0008B4C30008A4C9000842
:102C3000004200202DE9FF5F04460D46904699466C
:102C40000EAE96E8C00CE0B2039007F041FD08EB31
:102C500004001FFA80F809EB05001FFA80F917E05D
:102C6000444502DB039CA81985B24D4500DB15E005
:102C700000208DE8010C3A78334629462046FFF7BC
:102C800049FF304606EBD07104EB61018CB27F1C2A
:102C900038787E2802DC38782028E1DA00BFBDE8E9
:102CA000FF9F00000149088070470000000002609B
:102CB0000149088070470000FEFF0160024800895A
:102CC000024908807047000000420020FEFF0160BA
:102CD000024A1080921C118070470000FEFF0160C4
:102CE0001CB50121084603F069F90121022003F017
:102CF00065F90121082003F061F90121102003F09A
:102D00005DF941F60110009001208DF804000020CB
:102D10008DF8060003208DF8050001208DF80700CE
:102D200069461748FEF7D8FA4FF4307000906946AC
:102D30001448FEF7D1FA43F24C000090694612485D
:102D4000FEF7CAFA1F20009069461048FEF7C4FA41
:102D500041F601110A48FEF72CFB4FF43071094887
:102D6000FEF727FB43F24C010748FEF722FB1F2129
:102D70000648FEF71EFB0020054908601CBD000048
:102D80000000024000040240000C0240001002401B
:102D9000988240420020064908600649C1F8B00206
:102DA00003490C3108600449C1F8A40270470000CF
:102DB000A0024042000040420080404200200649FC
:102DC00008600649C1F88C020349103108600349C4
:102DD000C1F8B00270470000888241420080414241
:102DE00024480078022809D10120234908604FF4C3
:102DF000FA7020494880012008700BE01D480078D7
:102E0000012807D11B48408820B900201A490860D2
:102E10001849087017480079022806D14FF4FA7053
:102E20001449C8800120087109E01248007901287E
:102E300005D11048C08810B900200E4908710D480E
:102E4000007A022809D101200C4908604FF4FA7079
:102E500008494881012008720BE00648007A0128E1
:102E600007D10448408920B900200449086001497D
:102E700008727047D00600208C024242B482414260
:102E800010B57B2003F078F910B118A007F036FCDC
:102E90007A2003F071F910B119A007F02FFC7C2003
:102EA00003F06AF910B11BA007F028FC7D2003F0A5
:102EB00063F910B11CA007F021FC7E2003F05CF93F
:102EC00010B11EA007F01AFC7F2003F055F910B1D5
:102ED0001FA007F013FC792003F04EF910B121A0D8
:102EE00007F00CFC03F0CAF810BD00005243435F2A
:102EF000464C41475F504F525253540D0A00000058
:102F00005243435F464C41475F50494E5253540D24
:102F10000A0000005243435F464C41475F5346540A
:102F20005253540D0A0000005243435F464C414740
:102F30005F495744475253540D0A00005243435FC0
:102F4000464C41475F575744475253540D0A0000BF
:102F50005243435F464C41475F4C50575252535483
:102F60000D0A00005243435F464C41475F424F52B7
:102F70005253540D0A00000070B5002500240026AD
:102F800008F0E4F80546002D55D0681E032190FB9B
:102F9000F1F0C4B2681E90FBF1F201FB1200C6B260
:102FA000002E48D1242C46DA0B2C55D1FE488078CF
:102FB00088B9FE48007800F0020028B1FB4800788C
:102FC00020F00200F9490870F8488078012801D003
:102FD00002F00AFC70BDF4488078032810D1F34851
:102FE0008078012805D0F04948780022114601F088
:102FF000BBFE0020EE4908600121EC488170E9E742
:10300000FF20E949C87001F00BFFFFF7D7FEE74842
:103010008078012810D1E748008918B149F640406E
:10302000E4490881012007F011F80220DE4981F807
:10303000730102F0E3F83CE2DC4880780128FAD022
:10304000D94948780022114601F08EFE0020D84967
:10305000086002F0C9FBEEE70A2C26D1FF20D24916
:10306000C87001F0DDFEFFF7A9FED048807858B99E
:1030700002F0B4F8CC4948780022114601F074FE01
:103080000120CB490860D6E7C848807802280BD1D8
:10309000C948006840F00100C749086002F08EF896
:1030A0000020C3490860C6E7C5E7092C15D1BE4812
:1030B0000078012803D10220BB49087002E00120FA
:1030C000B9490870FF20B849C87001F0A9FEFFF7A0
:1030D00075FE0120B7490881ADE7182C17D1FF20F4
:1030E000B149C87001F09CFEFFF768FEAE488078D9
:1030F0000028A0D1012006F0A9FF0220AA4981F8EA
:10310000730102F07BF80220AC49087093E7042CAD
:1031100076D1A64880780128FAD1A448007800F03A
:10312000020028B1A148007820F002009F490870F1
:103130009E488078012801D002F056FB9A484078DA
:1031400008B9012000E000209749487002209B49FF
:103150000871FF209449C870FFF71CFEFFF72EFE90
:103160000020914981F8700100218F4880F8721188
:103170004078012850D19248407820F001009049D1
:1031800048700846407840F001004870864890F842
:10319000A800854988710846807988708948007838
:1031A000894908708748801C026841687E488030E1
:1031B000C0E904218038807830B101280CD0022881
:1031C00014D0032826D11CE07748007A764948714C
:1031D00001207E4908601EE0734890F83000724973
:1031E0004871012079491031086014E06E4890F868
:1031F00058006D494871012074490C3108600AE09B
:103200006CE0694890F88000674948710120704976
:10321000086000E000BF4DE06948407820F0010000
:1032200067494870002048705F4880795E4981F89E
:10323000A800084690F8A800887062484078624963
:10324000087060480A30016842686248C0E90412A8
:103250005548807830B101280DD0022815D00328B8
:1032600026D11CE0504890F8B0004F494871012029
:10327000564908601DE04C4890F8D8004A4948710A
:10328000012052491031086013E0474890F80001CE
:103290004549487101204D490C31086009E0424818
:1032A00090F828014049487101204949086000E030
:1032B00000BF00BF4248407800F001004049097853
:1032C00001F00101884202D0012003F0C1FE01207B
:1032D000414981F8BA0137490881ACE61F2C61D118
:1032E0003248807801285DD13C4908603648007832
:1032F000401C3549087008460078042801DB00208E
:1033000008703148017836A007F0F8F92E480078A7
:1033100018B12D480078012802D104F031FB01E0FA
:1033200004F06AFB20484078012804D12648007840
:103330002449087003E02448007822494870162286
:103340002049E620FDF71FFC1F480078022803D023
:103350001D480078032850D101201349C87001F599
:10336000A870D0E9043044F620629A1A70F1000087
:1033700040D244F62060002201F5A871C1E90402A0
:10338000D1E90401084AD2F854210832064BDB780F
:1033900002EBC30203C2FF200349C87001F040FDE5
:1033A000012025E033E00000400000207C020020E6
:1033B00084024242C0060020003C0140D0060020AA
:1033C000E001002040030020B8010020A00240429C
:1033D000A48240426801002004050020B4824142DA
:1033E000576176655F747970653D25640D0A00004C
:1033F00006F02CFEFF20F549C870F54842780178A8
:10340000F4A007F07BF90020FE490860B7E39CBBFD
:10341000FD488078012803D0EC488078032849D102
:1034200002F0E2F9F94800884FF6FE710840F749CA
:1034300008800020F549243108600120F449086023
:10344000F449C1F88002FFF7B9FCE048807808B37E
:10345000FFF7A0FC0120EE49203108600020DB4985
:10346000887008464078012807D10846807888711E
:103470000846007A487109E01CE0D4488078D349B6
:1034800081F8A800084690F8B00048710120E24990
:1034900081F8BA010020E14908600120E049C1F843
:1034A0008002FF20C949C87001F0BAFC0120DD4943
:1034B000088164E3022C59D1D3488078012803D0D5
:1034C000C2488078032851D102F08EF90121CE48FC
:1034D00081700020D04981F8BA01CC4800884FF6AD
:1034E000FE710840C94908800020C849243108609D
:1034F0000120C7490860C749C1F88002FFF75EFC98
:10350000B2488078022821D0FFF744FC0120C0494E
:103510002C3108600220AD498870084640780128A7
:1035200007D1084680788871084690F8580048719D
:1035300008E0A6488078A54981F8A800084690F8D8
:10354000000148710120B44981F8BA010020B34953
:1035500008600120B249C1F88002FF209B49C87071
:1035600001F05EFC0120AF49088108E3012C58D12D
:10357000A5488078012803D094488078032850D14A
:1035800002F032F90121A04881700020A24981F89F
:10359000BA019E4800884FF6FE7108409B4908809A
:1035A00000209A492431086001209949086099490E
:1035B000C1F88002FFF702FC84488078012820D0FF
:1035C000FFF7E8FB01209249303108607F4988709D
:1035D00008464078012807D1084680788871084657
:1035E00090F83000487108E078488078774981F891
:1035F000A800084690F8D80048710120864981F853
:10360000BA0100208549086001208549C1F880027F
:10361000FF206E49C87001F003FC01208149088138
:10362000ADE2032C42D17848807801283ED1FFF7E3
:10363000C5FB66488078032820D0FFF7ABFB01204C
:10364000794908600320614988700846407801285C
:1036500007D1084680788871084690F88000487144
:1036600008E05A488078594981F8A800084690F83F
:10367000280148710120684981F8BA016B48007837
:1036800018B16A480078012802D104F079F901E004
:1036900004F0B2F9012061490860FF204B49C8706D
:1036A00001F0BEFB01205F49088168E2222C7CD139
:1036B00055488078012878D108F064F8434880782C
:1036C00058B142488078012807D0404880780228C5
:1036D00003D03E4880780328A2D1FFF76FFB3B4818
:1036E000C07801281DD00120464928390860374894
:1036F00090F87301022803D10120344981F8730145
:1037000001203249C870002102F072FF01202F49C8
:1037100081F8700100212D4880F8711180F8721134
:1037200092E02A48C07801283DD14048007818B17D
:103730003E48007801281BD13D48D0E9043042F2D0
:1037400010729A1A70F1000005D242F21071002036
:10375000374AC2E904103649D1E904011B4AD2F8BC
:1037600054210832194BDB7802EBC30203C21AE082
:103770002F48D0E9041044F62063C91A70F1000004
:1037800004D2194600222A48C0E904122848D0E988
:1037900004100E4AD2F8542108320C4BDB7802EBAD
:1037A000C302C2E90010094800E050E090F873013C
:1037B00001280AD10020054981F87301012006F093
:1037C00045FC0220014981F8730133E040000020EC
:1037D00040030020734164646974696F6E616C44D6
:1037E0006174612E565F576176655F747970653AD2
:1037F00025642C435F576176655F747970653A255F
:10380000640D0A00B48241427C02002000040040A2
:10381000800240420000424204050020B082424241
:1038200000004042C0060020A4824042B8010020AF
:1038300090010020FF20D349C870002081F870015A
:103840000021D04880F8721101F0EAFA97E1232CA8
:1038500045D1CD488078012841D107F093FFFFF78B
:10386000ADFAC848C078E8B10120C8490860C54829
:1038700090F87301022803D10120C24981F8730135
:103880000020C049C8700021012002F0B1FE0120D3
:10389000BC4981F870010021BA4880F8711180F8A4
:1038A000721119E0B74890F8730101280AD100207D
:1038B000B44981F87301012006F0C8FB0220B14928
:1038C00081F87301FF20AF49C870002081F87001B2
:1038D0000021AC4880F8721101F0A2FA4FE1212CCE
:1038E0006DD1A9488078012869D107F04BFFA54820
:1038F0008078012803D0A34880780228A6D1FFF75A
:103900005DFAA048C07802281ED001209F491031DE
:1039100008609C4890F87301022803D1012099495E
:1039200081F8730102209749C8700021012002F03C
:103930005FFE0120934981F870010021914880F8D1
:10394000711180F8721137E08E48C078022819D1C1
:103950008F48D0E904208F4BD21A70F1000004D2B6
:10396000194600208A4AC2E904108948D0E90410A7
:10397000844AD2F854210832824BDB7802EBC3022E
:10398000C2E900107F4890F8730101280AD1002095
:103990007C4981F87301012006F058FB0220794927
:1039A00081F87301FF207749C870002081F8700109
:1039B0000021744880F8721101F032FADFE0202C07
:1039C00068D171488078012864D107F0DBFE6D482A
:1039D000807802285DD1FFF7F1F96A48C0780328A2
:1039E0001ED00120694928310860664890F87301AB
:1039F000022803D10120634981F873010320614942
:103A0000C8700021012002F0F3FD01205D4981F81A
:103A1000700100215B4880F8711180F8721136E066
:103A20005848C078032818D15948D0E904105A4B97
:103A3000C91A70F1000004D21A4600205449C1E9A5
:103A400004205349D1E904014E4AD2F854210832E6
:103A50004C4BDB7802EBC30203C24A4890F8730177
:103A600001280AD10020474981F87301012006F09E
:103A7000EDFA0220434981F87301FF204149C870E3
:103A8000002081F8700100213E4880F8721101F099
:103A9000C7F974E0132C03D1002002F03BFE6EE066
:103AA0001D2C03D1012002F035FE68E0172C03D154
:103AB000022002F02FFE62E0112C03D1032002F05D
:103AC00029FE5CE01C2C03D1042002F023FE56E00A
:103AD000162C03D1052002F01DFE50E0102C03D15E
:103AE000062002F017FE4AE01B2C03D1072002F04B
:103AF00011FE44E0152C03D1082002F00BFE3EE03D
:103B00000F2C03D1092002F005FE38E0072C03D169
:103B10000B2002F0FFFD32E01E2C03D10C2002F03E
:103B2000F9FD2CE0192C08D1164890F8720130BB31
:103B30000121144880F8721121E00D2C1FD1FFF7EC
:103B40003DF907F01FFEFF200E49C87001F068F92B
:103B500000200C4981F8700100210A4880F8721198
:103B600090F8730101280AD10020064981F87301F9
:103B7000012006F06BFA0220024981F8730100BFB0
:103B8000FFF728BA400000207C02002088824142D2
:103B900090010020400D0300A086010000BFFEE759
:103BA00070B5DE22FC494FF40070FCF7B1FFFA4813
:103BB00000787E2804D1F84890F8DD0045287DD0B3
:103BC000F6A006F09BFD0020FE4908700120487019
:103BD00003F03EFA012007F015FBFB48007A40F0A5
:103BE0000B00F9490872084690F8300040F00B00CD
:103BF00081F83000084690F8580040F00B0081F83A
:103C00005800084690F8800040F00B0081F88000D2
:103C1000084690F8B00040F01A0081F8B00008465D
:103C200090F8D80040F01A0081F8D800084690F8C3
:103C3000000140F01A0081F80001084690F82801C0
:103C400040F01A0081F82801FF2088700846007AA9
:103C500048717E20D049087001204870D9484078CA
:103C600000F0010088700020C8700871D648007A02
:103C7000487100208871C871D449C74A9160D060EA
:103C8000D348002110615161CF4890F830001146AF
:103C90000876002048768876C876CC49D1611062D3
:103CA000CB48002150629162CA48D0621163C64875
:103CB00090F85800114681F8340000E008E2002036
:103CC00081F8350081F8360081F8370081F8380036
:103CD000BE480021393210605160BD480832106082
:103CE0005160BC48083210605160BB490020083266
:103CF00011605060B44890F88000A74981F85900DD
:103D0000002081F85A00B24800210A321060516048
:103D1000AD4890F8B000A04981F86300002081F818
:103D2000640081F86500A94800210B3210605160E1
:103D300041100020083211605060A34890F8D8006C
:103D4000954981F87600002081F8770081F87800A5
:103D500081F879009D490C32116050604910083299
:103D600011605060083211605060974890F800016F
:103D7000894981F89200002081F8930081F894002D
:103D800081F8950081F8960090490D3211605060DD
:103D900048100021083210605160083210605160F4
:103DA0008D48083210605160874890F828017A49A0
:103DB00081F8B700002081F8B80086490A32116006
:103DC0005060754981F8C10081F8C20081F8C300D4
:103DD00081F8C40081F8C50081F8C60081F8C700E9
:103DE00081F8C80000211032116051600832106063
:103DF00050606949C1F8D900452081F8DD00DE2214
:103E00004FF40070FCF7BFFE022074490870487040
:103E10006E490020714A921C116050600832116096
:103E2000506016226D49E620FCF7ADFE5A484079F5
:103E30006549087258488179634881725648C1794A
:103E40006148417254488168C2685F48C0E90612FF
:103E50005149086949695C4AC2E904014E48007E3B
:103E6000114681F830004C48417E104680F83210EF
:103E70004948817E104680F831104748C17E10467F
:103E800080F833104448C269016A4F48C0E91021E4
:103E90004148426A806A4C49C1E90E203E48C26AE4
:103EA000016B4948C0E912213B4890F8340046496B
:103EB00081F85800384890F83510434880F85A1077
:103EC000354890F83610404880F85910324890F83C
:103ED00037103D4880F85B102F4890F838103A486A
:103EE00080F85C102C483930016842683648C0E9D7
:103EF0001A122949413108684968334AC2E9180150
:103F000025484930016842682F48C0E91C12224800
:103F10005130016842682C48C0E91E121E4890F8D2
:103F20005900294981F880001B4890F85A1026480A
:103F300080F8811018495B3108684968224A80324C
:103F4000C2E90201144890F863001F4981F8B000EB
:103F5000114890F864101C4880F8B2100E4890F890
:103F60006510194880F8B1100B4866300268416846
:103F70001548B030C0E9042107486E300268416836
:103F80001148B030C0E90221034890F876000E498C
:103F900081F8D800004823E0560300204C6F61648C
:103FA00020706172206572726F722C736574207458
:103FB0006F2064656661756C742076616C7565212F
:103FC0000D0A0000E00100204000002080841E0057
:103FD000C0E1E40040420F0080C3C901400300205B
:103FE00090F87710FE4880F8DA10FE4890F87810C4
:103FF000FB4880F8D910FB4890F87910F84880F811
:10400000DB10F8487A3002684168F548D830C0E9DA
:104010000421F448823001684068F14AD832C2E98C
:104020000210F0488A3001684268ED48D830C0E993
:104030000612EC4890F89200E94981F80001E9483D
:1040400090F89310E64880F80211E64890F8941032
:10405000E34880F80111E34890F89510E04880F8B3
:104060000311E04890F89610DD4880F80411DD480F
:10407000973001684268DC48C0E90412D9489F3093
:1040800001684068D84AC2E90210D648A7300268E1
:104090004168D548C0E90621D248AF30016842687E
:1040A000D148C0E90812CF4890F8B700CC4981F850
:1040B0002801CC4890F8B810C94880F82911C9489F
:1040C000B93001684068C84A2832C2E90210DCE20F
:1040D000C4484078C2490870C24880784870C148D6
:1040E000C0788871BF48007981F8A800BD48407940
:1040F0000872BC488179BA488172BA48C179B84817
:104100004172B8488168C268B548C0E90612B5482E
:1041100002694169B248C0E90421B248007EB04951
:1041200081F83000AF48417EAD4880F83210AD488C
:10413000817EAB4880F83110AA48C17EA84880F83B
:104140003310A848C169026AA548C0E91012A54900
:10415000486A896AA24AC2E90E01A248C26A016B92
:104160009F48C0E912219F4890F834009C4981F88B
:1041700058009C4890F83510994880F85A10994892
:1041800090F83610964880F85910964890F83710F5
:10419000934880F85B10934890F83810904880F866
:1041A0005C1090483930016842688D48C0E91A12A5
:1041B0008C49413108684968894AC2E9180189482F
:1041C0004930016842688648C0E91C128548513070
:1041D000016842688248C0E91E12824890F859007E
:1041E0007F4981F880007F4890F85A107C4880F819
:1041F00081107C485B300268406879498031C1E9B0
:104200000220784890F86300803981F8B000754842
:1042100090F86410724880F8B210724890F86510F7
:104220006F4880F8B1106F486630016842686E4888
:104230005038C0E904126B486E30026840686A4921
:104240005039C1E90220674890F87600B03981F80A
:10425000D800644890F87710614880F8DA10614817
:1042600090F878105E4880F8D9105E4890F8791080
:104270005B4880F8DB105B487A30026841685A4836
:104280002838C0E9042157488230026840685649FE
:104290002839C1E9022053488A30016842685248EF
:1042A0002838C0E906124F4890F892004C4981F82E
:1042B00000014C4890F89310494880F80211494891
:1042C00090F89410464880F80111464890F89510EF
:1042D000434880F80311434890F89610404880F80E
:1042E000041140489730026841683F48C0E9042102
:1042F0003C489F30016842683B48C0E90212394897
:10430000A730016842683848C0E906123548AF3026
:10431000016842683448C0E90812324890F8B70092
:104320002F4981F828012F4890F8B8102C4880F8C0
:1043300029112C49B931086849682B4A2832C2E949
:1043400002012748D0E91A43224628A006F0D6F9F0
:104350002348D0E91843224632A006F0CFF920487E
:10436000D0E91C4322463DA006F0C8F91C48D0E91C
:104370001E43224647A006F0C1F9554A4523184876
:10438000183000F0FDF9534A00231548103000F0B2
:10439000F7F94F4A45231248403000F0F1F94D4AF1
:1043A00000230F48383000F0EBF94B4A09230C4842
:1043B000483000F0E5F9464A45230948683000F0E6
:1043C000DFF9444A00230648603000F0D9F9424A38
:1043D00009230348703000F0D3F9404A02237FE0FC
:1043E00040000020560300204001002055736572F4
:1043F0004F7065726174696F6E2E565F4D6F6465A4
:10440000547261696E2E506172616D5B554F5F50E1
:104410004152414D5F50554C53455D3A256C6C649B
:104420000D0A0000557365724F7065726174696F93
:104430006E2E565F4D6F6465547261696E2E5061C9
:1044400072616D5B554F5F504152414D5F414D5020
:104450004C5D3A256C6C640D0A0000005573657262
:104460004F7065726174696F6E2E565F4D6F646533
:10447000547261696E2E506172616D5B554F5F5071
:104480004152414D5F465245515D3A256C6C640D79
:104490000A000000557365724F7065726174696F30
:1044A0006E2E565F4D6F6465547261696E2E506159
:1044B00072616D5B554F5F504152414D5F445552A3
:1044C0004154494F4E5D3A256C6C640D0A00000062
:1044D00000B864D900B4C40400902F500098D0589C
:1044E000864800F04DF9864A00238448103000F0D9
:1044F00047F9844A45238148483000F041F9824A0F
:1045000000237E48403000F03BF97E4A45237B483B
:10451000703000F035F97C4A00237848683000F0AC
:104520002FF97A4A09237548783000F029F9754A3D
:1045300045237248983000F023F9734A00236F48EE
:10454000903000F01DF9714A09236C48A03000F04A
:1045500017F96F4A02236948A83000F011F96A4A36
:1045600000236648B83000F00BF96448B030D0E959
:104570000243224667A006F0C1F800207549087082
:104580005E48783840784870012002F061FDFF20D5
:104590005A497839887008464078B0B3012873D1F9
:1045A0000846807930B101280ED0022817D00328A0
:1045B0002CD11FE051487838007A50497839487139
:1045C000012006F01FFE22E04C48783890F83000B9
:1045D0004A4978394871042006F014FE17E047482C
:1045E000783890F85800454978394871072006F026
:1045F00009FE0CE04148783890F880003F4978394E
:1046000048710A2006F0FEFD01E002E000BF00BF95
:104610003AE03A48783890F8A80030B101280FD035
:10462000022818D003282CD120E03448783890F89C
:10463000B000324978394871012006F0E3FD21E0ED
:104640002E48783890F8D8002C49783948710420E1
:1046500006F0D8FD16E02948783890F8000127497F
:1046600078394871072006F0CDFD0BE023487838F3
:1046700090F828012149783948710A2006F0C2FDD6
:1046800000E000BF00BF00BF00BF16223249E62095
:10469000FCF73EFA30480078032802DD00202E495E
:1046A00008702D484078032802DD00202A49487010
:1046B00029484278017829A006F020F80F48783878
:1046C000407801280CD1244800782C4908702248F1
:1046D000801C0268416809480830C0E904210BE0E9
:1046E0001D484078254908701B480A300168426817
:1046F0000248B030C0E9041270BD0000B8000020CC
:1047000000B4C40400B864D90048E80100902F50F8
:104710000098D058526561643120557365724F70AE
:1047200065726174696F6E2E435F4D6F6465457885
:1047300074426E632E506172616D5B554F5F5041E4
:1047400052414D5F414D504C5D3A256C6C640D0AF1
:1047500000000000E001002040030020565F576188
:1047600076655F747970653A25642C435F5761768E
:10477000655F747970653A25640D0A00B801002000
:1047800010B5D0E90041141B73EB010102D20024E3
:104790000460446010BD000070B5BE4800894EF64C
:1047A000602188427EDB7E20BB490870BB480078D0
:1047B0004870BA4840788870B8488079C870B7485F
:1047C00090F8A8000871B548007A4871B348807A1B
:1047D0008871B248407AC871B048D0E90610AE4A34
:1047E0009160D060AD49D1E9040110615161AB48DD
:1047F00090F8300011460876A84890F832004876C4
:10480000A64890F831008876A44890F83300C8761E
:10481000A248D0E91010D1611062A048D0E90E1072
:10482000516290629D48D0E91210D16210639B489A
:1048300090F85800114681F83400984890F85A00D2
:1048400081F83500954890F8590081F83600934872
:1048500090F85B0081F83700904890F85C0081F890
:1048600038008E48D0E91A103932116050608B49F7
:10487000D1E918010832106051608848D0E91C1055
:1048800008321160506085496031D1E90601083273
:1048900010605160814890F880007F4981F859008C
:1048A0007E4800E0F4E090F8810081F85A007B49EE
:1048B0008031D1E902010A3210605160774890F8E6
:1048C000B000754981F86300744890F8B20081F82F
:1048D0006400724890F8B10081F865006F48B0300C
:1048E000D0E904100B32116050606C48B030D0E950
:1048F0000210083211605060684890F8D80066498C
:1049000081F87600654890F8DA0081F8770063480E
:1049100090F8D90081F87800604890F8DB0081F8C1
:1049200079005E49E031D1E902010C32106051603A
:104930005A48D830D0E90210083211605060574907
:10494000E031D1E90401083210605160534890F819
:104950000001514981F89200504890F8020181F815
:1049600093004E4890F8010181F894004B4890F86C
:10497000030181F89500494890F8040181F89600F8
:104980004749D1E902010D321060516044480838AE
:10499000D0E9021008321160506041480838D0E96F
:1049A00006100832116050603D49D1E90601083215
:1049B00010605160394890F82801374981F8B700F4
:1049C000364890F8290181F8B80035492031D1E9FD
:1049D00002010A321060516000202F4981F8C100A5
:1049E00081F8C20081F8C30081F8C40081F8C500D5
:1049F00081F8C60081F8C70081F8C800C1F8D90065
:104A0000452081F8DD0025496031D1E90243224685
:104A100024A005F073FE2149D1E9184322462FA0B6
:104A200005F06CFE1D496031D1E90443224639A0EE
:104A300005F064FE19496031D1E90643224643A0DE
:104A400005F05CFE1649D1E9024322464EA005F06E
:104A500055FE13480838D0E90243224658A005F015
:104A60004DFE0F49D1E90443224663A005F046FEFE
:104A70000B49D1E9064322466DA005F03FFEDE2238
:104A800005494FF40070FCF77EF8002001490881C9
:104A900070BD0000C006002056030020400000202A
:104AA00048010020557365724F7065726174696FBB
:104AB0006E2E565F4D6F6465547261696E2E506143
:104AC00072616D5B554F5F504152414D5F50554C87
:104AD00053455D3A256C6C640D0A00005573657290
:104AE0004F7065726174696F6E2E565F4D6F6465AD
:104AF000547261696E2E506172616D5B554F5F50EB
:104B00004152414D5F414D504C5D3A256C6C640DF6
:104B10000A000000557365724F7065726174696FA9
:104B20006E2E565F4D6F6465547261696E2E5061D2
:104B300072616D5B554F5F504152414D5F4652452A
:104B4000515D3A256C6C640D0A0000005573657266
:104B50004F7065726174696F6E2E565F4D6F64653C
:104B6000547261696E2E506172616D5B554F5F507A
:104B70004152414D5F4455524154494F4E5D3A2593
:104B80006C6C640D0A000000557365724F7065729D
:104B90006174696F6E2E435F4D6F64655472616915
:104BA0006E2E506172616D5B554F5F504152414DA9
:104BB0005F50554C53455D3A256C6C640D0A0000FE
:104BC000557365724F7065726174696F6E2E435FC5
:104BD0004D6F6465547261696E2E506172616D5BD8
:104BE000554F5F504152414D5F414D504C5D3A250C
:104BF0006C6C640D0A000000557365724F7065722D
:104C00006174696F6E2E435F4D6F646554726169A4
:104C10006E2E506172616D5B554F5F504152414D38
:104C20005F465245515D3A256C6C640D0A000000E8
:104C3000557365724F7065726174696F6E2E435F54
:104C40004D6F6465547261696E2E506172616D5B67
:104C5000554F5F504152414D5F4455524154494F69
:104C60004E5D3A256C6C640D0A00000010B50446D8
:104C70000C4951F824104A000B4951F82400002136
:104C800006F076FD094951F824200749083951F802
:104C90002400002106F06CFD012103480830015575
:104CA00010BD000028BF0008F002002038BF000837
:104CB0007047000070B5002100230F22C4781CB398
:104CC000174C246804F4E064C4F5E064C4F30721DD
:104CD000C1F10404E3B20A4144789C40E1B2847813
:104CE000144021430C07210E0E4C057861550478C1
:104CF00004F01F050124AC4005786D11AD0005F1ED
:104D0000E025C5F8004109E0047804F01F050124FE
:104D1000AC40054D0678761145F8264070BD000080
:104D20000CED00E000E400E080E100E00249014316
:104D3000024A1160704700000000FA050CED00E027
:104D400010B5002807DA0A07140E054A00F00F0311
:104D50001B1FD45403E00A07130E024A135410BD5C
:104D600018ED00E000E400E02DE9F04104460D46B6
:104D70001646012E38D1012C16D12648007801287C
:104D800008D146F2A81095FBF0F739460120FBF751
:104D90001AFE3DE046F2A81095FBF0F04742394676
:104DA0000120FBF710FE33E094BB1A48007801287D
:104DB0000BD14FF47A7095FBF0F7F81707EB5070B2
:104DC000C1100220FBF7FFFD22E04FF47A7095FB43
:104DD000F0F7F81707EB5070C010C0F1000841461B
:104DE0000220FBF7F0FD13E096B9012C04D100215D
:104DF0000120FBF7E8FD04E01CB900210220FBF7CD
:104E0000E2FD01200449086000200449C1F8940231
:104E1000BDE8F08140000020800240420080404216
:104E200010B5504800794F49C97888424ED04D4856
:104E3000007930B1012813D0022821D003283FD1B6
:104E40002EE049A1494805F069FC47A14748733065
:104E500005F064FC44A14548E63005F05FFC30E015
:104E600041A14248163805F059FC3FA13F484B305C
:104E700005F054FC3CA13D48DC3005F04FFC20E03F
:104E800039A13A48163005F049FC37A137489B3024
:104E900005F044FC34A13548F03005F03FFC10E04B
:104EA00031A132482C3005F039FC2FA12F48C330F6
:104EB00005F034FC2CA12D48FA3005F02FFC00E061
:104EC00000BF00BF2748C078264908712548C07830
:104ED00030B1012813D0022821D003283FD12EE081
:104EE00021A1224805F01AFC1FA12048733005F0CB
:104EF00015FC1DA11D48E63005F010FC30E01AA19C
:104F00001A48163805F00AFC17A118484B3005F06E
:104F100005FC15A11548DC3005F000FC20E012A1CD
:104F20001248163005F0FAFB0FA110489B3005F02F
:104F3000F5FB0DA10D48F03005F0F0FB10E00AA1E3
:104F40000A482C3005F0EAFB07A10848C33005F0F9
:104F5000E5FB05A10548FA3005F0E0FB00E000BFE5
:104F600000BF10BD4000002000000000BF05002071
:104F70002DE9FF4F87B00D4614461F46DDE9176B3C
:104F8000DDE9158ADDF85090079809287ED2DFE820
:104F900000F07D052E475E879EC7EB0004EB0900FD
:104FA00083B2E81982B2214628460096FDF738F907
:104FB0005046FBF752F908EBD871491000FB11700D
:104FC00005EB500080B2CDE90408A9EB0800CDE95B
:104FD000026BCDE9008A069000EBD07004EB600014
:104FE00081B24B463A460498FDF724FED7E004EB25
:104FF000090083B2E81982B2214628460096FDF7DF
:105000000FF904F1140291B205F1140290B24B466B
:105010003A46CDE9026BCDE9008AFDF70BFEBEE012
:1050200004EB090083B2E81982B2214628460096B3
:10503000FDF7F6F804F1140081B24B463A462846D3
:10504000CDE9026BCDE9008AFDF7F4FDA7E044F25B
:105050002820009004EB090083B2E81982B22146AF
:105060002846FDF7DDF804EB09000A3883B2E81999
:10507000283882B204F10A0081B228460096FDF772
:10508000CFF804F1140081B24B4600E086E03A46C6
:105090002846CDE9026BCDE9008AFDF7CBFD7EE025
:1050A00004EB090083B2E81982B221462846009633
:1050B000FDF7B6F804F1140081B24B463A46284693
:1050C000CDE9026BCDE9008AFDF7B4FD67E004EBA2
:1050D000090083B2E81982B2214628460096FDF7FE
:1050E0009FF8002030A11022CDE901160092039014
:1050F00004F1120291B26A1D90B24B463A46FDF796
:1051000099FD04F10A0291B205F13C0290B24B46BE
:105110003A46CDE9026BCDE9008AFDF78BFD3EE012
:1051200004EB090083B2E81982B2214628460096B2
:10513000FDF776F85046FBF790F808EBD871491068
:1051400000FB117005EB500080B2CDE9050804F1B9
:105150000A0081B24B463A46CDE9026BCDE9008A9E
:105160000598FDF767FD1AE004EB090083B2E81922
:1051700082B2214628460096FDF752F80CA0102175
:1051800004F11202CDE9026BCDE9001091B26A1D63
:1051900090B24B463A46FDF74DFD00E000BF00BF20
:1051A0000BB0BDE8F08F000054595045207C000042
:1051B000545950453A0000007047000010B50020D7
:1051C000044908600121880702F037FA00210248EB
:1051D000817010BD800240427C02002010B5012089
:1051E000044908600021800702F027FA02210248E2
:1051F000817010BD800240427C0200202DE9F04FFA
:105200002DED068B87B0F5488078002877D10446CD
:105210000546F248407801280AD1F048D0E9064511
:10522000EF49611A75F1000010D2EE4804600DE0FC
:10523000EA48407850B9E948B030D0E90445E84937
:10524000611A75F1000001D2E6480460E648007872
:1052500018B1E548007801280BD142F21071611AAB
:1052600075F1000005D2012007B0BDEC068BBDE84A
:10527000F08FDD480078022803D0DB48007803284F
:1052800007D144F62061611A75F1000001D20120B6
:10529000EAE7D548007818B1D348007801280ED144
:1052A000FA22002320462946FAF794FF401ECF49F0
:1052B000086008460068A0F11C0008600DE0FA22B2
:1052C000002320462946FAF785FF401EC74908609B
:1052D00008460068A0F1480008604FF00100C4498A
:1052E00008604FF00000C349C1F880024FF00F0082
:1052F000FBF74AFDBD480268BB48017800E00AE0C0
:10530000BDA005F0FBF90021CB488170B7480068CB
:10531000FBF7D6FE2DE2B148807801287DD1002030
:105320000446054606460746AC48407801280CD19D
:10533000AA48D0E91045D0E91267A949611A75F168
:10534000000012D2A74804600FE0A448407860B97A
:10535000A248D830D0E90445D0E90667A049611ACF
:1053600075F1000001D29F4804609F48007818B191
:105370009D480078012807D142F21071611A75F139
:10538000000001D201206FE797480078022803D07F
:1053900095480078032807D144F62061611A75F119
:1053A000000001D201205FE78D49711A77F10000FA
:1053B00001D2012058E78C48007818B18A4800785B
:1053C00001280ED1FA22002320462946FAF702FFCF
:1053D000401E8649086008460068A0F11C0008606D
:1053E0000DE0FA22002320462946FAF7F3FE401E7C
:1053F0007E49086008460068A0F1480008607B48C4
:10540000006822462B46CDE9006702908BA005F08C
:1054100075F900BF00BF00BF00E050E04FF0140975
:105420004FF47A72002330463946FAF7D3FE064627
:105430000F4630463946FBF7F4F841EC190B53ECB4
:10544000192B9FED880B51EC100BFBF74CF841EC3E
:10545000180B9FED860B53EC102B51EC180BFBF740
:1054600042F89FED840B53EC102BFAF7C4FFFBF7C7
:10547000E4F8804653EC182B80A0CDF8008005F0AE
:105480003DF95A480068404502D95848C0F80080A4
:1054900001205749086000205649C1F880020F20BA
:1054A000FBF772FC1FFA89F1404602F080F90021F7
:1054B000614881700121880702F0BFF859E147482F
:1054C00080780228FAD100210C460D460E460F4680
:1054D0000020804681464148407801280ED13F484F
:1054E000D0E91A45D0E91C67D0E91E893C49611A08
:1054F00075F1000016D23B48046013E0374840784D
:1055000080B96348D0E90445D0E906673348D0F84C
:105510002491D0F820813249611A75F1000001D23E
:10552000304804603048007818B12F4800780128CE
:1055300007D142F21071611A75F1000001D2012009
:1055400092E629480078022803D0274800780328EB
:1055500007D144F62061611A75F1000001D20120E3
:1055600082E61F49711A77F1000001D201207BE623
:105570004849B8EB010179F1000001D2012073E63E
:105580001948007818B11848007801280ED1FA227D
:10559000002320462946FAF71DFE401E13490860E5
:1055A00008460068A0F11C0008600DE0FA22002304
:1055B00020462946FAF70EFE401E0C4908600846B0
:1055C0000068A0F1480008600848CDE90489006837
:1055D00022462B46CDE9006702905DE040000020A6
:1055E000400D03000C030020B80100200003002040
:1055F000B08242420000404253494E474C4554520B
:105600004947474552204D6F64652C53575F4356B9
:105610005F4F5554505554203D20312C57617665CD
:105620005F747970653D25642C74696D355F6172B6
:10563000723D25640D0A00007C02002070756C73B9
:10564000653D256C6C646E732C667265713D256CCE
:105650006C646D687A2C74696D355F6172723D257A
:10566000640D0A00000000A2941A6D4200000000C0
:1056700000406F40000000000000F03F543D256CEA
:10568000662C74696D325F6172723D25640D0A008B
:1056900040010020A086010037A005F02FF800BFD0
:1056A00000BF00BF142006904FF47A7200233046EA
:1056B0003946FAF78FFD06460F4630463946FAF767
:1056C000B0FF41EC190B53EC192B1FED1A0B51ECE9
:1056D000100BFAF708FF41EC180B1FED1C0B53ECF5
:1056E000102B51EC180BFAF7FEFE1FED1E0B53ECBE
:1056F000102BFAF780FEFAF7A0FF82462C480068CC
:10570000504502D92A48C0F800A04FF47A70002111
:10571000A8FB002B09FB00B001FB08011046FAF7BB
:1057200080FF53EC182BFAF7DEFEFAF786FF2149CB
:1057300008600846006853EC182BCDE900A01EA0B5
:1057400004F0DCFF01202549086000202449C1F84D
:1057500080020F20FBF718FB069881B2504602F03A
:1057600026F800211F4881700121880701F065FF9C
:1057700000BF002078E5000070756C73653D256CF6
:105780006C646E732C667265713D256C6C646D681B
:105790007A2C74696D355F6172723D25642C647575
:1057A000726174696F6E3D256C6C640D0A000000B7
:1057B0000003002008030020543D256C662C74690A
:1057C0006D325F6172723D25642C747261696E5F27
:1057D00061636F756E743D25640D0A00B0824242AC
:1057E000000040427C02002010B5FBF7D9FA0021EE
:1057F0004FF0804001F021FF00204FF080414862CF
:105800000A4908600A49086001210A48817000219C
:105810000320FBF7D8F8002007490860012007495A
:10582000C1F8800200200649086010BD080300206E
:10583000040300207C020020B0824242000040426B
:10584000C80200202DE9F0472DED028B04464FF0F1
:1058500000099FED4C0AB0EE408AE06818B1E1689B
:10586000002005F05FFF48480078401C00EB8000F6
:105870004100002005F068FFE060E06820B90520E5
:10588000BDEC028BBDE8F0873F484078012829D164
:105890003D48806B20603C493831D1E904714FF4B8
:1058A0007A7200233846FAF795FC0546FAF78AFE25
:1058B00008EE100A34493831D1E902211046FAF7CE
:1058C00081FE00EE100A20EE080ADFED300A20EE1D
:1058D000200ADFED2F0A80EE201ABCEEC10A10EE7E
:1058E000109A29E02848D0F8E00020602649E031ED
:1058F000D1E904514FF47A7200232846FAF76AFC82
:105900000746FAF75FFE08EE100A1F49E031D1E9B9
:1059100002211046FAF756FE00EE100A20EE080AA1
:10592000DFED1A0A20EE200ADFED190A80EE201AB8
:10593000BCEEC10A10EE109A206808B901209FE75A
:10594000B5EEC08AF1EE10FA01D1022098E7B9F164
:10595000000F01D1032093E7E068DFED0E0A68EE47
:10596000200AB0EE600A00EE909AF8EE600A00F0AD
:10597000D1F84FF6FF70E16808600120A060606018
:1059800000207DE700000000400000200050434759
:10599000286B6E4E0000C8422DE9F0412DED028BC0
:1059A0000446002008EE100A9FED540AF0EE408AEB
:1059B000E06818B1E168002005F0B4FE50480078B6
:1059C00000EB80004100002005F0BEFEE060E068D2
:1059D00020B90520BDEC028BBDE8F0814848407835
:1059E000012803D146480069206003E04448D0F80C
:1059F000B8002060206808B90120EBE79FED410A5C
:105A0000F0EE408A4CF2503008EE100AE068F8EEF2
:105A1000480AB0EE680A00F07DF83948407801285D
:105A200020D137491031D1E902514FF47A72002365
:105A30002846FAF7CFFB0746FAF7C4FD00EE100A36
:105A40009FED311AC8EE810A9FED301AC0EE811A1F
:105A500020EE210ADFED2C0A80EE201A2C4880ED82
:105A6000001A1FE02649B831D1E902514FF47A7289
:105A700000232846FAF7AEFB0746FAF7A3FD00EE2F
:105A8000100A9FED211AC8EE810A9FED201AC0EE80
:105A9000811A20EE210ADFED1C0A80EE201A1C4834
:105AA00080ED001A1A4890ED000ABCEEC00A10EE14
:105AB000100AE168086012480078022812D1E168F3
:105AC00001F10A00F8EE480AB0EE680A00F022F888
:105AD0000F4890ED000ABCEEC00A10EE100AE16813
