:020000040800F2
:1000000088460020B10100083D480008851300081B
:10001000FD3B0008690C00084FA10008000000002B
:100020000000000000000000000000004560000823
:10003000290D000800000000454D0008AD6D0008C6
:10004000CB010008CB010008CB010008CB01000860
:10005000CB010008CB010008850D0008CB0100088A
:10006000CB010008CB010008CB010008CB01000840
:10007000CB010008CB010008CB010008CB01000830
:10008000CB010008CB010008CB010008CB01000820
:10009000CB010008CB010008CB010008CB01000810
:1000A000CB010008CB010008CB010008CB01000800
:1000B0008D6E0008E56E0008CB010008CB0100083A
:1000C000CB010008CB010008CB010008CB010008E0
:1000D000CB010008CB010008CB010008CB010008D0
:1000E000250F0008CB010008CB010008CB01000858
:1000F000CB010008CB010008CB010008CB010008B0
:10010000CB010008CB010008C56F0008CB01000837
:10011000CB010008CB01000881710008CB01000869
:10012000CB010008CB010008CB010008CB0100087F
:10013000CB010008CB010008CB010008CB0100086F
:10014000CB010008CB010008CB010008CB0100085F
:10015000CB010008CB010008CB010008099F000873
:10016000CB010008CB010008CB010008CB0100083F
:10017000CB010008CB010008CB010008CB0100082F
:10018000CB010008CB010008DFF810D000F0CEFB57
:1001900000480047CDB00008AFF30080884600203B
:1001A00030BF72B6704762B6704780F308887047F8
:1001B0000648804706480047FEE7FEE7FEE7FEE701
:1001C000FEE7FEE7FEE7FEE7FEE7FEE7256E000836
:1001D000890100082DE9F05F0546002092469B4604
:1001E00088460646814640241BE02846414647464D
:1001F000224600F064FA53465A46C01A914110D381
:1002000011461846224600F04BFA2D1A67EB0108FA
:100210004F4622460120002100F042FA17EB000968
:100220004E41201EA4F10104DFDC484631462A4637
:100230004346BDE8F09FD2B201E000F8012B491E11
:10024000FBD270470022F6E710B513460A46044673
:100250001946FFF7F0FF204610BD421C10F8011BA5
:100260000029FBD1801A704710B5002200E0521C13
:10027000835C8C5CA34201D1002BF8D1D8B2E1B2EF
:10028000401A10BD034611F8012B00F8012B002A7B
:10029000F9D1184670472DE9FE4F804681EA0300E8
:1002A000C00F0C46009021F0004123F00045B8EB50
:1002B0000200A94105D24046214690461C460B4605
:1002C000024623F00040104347D0270DC7F30A0031
:1002D000C3F30A510290401A019040286BDAC3F32D
:1002E000130040F4801B0098924620B10023D2EB0B
:1002F000030A63EB0B0B01985946C0F140025046CC
:1003000000F0CEF906460D4650465946019A00F0D7
:10031000E6F910EB08006141002487EA115284EAF3
:10032000E7731A4340D0009A62B3019A012A4FEA58
:10033000075215DC001B61EB02014FF0004202EA9C
:100340000752CDE90042001C41F5801132462B4690
:1003500000F01DFA03B0BDE8F08F40462146F9E7F2
:10036000001B61EB0201001C41F5801300185B418A
:100370002018A2F5001747EB030140EAD570B61923
:100380006D4111E06D084FEA360645EAC0754FEA47
:100390000752001B61EB0201001C41F58011490866
:1003A0004FEA30000019514132462B4603B0BDE8F8
:1003B000F04F00F0DDB90098012240000023D0EB9F
:1003C000020263EBE073009821464FEAE074B8EB59
:1003D000000061EB0401E9E783F000435BE781F093
:1003E000004158E72DE9FE4F81EA030404F0004480
:1003F00021F0004100944FF0000B23F0004350EA3D
:1004000001045ED052EA03045BD0C3F30A54C1F383
:100410000A552C44A4F2F3340194A0FB0254C1F316
:10042000130141F48011C3F3130343F4801301FB60
:10043000024400FB034E840A970A44EA815447EAC7
:100440008357A4FB076802958D0A05FB07854FEAD1
:10045000932C04FB0C542705029D4FEA065847EAEB
:100460001637B5EB08056EEB070C870E920E47EAC0
:10047000811742EA8312A7FB0201B6EB0B0164EB82
:1004800000042B0D43EA0C335E1844EB1C50DA4693
:100490005146E7FB0201C5F313044FEA0B3343EA6D
:1004A00014534FEA0432019C43EA0603A4F10C04FE
:1004B0000294009CCDE900B400F069F903B0BDE8F6
:1004C000F08F00200146F9E72DE9F04D81EA0304A1
:1004D00004F0004B21F0004514464FF0000A23F0D1
:1004E000004150EA050220D054EA01021DD0C5F3B4
:1004F0000A570246C5F31303C1F31300C1F30A56AA
:1005000040F4801543F48013A7EB0608101BD64671
:1005100008F2FD3873EB050002D308F1010801E091
:1005200092185B41B8F1000F03DA00200146BDE8E4
:10053000F08D00204FF48011064684460EE0171B14
:1005400073EB050705D3121B63EB050306434CEA67
:10055000010C49084FEA300092185B4150EA01074C
:10056000EDD152EA030012D082EA040083EA0501C9
:10057000084305D0101BAB4106D20122002306E040
:1005800000224FF0004302E06FF0010253101AEB1B
:1005900006004CEB085110EB0A0041EB0B01BDE8E3
:1005A000F04D00F0E5B830B404469623080021462B
:1005B00004D0B62330BC002200F0ACB820460021A5
:1005C000F8E70EB540F2334102910021CDE9001168
:1005D0000A460B4600F0DBF803B000BD3EB5CA1773
:1005E000CB0F002450405140C0186141DA0740F25F
:1005F00033430094CDE901232246234600F0C7F897
:1006000003B030BD0EB540F2334202920022CDE974
:100610000022134600F0BBF803B000BDC1F30A523C
:1006200010B5C1F3130140F2FF3341F480119A4237
:1006300001DA002010BD40F233439A42A2F2334265
:1006400003DC524200F03BF810BD904010BD00F0BA
:10065000004230F000400AD0C10D01F56071C0F3D6
:10066000160042EA0151C2084007114370470020BA
:100670000146704730B50B46014600202022012478
:1006800009E021FA02F59D4205D303FA02F5491B60
:1006900004FA02F52844151EA2F10102F1DC30BD76
:1006A000202A04DB203A00FA02F100207047914032
:1006B000C2F1200320FA03F3194390407047202A27
:1006C00004DB203A21FA02F00021704721FA02F3FC
:1006D000D040C2F120029140084319467047202AB9
:1006E00006DBCB17203A41FA02F043EAE07306E05A
:1006F00041FA02F3D040C2F120029140084319466A
:1007000070470029A8BF7047401C490008BF20F06F
:100710000100704710B4B0FA80FC00FA0CF050EA07
:10072000010404BF10BC704749B1CCF1200421FA88
:1007300004F411FA0CF118BF012121430843A3EB83
:100740000C01CB1D4FEA00614FEA102042BF002090
:1007500010BC704700EBC35010440029A4BF10BC6C
:100760007047401C490008BF20F0010010BC7047D2
:1007700010B5141E73F1000408DA401C41F10001A9
:1007800092185B411A4301D120F0010010BD2DE900
:10079000F04D92469B4611B1B1FA81F202E0B0FAF7
:1007A00080F220329046FFF77BFF04460F4640EA76
:1007B0000A0041EA0B0153465A46084313D011463A
:1007C00053EA010019D0C8F140025046FFF777FF05
:1007D00005460E46504659464246FFF761FF08431C
:1007E00005D0012004E020463946BDE8F08D002008
:1007F000054346EAE0762C4337430A986305E40A4A
:10080000A0EB08000022FD0A44EA47540A3002D552
:1008100000200146E9E7010510196941DDE90845B5
:1008200000196941BDE8F04DA2E72DE9F04D002324
:100830001A461B1A8A4103DB00200146BDE8F08DF1
:10084000C1F30A52C1F3130141F480154FF0000BBC
:10085000D10702D100186D41521E0027044640F214
:10086000FF11384601EB620A3E46804602460020F0
:100870004FF48011FFF723FFC2197141BB1846EBFB
:100880000100B4EB030C75EB000C04D3E41A65EB28
:10089000000517460E46241908F101006D418046F7
:1008A0003428E3DDF91946EB0600091BA84103D201
:1008B0004FF0FF32134601E0002213461BEB070006
:1008C00046EB0A51BDE8F04DFFF752BFC1F30A52A3
:1008D000C1F3130140F2FF3341F480119A4202DA6E
:1008E00000200146704740F233439A42A2F233425D
:1008F00002DC5242FFF7E3BEFFF7D2BE30B5041E62
:1009000071F1000404DB4FF00044404264EB01014C
:10091000141E73F1000405DB1C464FF000435242E5
:1009200063EB0403994208BF904230BD064C074D6B
:1009300006E0E06840F0010394E8070098471034AF
:10094000AC42F6D3FFF724FC50D2000870D2000866
:1009500070B58C1810F8015B15F0070301D110F881
:10096000013B2A1106D110F8012B03E010F8016BAE
:1009700001F8016B5B1EF9D12B0705D40023521E31
:100980000DD401F8013BFAE710F8013BCB1A921C99
:1009900003E013F8015B01F8015B521EF9D5A14297
:1009A000D8D3002070BD70B505460C46012D04D18A
:1009B0002046E11700F014F810E0022D04D1204683
:1009C000E11700F04FF809E0032D07D12046E117A9
:1009D00000F006F82046E11700F044F870BD000072
:1009E00070B52DED088B05460E4628463146FFF7BB
:1009F000F5FD9FED150B53EC102BFFF7F3FC9FED6E
:100A0000140B53EC102BFFF746FC9FED130B53EC2C
:100A1000102BFFF740FCFFF701FE84B210201049B5
:100A2000088304204883201205F004FAE0B205F0A0
:100A300001FA10200A49488304200883082008830B
:100A4000BDEC088B70BD00000000000000002040DD
:100A5000000000000000E03F00000000C0FFDF4099
:100A60000000024070B52DED088B05460E46284665
:100A70003146FFF7B3FD9FED150B53EC102BFFF73D
:100A8000B1FC9FED140B53EC102BFFF704FC9FED12
:100A9000130B53EC102BFFF7FEFBFFF7BFFD84B2E7
:100AA00010201049088308204883201205F0C2F95D
:100AB000E0B205F0BFF910200A49488304200883FA
:100AC00008200883BDEC088B70BD0000000000000A
:100AD00000002040000000000000E03F0000000097
:100AE000C0FFDF400000024010B500F075FC10BDF3
:100AF00070B506460C46154608E03046721C96B2A4
:100B000000F007F804F8010B681E85B2002DF4D13F
:100B100070BD70B50446002600F010FDA02000F066
:100B2000D9FC00F057FD201200F0D4FC00F052FD7B
:100B30002546E11704EB11610912A4EB0121C8B2AB
:100B400000F0C8FC00F046FD00F0F8FCA12000F029
:100B5000C1FC00F03FFD002000F08AFC064600F0DA
:100B600013FD304670BD70B505460C46164606E0CE
:100B70002178284600F009F8681C85B2641C301EF4
:100B8000A6F101018EB2F3D170BD70B504460E46D8
:100B900000F0D4FCA02000F09DFC00F01BFD201212
:100BA00000F098FC00F016FD2546E11704EB1161FA
:100BB0000912A4EB0121C8B200F08CFC00F00AFD80
:100BC000304600F087FC00F005FD00F0DDFC0A2057
:100BD00000F0ACF870BD00001CB50121202004F02D
:100BE000B3FF0121402004F0AFFF01208DF8040085
:100BF00000208DF8060003208DF8050001208DF8F7
:100C00000700C00300906946014800F037FB1CBD97
:100C1000001802401CB50AF0C9F80121042004F0B4
:100C200093FF3F20009000208DF8040001208DF8F4
:100C3000070069460B4800F021FB4FF47C600090F0
:100C400001208DF8040000208DF8060003208DF8A7
:100C5000050001208DF807006946024800F00EFBF0
:100C60001CBD00000008024000BFFEE700B585B0D3
:100C70000121022004F068FF0121880304F0A4FF91
:100C80004FF46040039000208DF8100001208DF893
:100C9000130003A9234800F0F1FA0D21012005F00B
:100CA000D3F90F21012005F0CFF94FF40050009047
:100CB00000208DF8040010208DF8050001208DF82B
:100CC0000600684600F084F928208DF8080003200B
:100CD0008DF809008DF80A0001208DF80B0002A89C
:100CE00003F0AEFD4FF40040009000208DF80400AA
:100CF00010208DF8050001208DF80600684600F0F0
:100D000067F928208DF8080003208DF809008DF878
:100D10000A0001208DF80B0002A803F091FD05B038
:100D200000BD0000000402407047000001B5044906
:100D30000098086000BF024800680028FBD108BD89
:100D40000C00002010B500210B4806F03CFA0020F2
:100D500009492431086008492C3108604FF6FE70BB
:100D600005491031088005488078032802D1012107
:100D70000348817010BD0000000C004048000020B6
:100D80008402002070B5012000F016F900287CD004
:100D90005A48807803285DD15948007818B15848DE
:100DA0000078012856D155484078012806D153488B
:100DB000D0F8880053494968086008E04F484078F7
:100DC00028B94E48D0F830014E49496808600220E1
:100DD0000AF023FE4C480068012827D100204B4927
:100DE00008604B49C1F8800200214A488170012007
:100DF000494908704948008840F001004749088087
:100E00003F48007840B93F4A526811683B4A5078E1
:100E1000012203F06FFD6DE03A4A526812685142B8
:100E2000364A5078012203F065FD63E036480068D9
:100E300000285FD1314948780122002103F05AFD92
:100E40000120324908603249C1F88002002032494D
:100E500008704FE02948807803284BD12848007853
:100E6000022803D026480078032843D105200AF041
:100E7000D4FD2548006801283CD1002400251F48E6
:100E8000407801280BD11D4800E036E0D0F88800FA
:100E90001C49496808601948D0F890500BE0174881
:100EA000407840B91548D0F83001164949680860C3
:100EB0001248D0F83851E5B1012019490860FA20EC
:100EC000B5FBF0F0441E483C002010490860104972
:100ED000C1F8800200210F48817001200E4908707E
:100EE0000E48008840F001000C490880204600F0C0
:100EF000B9F800BF012000F059F870BD480000208B
:100F0000C0010020A0020020008240428002404236
:100F10000000424284020020DC0200200004004065
:100F2000EC01002010B51B48006800F4005080B3AD
:100F3000642009F08BFF184800681849D1F838126E
:100F400088420DD016480078401C15490870154895
:100F5000007890B113480078401E124908700CE0E8
:100F600010480078401C0F4908700D48007820B1E7
:100F70000B480078401E0A4908700B48408910B998
:100F80000120094948810348006840F400500149A4
:100F9000086010BD143C0140348240420080404251
:100FA000E4020020E5020020C80600200149086094
:100FB00070470000143C014001460020034A1268BB
:100FC0000A400AB1012000E000207047143C0140B3
:100FD000002123498279002A3AD00A461268036820
:100FE0009A430B461A600A1D126803689A430B1D48
:100FF0001A60027911440A6803681A430A60184AA1
:101000000832126803689A43154B08331A601A1D98
:10101000126803689A43124B0C331A604279102A03
:101020000ED11A1F126803681A430D4B08331A6059
:101030001A1D126803681A43094B0C331A600DE03D
:101040000749427911440A6803681A430A6005E0B7
:10105000027911440A6803689A430A6070470000E5
:10106000003C014070B5044600252848007840B98E
:10107000274A52681168274A5078012203F03AFC47
:1010800023E022480078012809D1214A52681268D9
:101090005142204A5078012203F02CFC15E01B48F5
:1010A0000078022808D11A4A52681168194A507803
:1010B000012203F01FFC08E0154A526812685142F1
:1010C000144A5078012203F015FC104800780128DA
:1010D00001DC651C01E0601C45080F48056000202C
:1010E0000D49083908604FF6FE700B491C3908801D
:1010F00009482C38008840F0010007492C39088045
:101100000120064908600649086070BDC001002042
:10111000A0020020480000202C0C004084824042A5
:10112000D002002051B18200A2F1C042126842F008
:1011300001038200A2F1C042136009E08200A2F123
:10114000C0421268034B1A408300A3F1C0431A60E7
:1011500070470000FEFF0F0030B500210022002381
:101160000468A400A4F1C0442168424C2140D0E9A5
:1011700001452C43C5682C4305692C4345692C4324
:1011800085692C43C5692C43056A2C43456A2C4369
:10119000856A2C43C56A2C43056B2C4321430468A4
:1011A000A400A4F1C04421608468082C0BD1046819
:1011B000A400A4F1C044246844F040050468A400DD
:1011C000A4F1C04425600468641CA400A4F1C044D8
:1011D000226802F04042446B2468456B6D6844EA23
:1011E0000514456BAD6844EA0524456BAD8944EAB6
:1011F0000544456B2D8A44EA0554456B2D7D44EA30
:101200000564456BAD692C4322430468641CA4004B
:10121000A4F1C0442260C46AB4F5804F20D10468B0
:10122000A400A4F1C044D4F80431134C2340846BCF
:101230002468856B6D6844EA0514856BAD6844EAE3
:101240000524856BAD8944EA0544856BAD692C4363
:1012500023430468A400A4F1C044C4F8043107E0A7
:101260006FF070450468A400A4F1C044C4F80451B0
:1012700030BD00008000F7FF0000F0CFF0B50A4657
:1012800000210023002400BF3DE0012505FA01F301
:10129000156805EA03049C4234D105684F00032613
:1012A000BE40B543056015794E00B540066835432C
:1012B00005601579012D02D01579022D16D18568AA
:1012C0004F000326BE40B543856055794E00B540BA
:1012D000866835438560456801268E40B543456084
:1012E000456896798E40B6B235434560C5684F0073
:1012F0000326BE40B543C560D5794E00B540C668EB
:101300003543C560491C1029BFD3F0BDF0B500239B
:1013100000244D07ED0E02FA05F3CE1000F1200572
:1013200055F826504E07F70E0F26BE40B543CF1096
:1013300000F1200646F82750CE1000F1200555F8A0
:10134000265045EA0304CE1000F1200545F826405A
:10135000F0BD4183704701837047000010B516222D
:101360000749E620FFF7C4FB0548D0F81200401CEF
:101370000349C1F812001622E620FFF7F4FB10BD66
:101380004803002000BFFEE710B500200F490860A9
:101390000F48006820F440000D49086008460068C6
:1013A00040F48000086000200A49C1F8AC02042023
:1013B00009F04CFD012005490860042009F046FDB4
:1013C00000200449C1F8A80210BD0000A8824042D4
:1013D00000040240008040421CB50121022004F0BC
:1013E000B3FB4FF44060009001208DF804008DF8AD
:1013F000060003208DF8050001208DF807006946DE
:101400000448FFF73BFF0120034908600349C1F886
:10141000A8021CBD00040240AC8240420080404251
:1014200010B500200F4908600F48006820F4400004
:101430000D4908600846006840F4800008600120FB
:101440000A49C1F8AC02042009F000FD0120054959
:101450000860042009F0FAFC00200449C1F8A80241
:1014600010BD0000A88240420004024000804042BB
:1014700070B5054600241448006820F44000124965
:101480000860002616E0002010490860042009F0DA
:10149000DDFC01200E49C1F8A8026006040E0B48CD
:1014A0007C38006808B1601CC4B2022009F0CEFC90
:1014B000701CC6B2082EE6DB15B9FFF7B1FF01E0DC
:1014C000FFF762FF204670BD00040240A882404240
:1014D0000080404270B504461548006820F4400082
:1014E000134908600846006840F480000860002046
:1014F00010490860002517E0E0090E49091D086041
:101500006006040E042009F0A1FC01200A49C1F87C
:10151000A802042009F09AFC002006490860042073
:1015200009F094FC681CC5B2082DE5DB70BD000015
:1015300000040240A88240420080404210B50F489B
:10154000006820F440000D4908600846006840F437
:101550008000086001200A4908600A49C1F8A80211
:10156000082009F073FC002005490860082009F0F4
:101570006DFC00200349C1F8A80210BD0004024020
:10158000AC8240420080404210B50F48006820F411
:1015900040000D4908600846006840F4800008607B
:1015A00000200A4908600A49C1F8AC02082009F085
:1015B0004DFC012005490860082009F047FC012086
:1015C0000349C1F8AC0210BD00040240A8824042A9
:1015D0000080404210B500241248006820F440000A
:1015E00010490860012010490860022009F02EFC13
:1015F00001200E49C1F8A802022009F027FC07E0EB
:10160000601CC4B2FA2C03DDFFF7BEFF012010BD41
:101610000548803800680028F2D10349091F086096
:1016200000BFF4E700040240AC8240420080404228
:101630001CB50121084604F087FA0121022004F0BC
:1016400083FA0121022004F07FFA0121082004F02E
:101650007BFA0121102004F077FA0121202004F008
:1016600073FA0121402004F06FFA48F24000009024
:1016700001208DF8040000208DF8060003208DF86D
:10168000050001208DF8070069465948FFF7F6FD6F
:101690004020009001208DF8040000208DF8060005
:1016A00003208DF8050001208DF807006946514898
:1016B000FFF7E4FD0820009069464F48FFF7DEFD84
:1016C0004FF40C40009069464C48FFF7D7FD0C21C1
:1016D0004748FFF740FE4FF400414548FFF739FE09
:1016E00041F60110009001208DF8040000208DF8D3
:1016F000060003208DF8050001208DF807006946DB
:101700003B48FFF7BBFD4FF43070009001208DF88F
:10171000040000208DF8060003208DF8050001204C
:101720008DF8070069463648FFF7A8FD43F24C00E4
:10173000009001208DF8040000208DF806000320A1
:101740008DF8050001208DF8070069462D48FFF748
:1017500095FD4F20009001208DF8040000208DF8A9
:10176000060003208DF8050001208DF8070069466A
:101770002048FFF783FD012000908DF80400002031
:101780008DF8060003208DF8050001208DF8070074
:1017900069461948FFF772FD00201B4908601B4984
:1017A000C1F880021849091D086001201849086025
:1017B000091D0860091D0860091D086015490860B9
:1017C00015490860144910310860091F08600E4966
:1017D0000C3108600F492C390860091D08600D495B
:1017E0001C3908600B49091F08600C4908601CBDC2
:1017F00000000240001002400014024000180240A5
:1018000000040240000C0240988240420000404226
:1018100080024242B4824142A0024042808242425F
:101820004CF6CC4001490860704700000030004091
:101830004AF6AA20014908607047000000300040C5
:10184000014948607047000000300040014988604D
:1018500070470000003000400149086070470000F8
:10186000003000402DE9FC47002700200090019047
:1018700080468146002400254FF4A06003F01CF848
:1018800000F02CFA4FF47A61052008F035FDFFF7DF
:10189000CFFE4FF4E13008F05DFC84A008F03EFD7F
:1018A000834808F03BFD83A008F038FD08F020FDD8
:1018B000042009F0EDFA09F047FB01F063FA4FF458
:1018C000E13180A008F02AFD6420FFF72FFA08F02C
:1018D0000FFD08208649088086A008F01FFD8CA017
:1018E00008F01CFD4FF49670FFF720FA08F000FD99
:1018F00001F0C8F991A008F011FDFFF76DF993A070
:1019000008F00CFDFFF72AFD9448D0F8121094A0BF
:1019100008F004FD09F0A8FB08F0EAFCFFF77AF9EB
:1019200094A008F0FBFC04F015FA00210320FFF757
:101930003AF894A008F0F2FCFFF798F99CA008F0A0
:10194000EDFC08F0D5FC05F0E1FD05F057FE9DA08B
:1019500008F0E4FC002002F04FFF05F0FFF908F06A
:10196000C7FC00F03BFB08F0C3FC9DA008F0D6FCD0
:101970004FF41670FFF7DAF908F0BAFC00F050FCEB
:101980009B4881889BA008F0C9FC4FF4FA70FFF7D0
:10199000CDF908F0ADFCFFF7A7F89DA008F0BEFC5C
:1019A00009F0D8FF08F0A4FC3220FFF7BFF902F0DD
:1019B00027F99CA008F0B2FC08F09AFC07F0DAFBCB
:1019C00008F096FC40F2E73453252946204605F0FE
:1019D00039FD98A008F0A2FC2A4621469AA008F0FA
:1019E0009DFC601C691C10FB01F090FBF1F6314678
:1019F0009BA008F093FC08F07BFC142142F20F70CE
:101A000005F0F2FC42F2CF01601C05F0BFFC322071
:101A1000FFF78CF908F06CFC0020984908609848A2
:101A2000007818B196480078012802D105F06EFDC3
:101A300001E005F0A7FD08F05BFC0020914908607B
:101A400001209149C1F880028E49091D08600020DB
:101A50008E490860091D0860091D0860091D08609D
:101A60008B4908608B4908608A4910310860091F5A
:101A7000086084490C31086085492C390860091DCB
:101A8000086083491C3908608149091F08607B4947
:101A9000303908600123022203217FA008F03EFCB8
:101AA00084A008F03BFCBDE8FC8700000D0A0000A4
:101AB0000CD200084D4355205374617274210D0AF5
:101AC0000000000044656267755F556172742069AB
:101AD0006E6974204F4B21206261756420726174BD
:101AE000653D2564206269742F730D0A0D0A00009C
:101AF00018140240416E676C6F6720706F776572D3
:101B000020686173206F70656E210D0A000000006F
:101B10005761697420666F7220616E616C6F672017
:101B2000706F77657220746F2073746162696C697D
:101B30007A652E2E2E2E2E2E210D0A004C45445F46
:101B4000496E6974204F4B210D0A00004265657093
:101B50005F496E6974204F4B210D0A004803002035
:101B60004D43555F504F525F54696D65733A25641C
:101B70000D0A000042746E5F496E6974204F4B215C
:101B80000D0A00004144353534325F496E697420D6
:101B90004F4B2C53657420414435353432204F75FA
:101BA0007470757420746F207A65726F210D0A004D
:101BB000436F6465635F496E6974204F4B210D0A62
:101BC00000000000547269676765724578494E31BC
:101BD000325F496E6974204F4B210D0A00000000EE
:101BE0005265736574204C4344210D0A00000000C7
:101BF000204200204C4344204F4B21204C4344447E
:101C000045565F49443D307825780D0A00000000B4
:101C1000415432344358585F496E6974204F4B2108
:101C20000D0A000047657420506172204F4B0D0A69
:101C300000000000496E69742054696D6572362099
:101C40004F4B210D0A00000054696D65723620412A
:101C500052523D25642C5053433D25640D0A00002B
:101C600054696D657236204F766572666C6F775F6A
:101C700074696D653D256475730D0A00B08242423A
:101C8000C00100209882404200004042800242424F
:101C9000B4824142A0024042736F667477617265FC
:101CA0005F76657273696F6E3A25642E25642E2502
:101CB000640D0A00486172647761726520696E691B
:101CC00074204F4B21205379732072756E6E696EAC
:101CD000672E2E2E2E2E2E0D0A0D0A0010B510483E
:101CE00000684FF47A71B0FBF1F4601EB0F1807FB0
:101CF00000D30FE0601E4FF0E02148610F214FF04C
:101D0000FF3002F0E3FD00204FF0E0218861072062
:101D1000086100BF0021481E02F0D8FD10BD000080
:101D2000300300200146062935DA0020A94A106058
:101D30000120A94AC2F89C02A64A08321060121D6E
:101D40001060121D1060A44AC2F8AC02A148983875
:101D5000006808B9002070479E489438006808B9A8
:101D60000120F8E79B489038006808B90220F2E7A4
:101D700098488C38006808B90320ECE79548883803
:101D8000006808B90420E6E7924884380068002813
:101D900073D10520DFE70C2936DA01208D4A106067
:101DA00000208D4AC2F89C0201208A4A0832106045
:101DB000121D1060121D1060874AC2F8AC028548DF
:101DC0009838006808B90620C5E78248943800684A
:101DD00008B90720BFE77F489038006808B9082095
:101DE000B9E77C488C38006808B90920B3E779481E
:101DF0008838006808B90A20ADE77648843800685A
:101E00000028C5D10B20A6E7122937DA0120714A34
:101E10001060714AC2F89C0200206E4A08321060BD
:101E20000120121D1060121D10606B4AC2F8AC0236
:101E300068489838006808B90C208CE765489438E1
:101E4000006808B90D2086E762489038006808B934
:101E50000E2080E75F488C38006808B90F207AE7C9
:101E60005C488838006808B9102074E759488438FD
:101E7000006800288CD111206DE7A1E0182936DA1E
:101E80000120544A1060544AC2F89C02514A083258
:101E900010600020121D10600120121D10604E4ABB
:101EA000C2F8AC024B489838006808B9122052E7D3
:101EB00048489438006808B913204CE745489038E2
:101EC000006808B9142046E742488C38006808B911
:101ED000152040E73F488838006808B916203AE7DF
:101EE0003C4884380068002871D1172033E71E2948
:101EF00035DA0120374A1060374AC2F89C02354A69
:101F000008321060121D10600020121D10600120A8
:101F1000314AC2F8AC022F489838006808B9182036
:101F200019E72C489438006808B9192013E72948A4
:101F30009038006808B91A200DE726488C380068E8
:101F400008B91B2007E723488838006808B91C2017
:101F500001E720488438006890BB1D20FBE6242957
:101F600035DA01201B4A10601B4AC2F89C02194A4C
:101F700008321060121D1060121D10600020164AF9
:101F8000C2F8AC0213489838006808B91E20E2E68F
:101F900010489438006808B91F20DCE60D489038D6
:101FA000006808B92020D6E60A488C38006808B9CD
:101FB0002120D0E607488838006810B92220CAE6F8
:101FC00005E004488438006808B92320C3E6FF20F0
:101FD000C1E6000098024142000041421CB50121C7
:101FE000102003F0B1FD2020009001208DF80400A6
:101FF00000208DF8060003208DF8050001208DF8E3
:10200000070069461048FFF739F908F071F92020F8
:102010000D494883C820FEF789FE20200A4908831D
:1020200008F066F94FF41670FEF780FE08F060F9CC
:10203000202005494883C820FEF778FE2020024969
:10204000088308F055F91CBD0010024070B5044625
:1020500000261948058808F04BF917484088454381
:102060001548808846F60401884216D112488079C6
:10207000012812D10020104988712A2048812B2084
:1020800088810021084600F0C1FC01200A498871BE
:102090002B2048812A20888103E00021084600F097
:1020A000B5FC00F0DDFD002602E004480480761C4B
:1020B000AE42FAD370BD0000204200200000026052
:1020C00010B5044608F014F9DCB900201C498871E9
:1020D000F02008804FF4A07048800846808841F6C0
:1020E0006311884228D12C20154908812B20488172
:1020F0002A2088814FF4F07008804FF4487048809F
:102100001AE001200E4988714FF4A0700880F02079
:1021100048800846808841F6631188420CD12C2003
:10212000074908812A2048812B2088814FF4F070CC
:1021300008804FF488704880002000F0EDFA10BD50
:102140002042002070B504460D46164608F0D0F82F
:102150001A48808841F66311884227D11748807950
:1021600020B916480088401E001B84B213494889D4
:1021700000F070FD201200F067FDE0B200F064FD99
:10218000201200F061FDE0B200F05EFD0B4988898D
:1021900000F060FD281200F057FDE8B200F054FD99
:1021A000281200F051FDE8B200F04EFD034800890E
:1021B00003490880881C068070BD00002042002072
:1021C000FEFF01602DE9F05F05460E461746984672
:1021D000DDF828A04FF0000B08F08AF8781B401CAF
:1021E0001FFA80FB344615E02146284600F00EFC1D
:1021F00000F036FD4FF0000906E00848A0F800A006
:1022000009F101001FFA80F9D945F6DB08F070F8F2
:10221000601C84B24445E7DDBDE8F09F0000026029
:102220002DE9F041A2B0002500260027A846012193
:10223000182003F089FC0121084603F095FC4CF6B8
:10224000B370209002208DF8840000208DF8860065
:1022500003208DF8850001208DF8870020A9FB4818
:10226000FFF70CF84FF68070209002208DF8840064
:1022700000208DF8860003208DF8850001208DF860
:10228000870020A9F248FEF7F9FF0C220021EF4851
:10229000FFF73CF80C220121EC48FFF737F80C223D
:1022A0000421EA48FFF732F80C220521E748FFF73E
:1022B0002DF80C220821E548FFF728F80C22092107
:1022C000E248FFF723F80C220A21E048FFF71EF846
:1022D0000C220E21DD48FFF719F80C220F21DB48F4
:1022E000FFF714F80C220721D948FFF70FF80C224A
:1022F0000821D748FFF70AF80C220921D448FFF734
:1023000005F80C220A21D248FFF700F80C220B2115
:10231000CF48FEF7FBFF0C221146CD48FEF7F6FF33
:102320000C220D21CA48FEF7F1FF0C220E21C848ED
:10233000FEF7ECFF0C220F21C548FEF7E7FF0C2249
:102340000721C248FEF7E2FF0C220B21BF48FEF72F
:10235000DDFF10200A9000200B903C200C90002004
:102360000D9002200E9000200F90109012200390EC
:1023700000200490102005900020069007900890FF
:102380000990119012901390102014900020159035
:1023900017901690189019904FF480501A900020C2
:1023A0001B904FF480401C9000201D900AA81E90A6
:1023B00003A81F9011A8FEF7CFFE01210020FEF711
:1023C000B1FE07F095FF4FF44870FEF7AFFC07F041
:1023D0008FFF002000F062F99E49888008468188BE
:1023E0009DA007F09BFF0020019002900024A120F7
:1023F00000F030FC052008F029FD00F045F9C0B2DE
:102400008DF8040000F040F9C0B28DF8050000F02E
:102410003BF9C0B28DF8060000F036F9C0B28DF875
:10242000070000F031F9C0B28DF808008FA007F066
:1024300075FF00BF06E001A8015D90A007F06EFFE8
:10244000601CC4B2052CF6DB8EA007F067FFA1204C
:1024500000F000FC00F018F97E49888000F014F9C3
:102460007C498880084680884FF6FF7101EA002089
:102470007849888000F008F97649898808437549C9
:1024800088800846818874A007F048FF0A20FEF77C
:102490004DFC07F02DFF41F663106E498880084619
:1024A000808841F6631188427ED107F021FFE22047
:1024B00000F0D0FB1D2000F0C7FB022000F0C4FBA1
:1024C000042000F0C1FB642008F0C0FCE02000F014
:1024D000C1FB012000F0B8FB0A20FEF727FCE0203A
:1024E00000F0B8FB032000F0AFFB0C20FEF71EFC51
:1024F000012000F0AFFB0A20FEF718FC4FF44870F3
:10250000FEF714FCE62000F0A5FB2F2000F09CFB5A
:10251000FF2000F099FBFF2000F096FBB02000F0B8
:1025200099FB102000F090FB002000F08DFB07F0DD
:10253000DFFE012000F088FB40F2DF1000F084FB9A
:10254000012000F081FB40F20F1000F07DFB002025
:1025500000F07AFBB42000F07DFB022000F074FB59
:1025600040F2DF2000F070FB002000F06DFB2E2019
:1025700000F06AFB002000F067FB002000F064FB25
:10258000002000F061FB002000F05EFB07F0B0FED1
:10259000B62000F05FFB012000F056FB4FF49E7068
:1025A00000F052FB002000E045E000F04DFB17205A
:1025B00000F04AFB152000F047FB002000F044FB30
:1025C000002000F041FBF02000F044FB032000F06D
:1025D0003BFB292000F03EFBD02000F03BFB00201D
:1025E00000F032FBBE2000F035FB052000F02CFB94
:1025F000FE2000F029FB012000F026FB002000F067
:1026000023FB002000F020FB002000F01DFB07F062
:102610006FFEB82000F01EFB032000F015FB012028
:1026200000F012FBBA2000F015FB012000F00CFBBB
:10263000002000F03FF80120FFF742FD42F20410B5
:10264000FFF704FD22B0BDE8F0810000000C02405D
:1026500000100240204200206C63646465762E699D
:10266000643D307825780D0A000000006765745FCE
:102670006C63645F6D6F64653A00000020307825FC
:10268000780000000D0A000008B50348008800909B
:10269000BDF8000008BD00000000026010B504464F
:1026A000204600F0D7FA052008F0D0FBFFF7ECFF3A
:1026B00010BD000070B52DED048B044607F018FE28
:1026C000BE2000F0C7FA052000F0BEFA2046FDF754
:1026D00078FF41EC190B9FED0E0B53EC102BFDF71F
:1026E00081FE41EC180BFDF799FF85B2284600F0FA
:1026F000ABFA012000F0A8FAFF2000F0A5FA0020B4
:1027000000F0A2FA002000F09FFABDEC048B70BD2F
:1027100066666666666604402DE9F041054600245B
:10272000002707F0E5FDB848807901280BD1B648AD
:10273000808846F60401884205D0B348808841F677
:102740006311884208D1B0488079F0B9AE488088DA
:1027500041F66311884218D1082D15D2DFE805F043
:102760000406080A0C0E101206250DE007250BE0E2
:10277000042509E0052507E0012505E0002503E023
:10278000032501E0022500BF00BF9F48808849F271
:102790004131884217D09C48808846F6040188421F
:1027A00011D09948808845F2103188420BD0964864
:1027B000808845F21051884205D09348808841F6C0
:1027C000631188427ED1082D1CD2DFE805F0040693
:1027D000090C0F12151800BF14E044F0800411E03A
:1027E00044F040040EE044F0C0040BE044F0200448
:1027F00008E044F0600405E044F0A00402E044F086
:10280000E00400BF00BF8048808845F21051884234
:1028100002D14FF4585700E036277B48808845F2B4
:10282000103188420DD07848808845F21051884296
:1028300007D07548808841F66311884201D044F082
:1028400008047148808846F60401884201D144F0AA
:1028500002042146384600F00DFA6B48808841F6A4
:10286000631188421DD004F0200068B166480088DA
:1028700065494988884214DA634806884088624975
:102880000880084646800CE05F4800885E49498819
:10289000884206DD5C48068840885B490880084617
:1028A00046805948808845F21051884254D1564993
:1028B000488900F0CFF9002000F0C6F95249498953
:1028C000491C00E077E088B200F0C4F9002000F075
:1028D000BBF94D494989891C88B200F0BBF94A49C6
:1028E0000988491EC1F30F2000F0AEF94649498915
:1028F000C91C88B200F0AEF943490978491EC8B234
:1029000000F0A2F94049888900F0A4F9002000F005
:102910009BF93D498989491C88B200F09BF9002048
:1029200000F092F938498989891C88B200F092F93F
:1029300035494988491EC1F30F2000F085F9324915
:102940008989C91C88B200F085F92F498978491E08
:10295000C8B200F079F955E02B49488900F07AF9BE
:10296000002000F071F9002000F06EF92649098876
:10297000491EC1F30F2000F067F923490978491E69
:10298000C8B200F061F92049888900F063F900209D
:1029900000F05AF9002000F057F91B494988491EF8
:1029A000C1F30F2000F050F917498978491EC8B2C9
:1029B00000F04AF926E0082D1CD2DFE805F00407F4
:1029C0000A0D0F12151844F0300413E044F01004FF
:1029D00010E044F020040DE000BF0BE044F03804A8
:1029E00008E044F0280405E044F0180402E044F054
:1029F000080400BF00BF032744F480542146384632
:102A000000F038F9BDE8F0812042002070B504469E
:102A10000D462848808841F66311884248D107F066
:102A200067FC24488079A8B922480088401E001B12
:102A300084B22049488900F00DF9201200F004F911
:102A4000E0B200F001F9201200F0FEF8E0B200F070
:102A5000FBF816E01749488900F0FCF8201200F056
:102A6000F3F8E0B200F0F0F812490988491EC1F30A
:102A70000F2000F0E9F80F490978491EC8B200F0AC
:102A8000E3F80C49888900F0E5F8281200F0DCF83A
:102A9000E8B200F0D9F807494988491EC1F30F2070
:102AA00000F0D2F803498978491EC8B200F0CCF88A
:102AB00070BD0000204200202DE9F84F80460E46F0
:102AC00017461C46B3462046E31704EB5373DB104E
:102AD00021464FEAE47C04EB5C7C4FEAEC0CA4EB6F
:102AE000CC0CBCF1000F02D04FF0010C01E04FF014
:102AF000000C6344224604EBD27C4FEA6C0C03FBCF
:102B00000CF3DBB2009307F0F3FBA7F12000C7B290
:102B1000002554E00C2C07D107EB47002A4901EBB4
:102B2000800010F8059013E0102C05D1274800EB29
:102B3000071010F805900BE0182C07D107EBC70021
:102B4000234901EB800010F8059001E0BDE8F88F03
:102B50004FF0000A2DE009F0800028B131464046D0
:102B60000C9AFFF7EFFA06E00A9820B93146404682
:102B70000B9AFFF7E7FA4FEA49604FEA1069701CB9
:102B800086B214484088B04200DCDFE7A6EB0B00B9
:102B9000A0420AD15E4608F101001FFA80F80D48F4
:102BA0000088404500DCD1E706E00AF1010000F0B2
:102BB000FF0ABAF1080FCEDB00BF681CC5B200984F
:102BC0008542A7DB00BFC1E74CBA0008C0BE0008C1
:102BD000B0C40008204200202DE9FF5F04460D46E6
:102BE000904699460EAE96E8C00CE0B2039007F00E
:102BF0007FFB08EB04001FFA80F809EB05001FFAC1
:102C000080F917E0444502DB039CA81985B24D45C5
:102C100000DB15E000208DE8010C3A7833462946A8
:102C20002046FFF749FF304606EBD07104EB610107
:102C30008CB27F1C38787E2802DC38782028E1DAD4
:102C400000BFBDE8FF9F00000149088070470000F9
:102C5000000002600149088070470000FEFF01602B
:102C60000248008902490880704700002042002085
:102C7000FEFF0160024A1080921C11807047000024
:102C8000FEFF01601CB50121084602F05DFF012135
:102C9000022002F059FF0121082002F055FF012116
:102CA000102002F051FF41F60110009001208DF834
:102CB000040000208DF8060003208DF80500012097
:102CC0008DF8070069461748FEF7D8FA4FF43070C0
:102CD000009069461448FEF7D1FA43F24C00009088
:102CE00069461248FEF7CAFA1F200090694610484C
:102CF000FEF7C4FA41F601110A48FEF72CFB4FF427
:102D000030710948FEF727FB43F24C010748FEF7F4
:102D100022FB1F210648FEF71EFB00200549086024
:102D20001CBD00000000024000040240000C0240F4
:102D3000001002409882404200200649086006497F
:102D4000C1F8B00203490C3108600449C1F8A4027B
:102D500070470000A0024042000040420080404214
:102D60000020064908600649C1F88C020349103169
:102D700008600349C1F8B0027047000088824142F0
:102D80000080414210B57B2002F0BCFF10B118A0BA
:102D900007F0C4FA7A2002F0B5FF10B119A007F0CD
:102DA000BDFA7C2002F0AEFF10B11BA007F0B6FA0E
:102DB0007D2002F0A7FF10B11CA007F0AFFA7E2023
:102DC00002F0A0FF10B11EA007F0A8FA7F2002F0C9
:102DD00099FF10B11FA007F0A1FA792002F092FF2D
:102DE00010B121A007F09AFA02F00EFF10BD00000A
:102DF0005243435F464C41475F504F525253540D2C
:102E00000A0000005243435F464C41475F50494E21
:102E10005253540D0A0000005243435F464C414751
:102E20005F5346545253540D0A0000005243435F0F
:102E3000464C41475F495744475253540D0A0000DE
:102E40005243435F464C41475F57574447525354A0
:102E50000D0A00005243435F464C41475F4C5057B8
:102E6000525253540D0A00005243435F464C4147AF
:102E70005F424F525253540D0A0000002DE9F041B9
:102E800000250024002707F071FF0546002D6FD0B4
:102E9000681E032190FBF1F0C4B2681E90FBF1F2B2
:102EA00001FB1200C7B2002F62D1242C60DA0B2C78
:102EB00072D1FA48807890B9F948007800F00200A1
:102EC00028B1F748007820F00200F5490870F4486E
:102ED0008078012801D002F04DFABDE8F081EF487A
:102EE0008078032810D1EE488078012805D0EB497E
:102EF00048780022114601F0FDFC0020E9490860F5
:102F00000121E7488170E8E7FF20E449C87001F03B
:102F10004DFDFFF725FFE248807801286BD1E2489C
:102F2000008918B149F64040DF490881012006F0C8
:102F3000C9FE0220D94981F873010846407801286A
:102F400017D1DA4840680168D9A007F0E7F9D748F7
:102F500040680068E149884206D90120E0490870CC
:102F6000E0A007F0DBF91BE00020DD49087017E066
:102F700074E2CE4840680168E1A007F0CFF9CB4881
:102F800040680068E949884207D90120D44908709F
:102F9000E7A007F0C3F903E03DE00020D049087046
:102FA000CF48007810B901F0EFFE57E2002600206C
:102FB000E64908701CE007F09BF908F06BF806463C
:102FC0000B2E06D10120E24981F8BA0101F0DCFEA6
:102FD0000FE00A2E04D10120DD4981F8BA0108E092
:102FE000DA48007820B90120D849087006F0E2FDDF
:102FF000E1E700BFD9E7AA4880780128D5D0A749E2
:1030000048780022114601F075FC0020A5490860AF
:1030100002F0B0F9C9E70A2C26D1FF209F49C870F9
:1030200001F0C4FCFFF79CFE9D48807858B901F080
:103030009BFE9A4948780022114601F05BFC012072
:1030400098490860B1E79648807802280BD1C148BA
:10305000006840F00100BF49086001F075FE0020E3
:1030600090490860A1E7A0E7092C15D18B480078AA
:10307000012803D102208949087002E00120874914
:103080000870FF208549C87001F090FCFFF768FECA
:1030900001208549088188E7182C17D1FF207F4936
:1030A000C87001F083FCFFF75BFE7C488078002845
:1030B000A0D1012006F006FE0220784981F87301B4
:1030C00001F062FE0220A44908706EE7042C76D15C
:1030D000734880780128FAD17148007800F0020026
:1030E00028B16F48007820F002006D4908706C48E4
:1030F0008078012801D002F03DF96848407808B98D
:10310000012000E0002065494870022092490871C2
:10311000FF206249C870FFF70FFEFFF721FE002075
:103120005E4981F8700100215C4880F87211407896
:10313000012850D18948407820F001008749487023
:103140000846407840F001004870544890F8A800C4
:103150005249887108468079887081480078814991
:1031600008707F48801C026841684C488030C0E984
:1031700004218038807830B101280CD0022814D086
:10318000032826D11CE04548007A444948710120B3
:10319000754908601EE0414890F830003F49487189
:1031A000012071491031086014E03C4890F8580043
:1031B0003A49487101206C490C3108600AE0D9E0B5
:1031C000364890F880003549487101206749086009
:1031D00000E000BF4DE06148407820F001005F4909
:1031E0004870002048702D4880792C4981F8A8004B
:1031F000084690F8A80088705948407859490870E6
:1032000057480A30026841685948C0E904212348F8
:10321000807830B101280DD0022815D0032826D19E
:103220001CE01E4890F8B0001C49487101204E492E
:1032300008601DE0194890F8D8001849487101202D
:1032400049491031086013E0144890F8000113490F
:103250004871012044490C31086009E00F4890F89A
:1032600028010E49487101204049086000E000BF74
:1032700000BF3A48407800F001003849097801F071
:103280000101884202D0012003F0A8FC012030494E
:1032900081F8BA010449088187E60000480000204F
:1032A0008402002084024242C8060020A0020020BE
:1032B00042544E5F53494E474C4554524947474547
:1032C00052204D6F646520566F6C746167652C41A8
:1032D0006D706C3D25640D0A000000000051250250
:1032E00040000020457863656564696E67207361FE
:1032F000666520766F6C746167650D0A00000000DA
:1033000042544E5F53494E474C45545249474745F6
:1033100052204D6F64652043757272656E742C4146
:103320006D706C3D25640D0A0000000080969800C9
:10333000457863656564696E6720736166652063BF
:10334000757272656E740D0A000000004100002065
:103350000C050020003C0140D8060020E8010020B8
:1033600048030020C0010020A0024042A482404245
:10337000700100201F2C72D1FE48807801286ED188
:10338000FD490860FD480078401CFC49087008466B
:103390000078042801DB00200870F8480178F8A0C4
:1033A00006F0BCFFF548007818B1F4480078012811
:1033B00002D104F0ABF801E004F0E4F8F4484078FE
:1033C000012804D1ED480078F249087003E0EB4889
:1033D0000078F04948701622EE49E620FDF7C3FB5D
:1033E000E6480078022803D0E448007803282AD170
:1033F0000120E749C87001F5A870D0E9043044F60F
:1034000020629A1A70F100001AD244F6206100205E
:10341000E14AC2E904101046D0E90410DC4AD2F8AF
:1034200054210832DA4BDB7802EBC302C2E9001008
:10343000FF20D749C87001F0B9FA012006F042FC1C
:10344000FF20D349C870D3484278017800E006E0F5
:10345000D2A006F063FF0020C7490860BDE39CBB13
:10346000C4488078012803D0C9488078032849D10E
:1034700001F080FFD54800884FF6FE710840D3491F
:1034800008800020D149243108600120D04908601B
:10349000D049C1F88002FFF763FCBD48807808B3CB
:1034A000FFF74AFC0120CA49203108600020B849D2
:1034B000887008464078012807D1084680788871CE
:1034C0000846007A487109E01CE0B1488078B049AC
:1034D00081F8A800084690F8B00048710120BE4964
:1034E00081F8BA010020BD4908600120BC49C1F83B
:1034F0008002FF20A649C87001F058FA0120B9499E
:1035000008816AE3022C59D19A488078012803D0B7
:103510009F488078032851D101F02CFF0121954864
:1035200081700020AC4981F8BA01A84800884FF6A4
:10353000FE710840A54908800020A4492431086094
:103540000120A3490860A349C1F88002FFF708FCE5
:103550008F488078022821D0FFF7EEFB01209C499C
:103560002C31086002208A4988700846407801287A
:1035700007D1084680788871084690F8580048714D
:1035800008E083488078824981F8A800084690F8CE
:10359000000148710120904981F8BA0100208F494B
:1035A000086001208E49C1F88002FF207849C87068
:1035B00001F0FCF901208B4908810EE3012C58D160
:1035C0006C488078012803D071488078032850D156
:1035D00001F0D0FE01216748817000207E4981F80A
:1035E000BA017A4800884FF6FE7108407749088092
:1035F000002076492431086001207549086075492A
:10360000C1F88002FFF7ACFB61488078012820D028
:10361000FFF792FB01206E49303108605C498870E9
:1036200008464078012807D1084680788871084606
:1036300090F83000487108E055488078544981F886
:10364000A800084690F8D80048710120624981F826
:10365000BA0100206149086001206149C1F8800277
:10366000FF204B49C87001F0A1F901205D49088194
:10367000B3E2032C42D13F48807801283ED1FFF7C6
:103680006FFB43488078032820D0FFF755FB0120CB
:103690005549086003203E49887008464078012853
:1036A00007D1084680788871084690F880004871F4
:1036B00008E037488078364981F8A800084690F835
:1036C000280148710120444981F8BA012B4800784B
:1036D00018B12A480078012802D103F017FF01E051
:1036E00003F050FF01203D490860FF202849C870C1
:1036F00001F05CF901203B4908816EE2222C38D1AF
:103700001C488078012834D107F0C6FD2048807815
:1037100058B11F488078012807D01D4880780228BA
:1037200003D01B4880780328A2D1FFF719FB184863
:10373000C07801285AD001200F4928390860144860
:1037400090F87301022803D10120114981F8730117
:1037500001200F49C870002102F010FD01200C4922
:1037600081F8700100210A4880F8711180F8721107
:1037700098E09AE084020020B4824142C001002017
:10378000576176655F747970653D25640D0A0000A8
:103790004800002048030020980100207341646421
:1037A0006974696F6E616C446174612E565F576114
:1037B00076655F747970653A25642C435F5761764E
:1037C000655F747970653A25640D0A000004004055
:1037D00080024042000042420C050020B08242427A
:1037E00000004042C8060020A4824042FC48C07845
:1037F00001283DD1FB48007818B1FA48007801282B
:103800001AD1F948D0E9041042F21072891A70F105
:10381000000003D20020F449C1E90420F248D0E9B5
:103820000410EF4AD2F854210832ED4BDB7802EB5A
:10383000C302C2E900101BE0EB48D0E9043044F6B3
:1038400020629A1A70F1000005D244F6206100202F
:10385000E54AC2E90410E448D0E90410E04AD2F88D
:1038600054210832DE4BDB7802EBC302C2E90010C0
:10387000DB4890F8730101280AD10020D84981F86B
:103880007301012006F01EFA0220D54981F8730168
:10389000FF20D349C870002081F870010021D04872
:1038A00080F8721101F082F897E1232C45D1CF48BE
:1038B0008078012841D107F0EFFCFFF751FAC848A2
:1038C000C078E8B10120CA490860C54890F8730182
:1038D000022803D10120C24981F873010020C049A8
:1038E000C8700021012002F049FC0120BC4981F888
:1038F00070010021BA4880F8711180F8721119E046
:10390000B74890F8730101280AD10020B44981F822
:103910007301012006F0D6F90220B14981F8730144
:10392000FF20AF49C870002081F870010021AC4829
:1039300080F8721101F03AF84FE1212C6DD1AB48BB
:103940008078012869D107F0A7FCA5488078012874
:1039500003D0A34880780228A6D1FFF701FAA04837
:10396000C07802281ED00120A149103108609C486F
:1039700090F87301022803D10120994981F873015D
:1039800002209749C8700021012002F0F7FB0120B6
:10399000934981F870010021914880F8711180F8F5
:1039A000721137E08E48C078022819D18E48D0E9CC
:1039B0000430904A9A1A70F1000004D28D48002118
:1039C000894AC2E904018848D0E90410844AD2F83F
:1039D00054210832824BDB7802EBC302C2E90010AB
:1039E0007F4890F8730101280AD100207C4981F8B2
:1039F0007301012006F066F90220794981F873010C
:103A0000FF207749C870002081F8700100217448B8
:103A100080F8721100F0CAFFDFE0202C68D17348F3
:103A20008078012864D107F037FC6D48807802283F
:103A30005DD1FFF795F96A48C07803281ED00120B0
:103A40006B4928310860664890F87301022803D159
:103A50000120634981F8730103206149C870002186
:103A6000012002F08BFB01205D4981F870010021EB
:103A70005B4880F8711180F8721136E05848C078C0
:103A8000032818D15848D0E904305B49591A70F11D
:103A9000000004D2584A00215348C0E90421524989
:103AA000D1E904014E4AD2F8542108324C4BDB785C
:103AB00002EBC30203C24A4890F8730101280AD1FD
:103AC0000020474981F87301012006F0FBF802202D
:103AD000434981F87301FF204149C870002081F8F3
:103AE000700100213E4880F8721100F05FFF74E021
:103AF000132C03D1002002F0D3FB6EE01D2C03D168
:103B0000012002F0CDFB68E0172C03D1022002F067
:103B1000C7FB62E0112C03D1032002F0C1FB5CE083
:103B20001C2C03D1042002F0BBFB56E0162C03D161
:103B3000052002F0B5FB50E0102C03D1062002F066
:103B4000AFFB4AE01B2C03D1072002F0A9FB44E0A5
:103B5000152C03D1082002F0A3FB3EE00F2C03D16B
:103B6000092002F09DFB38E0072C03D10B2002F066
:103B700097FB32E01E2C03D10C2002F091FB2CE0CD
:103B8000192C08D1164890F8720130BB0121144855
:103B900080F8721121E00D2C1FD1FFF7E1F807F03A
:103BA0007BFBFF200E49C87000F000FF00200C498D
:103BB00081F8700100210A4880F8721190F87301B1
:103BC00001280AD10020064981F87301012006F07E
:103BD00079F80220024981F8730100BFFFF77DB92F
:103BE00048000020C001002098010020840200202D
:103BF00088824142400D0300A086010000BFFEE71D
:103C000070B5DE22FC494FF40070FCF771FFFA48F2
:103C100000787E2804D1F84890F8DD0045287DD052
:103C2000F6A006F07BFB0020FE49087001204870DA
:103C300002F0D4FF012007F0F5F8FB48007A40F0CD
:103C40000B00F9490872084690F8300040F00B006C
:103C500081F83000084690F8580040F00B0081F8D9
:103C60005800084690F8800040F00B0081F8800072
:103C7000084690F8B00040F01A0081F8B0000846FD
:103C800090F8D80040F01A0081F8D800084690F863
:103C9000000140F01A0081F80001084690F8280160
:103CA00040F01A0081F82801FF2088700846007A49
:103CB00048717E20D049087001204870D94840786A
:103CC00000F0010088700020C8700871D648007AA2
:103CD000487100208871C871D449C74A9160D0608A
:103CE000D348002110615161CF4890F8300011464F
:103CF0000876002048768876C876CC49D161106273
:103D0000CB48002150629162CA48D0621163C64814
:103D100090F85800114681F8340000E008E20020D5
:103D200081F8350081F8360081F8370081F83800D5
:103D3000BE480021393210605160BD480832106021
:103D40005160BC48083210605160BB490020083205
:103D500011605060B44890F88000A74981F859007C
:103D6000002081F85A00B24800210A3210605160E8
:103D7000AD4890F8B000A04981F86300002081F8B8
:103D8000640081F86500A94800210B321060516081
:103D900041100020083211605060A34890F8D8000C
:103DA000954981F87600002081F8770081F8780045
:103DB00081F879009D490C32116050604910083239
:103DC00011605060083211605060974890F800010F
:103DD000894981F89200002081F8930081F89400CD
:103DE00081F8950081F8960090490D32116050607D
:103DF0004810002108321060516008321060516094
:103E00008D48083210605160874890F828017A493F
:103E100081F8B700002081F8B80086490A321160A5
:103E20005060754981F8C10081F8C20081F8C30073
:103E300081F8C40081F8C50081F8C60081F8C70088
:103E400081F8C80000211032116051600832106002
:103E500050606949C1F8D900452081F8DD00DE22B3
:103E60004FF40070FCF77FFE022074490870487020
:103E70006E490020714A921C116050600832116036
:103E8000506016226D49E620FCF76DFE5A484079D5
:103E90006549087258488179634881725648C179EA
:103EA0006148417254488168C2685F48C0E906129F
:103EB0005149086949695C4AC2E904014E48007EDB
:103EC000114681F830004C48417E104680F832108F
:103ED0004948817E104680F831104748C17E10461F
:103EE00080F833104448C269016A4F48C0E9102184
:103EF0004148426A806A4C49C1E90E203E48C26A84
:103F0000016B4948C0E912213B4890F8340046490A
:103F100081F85800384890F83510434880F85A1016
:103F2000354890F83610404880F85910324890F8DB
:103F300037103D4880F85B102F4890F838103A4809
:103F400080F85C102C483930016842683648C0E976
:103F50001A122949413108684968334AC2E91801EF
:103F600025484930016842682F48C0E91C122248A0
:103F70005130016842682C48C0E91E121E4890F872
:103F80005900294981F880001B4890F85A102648AA
:103F900080F8811018495B3108684968224A8032EC
:103FA000C2E90201144890F863001F4981F8B0008B
:103FB000114890F864101C4880F8B2100E4890F830
:103FC0006510194880F8B1100B48663002684168E6
:103FD0001548B030C0E9042107486E3002684168D6
:103FE0001148B030C0E90221034890F876000E492C
:103FF00081F8D800004823E05E0300204C6F616424
:1040000020706172206572726F722C7365742074F7
:104010006F2064656661756C742076616C756521CE
:104020000D0A0000E80100204800002080841E00E6
:10403000C0E1E40040420F0080C3C90148030020F2
:1040400090F87710FE4880F8DA10FE4890F8781063
:10405000FB4880F8D910FB4890F87910F84880F8B0
:10406000DB10F8487A3002684168F548D830C0E97A
:104070000421F448823001684068F14AD832C2E92C
:104080000210F0488A3001684268ED48D830C0E933
:104090000612EC4890F89200E94981F80001E948DD
:1040A00090F89310E64880F80211E64890F89410D2
:1040B000E34880F80111E34890F89510E04880F853
:1040C0000311E04890F89610DD4880F80411DD48AF
:1040D000973001684268DC48C0E90412D9489F3033
:1040E00001684068D84AC2E90210D648A730026881
:1040F0004168D548C0E90621D248AF30016842681E
:10410000D148C0E90812CF4890F8B700CC4981F8EF
:104110002801CC4890F8B810C94880F82911C9483E
:10412000B93001684068C84A2832C2E90210DCE2AE
:10413000C4484078C2490870C24880784870C14875
:10414000C0788871BF48007981F8A800BD484079DF
:104150000872BC488179BA488172BA48C179B848B6
:104160004172B8488168C268B548C0E90612B548CE
:1041700002694169B248C0E90421B248007EB049F1
:1041800081F83000AF48417EAD4880F83210AD482C
:10419000817EAB4880F83110AA48C17EA84880F8DB
:1041A0003310A848C169026AA548C0E91012A549A0
:1041B000486A896AA24AC2E90E01A248C26A016B32
:1041C0009F48C0E912219F4890F834009C4981F82B
:1041D00058009C4890F83510994880F85A10994832
:1041E00090F83610964880F85910964890F8371095
:1041F000934880F85B10934890F83810904880F806
:104200005C1090483930016842688D48C0E91A1244
:104210008C49413108684968894AC2E918018948CE
:104220004930016842688648C0E91C12854851300F
:10423000016842688248C0E91E12824890F859001D
:104240007F4981F880007F4890F85A107C4880F8B8
:1042500081107C485B300268406879498031C1E94F
:104260000220784890F86300803981F8B0007548E2
:1042700090F86410724880F8B210724890F8651097
:104280006F4880F8B1106F486630016842686E4828
:104290005038C0E904126B486E30026840686A49C1
:1042A0005039C1E90220674890F87600B03981F8AA
:1042B000D800644890F87710614880F8DA106148B7
:1042C00090F878105E4880F8D9105E4890F8791020
:1042D0005B4880F8DB105B487A30026841685A48D6
:1042E0002838C0E90421574882300268406856499E
:1042F0002839C1E9022053488A300168426852488F
:104300002838C0E906124F4890F892004C4981F8CD
:1043100000014C4890F89310494880F80211494830
:1043200090F89410464880F80111464890F895108E
:10433000434880F80311434890F89610404880F8AD
:10434000041140489730026841683F48C0E90421A1
:104350003C489F30016842683B48C0E90212394836
:10436000A730016842683848C0E906123548AF30C6
:10437000016842683448C0E90812324890F8B70032
:104380002F4981F828012F4890F8B8102C4880F860
:1043900029112C49B931086849682B4A2832C2E9E9
:1043A00002012748D0E91A43224628A005F0B6FFAB
:1043B0002348D0E91843224632A005F0AFFF204839
:1043C000D0E91C4322463DA005F0A8FF1C48D0E9D7
:1043D0001E43224647A005F0A1FF554A4523184831
:1043E000183000F0FDF9534A00231548103000F052
:1043F000F7F94F4A45231248403000F0F1F94D4A91
:1044000000230F48383000F0EBF94B4A09230C48E1
:10441000483000F0E5F9464A45230948683000F085
:10442000DFF9444A00230648603000F0D9F9424AD7
:1044300009230348703000F0D3F9404A02237FE09B
:10444000480000205E03002048010020557365727B
:104450004F7065726174696F6E2E565F4D6F646543
:10446000547261696E2E506172616D5B554F5F5081
:104470004152414D5F50554C53455D3A256C6C643B
:104480000D0A0000557365724F7065726174696F33
:104490006E2E565F4D6F6465547261696E2E506169
:1044A00072616D5B554F5F504152414D5F414D50C0
:1044B0004C5D3A256C6C640D0A0000005573657202
:1044C0004F7065726174696F6E2E565F4D6F6465D3
:1044D000547261696E2E506172616D5B554F5F5011
:1044E0004152414D5F465245515D3A256C6C640D19
:1044F0000A000000557365724F7065726174696FD0
:104500006E2E565F4D6F6465547261696E2E5061F8
:1045100072616D5B554F5F504152414D5F44555242
:104520004154494F4E5D3A256C6C640D0A00000001
:1045300000B864D900B4C40400902F500098D0583B
:10454000864800F04DF9864A00238448103000F078
:1045500047F9844A45238148483000F041F9824AAE
:1045600000237E48403000F03BF97E4A45237B48DB
:10457000703000F035F97C4A00237848683000F04C
:104580002FF97A4A09237548783000F029F9754ADD
:1045900045237248983000F023F9734A00236F488E
:1045A000903000F01DF9714A09236C48A03000F0EA
:1045B00017F96F4A02236948A83000F011F96A4AD6
:1045C00000236648B83000F00BF96448B030D0E9F9
:1045D0000243224667A005F0A1FE0020754908703D
:1045E0005E48783840784870012002F0F7FAFF20E2
:1045F0005A497839887008464078B0B3012873D199
:104600000846807930B101280ED0022817D003283F
:104610002CD11FE051487838007A504978394871D8
:10462000012006F0FFFB22E04C48783890F830007B
:104630004A4978394871042006F0F4FB17E04748EE
:10464000783890F85800454978394871072006F0C5
:10465000E9FB0CE04148783890F880003F49783910
:1046600048710A2006F0DEFB01E002E000BF00BF57
:104670003AE03A48783890F8A80030B101280FD0D5
:10468000022818D003282CD120E03448783890F83C
:10469000B000324978394871012006F0C3FB21E0AF
:1046A0002E48783890F8D8002C4978394871042081
:1046B00006F0B8FB16E02948783890F80001274941
:1046C00078394871072006F0ADFB0BE023487838B5
:1046D00090F828012149783948710A2006F0A2FB98
:1046E00000E000BF00BF00BF00BF16223249E62035
:1046F000FCF7FEF930480078032802DD00202E493F
:1047000008702D484078032802DD00202A494870AF
:1047100029484278017829A005F000FE0F48783832
:10472000407801280CD1244800782C490870224890
:10473000801C0268416809480830C0E904210BE088
:104740001D484078254908701B480A3001684268B6
:104750000248B030C0E9041270BD0000C000002063
:1047600000B4C40400B864D90048E80100902F5098
:104770000098D058526561643120557365724F704E
:1047800065726174696F6E2E435F4D6F6465457825
:1047900074426E632E506172616D5B554F5F504184
:1047A00052414D5F414D504C5D3A256C6C640D0A91
:1047B00000000000E801002048030020565F576118
:1047C00076655F747970653A25642C435F5761762E
:1047D000655F747970653A25640D0A00C001002098
:1047E00010B5D0E90041141B73EB010102D2002483
:1047F0000460446010BD000010B504460C4951F837
:1048000024104A000B4951F82400002106F03AFD1B
:10481000094951F824200749083951F8240000219A
:1048200006F030FD012103480830015510BD00009D
:1048300034BA0008F802002044BA000870470000AB
:1048400070B5002100230F22C4781CB3174C2468D4
:1048500004F4E064C4F5E064C4F30721C1F1040486
:10486000E3B20A4144789C40E1B284781440214389
:104870000C07210E0E4C05786155047804F01F05D5
:104880000124AC4005786D11AD0005F1E025C5F8B7
:10489000004109E0047804F01F050124AC40054DF7
:1048A0000678761145F8264070BD00000CED00E05A
:1048B00000E400E080E100E002490143024A1160A7
:1048C000704700000000FA050CED00E010B500286C
:1048D00007DA0A07140E054A00F00F031B1FD45411
:1048E00003E00A07130E024A135410BD18ED00E04E
:1048F00000E400E02DE9F04104460D461646012E85
:1049000038D1012C16D126480078012808D146F26A
:10491000A81095FBF0F739460120FCF744F83DE07C
:1049200046F2A81095FBF0F0474239460120FCF70B
:104930003AF833E094BB1A48007801280BD14FF4C1
:104940007A7095FBF0F7F81707EB5070C110022052
:10495000FCF729F822E04FF47A7095FBF0F7F8178E
:1049600007EB5070C010C0F1000841460220FCF770
:104970001AF813E096B9012C04D100210120FCF7AC
:1049800012F804E01CB900210220FCF70CF8012009
:104990000449086000200449C1F89402BDE8F08190
:1049A00048000020800240420080404210B550483C
:1049B00000794F49C97888424ED04D48007930B1CE
:1049C000012813D0022821D003283FD12EE049A18D
:1049D000494805F0B3FC47A14748733005F0AEFCE9
:1049E00044A14548E63005F0A9FC30E041A1424829
:1049F000163805F0A3FC3FA13F484B3005F09EFC64
:104A00003CA13D48DC3005F099FC20E039A13A4852
:104A1000163005F093FC37A137489B3005F08EFC2B
:104A200034A13548F03005F089FC10E031A132485E
:104A30002C3005F083FC2FA12F48C33005F07EFCFD
:104A40002CA12D48FA3005F079FC00E000BF00BF32
:104A50002748C078264908712548C07830B1012818
:104A600013D0022821D003283FD12EE021A12248D3
:104A700005F064FC1FA12048733005F05FFC1DA108
:104A80001D48E63005F05AFC30E01AA11A481638E5
:104A900005F054FC17A118484B3005F04FFC15A148
:104AA0001548DC3005F04AFC20E012A1124816300F
:104AB00005F044FC0FA110489B3005F03FFC0DA110
:104AC0000D48F03005F03AFC10E00AA10A482C30FD
:104AD00005F034FC07A10848C33005F02FFC05A100
:104AE0000548FA3005F02AFC00E000BF00BF10BD09
:104AF0004800002000000000C70500202DE9FF4FFE
:104B000087B00D4614461F46DDE9176BDDE9158AAF
:104B1000DDF85090079809287ED2DFE800F07D0587
:104B20002E475E879EC7EB0004EB090083B2E819AD
:104B300082B2214628460096FDF744FB5046FBF71B
:104B40008CFB08EBD871491000FB117005EB50008D
:104B500080B2CDE90408A9EB0800CDE9026BCDE9EC
:104B6000008A069000EBD07004EB600081B24B46E7
:104B70003A460498FEF730F8D7E004EB090083B218
:104B8000E81982B2214628460096FDF71BFB04F186
:104B9000140291B205F1140290B24B463A46CDE9A7
:104BA000026BCDE9008AFEF717F8BEE004EB0900BE
:104BB00083B2E81982B2214628460096FDF702FB2F
:104BC00004F1140081B24B463A462846CDE9026B07
:104BD000CDE9008AFEF700F8A7E044F22820009013
:104BE00004EB090083B2E81982B221462846FDF79A
:104BF000E9FA04EB09000A3883B2E819283882B2CE
:104C000004F10A0081B228460096FDF7DBFA04F1B0
:104C1000140081B24B4600E086E03A462846CDE9D2
:104C2000026BCDE9008AFDF7D7FF7EE004EB0900B7
:104C300083B2E81982B2214628460096FDF7C2FAEF
:104C400004F1140081B24B463A462846CDE9026B86
:104C5000CDE9008AFDF7C0FF67E004EB090083B2ED
:104C6000E81982B2214628460096FDF7ABFA0020EB
:104C700030A11022CDE901160092039004F1120236
:104C800091B26A1D90B24B463A46FDF7A5FF04F17A
:104C90000A0291B205F13C0290B24B463A46CDE988
:104CA000026BCDE9008AFDF797FF3EE004EB0900B7
:104CB00083B2E81982B2214628460096FDF782FAAF
:104CC0005046FBF7CAFA08EBD871491000FB117087
:104CD00005EB500080B2CDE9050804F10A0081B26D
:104CE0004B463A46CDE9026BCDE9008A0598FDF7BF
:104CF00073FF1AE004EB090083B2E81982B221467F
:104D000028460096FDF75EFA0CA0102104F112026D
:104D1000CDE9026BCDE9001091B26A1D90B24B460D
:104D20003A46FDF759FF00E000BF00BF0BB0BDE8F9
:104D3000F08F000054595045207C000054595045D4
:104D40003A0000007047000010B5002004490860D8
:104D50000121880702F037FA00210248817010BD56
:104D6000800240428402002010B5012004490860FE
:104D70000021800702F027FA02210248817010BD4D
:104D800080024042840200202DE9F04F2DED068B79
:104D900087B0F5488078002877D104460546F24868
:104DA000407801280AD1F048D0E90645EF49611A58
:104DB00075F1000010D2EE4804600DE0EA4840783A
:104DC00050B9E948B030D0E90445E849611A75F1B5
:104DD000000001D2E6480460E648007818B1E548D2
:104DE000007801280BD142F21071611A75F10000B0
:104DF00005D2012007B0BDEC068BBDE8F08FDD4881
:104E00000078022803D0DB480078032807D144F655
:104E10002061611A75F1000001D20120EAE7D5484E
:104E2000007818B1D348007801280ED1FA22002367
:104E300020462946FBF7CEF9401ECF4908600846B8
:104E40000068A0F11C0008600DE0FA220023204653
:104E50002946FBF7BFF9401EC749086008460068AD
:104E6000A0F1480008604FF00100C44908604FF00D
:104E70000000C349C1F880024FF00F00FBF756FF56
:104E8000BD480268BB48017800E00AE0BDA005F01B
:104E900045FA0021CB488170B7480068FCF7E2F87A
:104EA0002DE2B148807801287DD1002004460546D6
:104EB00006460746AC48407801280CD1AA48D0E9FC
:104EC0001045D0E91267A949611A75F1000012D2A4
:104ED000A74804600FE0A448407860B9A248D830E1
:104EE000D0E90445D0E90667A049611A75F10000D0
:104EF00001D29F4804609F48007818B19D4800780F
:104F0000012807D142F21071611A75F1000001D237
:104F100001206FE797480078022803D09548007871
:104F2000032807D144F62061611A75F1000001D20F
:104F300001205FE78D49711A77F1000001D201204D
:104F400058E78C48007818B18A48007801280ED1BB
:104F5000FA22002320462946FBF73CF9401E8649E9
:104F6000086008460068A0F11C0008600DE0FA2205
:104F7000002320462946FBF72DF9401E7E49086094
:104F800008460068A0F1480008607B480068224697
:104F90002B46CDE9006702908BA005F0BFF900BF5A
:104FA00000BF00BF00E050E04FF014094FF47A72E8
:104FB000002330463946FBF70DF906460F463046CA
:104FC0003946FBF71FFB41EC190B53EC192B9FEDF6
:104FD000880B51EC100BFBF777FA41EC180B9FEDA7
:104FE000860B53EC102B51EC180BFBF76DFA9FED71
:104FF000840B53EC102BFBF7EFF9FBF70FFB80460C
:1050000053EC182B80A0CDF8008005F087F95A48A2
:105010000068404502D95848C0F80080012057492F
:10502000086000205649C1F880020F20FBF77EFE81
:105030001FFA89F1404602F080F900216148817031
:105040000121880702F0BFF859E14748807802281B
:10505000FAD100210C460D460E460F460020804630
:1050600081464148407801280ED13F48D0E91A4591
:10507000D0E91C67D0E91E893C49611A75F100002E
:1050800016D23B48046013E03748407880B9634843
:10509000D0E90445D0E906673348D0F82491D0F828
:1050A00020813249611A75F1000001D23048046054
:1050B0003048007818B12F480078012807D142F213
:1050C0001071611A75F1000001D2012092E62948A1
:1050D0000078022803D027480078032807D144F637
:1050E0002061611A75F1000001D2012082E61F499A
:1050F000711A77F1000001D201207BE64849B8EB34
:10510000010179F1000001D2012073E6194800780D
:1051100018B11848007801280ED1FA220023204641
:105120002946FBF757F8401E1349086008460068F7
:10513000A0F11C0008600DE0FA2200232046294659
:10514000FBF748F8401E0C49086008460068A0F1CB
:10515000480008600848CDE90489006822462B46CB
:10516000CDE9006702905DE048000020400D03009B
:1051700014030020C001002008030020B082424236
:105180000000404253494E474C4554524947474519
:1051900052204D6F64652C53575F43565F4F5554F3
:1051A000505554203D20312C576176655F747970DD
:1051B000653D25642C74696D355F6172723D2564AF
:1051C0000D0A00008402002070756C73653D256C2B
:1051D0006C646E732C667265713D256C6C646D68D1
:1051E0007A2C74696D355F6172723D25640D0A0019
:1051F000000000A2941A6D420000000000406F40C1
:10520000000000000000F03F543D256C662C7469DE
:105210006D325F6172723D25640D0A004801002005
:10522000A086010037A005F079F800BF00BF00BFDD
:10523000142006904FF47A72002330463946FAF76C
:10524000C9FF06460F4630463946FBF7DBF941EC0D
:10525000190B53EC192B1FED1A0B51EC100BFBF72C
:1052600033F941EC180B1FED1C0B53EC102B51ECD8
:10527000180BFBF729F91FED1E0B53EC102BFBF756
:10528000ABF8FBF7CBF982462C480068504502D9B1
:105290002A48C0F800A04FF47A700021A8FB002B28
:1052A00009FB00B001FB08011046FBF7ABF953EC1A
:1052B000182BFBF709F9FBF7B1F9214908600846FB
:1052C000006853EC182BCDE900A01EA005F026F8CD
:1052D00001202549086000202449C1F880020F20E0
:1052E000FBF724FD069881B2504602F026F8002113
:1052F0001F4881700121880701F065FF00BF002071
:1053000078E5000070756C73653D256C6C646E7398
:105310002C667265713D256C6C646D687A2C7469BD
:105320006D355F6172723D25642C647572617469BC
:105330006F6E3D256C6C640D0A00000008030020B0
:1053400010030020543D256C662C74696D325F613A
:1053500072723D25642C747261696E5F61636F7552
:105360006E743D25640D0A00B08242420000404246
:105370008402002010B5FBF7E5FC00214FF08040CF
:1053800001F021FF00204FF0804148620A49086087
:105390000A49086001210A48817000210320FBF7B7
:1053A00002FB00200749086001200749C1F880027C
:1053B00000200649086010BD100300200C030020E7
:1053C00084020020B082424200004042D00200200D
:1053D0002DE9F0472DED028B04464FF000099FEDBB
:1053E0004C0AB0EE408AE06818B1E168002005F090
:1053F00023FF48480078401C00EB8000410000205B
:1054000005F02CFFE060E06820B90520BDEC028BC0
:10541000BDE8F0873F484078012829D13D48806B9E
:1054200020603C493831D1E904714FF47A7200238D
:105430003846FAF7CFFE0546FBF7B5F808EE100A36
:1054400034493831D1E902211046FBF7ACF800EEBF
:10545000100A20EE080ADFED300A20EE200ADFED08
:105460002F0A80EE201ABCEEC10A10EE109A29E035
:105470002848D0F8E00020602649E031D1E9045105
:105480004FF47A7200232846FAF7A4FE0746FBF78A
:105490008AF808EE100A1F49E031D1E902211046CE
:1054A000FBF781F800EE100A20EE080ADFED1A0A79
:1054B00020EE200ADFED190A80EE201ABCEEC10AA8
:1054C00010EE109A206808B901209FE7B5EEC08A57
:1054D000F1EE10FA01D1022098E7B9F1000F01D1E5
:1054E000032093E7E068DFED0E0A68EE200AB0EED5
:1054F000600A00EE909AF8EE600A00F0D1F84FF6DC
:10550000FF70E16808600120A060606000207DE716
:10551000000000004800002000504347286B6E4EFA
:105520000000C8422DE9F0412DED028B0446002019
:1055300008EE100A9FED540AF0EE408AE06818B1B8
:10554000E168002005F078FE5048007800EB80000C
:105550004100002005F082FEE060E06820B90520EF
:10556000BDEC028BBDE8F08148484078012803D1AA
:1055700046480069206003E04448D0F8B800206045
:10558000206808B90120EBE79FED410AF0EE408A60
:105590004CF2503008EE100AE068F8EE480AB0EE1F
:1055A000680A00F07DF839484078012820D1374951
:1055B0001031D1E902514FF47A7200232846FAF7EC
:1055C00009FE0746FAF7EFFF00EE100A9FED311AC9
:1055D000C8EE810A9FED301AC0EE811A20EE210A32
:1055E000DFED2C0A80EE201A2C4880ED001A1FE017
:1055F0002649B831D1E902514FF47A720023284686
:10560000FAF7E8FD0746FAF7CEFF00EE100A9FED25
:10561000211AC8EE810A9FED201AC0EE811A20EEF1
:10562000210ADFED1C0A80EE201A1C4880ED001ACA
:105630001A4890ED000ABCEEC00A10EE100AE168AC
:10564000086012480078022812D1E16801F10A00CE
:10565000F8EE480AB0EE680A00F022F80F4890ED24
:10566000000ABCEEC00A10EE100AE168C1F80A0098
:10567000E068006808B9042072E704480078A06078
:105680000120606000206BE700000000480000205F
:105690008096984A00007A440000C842C002002068
:1056A0002DE9F0412DED088BB0EE409AF0EE608AC6
:1056B0000446002600279FED950AB0EE408A00259B
:1056C000A846DFED930A89EE200ADFED920A80EE0C
:1056D000801AB0EE418A9FED900AB4EEC08AF1EED6
:1056E00010FA05D8BCEEC80A10EE105A012686E062
:1056F00018EE100AFAF7ABFF41EC1B0BB0EE4B0AA9
:10570000F0EE6B0A04F02EFEB0EE40AAF0EE60AAB6
:1057100051EC1A0BFAF782FF054600EE105AB8EE6C
:10572000400AC8EE000ABCEEE00A10EE100A86B28B
:105730009FED7A0AB4EEC08AF1EE10FA0ADD9FED11
:10574000780AC8EE000ABCEEE00A10EE108A4EF6A7
:1057500060273DE09FED730AB4EEC08AF1EE10FAC7
:105760000ADD9FED710AC8EE000ABCEEE00A10EEF9
:10577000108A42F210772BE09FED6C0AB4EEC08ADB
:10578000F1EE10FA0ADD9FED6A0AC8EE000ABCEEDF
:10579000E00A10EE108A4FF47A7719E09FED650A5F
:1057A000B4EEC08AF1EE10FA09DD9FED590AC8EE99
:1057B000000ABCEEE00A10EE108A642708E0B2EEA0
:1057C000040AC8EE000ABCEEE00A10EE108A0A27AE
:1057D00005FB06F000EE100AB8EE400A78EE400A2B
:1057E00008FB07F000EE100AB8EE400A38EE400A57
:1057F000F4EEC00AF1EE10FA01DD45463E46681EA1
:10580000A080701EE0809FED4C0AF4EEC08AF1EE9D
:1058100010FA03DBA088401C20816DE0F5EEC08A01
:10582000F1EE10FA02D10020208165E09FED420ADE
:10583000C0EE280AA088401C00EE100AB8EEC00A8C
:10584000F4EEC00AF1EE10FA37DDA08800EE100A7F
:10585000B8EE400AB0EE408ADFED370A80EEA80AC3
:10586000F7EE000A30EE600ABCEEC00A10EE100A35
:10587000A080E08800EE100AB8EE400A60EE080A48
:10588000A08800EE100AB8EE400A80EE801AB0EE52
:10589000418AB7EE000AB4EEC08AF1EE10FA03D2E4
:1058A000B7EE000AB0EE408AB7EE000A38EE400AC2
:1058B000BCEEC00A10EE100AE080A088401C00EE8A
:1058C000100AB8EEC00A20EE280ADFED1B0A80EEAF
:1058D000201AB0EE418A18EE100AFAF7B8FE41EC31
:1058E0001B0B9FED160B53EC102BFAF7D4FC41EC7D
:1058F0001A0BFAF793FE2081E288A18811A004F028
:105900000DFD0020BDEC088BBDE8F081000000001B
:105910000000C842A037A04C00FF7F47643F1C4EE8
:1059200000606A4706FF794C00401C4638FFC74AB2
:1059300000007A4460FF1F49005043470000000008
:105940000000E03F617272313D25642C7073633159
:105950003D25640D0A0000002DE9F0472DED028B76
:1059600004464FF000099FED710AB0EE408AE068EE
:1059700018B1E168002005F05FFC6D480078401C1C
:1059800000EB80004100002005F068FCE060E0686A
:1059900020B90520BDEC028BBDE8F0876448407853
:1059A000012803D16248006E206003E06048D0F80F
:1059B00008012060206808B90120EBE75C484078C6
:1059C000012827D15A48006E206059484FF47A7256
:1059D0000023D0E91C512846FAF7FCFB0746FAF7EA
:1059E000E2FD08EE100A5248D0E91A211046FAF7F3
:1059F000DAFD00EE100A20EE080ADFED4E0A20EE76
:105A0000200ADFED4D0A80EE201ABCEEC10A10EE2E
:105A1000109A27E04648D0F8080120604749D1E9AC
:105A200004514FF47A7200232846FAF7D3FB074655
:105A3000FAF7B9FD08EE100A4049D1E902211046F3
:105A4000FAF7B1FD00EE100A20EE080ADFED390A80
:105A500020EE200ADFED380A80EE201ABCEEC10AE3
:105A600010EE109A206808B9012093E7B5EEC08ABD
:105A7000F1EE10FA01D102208CE7B9F1000F01D14B
:105A8000032087E7E068DFED2E0A68EE200AB0EE1B
:105A9000600A00EE909AF8EE600AFFF701FE2448D3
:105AA000806FE16808602248407801281AD12048B8
:105AB0004FF47A720023D0E91E512846FAF78AFB88
:105AC0000746FAF770FD00EE100A20EE080ADFED37
:105AD0001D0A80EE201ABCEEC10A10EE100AE16821
