:020000040800F2
:1000000068460020B1010008C94C0008C913000867
:10001000793B0008890C00088FA50008000000004B
:10002000000000000000000000000000D96400088B
:10003000850D000800000000D1510008257200085D
:10004000CB010008CB010008CB010008CB01000860
:10005000CB010008CB010008D50D0008CB0100083A
:10006000CB010008CB010008CB010008CB01000840
:10007000CB010008CB010008CB010008CB01000830
:10008000CB010008CB010008CB010008CB01000820
:10009000CB010008CB010008CB010008CB01000810
:1000A000CB010008CB010008CB010008CB01000800
:1000B000057300085D730008CB010008CB01000840
:1000C000CB010008CB010008CB010008CB010008E0
:1000D000CB010008CB010008CB010008CB010008D0
:1000E000690F0008CB010008CB010008CB01000814
:1000F000CB010008CB010008CB010008CB010008B0
:10010000CB010008CB01000891740008CB01000866
:10011000CB010008CB01000855760008CB01000890
:10012000CB010008CB010008CB010008CB0100087F
:10013000CB010008CB010008CB010008CB0100086F
:10014000CB010008CB010008CB010008CB0100085F
:10015000CB010008CB010008CB01000849A300082F
:10016000CB010008CB010008CB010008CB0100083F
:10017000CB010008CB010008CB010008CB0100082F
:10018000CB010008CB010008DFF810D000F0DEFB47
:1001900000480047D5B40008AFF30080684600204F
:1001A00030BF72B6704762B6704780F308887047F8
:1001B0000648804706480047FEE7FEE7FEE7FEE701
:1001C000FEE7FEE7FEE7FEE7FEE7FEE79D720008BA
:1001D000890100082DE9F05F0546002092469B4604
:1001E00088460646814640241BE02846414647464D
:1001F000224600F073FA53465A46C01A914110D372
:1002000011461846224600F05AFA2D1A67EB0108EB
:100210004F4622460120002100F051FA17EB000959
:100220004E41201EA4F10104DFDC484631462A4637
:100230004346BDE8F09FD2B201E000F8012B491E11
:10024000FBD270470022F6E710B513460A46044673
:100250001946FFF7F0FF204610BD421C10F8011BA5
:100260000029FBD1801A704710B5002200E0521C13
:10027000835C8C5CA34201D1002BF8D1D8B2E1B2EF
:10028000401A10BD034611F8012B00F8012B002A7B
:10029000F9D11846704730B505460020034600E006
:1002A0005B1C934205D2EC5CC85C201A01D1002C87
:1002B000F6D130BD2DE9FE4F804681EA0300C00F24
:1002C0000C46009021F0004123F00045B8EB0200FD
:1002D000A94105D24046214690461C460B4602469F
:1002E00023F00040104347D0270DC7F30A00C3F3A3
:1002F0000A510290401A019040286BDAC3F31300B0
:1003000040F4801B0098924620B10023D2EB030AF0
:1003100063EB0B0B01985946C0F14002504600F0C8
:10032000CEF906460D4650465946019A00F0E6F9C8
:1003300010EB08006141002487EA115284EAE77358
:100340001A4340D0009A62B3019A012A4FEA075239
:1003500015DC001B61EB02014FF0004202EA07527C
:10036000CDE90042001C41F5801132462B4600F0D9
:100370001DFA03B0BDE8F08F40462146F9E7001BA7
:1003800061EB0201001C41F5801300185B4120184D
:10039000A2F5001747EB030140EAD570B6196D418D
:1003A00011E06D084FEA360645EAC0754FEA07527C
:1003B000001B61EB0201001C41F5801149084FEA66
:1003C00030000019514132462B4603B0BDE8F04FD2
:1003D00000F0DDB90098012240000023D0EB0202BA
:1003E00063EBE073009821464FEAE074B8EB00003D
:1003F00061EB0401E9E783F000435BE781F0004132
:1004000058E72DE9FE4F81EA030404F0004421F08F
:10041000004100944FF0000B23F0004350EA010428
:100420005ED052EA03045BD0C3F30A54C1F30A5509
:100430002C44A4F2F3340194A0FB0254C1F3130141
:1004400041F48011C3F3130343F4801301FB02440E
:1004500000FB034E840A970A44EA815447EA835713
:10046000A4FB076802958D0A05FB07854FEA932CCC
:1004700004FB0C542705029D4FEA065847EA16373D
:10048000B5EB08056EEB070C870E920E47EA811755
:1004900042EA8312A7FB0201B6EB0B0164EB0004F6
:1004A0002B0D43EA0C335E1844EB1C50DA465146E0
:1004B000E7FB0201C5F313044FEA0B3343EA14537D
:1004C0004FEA0432019C43EA0603A4F10C040294AF
:1004D000009CCDE900B400F069F903B0BDE8F08FED
:1004E00000200146F9E72DE9F04D81EA030404F00C
:1004F000004B21F0004514464FF0000A23F0004164
:1005000050EA050220D054EA01021DD0C5F30A5773
:100510000246C5F31303C1F31300C1F30A5640F4B6
:10052000801543F48013A7EB0608101BD64608F28B
:10053000FD3873EB050002D308F1010801E09218C1
:100540005B41B8F1000F03DA00200146BDE8F08DF1
:1005500000204FF48011064684460EE0171B73EB13
:10056000050705D3121B63EB050306434CEA010C98
:1005700049084FEA300092185B4150EA0107EDD17B
:1005800052EA030012D082EA040083EA050108431C
:1005900005D0101BAB4106D20122002306E0002249
:1005A0004FF0004302E06FF0010253101AEB060017
:1005B0004CEB085110EB0A0041EB0B01BDE8F04D8C
:1005C00000F0E5B830B4044696230800214604D074
:1005D000B62330BC002200F0ACB820460021F8E77A
:1005E0000EB540F2334102910021CDE900110A46D7
:1005F0000B4600F0DBF803B000BD3EB5CA17CB0FC9
:10060000002450405140C0186141DA0740F23343A2
:100610000094CDE901232246234600F0C7F803B039
:1006200030BD0EB540F2334202920022CDE90022E5
:10063000134600F0BBF803B000BDC1F30A5210B579
:10064000C1F3130140F2FF3341F480119A4201DA01
:10065000002010BD40F233439A42A2F2334203DC41
:10066000524200F03BF810BD904010BD00F0004237
:1006700030F000400AD0C10D01F56071C0F31600E2
:1006800042EA0151C2084007114370470020014669
:10069000704730B50B46014600202022012409E0B6
:1006A00021FA02F59D4205D303FA02F5491B04FA2B
:1006B00002F52844151EA2F10102F1DC30BD202A0A
:1006C00004DB203A00FA02F1002070479140C2F1A9
:1006D000200320FA03F3194390407047202A04DBDB
:1006E000203A21FA02F00021704721FA02F3D040AB
:1006F000C2F120029140084319467047202A06DBC8
:10070000CB17203A41FA02F043EAE07306E041FADF
:1007100002F3D040C2F120029140084319467047CD
:100720000029A8BF7047401C490008BF20F0010005
:10073000704710B4B0FA80FC00FA0CF050EA0104E3
:1007400004BF10BC704749B1CCF1200421FA04F475
:1007500011FA0CF118BF012121430843A3EB0C014E
:10076000CB1D4FEA00614FEA102042BF002010BCB1
:10077000704700EBC35010440029A4BF10BC704761
:10078000401C490008BF20F0010010BC704710B5A4
:10079000141E73F1000408DA401C41F100019218A4
:1007A0005B411A4301D120F0010010BD2DE9F04D4D
:1007B00092469B4611B1B1FA81F202E0B0FA80F2A2
:1007C00020329046FFF77BFF04460F4640EA0A00BE
:1007D00041EA0B0153465A46084313D0114653EAE7
:1007E000010019D0C8F140025046FFF777FF0546D7
:1007F0000E46504659464246FFF761FF084305D072
:10080000012004E020463946BDE8F08D0020054374
:1008100046EAE0762C4337430A986305E40AA0EBE6
:1008200008000022FD0A44EA47540A3002D500209D
:100830000146E9E7010510196941DDE9084500199C
:100840006941BDE8F04DA2E72DE9F04D00231A46BD
:100850001B1A8A4103DB00200146BDE8F08DC1F37D
:100860000A52C1F3130141F480154FF0000BD10778
:1008700002D100186D41521E0027044640F2FF11BC
:10088000384601EB620A3E468046024600204FF49D
:100890008011FFF723FFC2197141BB1846EB01001D
:1008A000B4EB030C75EB000C04D3E41A65EB000504
:1008B00017460E46241908F101006D418046342880
:1008C000E3DDF91946EB0600091BA84103D24FF0FE
:1008D000FF32134601E0002213461BEB070046EBF4
:1008E0000A51BDE8F04DFFF752BFC1F30A52C1F300
:1008F000130140F2FF3341F480119A4202DA0020E2
:100900000146704740F233439A42A2F2334202DC7E
:100910005242FFF7E3BEFFF7D2BE000030B5041E1F
:1009200071F1000404DB4FF00044404264EB01012C
:10093000141E73F1000405DB1C464FF000435242C5
:1009400063EB0403994208BF904230BD064C074D4B
:1009500006E0E06840F0010394E80700984710348F
:10096000AC42F6D3FFF714FCA4D70008C4D70008A4
:1009700070B58C1810F8015B15F0070301D110F861
:10098000013B2A1106D110F8012B03E010F8016B8E
:1009900001F8016B5B1EF9D12B0705D40023521E11
:1009A0000DD401F8013BFAE710F8013BCB1A921C79
:1009B00003E013F8015B01F8015B521EF9D5A14277
:1009C000D8D3002070BD70B505460C46012D04D16A
:1009D0002046E11700F014F810E0022D04D1204663
:1009E000E11700F04FF809E0032D07D12046E11789
:1009F00000F006F82046E11700F044F870BD000052
:100A000070B52DED088B05460E4628463146FFF79A
:100A1000F4FD9FED150B53EC102BFFF7F2FC9FED4F
:100A2000140B53EC102BFFF745FC9FED130B53EC0D
:100A3000102BFFF73FFCFFF700FE84B21020104997
:100A4000088304204883201205F03EFCE0B205F044
:100A50003BFC10200A4948830420088308200883AF
:100A6000BDEC088B70BD00000000000000002040BD
:100A7000000000000000E03F00000000C0FFDF4079
:100A80000000024070B52DED088B05460E46284645
:100A90003146FFF7B2FD9FED150B53EC102BFFF71E
:100AA000B0FC9FED140B53EC102BFFF703FC9FEDF4
:100AB000130B53EC102BFFF7FDFBFFF7BEFD84B2C9
:100AC00010201049088308204883201205F0FCFB01
:100AD000E0B205F0F9FB10200A494883042008839E
:100AE00008200883BDEC088B70BD000000000000EA
:100AF00000002040000000000000E03F0000000077
:100B0000C0FFDF400000024010B500F087FC10BDC0
:100B100070B506460C46154608E03046721C96B283
:100B200000F007F804F8010B681E85B2002DF4D11F
:100B300070BD70B50446002600F022FDA02000F034
:100B4000EBFC00F069FD201200F0E6FC00F064FD13
:100B50002546E11704EB11610912A4EB0121C8B28B
:100B600000F0DAFC00F058FD00F00AFDA12000F0D2
:100B7000D3FC00F051FD002000F09CFC064600F084
:100B800025FD304670BD70B505460C46164606E09C
:100B90002178284600F009F8681C85B2641C301ED4
:100BA000A6F101018EB2F3D170BD70B504460E46B8
:100BB00000F0E6FCA02000F0AFFC00F02DFD2012BC
:100BC00000F0AAFC00F028FD2546E11704EB1161B6
:100BD0000912A4EB0121C8B200F09EFC00F01CFD3C
:100BE000304600F099FC00F017FD00F0EFFC0A2001
:100BF00000F0CAF870BD00001CB50121202005F0EE
:100C0000EDF90121402005F0E9F901208DF80400FB
:100C100000208DF8060003208DF8050001208DF8D6
:100C20000700C00300906946014800F049FB1CBD65
:100C3000001802401CB50AF0D9FA0121042005F081
:100C4000CDF93F20009000208DF8040001208DF8A0
:100C5000070069460B4800F033FB4FF47C600090BE
:100C600001208DF8040000208DF8060003208DF887
:100C7000050001208DF807006946024800F020FBBE
:100C80001CBD00000008024000BFFEE770B5024630
:100C90004FF6FF70002313E012F8015B6840002458
:100CA0000AE000F0010525B14AF2010585EA60007D
:100CB00000E04010651CECB2082CF2DB5D1CEBB2CE
:100CC0008B42E9DB70BD000000B585B00121022038
:100CD00005F084F90121880305F0C0F94FF4604064
:100CE000039000208DF8100001208DF8130003A957
:100CF000234800F0E5FA0D21012005F0EFFB0F215C
:100D0000012005F0EBFB4FF40050009000208DF81F
:100D1000040010208DF8050001208DF806006846BB
:100D200000F078F928208DF8080003208DF80900DC
:100D30008DF80A0001208DF80B0002A803F0C6FF11
:100D40004FF40040009000208DF8040010208DF832
:100D5000050001208DF80600684600F05BF92820A8
:100D60008DF8080003208DF809008DF80A00012095
:100D70008DF80B0002A803F0A9FF05B000BD00002C
:100D8000000402407047000001B504490098086063
:100D900000BF024800680028FBD108BD0C000020FD
:100DA000094800884FF6FE71084007490880002076
:100DB00005492431086005488078032802D10121C3
:100DC0000348817070470000000C00404000002084
:100DD0007C02002070B5012000F010F900287DD0C1
:100DE0005848807803285BD15748007818B1564896
:100DF0000078012854D153484078012806D1514841
:100E0000D0F8880051494968086008E04D484078AA
:100E100028B94C48D0F830014C4949680860022094
:100E20000BF0A1F84A480068012828D10020494960
:100E300008600021484881700120484908704848EE
:100E4000008840F00100464908803F48007840B9DA
:100E50003E4A526811683B4A5078012203F090FFE5
:100E600008E03A4A526812685142364A50780122E4
:100E700003F086FF01203649843108605DE0344884
:100E80000068002859D12F4948780122002103F039
:100E900077FF00202E4984310860304908704CE00B
:100EA00028488078032848D127480078022803D0B2
:100EB00025480078032840D105200BF054F8244839
:100EC0000068012839D1002400251E4840780128F7
:100ED0000BD11C48D0F888001C4900E030E049687C
:100EE00008601848D0F890500BE01648407840B998
:100EF0001448D0F830011549496808601148D0F805
:100F00003851CDB1012017490860FA20B5FBF0F047
:100F1000441E483C00200F49086000210E488170A3
:100F200001200E4908700E48008840F001000C496D
:100F30000880204600F0B8F800BF012000F058F803
:100F400070BD000040000020B80100209802002081
:100F500000824042800240427C020020D4020020F5
:100F600000040040E401002010B51B48006800F4B4
:100F7000005080B364200AF089F9184800681849C5
:100F8000D1F8381288420DD016480078401C154917
:100F900008701548007890B113480078401E124937
:100FA00008700CE010480078401C0F4908700D488C
:100FB000007820B10B480078401E0A4908700B48A1
:100FC000408910B90120094948810348006840F46C
:100FD00000500149086010BD143C01403482404279
:100FE00000804042DC020020DD020020BC06002020
:100FF0000149086070470000143C01400146002090
:10100000034A12680A400AB1012000E0002070473C
:10101000143C0140002123498279002A3AD00A4633
:10102000126803689A430B461A600A1D1268036827
:101030009A430B1D1A60027911440A6803681A4327
:101040000A60184A0832126803689A43154B08333D
:101050001A601A1D126803689A43124B0C331A6007
:101060004279102A0ED11A1F126803681A430D4BD9
:1010700008331A601A1D126803681A43094B0C33AF
:101080001A600DE00749427911440A6803681A435F
:101090000A6005E0027911440A6803689A430A600D
:1010A00070470000003C014070B504460025284808
:1010B000007840B9274A52681168274A50780122BF
:1010C00003F05EFE23E022480078012809D1214A7E
:1010D000526812685142204A5078012203F050FEB3
:1010E00015E01B480078022808D11A4A5268116896
:1010F000194A5078012203F043FE08E0154A52686D
:1011000012685142144A5078012203F039FE104807
:101110000078012801DC651C01E0601C45080F48CF
:10112000056000200D49083908604FF6FE700B4934
:101130001C39088009482C38008840F00100074914
:101140002C3908800120064908600649086070BDF6
:10115000B801002098020020400000202C0C004024
:1011600084824042C802002051B18200A2F1C042F4
:10117000126842F001038200A2F1C042136009E04C
:101180008200A2F1C0421268034B1A408300A3F10F
:10119000C0431A6070470000FEFF0F0030B5002109
:1011A000002200230468A400A4F1C0442168424C3A
:1011B0002140D0E901452C43C5682C4305692C43E7
:1011C00045692C4385692C43C5692C43056A2C432A
:1011D000456A2C43856A2C43C56A2C43056B2C4316
:1011E00021430468A400A4F1C04421608468082C51
:1011F0000BD10468A400A4F1C044246844F0400565
:101200000468A400A4F1C04425600468641CA40020
:10121000A4F1C044226802F04042446B2468456B4C
:101220006D6844EA0514456BAD6844EA0524456BD6
:10123000AD8944EA0544456B2D8A44EA0554456B63
:101240002D7D44EA0564456BAD692C432243046857
:10125000641CA400A4F1C0442260C46AB4F5804FA9
:1012600020D10468A400A4F1C044D4F80431134C84
:101270002340846B2468856B6D6844EA0514856B94
:10128000AD6844EA0524856BAD8944EA0544856B65
:10129000AD692C4323430468A400A4F1C044C4F8FE
:1012A000043107E06FF070450468A400A4F1C04465
:1012B000C4F8045130BD00008000F7FF0000F0CFFB
:1012C000F0B50A4600210023002400BF3DE00125BF
:1012D00005FA01F3156805EA03049C4234D1056858
:1012E0004F000326BE40B543056015794E00B5405A
:1012F0000668354305601579012D02D01579022D58
:1013000016D185684F000326BE40B54385605579E8
:101310004E00B540866835438560456801268E409D
:10132000B5434560456896798E40B6B23543456011
:10133000C5684F000326BE40B543C560D5794E0051
:10134000B540C6683543C560491C1029BFD3F0BD00
:10135000F0B5002300244D07ED0E02FA05F3CE1080
:1013600000F1200555F826504E07F70E0F26BE4017
:10137000B543CF1000F1200646F82750CE1000F1FB
:10138000200555F8265045EA0304CE1000F120054B
:1013900045F82640F0BD4183704701837047000047
:1013A00010B516220749E620FFF7B2FB0548D0F832
:1013B0001200401C0349C1F812001622E620FFF774
:1013C000E2FB10BD4003002000BFFEE710B5002087
:1013D0000F4908600F48006820F440000D4908607C
:1013E0000846006840F48000086000200A49C1F8FF
:1013F000AC02042009F04AFF0120054908600420DE
:1014000009F044FF00200449C1F8A80210BD000003
:10141000A882404200040240008040421CB50121E5
:10142000022004F0DBFD4FF44060009001208DF8B5
:1014300004008DF8060003208DF8050001208DF8CA
:10144000070069460448FFF73BFF01200349086095
:101450000349C1F8A8021CBD00040240AC8240420E
:101460000080404210B500200F4908600F48006816
:1014700020F440000D4908600846006840F48000F0
:10148000086001200A49C1F8AC02042009F0FEFE00
:10149000012005490860042009F0F8FE00200449F5
:1014A000C1F8A80210BD0000A8824042000402401A
:1014B0000080404270B5054600241448006820F4BE
:1014C000400012490860002616E00020104908601C
:1014D000042009F0DBFE01200E49C1F8A8026006D5
:1014E000040E0B487C38006808B1601CC4B20220AE
:1014F00009F0CCFE701CC6B2082EE6DB15B9FFF76A
:10150000B1FF01E0FFF762FF204670BD000402401A
:10151000A88240420080404270B5044615480068E9
:1015200020F44000134908600846006840F4800039
:101530000860002010490860002517E0E0090E4906
:10154000091D08606006040E042009F09FFE0120BA
:101550000A49C1F8A802042009F098FE00200649B3
:101560000860042009F092FE681CC5B2082DE5DB76
:1015700070BD000000040240A8824042008040424A
:1015800010B50F48006820F440000D490860084677
:10159000006840F48000086001200A4908600A4998
:1015A000C1F8A802082009F071FE00200549086072
:1015B000082009F06BFE00200349C1F8A80210BD05
:1015C00000040240AC8240420080404210B50F4807
:1015D000006820F440000D4908600846006840F4A7
:1015E0008000086000200A4908600A49C1F8AC027E
:1015F000082009F04BFE012005490860082009F089
:1016000045FE01200349C1F8AC0210BD00040240B0
:10161000A88240420080404210B500241248006871
:1016200020F44000104908600120104908600220A1
:1016300009F02CFE01200E49C1F8A802022009F091
:1016400025FE07E0601CC4B2FA2C03DDFFF7BEFFE5
:10165000012010BD0548803800680028F2D10349F8
:10166000091F086000BFF4E700040240AC8240425A
:10167000008040421CB50121084604F0AFFC012166
:10168000022004F0ABFC0121022004F0A7FC0121A0
:10169000082004F0A3FC0121102004F09FFC01218C
:1016A000202004F09BFC0121402004F097FC48F22C
:1016B0004000009001208DF8040000208DF8060005
:1016C00003208DF8050001208DF807006946594870
:1016D000FFF7F6FD4020009001208DF80400002067
:1016E0008DF8060003208DF8050001208DF8070015
:1016F00069465148FFF7E4FD0820009069464F48CD
:10170000FFF7DEFD4FF40C40009069464C48FFF7B0
:10171000D7FD0C214748FFF740FE4FF400414548F4
:10172000FFF739FE41F60110009001208DF804000A
:1017300000208DF8060003208DF8050001208DF8AB
:10174000070069463B48FFF7BBFD4FF4307000903F
:1017500001208DF8040000208DF8060003208DF88C
:10176000050001208DF8070069463648FFF7A8FDFF
:1017700043F24C00009001208DF8040000208DF809
:10178000060003208DF8050001208DF8070069464A
:101790002D48FFF795FD4F20009001208DF80400A3
:1017A00000208DF8060003208DF8050001208DF83B
:1017B000070069462048FFF783FD012000908DF85F
:1017C000040000208DF8060003208DF8050001209C
:1017D0008DF8070069461948FFF772FD00201B4984
:1017E00008601B49C1F880021849091D08600120E2
:1017F00018490860091D0860091D0860091D086076
:101800001549086015490860144910310860091F1E
:1018100008600E490C3108600F492C390860091D19
:1018200008600D491C3908600B49091F08600C4904
:1018300008601CBD0000024000100240001402407D
:101840000018024000040240000C0240988240420E
:101850000000404280024242B4824142A002404223
:10186000808242424CF6CC4001490860704700003B
:10187000003000404AF6AA20014908607047000085
:1018800000300040014948607047000000300040CF
:10189000014988607047000000300040014908603D
:1018A00070470000003000402DE9FC470027002071
:1018B0000090019080468146002400254FF4A060EE
:1018C00003F040FA00F02CFA4FF47A61052008F09A
:1018D00033FFFFF7CFFE4FF4E13008F05BFE84A04A
:1018E00008F03CFF834808F039FF83A008F036FF7A
:1018F00008F01EFF042009F0EBFC09F045FD01F0A3
:10190000B3FA4FF4E13180A008F028FF6420FFF71C
:101910003BFA08F00DFF08208649088086A008F0F1
:101920001DFF8CA008F01AFF4FF49670FFF72CFAF9
:1019300008F0FEFE01F0C8F991A008F00FFFFFF7D4
:101940005BF993A008F00AFFFFF72AFD9448D0F84E
:10195000121094A008F002FF09F0A6FD08F0E8FEBE
:10196000FFF768F994A008F0F9FE04F03DFC0021AF
:101970000320FFF728F894A008F0F0FEFFF7A4F981
:101980009CA008F0EBFE08F0D3FE06F029F806F064
:101990009FF89DA008F0E2FE002003F073F905F027
:1019A00019FC08F0C5FE00F03BFB08F0C1FE9DA04D
:1019B00008F0D4FE4FF41670FFF7E6F908F0B8FE11
:1019C00000F050FC9B4881889BA008F0C7FE4FF4B4
:1019D000FA70FFF7D9F908F0ABFEFFF795F89DA074
:1019E00008F0BCFE0AF05CFA08F0A2FE3220FFF715
:1019F000CBF902F0C3F89CA008F0B0FE08F098FE06
:101A000007F022FE08F094FE40F2E7345325294601
:101A1000204605F081FF98A008F0A0FE2A46214646
:101A20009AA008F09BFE601C691C10FB01F090FB63
:101A3000F1F631469BA008F091FE08F079FE1421E2
:101A400042F20F7005F03AFF42F2CF01601C05F040
:101A500007FF3220FFF798F908F06AFE0020984946
:101A600008609848007818B196480078012802D19B
:101A700005F0B6FF01E005F0EFFF08F059FE002089
:101A80009149086001209149C1F880028E49091DE1
:101A9000086000208E490860091D0860091D086063
:101AA000091D08608B4908608B4908608A4910311C
:101AB0000860091F086084490C31086085492C3989
:101AC0000860091D086083491C3908608149091FA5
:101AD00008607B49303908600123022203217FA07E
:101AE00008F03CFE84A008F039FEBDE8FC87000049
:101AF0000D0A000060D700084D43552053746172F1
:101B000074210D0A0000000044656267755F55612D
:101B1000727420696E6974204F4B21206261756474
:101B200020726174653D2564206269742F730D0A0B
:101B30000D0A000018140240416E676C6F67207038
:101B40006F77657220686173206F70656E210D0A72
:101B5000000000005761697420666F7220616E6139
:101B60006C6F6720706F77657220746F207374617B
:101B700062696C697A652E2E2E2E2E2E210D0A009A
:101B80004C45445F496E6974204F4B210D0A00009B
:101B9000426565705F496E6974204F4B210D0A00E4
:101BA000400300204D43555F504F525F54696D65AF
:101BB000733A25640D0A000042746E5F496E6974C1
:101BC000204F4B210D0A00004144353534325F4926
:101BD0006E6974204F4B2C53657420414435353465
:101BE00032204F757470757420746F207A65726F2F
:101BF000210D0A00436F6465635F496E6974204F6D
:101C00004B210D0A00000000547269676765724538
:101C100078494E31325F496E6974204F4B210D0A6D
:101C2000000000005265736574204C4344210D0A86
:101C300000000000004200204C4344204F4B212074
:101C40004C43444445565F49443D307825780D0A5D
:101C500000000000415432344358585F496E6974A3
:101C6000204F4B210D0A00004765742050617220FF
:101C70004F4B0D0A00000000496E69742054696DD5
:101C8000657236204F4B210D0A00000054696D65C6
:101C90007236204152523D25642C5053433D2564F9
:101CA0000D0A000054696D657236204F76657266C4
:101CB0006C6F775F74696D653D256475730D0A00FF
:101CC000B0824242B8010020988240420000404267
:101CD00080024242B4824142A0024042736F667465
:101CE000776172655F76657273696F6E3A25642EEF
:101CF00025642E25640D0A0048617264776172655F
:101D000020696E6974204F4B2120537973207275BE
:101D10006E6E696E672E2E2E2E2E2E0D0A0D0A0067
:101D200010B5104800684FF47A71B0FBF1F4601EF2
:101D3000B0F1807F00D30FE0601E4FF0E0214861DA
:101D40000F214FF0FF3003F007F800204FF0E021A3
:101D500088610720086100BF0021481E02F0FCFFD7
:101D600010BD0000280300200146062935DA0020B6
:101D7000A94A10600120A94AC2F89C02A64A08326A
:101D80001060121D1060121D1060A44AC2F8AC024F
:101D9000A1489838006808B9002070479E489438D8
:101DA000006808B90120F8E79B489038006808B936
:101DB0000220F2E798488C38006808B90320ECE765
:101DC00095488838006808B90420E6E792488438C6
:101DD0000068002873D10520DFE70C2936DA0120DE
:101DE0008D4A106000208D4AC2F89C0201208A4A68
:101DF00008321060121D1060121D1060874AC2F870
:101E0000AC0285489838006808B90620C5E78248C2
:101E10009438006808B90720BFE77F489038006809
:101E200008B90820B9E77C488C38006808B909204F
:101E3000B3E779488838006808B90A20ADE77648E2
:101E4000843800680028C5D10B20A6E7122937DAAC
:101E50000120714A1060714AC2F89C0200206E4A4B
:101E6000083210600120121D1060121D10606B4AB4
:101E7000C2F8AC0268489838006808B90C208CE7B2
:101E800065489438006808B90D2086E762489038A4
:101E9000006808B90E2080E75F488C38006808B9F0
:101EA0000F207AE75C488838006808B9102074E78A
:101EB00059488438006800288CD111206DE7A1E0D2
:101EC000182936DA0120544A1060544AC2F89C029C
:101ED000514A083210600020121D10600120121DAE
:101EE00010604E4AC2F8AC024B489838006808B9F6
:101EF000122052E748489438006808B913204CE78C
:101F000045489038006808B9142046E742488C38A4
:101F1000006808B9152040E73F488838006808B9CC
:101F200016203AE73C4884380068002871D1172011
:101F300033E71E2935DA0120374A1060374AC2F8E4
:101F40009C02354A08321060121D10600020121DDC
:101F500010600120314AC2F8AC022F48983800685E
:101F600008B9182019E72C489438006808B91920D6
:101F700013E729489038006808B91A200DE7264869
:101F80008C38006808B91B2007E7234888380068A8
:101F900008B91C2001E720488438006890BB1D2048
:101FA000FBE6242935DA01201B4A10601B4AC2F8DF
:101FB0009C02194A08321060121D1060121D106038
:101FC0000020164AC2F8AC0213489838006808B9D5
:101FD0001E20E2E610489438006808B91F20DCE6AD
:101FE0000D489038006808B92020D6E60A488C3899
:101FF000006808B92120D0E607488838006810B981
:102000002220CAE605E004488438006808B9232085
:10201000C3E6FF20C1E600009802414200004142B1
:102020001CB50121102003F0D9FF202000900120D1
:102030008DF8040000208DF8060003208DF80500BF
:1020400001208DF8070069461048FFF739F908F0BC
:102050006FFB20200D494883C820FEF795FE202005
:102060000A49088308F064FB4FF41670FEF78CFEF3
:1020700008F05EFB202005494883C820FEF784FE57
:1020800020200249088308F053FB1CBD00100240C9
:1020900070B5044600261948058808F049FB174822
:1020A000408845431548808846F60401884216D189
:1020B00012488079012812D10020104988712A2005
:1020C00048812B2088810021084600F0C1FC0120B6
:1020D0000A4988712B2048812A20888103E0002149
:1020E000084600F0B5FC00F0DDFD002602E00448E3
:1020F0000480761CAE42FAD370BD0000004200207E
:102100000000026010B5044608F012FBDCB90020A4
:102110001C498871F02008804FF4A0704880084660
:10212000808841F66311884228D12C201549088106
:102130002B2048812A2088814FF4F07008804FF4CA
:10214000487048801AE001200E4988714FF4A07051
:102150000880F02048800846808841F66311884254
:102160000CD12C20074908812A2048812B20888106
:102170004FF4F07008804FF488704880002000F021
:10218000EDFA10BD0042002070B504460D4616461B
:1021900008F0CEFA1A48808841F66311884227D1A8
:1021A0001748807920B916480088401E001B84B269
:1021B0001349488900F070FD201200F067FDE0B27D
:1021C00000F064FD201200F061FDE0B200F05EFD61
:1021D0000B49888900F060FD281200F057FDE8B235
:1021E00000F054FD281200F051FDE8B200F04EFD61
:1021F0000348008903490880881C068070BD0000E0
:1022000000420020FEFF01602DE9F05F05460E460A
:1022100017469846DDF828A04FF0000B08F088FA22
:10222000781B401C1FFA80FB344615E021462846E7
:1022300000F00EFC00F036FD4FF0000906E0084803
:10224000A0F800A009F101001FFA80F9D945F6DBDA
:1022500008F06EFA601C84B24445E7DDBDE8F09FEB
:10226000000002602DE9F041A2B000250026002701
:10227000A8460121182003F0B1FE0121084603F011
:10228000BDFE4CF6B370209002208DF88400002033
:102290008DF8860003208DF8850001208DF88700D9
:1022A00020A9FB48FFF70CF84FF680702090022021
:1022B0008DF8840000208DF8860003208DF88500BD
:1022C00001208DF8870020A9F248FEF7F9FF0C22C3
:1022D0000021EF48FFF73CF80C220121EC48FFF702
:1022E00037F80C220421EA48FFF732F80C220521C6
:1022F000E748FFF72DF80C220821E548FFF728F8FA
:102300000C220921E248FFF723F80C220A21E048B9
:10231000FFF71EF80C220E21DD48FFF719F80C22FA
:102320000F21DB48FFF714F80C220721D948FFF7EB
:102330000FF80C220821D748FFF70AF80C220921D0
:10234000D448FFF705F80C220A21D248FFF700F81D
:102350000C220B21CF48FEF7FBFF0C221146CD4883
:10236000FEF7F6FF0C220D21CA48FEF7F1FF0C2202
:102370000E21C848FEF7ECFF0C220F21C548FEF7DE
:10238000E7FF0C220721C248FEF7E2FF0C220B21D7
:10239000BF48FEF7DDFF10200A9000200B903C2084
:1023A0000C9000200D9002200E9000200F901090B5
:1023B0001220039000200490102005900020069029
:1023C000079008900990119012901390102014908B
:1023D0000020159017901690189019904FF4805087
:1023E0001A9000201B904FF480401C9000201D90FC
:1023F0000AA81E9003A81F9011A8FEF7CFFE012186
:102400000020FEF7B1FE08F093F94FF44870FEF794
:10241000BBFC08F08DF9002000F062F99E4988802D
:10242000084681889DA008F099F90020019002904B
:102430000024A12000F030FC052008F027FF00F068
:1024400045F9C0B28DF8040000F040F9C0B28DF833
:10245000050000F03BF9C0B28DF8060000F036F937
:10246000C0B28DF8070000F031F9C0B28DF8080055
:102470008FA008F073F900BF06E001A8015D90A0ED
:1024800008F06CF9601CC4B2052CF6DB8EA008F0D5
:1024900065F9A12000F000FC00F018F97E49888061
:1024A00000F014F97C498880084680884FF6FF7157
:1024B00001EA00207849888000F008F97649898887
:1024C0000843754988800846818874A008F046F959
:1024D0000A20FEF759FC08F02BF941F663106E490B
:1024E00088800846808841F6631188427ED108F0D2
:1024F0001FF9E22000F0D0FB1D2000F0C7FB0220F6
:1025000000F0C4FB042000F0C1FB642008F0BEFE14
:10251000E02000F0C1FB012000F0B8FB0A20FEF72C
:1025200033FCE02000F0B8FB032000F0AFFB0C20F0
:10253000FEF72AFC012000F0AFFB0A20FEF724FC86
:102540004FF44870FEF720FCE62000F0A5FB2F209A
:1025500000F09CFBFF2000F099FBFF2000F096FBB1
:10256000B02000F099FB102000F090FB002000F05C
:102570008DFB08F0DDF8012000F088FB40F2DF1051
:1025800000F084FB012000F081FB40F20F1000F00E
:102590007DFB002000F07AFBB42000F07DFB0220E0
:1025A00000F074FB40F2DF2000F070FB002000F030
:1025B0006DFB2E2000F06AFB002000F067FB00207E
:1025C00000F064FB002000F061FB002000F05EFBE7
:1025D00008F0AEF8B62000F05FFB012000F056FBDB
:1025E0004FF49E7000F052FB002000E045E000F048
:1025F0004DFB172000F04AFB152000F047FB0020A0
:1026000000F044FB002000F041FBF02000F044FB10
:10261000032000F03BFB292000F03EFBD02000F01F
:102620003BFB002000F032FBBE2000F035FB052014
:1026300000F02CFBFE2000F029FB012000F026FB1F
:10264000002000F023FB002000F020FB002000F021
:102650001DFB08F06DF8B82000F01EFB032000F011
:1026600015FB012000F012FBBA2000F015FB012041
:1026700000F00CFB002000F03FF80120FFF742FDC6
:1026800042F20410FFF704FD22B0BDE8F081000023
:10269000000C024000100240004200206C636464A1
:1026A00065762E69643D307825780D0A00000000BB
:1026B0006765745F6C63645F6D6F64653A0000000A
:1026C00020307825780000000D0A000008B5034886
:1026D00000880090BDF8000008BD00000000026006
:1026E00010B50446204600F0D7FA052008F0CEFDCC
:1026F000FFF7ECFF10BD000070B52DED048B044614
:1027000008F016F8BE2000F0C7FA052000F0BEFA67
:102710002046FDF765FF41EC190B9FED0E0B53ECC6
:10272000102BFDF76EFE41EC180BFDF786FF85B20E
:10273000284600F0ABFA012000F0A8FAFF2000F0D4
:10274000A5FA002000F0A2FA002000F09FFABDECEC
:10275000048B70BD66666666666604402DE9F041CE
:1027600005460024002707F0E3FFB84880790128D8
:102770000BD1B648808846F60401884205D0B3489C
:10278000808841F66311884208D1B0488079F0B959
:10279000AE48808841F66311884218D1082D15D2C1
:1027A000DFE805F00406080A0C0E101206250DE0FD
:1027B00007250BE0042509E0052507E0012505E0D4
:1027C000002503E0032501E0022500BF00BF9F486C
:1027D000808849F24131884217D09C48808846F66B
:1027E0000401884211D09948808845F2103188420E
:1027F0000BD09648808845F21051884205D0934806
:10280000808841F6631188427ED1082D1CD2DFE812
:1028100005F00406090C0F12151800BF14E044F06F
:10282000800411E044F040040EE044F0C0040BE0EA
:1028300044F0200408E044F0600405E044F0A00403
:1028400002E044F0E00400BF00BF8048808845F209
:102850001051884202D14FF4585700E036277B4888
:10286000808845F2103188420DD07848808845F242
:102870001051884207D07548808841F6631188421C
:1028800001D044F008047148808846F6040188426B
:1028900001D144F002042146384600F00DFA6B489D
:1028A000808841F6631188421DD004F0200068B191
:1028B0006648008865494988884214DA6348068872
:1028C000408862490880084646800CE05F480088DE
:1028D0005E494988884206DD5C48068840885B4935
:1028E0000880084646805948808845F21051884241
:1028F00054D15649488900F0CFF9002000F0C6F9BC
:1029000052494989491C00E077E088B200F0C4F9D7
:10291000002000F0BBF94D494989891C88B200F0BC
:10292000BBF94A490988491EC1F30F2000F0AEF9EE
:1029300046494989C91C88B200F0AEF94349097873
:10294000491EC8B200F0A2F94049888900F0A4F9F4
:10295000002000F09BF93D498989491C88B200F0AC
:102960009BF9002000F092F938498989891C88B2C6
:1029700000F092F935494988491EC1F30F2000F053
:1029800085F932498989C91C88B200F085F92F4937
:102990008978491EC8B200F079F955E02B49488979
:1029A00000F07AF9002000F071F9002000F06EF9D3
:1029B00026490988491EC1F30F2000F067F9234911
:1029C0000978491EC8B200F061F92049888900F0F1
:1029D00063F9002000F05AF9002000F057F91B4974
:1029E0004988491EC1F30F2000F050F91749897832
:1029F000491EC8B200F04AF926E0082D1CD2DFE8D3
:102A000005F004070A0D0F12151844F0300413E006
:102A100044F0100410E044F020040DE000BF0BE08F
:102A200044F0380408E044F0280405E044F01804B9
:102A300002E044F0080400BF00BF032744F48054C0
:102A40002146384600F038F9BDE8F0810042002008
:102A500070B504460D462848808841F663118842C7
:102A600048D107F065FE24488079A8B9224800883B
:102A7000401E001B84B22049488900F00DF9201245
:102A800000F004F9E0B200F001F9201200F0FEF8C5
:102A9000E0B200F0FBF816E01749488900F0FCF8B6
:102AA000201200F0F3F8E0B200F0F0F812490988C3
:102AB000491EC1F30F2000F0E9F80F490978491EBB
:102AC000C8B200F0E3F80C49888900F0E5F8281254
:102AD00000F0DCF8E8B200F0D9F807494988491E4F
:102AE000C1F30F2000F0D2F803498978491EC8B21B
:102AF00000F0CCF870BD0000004200202DE9F84F36
:102B000080460E4617461C46B3462046E31704EBA4
:102B10005373DB1021464FEAE47C04EB5C7C4FEA04
:102B2000EC0CA4EBCC0CBCF1000F02D04FF0010C6C
:102B300001E04FF0000C6344224604EBD27C4FEAE4
:102B40006C0C03FB0CF3DBB2009307F0F1FDA7F173
:102B50002000C7B2002554E00C2C07D107EB47003A
:102B60002A4901EB800010F8059013E0102C05D1E4
:102B7000274800EB071010F805900BE0182C07D140
:102B800007EBC700234901EB800010F8059001E036
:102B9000BDE8F88F4FF0000A2DE009F0800028B161
:102BA000314640460C9AFFF7EFFA06E00A9820B942
:102BB000314640460B9AFFF7E7FA4FEA49604FEA81
:102BC0001069701C86B214484088B04200DCDFE710
:102BD000A6EB0B00A0420AD15E4608F101001FFAE5
:102BE00080F80D480088404500DCD1E706E00AF196
:102BF000010000F0FF0ABAF1080FCEDB00BF681C2D
:102C0000C5B200988542A7DB00BFC1E7A0BF00089E
:102C100014C4000804CA0008004200202DE9FF5F28
:102C200004460D46904699460EAE96E8C00CE0B2BA
:102C3000039007F07DFD08EB04001FFA80F809EB14
:102C400005001FFA80F917E0444502DB039CA81930
:102C500085B24D4500DB15E000208DE8010C3A7887
:102C6000334629462046FFF749FF304606EBD07130
:102C700004EB61018CB27F1C38787E2802DC387846
:102C80002028E1DA00BFBDE8FF9F0000014908806D
:102C90007047000000000260014908807047000092
:102CA000FEFF016002480089024908807047000069
:102CB00000420020FEFF0160024A1080921C118039
:102CC00070470000FEFF01601CB50121084603F0BB
:102CD00085F90121022003F081F90121082003F088
:102CE0007DF90121102003F079F941F601100090DF
:102CF00001208DF8040000208DF8060003208DF8D7
:102D0000050001208DF8070069461748FEF7D8FA3C
:102D10004FF43070009069461448FEF7D1FA43F240
:102D20004C00009069461248FEF7CAFA1F20009036
:102D300069461048FEF7C4FA41F601110A48FEF749
:102D40002CFB4FF430710948FEF727FB43F24C018E
:102D50000748FEF722FB1F210648FEF71EFB002056
:102D6000054908601CBD000000000240000402404C
:102D7000000C0240001002409882404200200649A8
:102D800008600649C1F8B00203490C3108600449E3
:102D9000C1F8A40270470000A00240420000404277
:102DA000008040420020064908600649C1F88C02B4
:102DB0000349103108600349C1F8B00270470000B0
:102DC000888241420080414224480078022809D18B
:102DD0000120234908604FF4FA70204948800120FF
:102DE00008700BE01D480078012807D11B48408877
:102DF00020B900201A49086018490870174800795E
:102E0000022806D14FF4FA701449C88001200871D5
:102E100009E012480079012805D11048C08810B98E
:102E200000200E4908710D48007A022809D10120BE
:102E30000C4908604FF4FA70084948810120087273
:102E40000BE00648007A012807D10448408920B9E0
:102E5000002004490860014908727047CC06002030
:102E60008C024242B482414210B57B2003F094F9B7
:102E700010B118A007F072FC7A2003F08DF910B1A0
:102E800019A007F06BFC7C2003F086F910B11BA0A1
:102E900007F064FC7D2003F07FF910B11CA007F05F
:102EA0005DFC7E2003F078F910B11EA007F056FCFF
:102EB0007F2003F071F910B11FA007F04FFC7920BB
:102EC00003F06AF910B121A007F048FC03F0E6F81E
:102ED00010BD00005243435F464C41475F504F5284
:102EE0005253540D0A0000005243435F464C414781
:102EF0005F50494E5253540D0A0000005243435F45
:102F0000464C41475F5346545253540D0A0000004B
:102F10005243435F464C41475F49574447525354DD
:102F20000D0A00005243435F464C41475F575744E8
:102F3000475253540D0A00005243435F464C4147E9
:102F40005F4C5057525253540D0A00005243435F96
:102F5000464C41475F424F525253540D0A00000005
:102F600070B500250024002608F020F90546002D44
:102F700055D0681E032190FBF1F0C4B2681E90FB8F
:102F8000F1F201FB1200C6B2002E48D1242C46DA21
:102F90000B2C55D1FE48807888B9FE48007800F0A7
:102FA000020028B1FB48007820F00200F9490870BF
:102FB000F8488078012801D002F022FC70BDF44866
:102FC0008078032810D1F3488078012805D0F04993
:102FD00048780022114601F0D3FE0020EE49086037
:102FE0000121EC488170E9E7FF20E949C87001F050
:102FF00023FFFFF7D7FEE7488078012810D1E74884
:10300000008918B149F64040E4490881012007F0E1
:103010004DF80220DE4981F8730102F0FBF83AE234
:10302000DC4880780128FAD0D94948780022114636
:1030300001F0A6FE0020D849086002F0E1FBEEE7AF
:103040000A2C26D1FF20D249C87001F0F5FEFFF707
:10305000A9FED048807858B902F0CCF8CC4948781D
:103060000022114601F08CFE0120CB490860D6E712
:10307000C848807802280BD1C948006840F0010098
:10308000C749086002F0A6F80020C3490860C6E7F7
:10309000C5E7092C15D1BE480078012803D10220CC
:1030A000BB49087002E00120B9490870FF20B84907
:1030B000C87001F0C1FEFFF775FE0120B749088115
:1030C000ADE7182C17D1FF20B149C87001F0B4FE4C
:1030D000FFF768FEAE4880780028A0D1012006F0F6
:1030E000E5FF0220AA4981F8730102F093F802205B
:1030F000AC49087093E7042C76D1A6488078012863
:10310000FAD1A448007800F0020028B1A148007864
:1031100020F002009F4908709E488078012801D065
:1031200002F06EFB9A48407808B9012000E00020C8
:103130009749487002209B490871FF209449C87044
:10314000FFF71CFEFFF72EFE0020914981F8700169
:1031500000218F4880F872114078012850D19248A0
:10316000407820F00100904948700846407840F0CF
:1031700001004870864890F8A80085498871084683
:103180008079887089480078894908708748801C50
:10319000026841687E488030C0E904218038807828
:1031A00030B101280CD0022814D0032826D11CE00D
:1031B0007748007A7649487101207E4908601EE010
:1031C000734890F8300072494871012079491031F4
:1031D000086014E06E4890F858006D49487101206D
:1031E00074490C3108600AE06CE0694890F880008E
:1031F0006749487101207049086000E000BF4DE058
:103200006948407820F00100674948700020487004
:103210005F4880795E4981F8A800084690F8A800C8
:103220008870624840786249087060480A300168D6
:1032300042686248C0E904125548807830B10128DC
:103240000DD0022815D0032826D11CE0504890F854
:10325000B0004F4948710120564908601DE04C48B4
:1032600090F8D8004A49487101205249103108604D
:1032700013E0474890F800014549487101204D4945
:103280000C31086009E0424890F828014049487133
:1032900001204949086000E000BF00BF4248407873
:1032A00000F001004049097801F00101884202D094
:1032B000012003F0DDFE0120414981F8BA013749C0
:1032C0000881ACE61F2C61D13248807801285DD19D
:1032D0003C49086036480078401C3549087008466B
:1032E0000078042801DB002008703148017836A0FE
:1032F00007F034FA2E48007818B12D4800780128DC
:1033000002D104F06DFB01E004F0A6FB20484078F8
:10331000012804D1264800782449087003E0244895
:1033200000782249487016222049E620FDF72BFC40
:103330001F480078022803D01D480078032850D188
:1033400001201349C87001F5A870D0E9043044F693
:1033500020629A1A70F1000040D244F620600022E8
:1033600001F5A871C1E90402D1E90401084AD2F8C3
:1033700054210832064BDB7802EBC30203C2FF2064
:103380000349C87001F058FD012025E033E000003A
:10339000400000207C02002084024242BC06002043
:1033A000003C0140CC060020E0010020400300204A
:1033B000B8010020A0024042A482404268010020DF
:1033C000FE040020B4824142576176655F747970D3
:1033D000653D25640D0A000006F068FEFF20F549F2
:1033E000C870F54842780178F4A007F0B7F90020DA
:1033F000FE490860B1E38CBBFD488078012803D00A
:10340000EC488078032847D1FA4800884FF6FE71CF
:103410000840F84908800020F6492431086001205E
:10342000F5490860F549C1F88002FFF7BBFCE148A7
:10343000807808B3FFF7A2FC0120EF492031086033
:103440000020DC49887008464078012807D10846EA
:10345000807888710846007A487109E01CE0D548F8
:103460008078D44981F8A800084690F8B0004871E7
:103470000120E34981F8BA010020E24908600120F7
:10348000E149C1F88002FF20CA49C87001F0D4FCAC
:103490000120DE49088160E3022C57D1D4488078AE
:1034A000012803D0C348807803284FD10121D04898
:1034B00081700020D24981F8BA01CE4800884FF6C9
:1034C000FE710840CB4908800020CA4924310860B9
:1034D0000120C9490860C949C1F88002FFF762FCB0
:1034E000B4488078022821D0FFF748FC0120C24967
:1034F0002C3108600220AF498870084640780128C6
:1035000007D1084680788871084690F858004871BD
:1035100008E0A8488078A74981F8A800084690F8F4
:10352000000148710120B64981F8BA010020B5496F
:1035300008600120B449C1F88002FF209D49C8708D
:1035400001F07AFC0120B149088106E3012C56D133
:10355000A7488078012803D09648807803284ED168
:103560000121A34881700020A54981F8BA01A14832
:1035700000884FF6FE7108409E49088000209D4952
:103580002431086001209C4908609C49C1F88002F0
:10359000FFF708FC87488078012820D0FFF7EEFB72
:1035A000012095493031086082498870084640788A
:1035B000012807D1084680788871084690F83000C5
:1035C000487108E07B4880787A4981F8A80008466D
:1035D00090F8D80048710120894981F8BA0100208B
:1035E0008849086001208849C1F88002FF2071499C
:1035F000C87001F021FC012084490881ADE2032C50
:1036000042D17B48807801283ED1FFF7CBFB694847
:103610008078032820D0FFF7B1FB01207C490860A7
:1036200003206449887008464078012807D108467D
:1036300080788871084690F88000487108E05D48FD
:1036400080785C4981F8A800084690F82801487104
:1036500001206B4981F8BA016E48007818B16D48B5
:103660000078012802D104F0BBF901E004F0F4F97C
:10367000012064490860FF204E49C87001F0DCFB5E
:1036800001206249088168E2222C7CD15848807868
:10369000012878D108F0A6F84648807858B1454806
:1036A0008078012807D043488078022803D0414819
:1036B00080780328A2D1FFF775FB3E48C078012827
:1036C0001DD001204949283908603A4890F8730113
:1036D000022803D10120374981F8730101203549BF
:1036E000C870002102F094FF0120324981F8700176
:1036F0000021304880F8711180F8721192E02D4855
:10370000C07801283DD14348007818B1414800787D
:1037100001281BD14048D0E9043042F210729A1AB5
:1037200070F1000005D242F2107100203A4AC2E95D
:1037300004103949D1E904011E4AD2F85421083253
:103740001C4BDB7802EBC30203C21AE03248D0E91B
:10375000041044F62063C91A70F1000004D219461F
:1037600000222D48C0E904122B48D0E90410114A68
:10377000D2F8542108320F4BDB7802EBC302C2E9C6
:1037800000100C4800E050E090F8730101280AD1C5
:103790000020084981F87301012006F087FC02200F
:1037A000044981F87301FF200249C870002081F8A4
:1037B000700133E040000020400300207341646446
:1037C0006974696F6E616C446174612E565F5761F4
:1037D00076655F747970653A25642C435F5761762E
:1037E000655F747970653A25640D0A00B4824142C0
:1037F0007C0200200004004080024042000042425F
:10380000FE040020B082424200004042BC0600207C
:10381000A4824042B8010020900100200021D0483D
:1038200080F8721101F008FB97E1232C45D1CD48B7
:103830008078012841D107F0D5FFFFF7B3FAC848D7
:10384000C078E8B10120C8490860C54890F8730104
:10385000022803D10120C24981F873010020C04928
:10386000C8700021012002F0D3FE0120BC4981F87C
:1038700070010021BA4880F8711180F8721119E0C6
:10388000B74890F8730101280AD10020B44981F8A3
:103890007301012006F00AFC0220B14981F873018E
:1038A000FF20AF49C870002081F870010021AC48AA
:1038B00080F8721101F0C0FA4FE1212C6DD1A948B6
:1038C0008078012869D107F08DFFA548807801280C
:1038D00003D0A34880780228A6D1FFF763FAA04856
:1038E000C07802281ED001209F49103108609C48F2
:1038F00090F87301022803D10120994981F87301DE
:1039000002209749C8700021012002F081FE0120A9
:10391000934981F870010021914880F8711180F875
:10392000721137E08E48C078022819D18F48D0E94B
:1039300004208F4BD21A70F1000004D219460020E7
:103940008A4AC2E904108948D0E90410844AD2F8AE
:1039500054210832824BDB7802EBC302C2E900102B
:103960007F4890F8730101280AD100207C4981F832
:103970007301012006F09AFB0220794981F8730156
:10398000FF207749C870002081F870010021744839
:1039900080F8721101F050FADFE0202C68D17148F4
:1039A0008078012864D107F01DFF6D4880780228D7
:1039B0005DD1FFF7F7F96A48C07803281ED00120CF
:1039C000694928310860664890F87301022803D1DC
:1039D0000120634981F8730103206149C870002107
:1039E000012002F015FE01205D4981F870010021DF
:1039F0005B4880F8711180F8721136E05848C07841
:103A0000032818D15948D0E904105A4BC91A70F14B
:103A1000000004D21A4600205449C1E90420534949
:103A2000D1E904014E4AD2F8542108324C4BDB78DC
:103A300002EBC30203C24A4890F8730101280AD17D
:103A40000020474981F87301012006F02FFB022076
:103A5000434981F87301FF204149C870002081F873
:103A6000700100213E4880F8721101F0E5F974E020
:103A7000132C03D1002002F05DFE6EE01D2C03D15B
:103A8000012002F057FE68E0172C03D1022002F05B
:103A900051FE62E0112C03D1032002F04BFE5CE0EA
:103AA0001C2C03D1042002F045FE56E0162C03D155
:103AB000052002F03FFE50E0102C03D1062002F05A
:103AC00039FE4AE01B2C03D1072002F033FE44E00C
:103AD000152C03D1082002F02DFE3EE00F2C03D15F
:103AE000092002F027FE38E0072C03D10B2002F05A
:103AF00021FE32E01E2C03D10C2002F01BFE2CE034
:103B0000192C08D1164890F8720130BB01211448D5
:103B100080F8721121E00D2C1FD1FFF743F907F057
:103B200061FEFF200E49C87001F086F900200C49A3
:103B300081F8700100210A4880F8721190F8730131
:103B400001280AD10020064981F87301012006F0FE
:103B5000ADFA0220024981F8730100BFFFF72EBAC7
:103B6000400000207C020020888241429001002019
:103B7000400D0300A086010000BFFEE770B5D8220B
:103B8000FC494FF40070FCF7C3FFFA4800787E2828
:103B900004D1F84890F8D70045287DD0F6A006F06B
:103BA000DDFD0020FE4908700120487003F060FA36
:103BB000012007F057FBFB48007A40F00B00F94961
:103BC0000872084690F8300040F00B0081F8300091
:103BD000084690F8580040F00B0081F8580008465D
:103BE00090F8800040F00B0081F88000084690F8C3
:103BF000B00040F01A0081F8B000084690F8D800F4
:103C000040F01A0081F8D800084690F8000140F012
:103C10001A0081F80001084690F8280140F01A00C7
:103C200081F82801FF2088700846007A48717E20BC
:103C3000D049087001204870D948407800F0010050
:103C400088700020C8700871D648007A487100203A
:103C50008871C871D449C74A9160D060D349116155
:103C60005061D04890F83000114608760020487620
:103C70008876C876CC49D1611062CC480021506268
:103C80009162CB48D0621163C64890F85800114643
:103C900081F83400002000E0F8E181F8350081F877
:103CA000360081F8370081F83800BF493932116099
:103CB0005060BE480021083210605160BC490020AD
:103CC000083211605060B849083211605060B54840
:103CD00090F88000A74981F85900002081F85A0027
:103CE000B2490A3211605060AE4890F8B000A14964
:103CF00081F86300002081F8640081F86500AA491A
:103D00000B3211605060AA480021083210605160E7
:103D1000A44890F8D800974981F87600002081F8EF
:103D2000770081F8780081F879009F490C321160A2
:103D300050609F4800210832106051600146002009
:103D4000083211605060974890F80001894981F865
:103D50009200002081F8930081F8940081F895008A
:103D600081F8960090490D321160506090490832F8
:103D700011605060084600210832106051608A4886
:103D8000083210605160874890F82801794981F81D
:103D9000B700002081F8B800854800210A32106081
:103DA00051600020734981F8C10081F8C2000A32D5
:103DB0001060506000210832116051606D49C1F8F7
:103DC000D300452081F8D700D8224FF40070FCF7CB
:103DD000DAFE68484079734908726648817971480B
:103DE00081726448C1796F48417262488168C268D3
:103DF0006C48C0E906125F4801694069694AC2E936
:103E000004105C48007E114681F830005948417E1C
:103E1000104680F832105748817E104680F83110E5
:103E20005448C17E104680F833105248C169026A76
:103E30005C48C0E910124F48416A806A594AC2E999
:103E40000E104C48C16A026B5648C0E9121249482C
:103E500090F83400534981F85800464890F83510DE
:103E6000504880F85A10434890F836104D4880F872
:103E70005910404890F837104A4880F85B103D4888
:103E800090F83810474880F85C103A48393001689B
:103E900042684448C0E91A12364841300168406817
:103EA000404AC2E9181033484930026841683D4829
:103EB000C0E91C212F485130016842683948C0E9E7
:103EC0001E122C4890F85900364981F88000294884
:103ED00090F85A10334880F8811026485B30026809
:103EE000416830488030C0E90221224890F86300E0
:103EF0002C4981F8B0001F4890F86410294880F8D8
:103F0000B2101C4890F86510264880F8B110194886
:103F10006630016842682348B030C0E90412154891
:103F20006E30026840681F49B031C1E90220114873
:103F300090F87600B03981F8D8000E4890F87710E4
:103F4000184880F8DA100B4890F87810154880F877
:103F5000D910084890F87910124880F8DB1005480D
:103F60007A30016842680F48D830C0E9041201482D
:103F700082301FE0560300204C6F61642070617234
:103F8000206572726F722C73657420746F20646583
:103F90006661756C742076616C7565210D0A000090
:103FA000E00100204000002080969800C0C62D004F
:103FB00040420F0001684268F848C0E90212F84820
:103FC00002684168F548C0E90621F5488A3890F84A
:103FD0009200F249D83981F80001F1488A3890F806
:103FE0009310EE48D83880F80211ED488A3890F8DE
:103FF0009410EA48D83880F80111E9488A3890F8D6
:104000009510E648D83880F80311E5488A3890F8CA
:104010009610E248D83880F80411E1480D30016864
:104020004268DE482830C0E90412DD4815300268D5
:104030004068DA492831C1E90220D9481D300268B8
:104040004168D6482830C0E90621D54825300168A6
:104050004268D2482830C0E90812D1488A3890F81E
:10406000B700CE49D83981F82801CD488A3890F870
:10407000B810CA48D83880F82911C9482F300268CA
:104080004068C6495031C1E9022097E2C4488A38E5
:104090004078C249D8390870C1488A388078487059
:1040A000BF488A38C0788871BD488A38007981F85D
:1040B000A800BB488A3840790872B9488A388179A3
:1040C000B648D8388172B6488A38C179B348D838EA
:1040D0004172B3488A388168C268B048D838C0E9AC
:1040E0000612AF488A3802694069AC49D839C1E93B
:1040F0000420AB488A38007E81F83000A8488A380E
:10410000417EA648D83880F83210A5488A38817E8A
:10411000A248D83880F83110A1488A38C17E9F481B
:10412000D83880F833109E488A38C269016A9B48A3
:10413000D838C0E910219A488A38416A806A974A7B
:10414000D83AC2E90E1096488A38C16A026B934881
:10415000D838C0E9121292488A3890F834008F4952
:10416000D83981F858008E488A3890F835108B4835
:10417000D83880F85A108A488A3890F8361087481C
:10418000D83880F8591086488A3890F83710834814
:10419000D83880F85B1082488A3890F838107F4809
:1041A000D83880F85C107E485138016842687B48F6
:1041B000D838C0E91A127A49493908684968774AF3
:1041C000D83AC2E918017648413802684168734814
:1041D000D838C0E91C2172483938026841686F48F4
:1041E000D838C0E91E216E488A3890F859006B49CA
:1041F000D83981F880006A488A3890F85A106748A0
:10420000D83880F8811066482F3801684068634AC2
:10421000583AC2E9021062488A3890F86300A2F165
:10422000800181F8B0005E488A3890F86410A2F1ED
:10423000800080F8B2105A488A3890F86510A2F1D0
:10424000800080F8B110564824380168426853480D
:104250002838C0E9041252481C38026841684F48A7
:104260002838C0E902214E488A3890F876004B4938
:10427000D83981F8D8004A488A3890F877104748EA
:10428000D83880F8DA1046488A3890F878104348D1
:10429000D83880F8D91042488A3890F879103F48C9
:1042A000D83880F8DB103E481038016842683B4837
:1042B000C0E904123A480838026841683748C0E942
:1042C00002213748016842683448C0E90612344880
:1042D0008A3890F892003149D83981F80001304885
:1042E0008A3890F893102D48D83880F802112C485D
:1042F0008A3890F894102948D83880F80111284855
:104300008A3890F895102548D83880F80311244849
:104310008A3890F896102148D83880F8041120483F
:104320000D30016842681D482830C0E904121C485D
:1043300015300268416819482830C0E90221184840
:104340001D300268416815482830C0E9062114482C
:1043500025300168426811482830C0E90812104829
:104360008A3890F8B7000D49D83981F828010C48EF
:104370008A3890F8B8100948D83880F829110848C8
:104380002F300268416805485030C0E90221A0F191
:10439000C801D1E90243224604E0000018010020D0
:1043A000E0030020A1A006F0D9F9AE48D0E91843F7
:1043B0002246ADA006F0D2F9AA48D0E91C43224615
:1043C000B7A006F0CBF9A748D0E91E432246C2A009
:1043D00006F0C4F9CF4A4523A248183000F0DCF9B2
:1043E000CD4A00239F48103000F0D6F9C94A452332
:1043F0009C48403000F0D0F9C74A00239948383033
:1044000000F0CAF9C54A09239648483000F0C4F9BB
:10441000C04A45239348683000F0BEF9BE4A0023E5
:104420009048603000F0B8F9BC4A09238D487030DC
:1044300000F0B2F9BA4A02238A48783000F0ACF9A9
:10444000B54A00238748883000F0A6F9B14A4523D1
:104450008448C03000F0A0F9B24A00238148B83047
:1044600000F09AF9AB4A45237E48E83000F094F911
:10447000AC4A00237B48E03000F08EF9A74A0923BC
:104480007848F03000F088F9A24A4523A64800F0A9
:1044900083F9A44A0023A448083800F07DF99F4A14
:1044A0000923A148083000F077F99D4A02239E486D
:1044B000103000F071F99B4A00239B48203000F037
:1044C0006BF999481830D0E90243224697A006F0CC
:1044D00045F90020A54908706248407848700120DD
:1044E00002F0C6FDFF205F4988700846407870B32F
:1044F000012862D10846807930B101280CD0022809
:1045000013D0032824D119E05648007A5549487140
:10451000012006F0A7FE1CE0524890F830005149F7
:104520004871042006F09EFE13E04E4890F85800B3
:104530004C494871072006F095FE0AE0494890F87A
:104540008000484948710A2006F08CFE01E002E034
:1045500000BF00BF31E0434890F8A80030B1012807
:104560000DD0022814D0032824D11AE03D4890F839
:10457000B0003C494871012006F074FE1BE0394848
:1045800090F8D80037494871042006F06BFE12E01D
:10459000344890F8000133494871072006F062FE64
:1045A00009E0304890F828012E4948710A2006F0A9
:1045B00059FE00E000BF00BF00BF00BF16226C49DB
:1045C000E620FCF7A5FA6A480078032802DD0020FF
:1045D0006749087066484078032802DD0020644976
:1045E000487063484278017862A006F0B7F81D4829
:1045F000407801280CD15E480078664908705C4814
:10460000801C0168426817488030C0E904120BE042
:10461000574840785F49087055480A300168426839
:1046200041481830C0E9041270BD0000557365722E
:104630004F7065726174696F6E2E565F4D6F646561
:10464000547261696E2E506172616D5B554F5F509F
:104650004152414D5F50554C53455D3A256C6C6459
:104660000D0A000040000020557365724F7065729E
:104670006174696F6E2E565F4D6F64655472616927
:104680006E2E506172616D5B554F5F504152414DCE
:104690005F414D504C5D3A256C6C640D0A00000082
:1046A000557365724F7065726174696F6E2E565FD7
:1046B0004D6F6465547261696E2E506172616D5BFD
:1046C000554F5F504152414D5F465245515D3A252D
:1046D0006C6C640D0A000000557365724F70657252
:1046E0006174696F6E2E565F4D6F646554726169B7
:1046F0006E2E506172616D5B554F5F504152414D5E
:104700005F4455524154494F4E5D3A256C6C640DDF
:104710000A00000000B864D900B4C40400902F500F
:104720000098D0580048E8015001002052656164AB
:104730003120557365724F7065726174696F6E2EAA
:10474000435F4D6F6465457874426E632E506172AD
:10475000616D5B554F5F504152414D5F414D504C33
:104760005D3A256C6C640D0A00000000E001002039
:1047700040030020565F576176655F747970653A33
:1047800025642C435F576176655F747970653A25BF
:10479000640D0A00B801002010B5D0E90041141BD7
:1047A00073EB010102D200240460446010BD0000DC
:1047B00070B5BE4800894EF6602188427DDB7E20C0
:1047C000BB490870BB4800784870BA484078887088
:1047D000B8488079C870B74890F8A8000871B54803
:1047E000007A4871B348807A8871B248407AC871BB
:1047F000B048D0E90610AE4A9160D060AD48D0E92B
:10480000041011615061AB4890F8300011460876F1
:10481000A84890F832004876A64890F8310088768B
:10482000A44890F83300C876A248D0E91010D161AE
:104830001062A049D1E90E01506291629D49383160
:10484000D1E90401D06211639A4890F858001146EA
:1048500081F83400974890F85A0081F8350095485F
:1048600090F8590081F83600924890F85B0081F882
:104870003700904890F85C0081F838008D48D0E906
:104880001A103932116050608A48D0E91810083285
:104890001160506087496031D1E90401083210602D
:1048A000516084496031D1E90601083210605160DD
:1048B000804890F880007E4900E0F5E081F85900DA
:1048C0007C4890F8810081F85A007A498031D1E91A
:1048D00002010A3210605160764890F8B0007449C5
:1048E00081F86300734890F8B20081F86400714861
:1048F00090F8B10081F865006E48B030D0E904103E
:104900000B32116050606B48B030D0E902100832B1
:1049100011605060674890F8D800654981F87600CA
:10492000644890F8DA0081F87700624890F8D9007E
:1049300081F878005F4890F8DB0081F879005D49E4
:10494000E031D1E902010C32106051605949D8318F
:10495000D1E902010832106051605648D830D0E9E0
:104960000610083211605060524890F8000150491A
:1049700081F892004F4890F8020181F893004D4869
:1049800090F8010181F894004A4890F8030181F8F9
:104990009500484890F8040181F896004649D1E90D
:1049A00002010D321060516043480838D0E902100E
:1049B00008321160506040480838D0E906100832CB
:1049C000116050603C480838D0E908100832116086
:1049D0005060384890F82801354981F8B7003548CB
:1049E00090F8290181F8B80033482030D0E902104E
:1049F0000A321160506000202D4981F8C10081F811
:104A0000C2000A3210605060083210605060C1F875
:104A1000D300452081F8D70026496031D1E902430F
:104A2000224626A005F09AFE2249D1E918432246E3
:104A300030A005F093FE1F496031D1E904432246BE
:104A40003AA005F08BFE1B496031D1E906432246AE
:104A500044A005F083FE18480838D0E904432246F4
:104A60004FA005F07BFE14490839D1E902432246E4
:104A700059A005F073FE10480838D0E906432246D5
:104A800063A005F06BFE0C480838D0E908432246C5
:104A90006DA005F063FED82205494FF40070FCF7C5
:104AA00072F800200149088170BD0000BC0600209A
:104AB0005603002040000020480100205573657215
:104AC0004F7065726174696F6E2E565F4D6F6465CD
:104AD000547261696E2E506172616D5B554F5F500B
:104AE0004152414D5F50554C53455D3A256C6C64C5
:104AF0000D0A0000557365724F7065726174696FBD
:104B00006E2E565F4D6F6465547261696E2E5061F2
:104B100072616D5B554F5F504152414D5F414D5049
:104B20004C5D3A256C6C640D0A000000557365728B
:104B30004F7065726174696F6E2E565F4D6F64655C
:104B4000547261696E2E506172616D5B554F5F509A
:104B50004152414D5F465245515D3A256C6C640DA2
:104B60000A000000557365724F7065726174696F59
:104B70006E2E565F4D6F6465547261696E2E506182
:104B800072616D5B554F5F504152414D5F445552CC
:104B90004154494F4E5D3A256C6C640D0A0000008B
:104BA000557365724F7065726174696F6E2E435FE5
:104BB0004D6F6465547261696E2E506172616D5BF8
:104BC000554F5F504152414D5F50554C53455D3AF2
:104BD000256C6C640D0A0000557365724F70657228
:104BE0006174696F6E2E435F4D6F646554726169C5
:104BF0006E2E506172616D5B554F5F504152414D59
:104C00005F414D504C5D3A256C6C640D0A0000000C
:104C1000557365724F7065726174696F6E2E435F74
:104C20004D6F6465547261696E2E506172616D5B87
:104C3000554F5F504152414D5F465245515D3A25B7
:104C40006C6C640D0A000000557365724F706572DC
:104C50006174696F6E2E435F4D6F64655472616954
:104C60006E2E506172616D5B554F5F504152414DE8
:104C70005F4455524154494F4E5D3A256C6C640D6A
:104C80000A00000010B504460C4951F824104A00EF
:104C90000B4951F82400002106F09AFD094951F80A
:104CA00024200749083951F82400002106F090FD1E
:104CB000012103480830015510BD000088BF0008DD
:104CC000F002002098BF00087047000070B5002176
:104CD00000230F22C4781CB3174C246804F4E0644A
:104CE000C4F5E064C4F30721C1F10404E3B20A414E
:104CF00044789C40E1B28478144021430C07210E93
:104D00000E4C05786155047804F01F050124AC4071
:104D100005786D11AD0005F1E025C5F8004109E009
:104D2000047804F01F050124AC40054D0678761187
:104D300045F8264070BD00000CED00E000E400E006
:104D400080E100E002490143024A1160704700001F
:104D50000000FA050CED00E010B5002807DA0A079C
:104D6000140E054A00F00F031B1FD45403E00A077A
:104D7000130E024A135410BD18ED00E000E400E0E9
:104D80002DE9F04104460D461646012E38D1012C7E
:104D900016D126480078012808D146F2A81095FBC4
:104DA000F0F739460120FBF70EFE3DE046F2A81071
:104DB00095FBF0F0474239460120FBF704FE33E053
:104DC00094BB1A48007801280BD14FF47A7095FBF8
:104DD000F0F7F81707EB5070C1100220FBF7F3FD56
:104DE00022E04FF47A7095FBF0F7F81707EB50705C
:104DF000C010C0F1000841460220FBF7E4FD13E0BB
:104E000096B9012C04D100210120FBF7DCFD04E060
:104E10001CB900210220FBF7D6FD012004490860DF
:104E200000200449C1F89402BDE8F0814000002050
:104E3000800240420080404210B5504800794F49FE
:104E4000C97888424ED04D48007930B1012813D03E
:104E5000022821D003283FD12EE049A1494805F07E
:104E60008DFC47A14748733005F088FC44A14548B4
:104E7000E63005F083FC30E041A14248163805F0E9
:104E80007DFC3FA13F484B3005F078FC3CA13D48FC
:104E9000DC3005F073FC20E039A13A48163005F00B
:104EA0006DFC37A137489B3005F068FC34A13548CC
:104EB000F03005F063FC10E031A132482C3005F0F1
:104EC0005DFC2FA12F48C33005F058FC2CA12D48C4
:104ED000FA3005F053FC00E000BF00BF2748C0785F
:104EE000264908712548C07830B1012813D002281E
:104EF00021D003283FD12EE021A1224805F03EFC1D
:104F00001FA12048733005F039FC1DA11D48E63073
:104F100005F034FC30E01AA11A48163805F02EFCD2
:104F200017A118484B3005F029FC15A11548DC30B5
:104F300005F024FC20E012A11248163005F01EFCFA
:104F40000FA110489B3005F019FC0DA10D48F03061
:104F500005F014FC10E00AA10A482C3005F00EFC04
:104F600007A10848C33005F009FC05A10548FA303F
:104F700005F004FC00E000BF00BF10BD40000020B1
:104F800000000000B90500202DE9FF4F87B00D4655
:104F900014461F46DDE9176BDDE9158ADDF85090F0
:104FA000079809287ED2DFE800F07D052E475E874E
:104FB0009EC7EB0004EB090083B2E81982B22146D8
:104FC00028460096FDF720F95046FBF746F908EB16
:104FD000D871491000FB117005EB500080B2CDE98B
:104FE0000408A9EB0800CDE9026BCDE9008A069020
:104FF00000EBD07004EB600081B24B463A46049857
:10500000FDF70CFED7E004EB090083B2E81982B289
:10501000214628460096FDF7F7F804F1140291B2F4
:1050200005F1140290B24B463A46CDE9026BCDE948
:10503000008AFDF7F3FDBEE004EB090083B2E81936
:1050400082B2214628460096FDF7DEF804F11400EE
:1050500081B24B463A462846CDE9026BCDE9008A3B
:10506000FDF7DCFDA7E044F22820009004EB0900E6
:1050700083B2E81982B221462846FDF7C5F804EB51
:1050800009000A3883B2E819283882B204F10A000C
:1050900081B228460096FDF7B7F804F1140081B2FA
:1050A0004B4600E086E03A462846CDE9026BCDE962
:1050B000008AFDF7B3FD7EE004EB090083B2E81936
:1050C00082B2214628460096FDF79EF804F11400AE
:1050D00081B24B463A462846CDE9026BCDE9008ABB
:1050E000FDF79CFD67E004EB090083B2E81982B28A
:1050F000214628460096FDF787F8002030A11022AF
:10510000CDE901160092039004F1120291B26A1DDA
:1051100090B24B463A46FDF781FD04F10A0291B286
:1051200005F13C0290B24B463A46CDE9026BCDE91F
:10513000008AFDF773FD3EE004EB090083B2E81935
:1051400082B2214628460096FDF75EF85046FBF7EE
:1051500084F808EBD871491000FB117005EB500082
:1051600080B2CDE9050804F10A0081B24B463A4607
:10517000CDE9026BCDE9008A0598FDF74FFD1AE0F5
:1051800004EB090083B2E81982B221462846009652
:10519000FDF73AF80CA0102104F11202CDE9026BE0
:1051A000CDE9001091B26A1D90B24B463A46FDF728
:1051B00035FD00E000BF00BF0BB0BDE8F08F000080
:1051C00054595045207C0000545950453A00000085
:1051D0007047000010B500200449086001218807CD
:1051E00002F05BFA00210248817010BD800240424B
:1051F0007C02002010B501200449086000218007CE
:1052000002F04BFA02210248817010BD8002404238
:105210007C0200202DE9F04F2DED068B87B0F5487C
:105220008078002877D104460546F2484078012866
:105230000AD1F048D0E90645EF49611A75F100003E
:1052400010D2EE4804600DE0EA48407850B9E948D1
:10525000B030D0E90445E849611A75F1000001D287
:10526000E6480460E648007818B1E548007801286F
:105270000BD142F21071611A75F1000005D20120C4
:1052800007B0BDEC068BBDE8F08FDD480078022842
:1052900003D0DB480078032807D144F62061611A67
:1052A00075F1000001D20120EAE7D548007818B175
:1052B000D348007801280ED1FA220023204629463F
:1052C000FAF788FF401ECF49086008460068A0F141
:1052D0001C0008600DE0FA22002320462946FAF758
:1052E00079FF401EC749086008460068A0F14800E1
:1052F00008604FF00100C44908604FF00000C34946
:10530000C1F880024FF00F00FBF73EFDBD48026878
:10531000BB48017800E00AE0BDA005F01FFA0021BB
:10532000CB488170B7480068FBF7BEFE2DE2B1485C
:10533000807801287DD100200446054606460746B0
:10534000AC48407801280CD1AA48D0E91045D0E9F2
:105350001267A949611A75F1000012D2A7480460CA
:105360000FE0A448407860B9A248D830D0E904459D
:10537000D0E90667A049611A75F1000001D29F4883
:1053800004609F48007818B19D480078012807D133
:1053900042F21071611A75F1000001D201206FE72D
:1053A00097480078022803D095480078032807D151
:1053B00044F62061611A75F1000001D201205FE717
:1053C0008D49711A77F1000001D2012058E78C480D
:1053D000007818B18A48007801280ED1FA220023FB
:1053E00020462946FAF7F6FE401E86490860084620
:1053F0000068A0F11C0008600DE0FA22002320469E
:105400002946FAF7E7FE401E7E4908600846006814
:10541000A0F1480008607B48006822462B46CDE991
:10542000006702908BA005F099F900BF00BF00BF94
:1054300000E050E04FF014094FF47A720023304638
:105440003946FAF7C7FE06460F4630463946FBF79F
:10545000E8F841EC190B53EC192B9FED880B51EC3C
:10546000100BFBF740F841EC180B9FED860B53EC4B
:10547000102B51EC180BFBF736F89FED840B53EC17
:10548000102BFAF7B8FFFBF7D8F8804653EC182B2F
:1054900080A0CDF8008005F061F95A4800684045C9
:1054A00002D95848C0F80080012057490860002000
:1054B0005649C1F880020F20FBF766FC1FFA89F1FC
:1054C000404602F0A4F9002161488170012188075B
:1054D00002F0E3F859E1474880780228FAD1002128
:1054E0000C460D460E460F46002080468146414838
:1054F000407801280ED13F48D0E91A45D0E91C6711
:10550000D0E91E893C49611A75F1000016D23B486A
:10551000046013E03748407880B96348D0E9044517
:10552000D0E906673348D0F82491D0F82081324979
:10553000611A75F1000001D23048046030480078EB
:1055400018B12F480078012807D142F21071611A72
:1055500075F1000001D2012092E629480078022866
:1055600003D027480078032807D144F62061611A48
:1055700075F1000001D2012082E61F49711A77F10E
:10558000000001D201207BE64849B8EB010179F126
:10559000000001D2012073E61948007818B11848BC
:1055A000007801280ED1FA22002320462946FAF776
:1055B00011FE401E1349086008460068A0F11C0057
:1055C00008600DE0FA22002320462946FAF702FE81
:1055D000401E0C49086008460068A0F148000860B9
:1055E0000848CDE90489006822462B46CDE90067CA
:1055F00002905DE040000020400D03000C030020FD
:10560000B801002000030020B08242420000404266
:1056100053494E474C4554524947474552204D6FD8
:1056200064652C53575F43565F4F55545055542073
:105630003D20312C576176655F747970653D256436
:105640002C74696D355F6172723D25640D0A00002E
:105650007C02002070756C73653D256C6C646E7304
:105660002C667265713D256C6C646D687A2C74696A
:105670006D355F6172723D25640D0A00000000A265
:10568000941A6D420000000000406F4000000000CE
:105690000000F03F543D256C662C74696D325F61EB
:1056A00072723D25640D0A0040010020A0860100B1
:1056B00037A005F053F800BF00BF00BF14200690CC
:1056C0004FF47A72002330463946FAF783FD0646D6
:1056D0000F4630463946FAF7A4FF41EC190B53EC5C
:1056E000192B1FED1A0B51EC100BFAF7FCFE41ECD5
:1056F000180B1FED1C0B53EC102B51EC180BFAF789
:10570000F2FE1FED1E0B53EC102BFAF774FEFAF7A6
:1057100094FF82462C480068504502D92A48C0F8B8
:1057200000A04FF47A700021A8FB002B09FB00B009
:1057300001FB08011046FAF774FF53EC182BFAF737
:10574000D2FEFAF77AFF214908600846006853EC58
:10575000182BCDE900A01EA005F000F80120254976
:10576000086000202449C1F880020F20FBF70CFBE1
:10577000069881B2504602F04AF800211F48817015
:105780000121880701F089FF00BF002078E50000B3
:1057900070756C73653D256C6C646E732C667265F8
:1057A000713D256C6C646D687A2C74696D355F6130
:1057B00072723D25642C6475726174696F6E3D254B
:1057C0006C6C640D0A000000000300200803002038
:1057D000543D256C662C74696D325F6172723D2593
:1057E000642C747261696E5F61636F756E743D25C0
:1057F000640D0A00B0824242000040427C02002058
:1058000010B5FBF7CDFA00214FF0804001F045FFC5
:1058100000204FF0804148620B4908600B49086046
:105820000B49086001210B48817000210320FBF720
:10583000CAF800200849086001200849C1F8800220
:1058400000200749086010BD080300200403002061
:10585000240C00407C020020B08242420000404202
:10586000C80200202DE9F0472DED028B04464FF0D1
:1058700000099FED4C0AB0EE408AE06818B1E1687B
:10588000002005F07FFF48480078401C00EB8000B6
:105890004100002005F088FFE060E06820B90520A5
:1058A000BDEC028BBDE8F0873F484078012829D144
:1058B0003D48806B20603C493831D1E904714FF498
:1058C0007A7200233846FAF785FC0546FAF77AFE25
:1058D00008EE100A34493831D1E902211046FAF7AE
:1058E00071FE00EE100A20EE080ADFED300A20EE0D
:1058F000200ADFED2F0A80EE201ABCEEC10A10EE5E
:10590000109A29E02848D0F8E00020602649E031CC
:10591000D1E904514FF47A7200232846FAF75AFC71
:105920000746FAF74FFE08EE100A1F49E031D1E9A9
:1059300002211046FAF746FE00EE100A20EE080A91
:10594000DFED1A0A20EE200ADFED190A80EE201A98
:10595000BCEEC10A10EE109A206808B901209FE73A
:10596000B5EEC08AF1EE10FA01D1022098E7B9F144
:10597000000F01D1032093E7E068DFED0E0A68EE27
:10598000200AB0EE600A00EE909AF8EE600A00F08D
:10599000D1F84FF6FF70E16808600120A0606060F8
:1059A00000207DE700000000400000200050434739
:1059B000286B6E4E0000C8422DE9F0412DED028BA0
:1059C0000446002008EE100A9FED540AF0EE408ACB
:1059D000E06818B1E168002005F0D4FE5048007876
:1059E00000EB80004100002005F0DEFEE060E06892
:1059F00020B90520BDEC028BBDE8F0814848407815
:105A0000012803D146480069206003E04448D0F8EB
:105A1000B8002060206808B90120EBE79FED410A3B
:105A2000F0EE408A4CF2503008EE100AE068F8EED2
:105A3000480AB0EE680A00F07DF83948407801283D
:105A400020D137491031D1E902514FF47A72002345
:105A50002846FAF7BFFB0746FAF7B4FD00EE100A36
:105A60009FED311AC8EE810A9FED301AC0EE811AFF
:105A700020EE210ADFED2C0A80EE201A2C4880ED62
:105A8000001A1FE02649B831D1E902514FF47A7269
:105A900000232846FAF79EFB0746FAF793FD00EE2F
:105AA000100A9FED211AC8EE810A9FED201AC0EE60
:105AB000811A20EE210ADFED1C0A80EE201A1C4814
:105AC00080ED001A1A4890ED000ABCEEC00A10EEF4
:105AD000100AE168086012480078022812D1E168D3
