:020000040800F2
:1000000088460020B10100089D500008D114000866
:10001000893F0008E10C0008BFAD000800000000A7
:10002000000000000000000000000000156900084A
:10003000DD0D000800000000A5550008217700082C
:10004000CB010008CB010008CB010008CB01000860
:10005000CB010008CB010008210E0008CB010008ED
:10006000CB010008CB010008CB010008CB01000840
:10007000CB010008CB010008CB010008CB01000830
:10008000CB010008CB010008CB010008CB01000820
:10009000CB010008CB010008CB010008CB01000810
:1000A000CB010008CB010008CB010008CB01000800
:1000B0000178000859780008CB010008CB0100083E
:1000C000CB010008CB010008CB010008CB010008E0
:1000D000CB010008CB010008CB010008CB010008D0
:1000E000D90F0008CB010008CB010008CB010008A4
:1000F000CB010008CB010008CB010008CB010008B0
:10010000CB010008CB010008A9780008CB0100084A
:10011000CB010008CB010008857A0008CB0100085C
:10012000CB010008CB010008CB010008CB0100087F
:10013000CB010008CB010008CB010008CB0100086F
:10014000CB010008CB010008CB010008CB0100085F
:10015000CB010008CB010008CB01000879AB0008F7
:10016000CB010008CB010008CB010008CB0100083F
:10017000CB010008CB010008CB010008CB0100082F
:10018000CB010008CB010008DFF810D000F00AFC1A
:100190000048004781BF0008AFF300808846002078
:1001A00030BF72B6704762B6704780F308887047F8
:1001B0000648804706480047FEE7FEE7FEE7FEE701
:1001C000FEE7FEE7FEE7FEE7FEE7FEE799770008B9
:1001D000890100082DE9F05F0546002092469B4604
:1001E00088460646814640241BE02846414647464D
:1001F000224600F0A0FA53465A46C01A914110D345
:1002000011461846224600F087FA2D1A67EB0108BE
:100210004F4622460120002100F07EFA17EB00092C
:100220004E41201EA4F10104DFDC484631462A4637
:100230004346BDE8F09FD2B201E000F8012B491E11
:10024000FBD270470022F6E710B513460A46044673
:100250001946FFF7F0FF204610BD421C10F8011BA5
:100260000029FBD1801A704710B5002200E0521C13
:10027000835C8C5CA34201D1002BF8D1D8B2E1B2EF
:10028000401A10BD034611F8012B00F8012B002A7B
:10029000F9D11846704730B505460020034600E006
:1002A0005B1C934205D2EC5CC85C201A01D1002C87
:1002B000F6D130BD2DE9FE4F804681EA0300C00F24
:1002C0000C46009021F0004123F00045B8EB0200FD
:1002D000A94105D24046214690461C460B4602469F
:1002E00023F00040104347D0270DC7F30A00C3F3A3
:1002F0000A510290401A019040286BDAC3F31300B0
:1003000040F4801B0098924620B10023D2EB030AF0
:1003100063EB0B0B01985946C0F14002504600F0C8
:10032000FBF906460D4650465946019A00F013FA6D
:1003300010EB08006141002487EA115284EAE77358
:100340001A4340D0009A62B3019A012A4FEA075239
:1003500015DC001B61EB02014FF0004202EA07527C
:10036000CDE90042001C41F5801132462B4600F0D9
:100370004AFA03B0BDE8F08F40462146F9E7001B7A
:1003800061EB0201001C41F5801300185B4120184D
:10039000A2F5001747EB030140EAD570B6196D418D
:1003A00011E06D084FEA360645EAC0754FEA07527C
:1003B000001B61EB0201001C41F5801149084FEA66
:1003C00030000019514132462B4603B0BDE8F04FD2
:1003D00000F00ABA0098012240000023D0EB02028C
:1003E00063EBE073009821464FEAE074B8EB00003D
:1003F00061EB0401E9E783F000435BE781F0004132
:1004000058E72DE9FE4F81EA030404F0004421F08F
:10041000004100944FF0000B23F0004350EA010428
:100420005ED052EA03045BD0C3F30A54C1F30A5509
:100430002C44A4F2F3340194A0FB0254C1F3130141
:1004400041F48011C3F3130343F4801301FB02440E
:1004500000FB034E840A970A44EA815447EA835713
:10046000A4FB076802958D0A05FB07854FEA932CCC
:1004700004FB0C542705029D4FEA065847EA16373D
:10048000B5EB08056EEB070C870E920E47EA811755
:1004900042EA8312A7FB0201B6EB0B0164EB0004F6
:1004A0002B0D43EA0C335E1844EB1C50DA465146E0
:1004B000E7FB0201C5F313044FEA0B3343EA14537D
:1004C0004FEA0432019C43EA0603A4F10C040294AF
:1004D000009CCDE900B400F096F903B0BDE8F08FC0
:1004E00000200146F9E72DE9F04D81EA030404F00C
:1004F000004B21F0004514464FF0000A23F0004164
:1005000050EA050220D054EA01021DD0C5F30A5773
:100510000246C5F31303C1F31300C1F30A5640F4B6
:10052000801543F48013A7EB0608101BD64608F28B
:10053000FD3873EB050002D308F1010801E09218C1
:100540005B41B8F1000F03DA00200146BDE8F08DF1
:1005500000204FF48011064684460EE0171B73EB13
:10056000050705D3121B63EB050306434CEA010C98
:1005700049084FEA300092185B4150EA0107EDD17B
:1005800052EA030012D082EA040083EA050108431C
:1005900005D0101BAB4106D20122002306E0002249
:1005A0004FF0004302E06FF0010253101AEB060017
:1005B0004CEB085110EB0A0041EB0B01BDE8F04D8C
:1005C00000F012B930B4044696230800214604D046
:1005D000B62330BC002200F0D9B820460021F8E74D
:1005E0000EB5C10F80EAE0700844CA07002140F24E
:1005F00033438DE80E000A460B4600F004F903B0C1
:1006000000BD0EB540F2334102910021CDE9001149
:100610000A460B4600F0F7F803B000BD3EB5CA1716
:10062000CB0F002450405140C0186141DA0740F21E
:1006300033430094CDE901232246234600F0E3F83A
:1006400003B030BD0EB540F2334202920022CDE934
:100650000022134600F0D7F803B000BDC1F30A52E0
:1006600010B5C1F3130140F2FF3341F480119A42F7
:1006700001DA002010BD40F233439A42A2F2334225
:1006800003DC524200F057F810BD904010BD00F05E
:10069000004230F000400AD0C10D01F56071C0F396
:1006A000160042EA0151C20840071143704700207A
:1006B0000146704701F0004330B421F0004150EA98
:1006C000010206D00A0DA2F56072C1F31301002ADF
:1006D00002DC30BC00207047440F44EAC104C10072
:1006E000E01830BC00EBC25000F047B830B50B4604
:1006F000014600202022012409E021FA02F59D4252
:1007000005D303FA02F5491B04FA02F52844151E25
:10071000A2F10102F1DC30BD202A04DB203A00FA0C
:1007200002F1002070479140C2F1200320FA03F348
:10073000194390407047202A04DB203A21FA02F046
:100740000021704721FA02F3D040C2F1200291400B
:10075000084319467047202A06DBCB17203A41FA96
:1007600002F043EAE07306E041FA02F3D040C2F13E
:10077000200291400843194670470029A8BF7047DE
:10078000401C490008BF20F00100704710B4B0FAC7
:1007900080FC00FA0CF050EA010404BF10BC704762
:1007A00049B1CCF1200421FA04F411FA0CF118BF7C
:1007B000012121430843A3EB0C01CB1D4FEA00614B
:1007C0004FEA102042BF002010BC704700EBC3501E
:1007D00010440029A4BF10BC7047401C490008BF4A
:1007E00020F0010010BC704710B5141E73F1000416
:1007F00008DA401C41F1000192185B411A4301D113
:1008000020F0010010BD2DE9F04D92469B4611B13C
:10081000B1FA81F202E0B0FA80F220329046FFF79E
:100820007BFF04460F4640EA0A0041EA0B015346AB
:100830005A46084313D0114653EA010019D0C8F1B3
:1008400040025046FFF777FF05460E465046594690
:100850004246FFF761FF084305D0012004E020462F
:100860003946BDE8F08D0020054346EAE0762C438A
:1008700037430A986305E40AA0EB08000022FD0A4A
:1008800044EA47540A3002D500200146E9E7010551
:1008900010196941DDE9084500196941BDE8F04DCD
:1008A000A2E72DE9F04D00231A461B1A8A4103DB0B
:1008B00000200146BDE8F08DC1F30A52C1F31301D7
:1008C00041F480154FF0000BD10702D100186D41A3
:1008D000521E0027044640F2FF11384601EB620A1F
:1008E0003E468046024600204FF48011FFF723FF6A
:1008F000C2197141BB1846EB0100B4EB030C75EB58
:10090000000C04D3E41A65EB000517460E462419C3
:1009100008F101006D4180463428E3DDF91946EB0A
:100920000600091BA84103D24FF0FF32134601E035
:10093000002213461BEB070046EB0A51BDE8F04DC1
:10094000FFF752BFC1F30A52C1F3130140F2FF3364
:1009500041F480119A4202DA00200146704740F2C9
:1009600033439A42A2F2334202DC5242FFF7E3BE23
:10097000FFF7D2BE30B5041E71F1000404DB4FF066
:100980000044404264EB0101141E73F1000405DBD6
:100990001C464FF00043524263EB0403994208BFE8
:1009A000904230BD064C074D06E0E06840F0010380
:1009B00094E8070098471034AC42F6D3FFF7E8FB01
:1009C00014E3000834E3000870B58C1810F8015BDC
:1009D00015F0070301D110F8013B2A1106D110F8D8
:1009E000012B03E010F8016B01F8016B5B1EF9D1DC
:1009F0002B0705D40023521E0DD401F8013BFAE762
:100A000010F8013BCB1A921C03E013F8015B01F8CC
:100A1000015B521EF9D5A142D8D3002070BD70B53C
:100A200005460C46012D04D12046E11700F014F8CC
:100A300010E0022D04D12046E11700F04FF809E044
:100A4000032D07D12046E11700F006F82046E117F4
:100A500000F044F870BD000070B52DED088B054620
:100A60000E4628463146FFF7D9FD9FED150B53EC96
:100A7000102BFFF7C6FC9FED140B53EC102BFFF768
:100A800019FC9FED130B53EC102BFFF713FCFFF732
:100A9000E5FD84B210201049088304204883201209
:100AA00005F030FEE0B205F02DFE10200A49488323
:100AB0000420088308200883BDEC088B70BD00006B
:100AC0000000000000002040000000000000E03FA7
:100AD00000000000C0FFDF400000024070B52DEDB7
:100AE000088B05460E4628463146FFF797FD9FEDD9
:100AF000150B53EC102BFFF784FC9FED140B53ECFC
:100B0000102BFFF7D7FB9FED130B53EC102BFFF7C8
:100B1000D1FBFFF7A3FD84B2102010490883082001
:100B20004883201205F0EEFDE0B205F0EBFD102049
:100B30000A4948830420088308200883BDEC088BF9
:100B400070BD000000000000000020400000000018
:100B50000000E03F00000000C0FFDF400000024056
:100B600010B500F0DFFC10BD70B506460C4615460A
:100B700008E03046721C96B200F007F804F8010B4A
:100B8000681E85B2002DF4D170BD70B504460026F4
:100B900000F07AFDA02000F043FD00F0C1FD20121E
:100BA00000F03EFD00F0BCFD2546E11704EB1161AD
:100BB0000912A4EB0121C8B200F032FD00F0B0FD33
:100BC00000F062FDA12000F02BFD00F0A9FD002047
:100BD00000F0F4FC064600F07DFD304670BD70B5B7
:100BE00005460C46164606E02178284600F009F82E
:100BF000681C85B2641C301EA6F101018EB2F3D1CF
:100C000070BD70B504460E4600F03EFDA02000F019
:100C100007FD00F085FD201200F002FD00F080FDD0
:100C20002546E11704EB11610912A4EB0121C8B2BA
:100C300000F0F6FC00F074FD304600F0F1FC00F02E
:100C40006FFD00F047FD0A2000F0CAF870BD0000FB
:100C50001CB50121202005F0B3FB0121402005F047
:100C6000AFFB01208DF8040000208DF80600032062
:100C70008DF8050001208DF80700202000906946BE
:100C8000014800F055FB1CBD001802401CB50AF0DD
:100C9000C5FE0121042005F093FB3F2000900020B9
:100CA0008DF8040001208DF8070069460B4800F01C
:100CB0003FFB4FF47C60009001208DF80400002081
:100CC0008DF8060003208DF8050001208DF807003F
:100CD0006946024800F02CFB1CBD000000080240E1
:100CE00000BFFEE770B502464FF6FF70002313E029
:100CF00012F8015B684000240AE000F0010525B10C
:100D00004AF2010585EA600000E04010651CECB283
:100D1000082CF2DB5D1CEBB28B42E9DB70BD0000FE
:100D200000B585B00121022005F04AFB01218803AE
:100D300005F086FB4FF46040039000208DF8100012
:100D400001208DF8130003A9234800F0F1FA0D21CA
:100D5000012005F0E1FD0F21012005F0DDFD4FF43C
:100D60000050009000208DF8040010208DF8050040
:100D700001208DF80600684600F084F928208DF8DF
:100D8000080003208DF809008DF80A0001208DF875
:100D90000B0002A804F084F94FF4004000900020FA
:100DA0008DF8040010208DF8050001208DF8060054
:100DB000684600F067F928208DF8080003208DF8B8
:100DC00009008DF80A0001208DF80B0002A804F03C
:100DD00067F905B000BD0000000402407047000044
:100DE00001B504490098086000BF02480068002867
:100DF000FBD108BD0C00002010B50021074806F00B
:100E000070FE002005492431086004492C31086037
:100E10004FF6FE7001491031088010BD000C0040F3
:100E200070B5012000F022F900287DD0604880785C
:100E3000032863D15F48007818B15E480078012824
:100E40005CD15B484078012806D15948D0F8880029
:100E500059494968086008E05548407828B954481D
:100E6000D0F8300154494968086002200BF033FE85
:100E70005248006801282DD1002051490860012006
:100E80005049C1F8800200214F48817001204F492C
:100E9000087000204E4908604D482438008840F012
:100EA00001004B49243908804248007840B9424A41
:100EB000526811683E4A5078012204F04BF973E001
:100EC0003D4A526812685142394A5078012204F072
:100ED00041F969E039480068002865D1344948780B
:100EE0000122002104F036F9012035490860002074
:100EF0003449C1F880023549087055E02C488078A3
:100F0000032851D12B480078022803D029480078C3
:100F1000032849D105200BF0DEFD28480068012890
:100F200042D10024002500E041E02148407801281A
:100F300009D11F48D0F888001F49496808601C483B
:100F4000D0F890500BE01A48407840B91848D0F8D3
:100F500030011949496808601548D0F8385115B36F
:100F600001201C490860FA20B5FBF0F0441E483C03
:100F700000201349086001201249C1F880020021B5
:100F80001148817001201149087000201049086043
:100F90000F482438008840F001000D4924390880AA
:100FA000204600F0B9F800BF012000F059F870BDEC
:100FB00048000020C0010020A00200200082404222
:100FC000800240420000424284020020DC020020F5
:100FD00024040040EC01002010B51B48006800F418
:100FE000005080B364200AF069FD18480068184971
:100FF000D1F8381288420DD016480078401C1549A7
:1010000008701548007890B113480078401E1249C6
:1010100008700CE010480078401C0F4908700D481B
:10102000007820B10B480078401E0A4908700B4830
:10103000408910B90120094948810348006840F4FB
:1010400000500149086010BD143C01403482404208
:1010500000804042E4020020E5020020C806002093
:101060000149086070470000143C0140014600201F
:10107000034A12680A400AB1012000E000207047CC
:10108000143C0140002123498279002A3AD00A46C3
:10109000126803689A430B461A600A1D12680368B7
:1010A0009A430B1D1A60027911440A6803681A43B7
:1010B0000A60184A0832126803689A43154B0833CD
:1010C0001A601A1D126803689A43124B0C331A6097
:1010D0004279102A0ED11A1F126803681A430D4B69
:1010E00008331A601A1D126803681A43094B0C333F
:1010F0001A600DE00749427911440A6803681A43EF
:101100000A6005E0027911440A6803689A430A609C
:1011100070470000003C014070B504460025284897
:10112000007840B9274A52681168274A507801224E
:1011300004F010F823E022480078012809D1214A60
:10114000526812685142204A5078012204F002F895
:1011500015E01B480078022808D11A4A5268116825
:10116000194A5078012203F0F5FF08E0154A526849
:1011700012685142144A5078012203F0EBFF1048E4
:101180000078012801DC651C01E0601C45080F485F
:10119000056000200D49083908604FF6FE700B49C4
:1011A0001C39088009482C38008840F001000749A4
:1011B0002C3908800120064908600649086070BD86
:1011C000C0010020A0020020480000202C0C00409C
:1011D00084824042D002002051B18200A2F1C0427C
:1011E000126842F001038200A2F1C042136009E0DC
:1011F0008200A2F1C0421268034B1A408300A3F19F
:10120000C0431A6070470000FEFF0F0030B5002198
:10121000002200230468A400A4F1C0442168424CC9
:101220002140D0E901452C43C5682C4305692C4376
:1012300045692C4385692C43C5692C43056A2C43B9
:10124000456A2C43856A2C43C56A2C43056B2C43A5
:1012500021430468A400A4F1C04421608468082CE0
:101260000BD10468A400A4F1C044246844F04005F4
:101270000468A400A4F1C04425600468641CA400B0
:10128000A4F1C044226802F04042446B2468456BDC
:101290006D6844EA0514456BAD6844EA0524456B66
:1012A000AD8944EA0544456B2D8A44EA0554456BF3
:1012B0002D7D44EA0564456BAD692C4322430468E7
:1012C000641CA400A4F1C0442260C46AB4F5804F39
:1012D00020D10468A400A4F1C044D4F80431134C14
:1012E0002340846B2468856B6D6844EA0514856B24
:1012F000AD6844EA0524856BAD8944EA0544856BF5
:10130000AD692C4323430468A400A4F1C044C4F88D
:10131000043107E06FF070450468A400A4F1C044F4
:10132000C4F8045130BD00008000F7FF0000F0CF8A
:10133000F0B50A4600210023002400BF3DE001254E
:1013400005FA01F3156805EA03049C4234D10568E7
:101350004F000326BE40B543056015794E00B540E9
:101360000668354305601579012D02D01579022DE7
:1013700016D185684F000326BE40B5438560557978
:101380004E00B540866835438560456801268E402D
:10139000B5434560456896798E40B6B235434560A1
:1013A000C5684F000326BE40B543C560D5794E00E1
:1013B000B540C6683543C560491C1029BFD3F0BD90
:1013C000F0B5002300244D07ED0E02FA05F3CE1010
:1013D00000F1200555F826504E07F70E0F26BE40A7
:1013E000B543CF1000F1200646F82750CE1000F18B
:1013F000200555F8265045EA0304CE1000F12005DB
:1014000045F82640F0BD41837047018370470000D6
:1014100070B52DED088B054600249FED1E0AB0EE39
:10142000408A0021284605F0D1F80446B4F5004F63
:1014300011DA2046FFF7E5F841EC1A0B9FED160B89
:1014400053EC102BFEF7DDFF41EC190BFFF732F9DF
:1014500008EE100A19E0E043401CFFF7C1F841EC28
:101460001B0B9FED0D0B53EC102BFEF7CAFF41EC4D
:101470001A0B9FED0B0B53EC102BFEF7BFFF41EC4B
:10148000190BFFF717F908EE100AB0EE480ABDEC89
:10149000088B70BD00000000000000000000803FCD
:1014A000000000000000000010B516220749E620E9
:1014B000FFF75AFB0548D0F81200401C0349C1F859
:1014C00012001622E620FFF78AFB10BD4803002019
:1014D00000BFFEE710B500200F4908600F48006804
:1014E00020F440000D4908600846006840F4800080
:1014F000086000200A49C1F8AC0204200AF0DEFAB4
:1015000001200549086004200AF0D8FA00200449A7
:10151000C1F8A80210BD0000A882404200040240A9
:10152000008040421CB50121022004F049FF4FF425
:101530004060009001208DF804008DF80600032023
:101540008DF8050001208DF8070069460448FFF773
:10155000EFFE0120034908600349C1F8A8021CBD41
:1015600000040240AC8240420080404210B500209E
:101570000F4908600F48006820F440000D490860DA
:101580000846006840F48000086001200A49C1F85C
:10159000AC0204200AF092FA0120054908600420F8
:1015A0000AF08CFA00200449C1F8A80210BD00001E
:1015B000A8824042000402400080404270B50546C7
:1015C00000241448006820F44000124908600026F6
:1015D00016E000201049086004200AF06FFA01208C
:1015E0000E49C1F8A8026006040E0B487C3800685A
:1015F00008B1601CC4B202200AF060FA701CC6B2C6
:10160000082EE6DB15B9FFF7B1FF01E0FFF762FF37
:10161000204670BD00040240A88240420080404243
:1016200070B504461548006820F44000134908606E
:101630000846006840F480000860002010490860F7
:10164000002517E0E0090E49091D08606006040E38
:1016500004200AF033FA01200A49C1F8A802042044
:101660000AF02CFA00200649086004200AF026FA45
:10167000681CC5B2082DE5DB70BD00000004024007
:10168000A88240420080404210B50F48006820F414
:1016900040000D4908600846006840F4800008607A
:1016A00001200A4908600A49C1F8A80208200AF086
:1016B00005FA00200549086008200AF0FFF900201B
:1016C0000349C1F8A80210BD00040240AC824042A8
:1016D0000080404210B50F48006820F440000D49DA
:1016E00008600846006840F48000086000200A494D
:1016F00008600A49C1F8AC0208200AF0DFF90120AD
:101700000549086008200AF0D9F901200349C1F809
:10171000AC0210BD00040240A8824042008040425A
:1017200010B500241248006820F4400010490860F9
:1017300001201049086002200AF0C0F901200E497A
:10174000C1F8A80202200AF0B9F907E0601CC4B28F
:10175000FA2C03DDFFF7BEFF012010BD05488038DD
:1017600000680028F2D10349091F086000BFF4E7B0
:1017700000040240AC824042008040421CB501217E
:10178000084604F01DFE0121022004F019FE01218B
:10179000022004F015FE0121082004F011FE0121B1
:1017A000102004F00DFE0121202004F009FE01218B
:1017B000402004F005FE4FF400406649088048F2DE
:1017C0004000009001208DF8040000208DF80600F4
:1017D00003208DF8050001208DF8070069465E485A
:1017E000FFF7A6FD4020009001208DF804000020A6
:1017F0008DF8060003208DF8050001208DF8070004
:1018000069465648FFF794FD082000906946514804
:101810001A38FFF78DFD4FF40C4000906946504890
:10182000FFF786FD0C214C48FFF7EFFD4FF4004118
:101830004948FFF7E8FD41F60110009001208DF8BE
:10184000040000208DF8060003208DF8050001201B
:101850008DF8070069464048FFF76AFD4FF4307085
:10186000009001208DF8040000208DF80600032070
:101870008DF8050001208DF8070069463948FFF70B
:1018800057FD43F24C00009001208DF80400002029
:101890008DF8060003208DF8050001208DF8070063
:1018A00069463148FFF744FD4F20009001208DF834
:1018B000040000208DF8060003208DF805000120AB
:1018C0008DF8070069462548FFF732FD48F2010010
:1018D000009001208DF8040000208DF80600032000
:1018E0008DF8050001208DF80700694619481A385F
:1018F000FFF71EFD00201D4908601D49C1F8800248
:101900001A49091D086001201A490860091D08606C
:10191000091D0860091D086017490860174908601B
:10192000164910310860091F086010490C31086021
:1019300011492C390860091D08600F491C390860DD
:101940000D49091F08600E490860C003014908805D
:101950001CBD00001A1402400000024000100240AA
:101960000018024000040240000C024098824042ED
:101970000000404280024242B4824142A002404202
:10198000808242424CF6CC4001490860704700001A
:10199000003000404AF6AA20014908607047000064
:1019A00000300040014948607047000000300040AE
:1019B000014988607047000000300040014908601C
:1019C00070470000003000402DE9FC470027002050
:1019D0000090019080468146002400254FF4A060CD
:1019E00003F09AFB00F034FA4FF47A61052009F015
:1019F000BBFAFFF7C3FE4FF4E13009F0E3F987A02B
:101A000009F0C4FA864809F0C1FA86A009F0BEFAC6
:101A100009F0A6FA04200AF073F80AF0CDF801F0F4
:101A200065FB4FF4E13183A009F0B0FA0520FFF720
:101A3000D7F909F095FA08208949088089A009F0AA
:101A4000A5FA8FA009F0A2FA9620FFF7C9F909F0CC
:101A500087FA01F07BFA95A009F098FAFFF7F8F8F9
:101A600096A009F093FAFFF71FFD9848D0F81210DE
:101A700097A009F08BFA0AF02FF909F071FAFFF735
:101A800005F998A009F082FA04F0CCFD00210320AA
:101A9000FEF7C5FF97A009F079FAFFF741F9A0A07A
:101AA00009F074FA09F05CFA06F03CFB06F0B2FBB0
:101AB000A0A009F06BFA002003F0CEFA05F008FEB2
:101AC00009F04EFA0AF082F99FEDA10A06F0C0F97A
:101AD00006F072FA00F03CFB09F042FA9DA009F012
:101AE00055FA4FF4FA70FFF77BF909F039FA00F074
:101AF00055FC9C4881889CA009F048FA4FF4FA7084
:101B0000FFF76EF909F02CFAFFF72AF89DA009F00B
:101B10003DFA0AF07DFF09F023FA3220FFF760F961
:101B200002F034FA9CA009F031FA09F019FA08F031
:101B30002DF909F015FA40F2E734532529462046DD
:101B400006F058F998A009F021FA2A4621469BA0F0
:101B500009F01CFA601C691C10FB01F090FBF1F607
:101B600031469CA009F012FA09F0FAF9142142F268
:101B70000F7006F011F942F2CF01204606F0DEF8B0
:101B80003220FFF72DF909F0EBF9002098490860A1
:101B90009848007818B197480078012802D106F0DB
:101BA000C1FA01E006F0FAFA09F0DAF900209249E8
:101BB000086001209149C1F880028F49091D086021
:101BC00000208F490860091D0860091D0860091D73
:101BD00008608C4908608C4908608B4910310860A6
:101BE000091F086084490C31086086492C39086057
:101BF000091D086083491C3908608249091F086073
:101C00007B49303908600223032211467FA009F086
:101C1000BDF985A009F0BAF9BDE8FC870D0A0000FE
:101C2000D0E200084D4355205374617274210D0AAF
:101C30000000000044656267755F55617274206939
:101C40006E6974204F4B212062617564207261744B
:101C5000653D2564206269742F730D0A0D0A00002A
:101C600018140240416E676C6F6720706F77657261
:101C700020686173206F70656E210D0A00000000FE
:101C80005761697420666F7220616E616C6F6720A6
:101C9000706F77657220746F2073746162696C690C
:101CA0007A652E2E2E2E2E2E210D0A004C45445FD5
:101CB000496E6974204F4B210D0A00004265657022
:101CC0005F496E6974204F4B210D0A0048030020C4
:101CD0004D43555F504F525F54696D65733A2564AB
:101CE0000D0A000042746E5F496E6974204F4B21EB
:101CF0000D0A00004144353534325F496E69742065
:101D00004F4B2C53657420414435353432204F7588
:101D10007470757420746F207A65726F210D0A00DB
:101D2000436F6465635F496E6974204F4B210D0AF0
:101D300000000000547269676765724578494E314A
:101D4000325F496E6974204F4B210D0A000000007C
:101D5000000000005265736574204C4344210D0A55
:101D600000000000204200204C4344204F4B212023
:101D70004C43444445565F49443D307825780D0A2C
:101D800000000000415432344358585F496E697472
:101D9000204F4B210D0A00004765742050617220CE
:101DA0004F4B0D0A00000000496E69742054696DA4
:101DB000657236204F4B210D0A00000054696D6595
:101DC0007236204152523D25642C5053433D2564C8
:101DD0000D0A000054696D657236204F7665726693
:101DE0006C6F775F74696D653D256475730D0A00CE
:101DF000B0824242C001002098824042000040422E
:101E000080024242B4824142A0024042736F667433
:101E1000776172655F76657273696F6E3A25642EBD
:101E200025642E25640D0A0048617264776172652D
:101E300020696E6974204F4B21205379732072758D
:101E40006E6E696E672E2E2E2E2E2E0D0A0D0A0036
:101E500010B5104800684FF47A71B0FBF1F4601EC1
:101E6000B0F1807F00D30FE0601E4FF0E0214861A9
:101E70000F214FF0FF3003F059F900204FF0E0211F
:101E800088610720086100BF0021481E03F04EF959
:101E900010BD0000300300200146062935DA00207D
:101EA000A94A10600120A94AC2F89C02A64A083239
:101EB0001060121D1060121D1060A44AC2F8AC021E
:101EC000A1489838006808B9002070479E489438A7
:101ED000006808B90120F8E79B489038006808B905
:101EE0000220F2E798488C38006808B90320ECE734
:101EF00095488838006808B90420E6E79248843895
:101F00000068002873D10520DFE70C2936DA0120AC
:101F10008D4A106000208D4AC2F89C0201208A4A36
:101F200008321060121D1060121D1060874AC2F83E
:101F3000AC0285489838006808B90620C5E7824891
:101F40009438006808B90720BFE77F4890380068D8
:101F500008B90820B9E77C488C38006808B909201E
:101F6000B3E779488838006808B90A20ADE77648B1
:101F7000843800680028C5D10B20A6E7122937DA7B
:101F80000120714A1060714AC2F89C0200206E4A1A
:101F9000083210600120121D1060121D10606B4A83
:101FA000C2F8AC0268489838006808B90C208CE781
:101FB00065489438006808B90D2086E76248903873
:101FC000006808B90E2080E75F488C38006808B9BF
:101FD0000F207AE75C488838006808B9102074E759
:101FE00059488438006800288CD111206DE7A1E0A1
:101FF000182936DA0120544A1060544AC2F89C026B
:10200000514A083210600020121D10600120121D7C
:1020100010604E4AC2F8AC024B489838006808B9C4
:10202000122052E748489438006808B913204CE75A
:1020300045489038006808B9142046E742488C3873
:10204000006808B9152040E73F488838006808B99B
:1020500016203AE73C4884380068002871D11720E0
:1020600033E71E2935DA0120374A1060374AC2F8B3
:102070009C02354A08321060121D10600020121DAB
:1020800010600120314AC2F8AC022F48983800682D
:1020900008B9182019E72C489438006808B91920A5
:1020A00013E729489038006808B91A200DE7264838
:1020B0008C38006808B91B2007E723488838006877
:1020C00008B91C2001E720488438006890BB1D2017
:1020D000FBE6242935DA01201B4A10601B4AC2F8AE
:1020E0009C02194A08321060121D1060121D106007
:1020F0000020164AC2F8AC0213489838006808B9A4
:102100001E20E2E610489438006808B91F20DCE67B
:102110000D489038006808B92020D6E60A488C3867
:10212000006808B92120D0E607488838006810B94F
:102130002220CAE605E004488438006808B9232054
:10214000C3E6FF20C1E60000980241420000414280
:102150001CB50121402004F033F908200090012033
:102160008DF8040000208DF8060003208DF805008E
:1021700001208DF8070069461248FFF7D9F808F0EA
:10218000EFFE08200F491A310880C820FEF728FE0C
:1021900008200C491831088008F0E2FE4FF4167050
:1021A000FEF71EFE08F0DCFE082006491A31088002
:1021B000C820FEF715FE082002491831088008F0F3
:1021C000CFFE1CBD0018024070B504460026194819
:1021D000058808F0C5FE17484088454315488088A3
:1021E00046F60401884216D112488079012812D19E
:1021F0000020104988712A2048812B2088810021E5
:10220000084600F067FD01200A4988712B204881AB
:102210002A20888103E00021084600F05BFD00F0E1
:1022200083FE002602E004480480761CAE42FAD306
:1022300070BD0000204200200000026010B504467E
:1022400008F08EFEDCB900201C498871F02008805F
:102250004FF4A07048800846808841F66311884298
:1022600028D12C20154908812B2048812A208881DB
:102270004FF4F07008804FF4487048801AE0012055
:102280000E4988714FF4A0700880F02048800846FD
:10229000808841F6631188420CD12C2007490881BF
:1022A0002A2048812B2088814FF4F07008804FF459
:1022B00088704880002000F093FB10BD2042002071
:1022C00070B504460D46164608F04AFE1A48808846
:1022D00041F66311884227D11748807920B9164802
:1022E0000088401E001B84B21349488900F016FE86
:1022F000201200F00DFEE0B200F00AFE201200F005
:1023000007FEE0B200F004FE0B49888900F006FEEB
:10231000281200F0FDFDE8B200F0FAFD281200F0EE
:10232000F7FDE8B200F0F4FD034800890349088096
:10233000881C068070BD000020420020FEFF016066
:102340002DE9F05F05460E4617469846DDF828A0B1
:102350004FF0000B08F004FE781B401C1FFA80FBB6
:10236000344615E02146284600F0B4FC00F0DCFDC0
:102370004FF0000906E00848A0F800A009F10100AC
:102380001FFA80F9D945F6DB08F0EAFD601C84B23B
:102390004445E7DDBDE8F09F000002602DE9F04311
:1023A000A1B000260027B046B1460121182004F054
:1023B00007F80121084604F013F84CF6B3701F909B
:1023C00002208DF8800000208DF8820003208DF817
:1023D000810001208DF883001FA9FE48FEF7A8FFA9
:1023E0004FF680701F9002208DF8800000208DF83D
:1023F000820003208DF8810001208DF883001FA941
:10240000F548FEF795FF0C220021F248FEF7D8FFB1
:102410000C220121EF48FEF7D3FF0C220421ED48E6
:10242000FEF7CEFF0C220521EA48FEF7C9FF0C2279
:102430000821E848FEF7C4FF0C220921E548FEF711
:10244000BFFF0C220A21E348FEF7BAFF0C220E213F
:10245000E048FEF7B5FF0C220F21DE48FEF7B0FF83
:102460000C220721DC48FEF7ABFF0C220821DA48DA
:10247000FEF7A6FF0C220921D748FEF7A1FF0C2288
:102480000A21D548FEF79CFF0C220B21D248FEF70B
:1024900097FF0C221146D048FEF792FF0C220D2127
:1024A000CD48FEF78DFF0C220E21CB48FEF788FFAA
:1024B0000C220F21C848FEF783FF0C220721C548D4
:1024C000FEF77EFF0C220B21C248FEF779FF102099
:1024D000099000200A903C200B9000200C900220D4
:1024E0000D9000200E900F9012200290002003907B
:1024F00010200490002005900690079008901090FE
:1025000011901290102013900020149016901590A6
:10251000179018904FF48050199000201A904FF4A3
:1025200080401B9000201C9009A81D9002A81E90BE
:1025300010A8FEF76BFE01210020FEF74DFE08F00B
:102540000FFD4FF44870FEF74BFC08F009FD00202A
:1025500000F008FAA149888008468188A0A008F008
:1025600015FD0020009001900024A12000F0D6FC71
:10257000052009F0A3FA00F0EBF9C0B28DF80000D5
:1025800000F0E6F9C0B28DF8010000F0E1F9C0B248
:102590008DF8020000F0DCF9C0B28DF8030000F005
:1025A000D7F9C0B28DF8040092A008F0EFFC00BF8C
:1025B00006E01DF8041093A008F0E8FC601CC4B20B
:1025C000052CF6DB91A008F0E1FCA12000F0A6FCB0
:1025D00000F0BEF98149888000F0BAF97F4988800F
:1025E000084680884FF6FF7101EA00207B49888009
:1025F00000F0AEF97949898808437849888008460F
:10260000818877A008F0C2FC0A20FEF7E9FB08F0F9
:10261000A7FC41F66310714988800846808841F61E
:10262000631188427ED108F09BFCE22000F076FC2A
:102630001D2000F06DFC022000F06AFC042000F078
:1026400067FC642009F03AFAE02000F067FC012002
:1026500000F05EFC0A20FEF7C3FBE02000F05EFC09
:10266000032000F055FC0C20FEF7BAFB012000F01F
:1026700055FC0A20FEF7B4FB4FF44870FEF7B0FBA0
:10268000E62000F04BFC2F2000F042FCFF2000F081
:102690003FFCFF2000F03CFCB02000F03FFC10208D
:1026A00000F036FC002000F033FC08F059FC01205B
:1026B00000F02EFC40F2DF1000F02AFC012000F0B8
:1026C00027FC40F20F1000F023FC002000F020FC5B
:1026D000B42000F023FC022000F01AFC40F2DF20BE
:1026E00000F016FC002000F013FC2E2000F010FC7F
:1026F000002000F00DFC002000F00AFC002000F09B
:1027000007FC002000F004FC08F02AFCB62000F0D2
:1027100005FC012000F0FCFB4FF49E7000F0F8FB7C
:10272000002000E04BE000F0F3FB172000F0F0FB8E
:10273000152000F0EDFB002000F0EAFB002000F087
:10274000E7FBF02000F0EAFB032000F0E1FB29208A
:1027500000F0E4FBD02000F0E1FB002000F0D8FB0B
:10276000BE2000F0DBFB052000F0D2FBFE2000F0D5
:10277000CFFB012000F0CCFB002000F0C9FB0020C3
:1027800000F0C6FB002000F0C3FB08F0E9FBB82016
:1027900000F0C4FB032000F0BBFB012000F0B8FBFD
:1027A000BA2000F0BBFB012000F0B2FB002000F0DB
:1027B000E5F8C820FEF714FB002000F0DFF8012048
:1027C000FFF73CFD42F20410FFF7FEFC002400205E
:1027D00000901DE0000C024000100240204200204A
:1027E0006C63646465762E69643D307825780D0AE3
:1027F000000000006765745F6C63645F6D6F646503
:102800003A00000020307825780000000D0A000012
:102810000190002500F0A6F8044621463AA008F0F1
:10282000B5FBA12000F07AFB052009F047F900F084
:102830008FF8C0B28DF8000000F08AF8C0B28DF8B1
:10284000010000F085F8C0B28DF8020000F080F8B9
:10285000C0B28DF8030000F07BF8C0B28DF8040020
:10286000AFF2700008F092FB00BF07E01DF8051002
:10287000AFF2700008F08AFB681CC5B2052DF5DBCD
:10288000AFF2780008F082FBA12000F047FB00F0D7
:102890005FF8044600F05CF804464FF6FF7000EA6B
:1028A000042400F055F80443214617A008F06EFBFD
:1028B00045F26170844223D017A008F067FB6420C2
:1028C000FEF78EFA00BF00BF00BF00BF00BFBFF31E
:1028D0004F8F00BF00BF00BF1B48006800F4E060DE
:1028E0001A490843001D1849086000BF00BF00BF17
:1028F000BFF34F8F00BF00BF00BF00E000BFFDE788
:1029000021B0BDE8F08300006C63645F69643D3012
:102910007825780D0A0000004C434420696E6974E4
:10292000206661696C2C5468652073797374656DD9
:102930002077696C6C2062652072657374617274B3
:102940006564210D0A0000000CED00E00000FA05AE
:1029500008B5034800880090BDF8000008BD0000DD
:102960000000026010B50446204600F0D7FA0520AA
:1029700009F0A4F8FFF7ECFF10BD000070B52DEDD5
:10298000048B044608F0ECFABE2000F0C7FA0520DC
:1029900000F0BEFA2046FDF734FE41EC190B9FED26
:1029A0000E0B53EC102BFDF72CFD41EC180BFDF733
:1029B00055FE85B2284600F0ABFA012000F0A8FAD7
:1029C000FF2000F0A5FA002000F0A2FA002000F09D
:1029D0009FFABDEC048B70BD666666666666044051
:1029E0002DE9F04105460024002708F0B9FAB8485F
:1029F000807901280BD1B648808846F604018842C8
:102A000005D0B348808841F66311884208D1B048A8
:102A10008079F0B9AE48808841F66311884218D1B8
:102A2000082D15D2DFE805F00406080A0C0E101276
:102A300006250DE007250BE0042509E0052507E044
:102A4000012505E0002503E0032501E0022500BF84
:102A500000BF9F48808849F24131884217D09C4886
:102A6000808846F60401884211D09948808845F252
:102A7000103188420BD09648808845F21051884228
:102A800005D09348808841F6631188427ED1082D95
:102A90001CD2DFE805F00406090C0F12151800BF60
:102AA00014E044F0800411E044F040040EE044F0EF
:102AB000C0040BE044F0200408E044F0600405E0AA
:102AC00044F0A00402E044F0E00400BF00BF8048EE
:102AD000808845F21051884202D14FF4585700E0E7
:102AE00036277B48808845F2103188420DD07848DF
:102AF000808845F21051884207D07548808841F699
:102B00006311884201D044F008047148808846F679
:102B10000401884201D144F002042146384600F005
:102B20000DFA6B48808841F6631188421DD004F08D
:102B3000200068B16648008865494988884214DAEF
:102B400063480688408862490880084646800CE051
:102B50005F4800885E494988884206DD5C480688EF
:102B600040885B490880084646805948808845F27D
:102B70001051884254D15649488900F0CFF90020BD
:102B800000F0C6F952494989491C00E077E088B253
:102B900000F0C4F9002000F0BBF94D494989891CB7
:102BA00088B200F0BBF94A490988491EC1F30F20D9
:102BB00000F0AEF946494989C91C88B200F0AEF967
:102BC00043490978491EC8B200F0A2F940498889F2
:102BD00000F0A4F9002000F09BF93D498989491CC7
:102BE00088B200F09BF9002000F092F938498989F9
:102BF000891C88B200F092F935494988491EC1F311
:102C00000F2000F085F932498989C91C88B200F08B
:102C100085F92F498978491EC8B200F079F955E045
:102C20002B49488900F07AF9002000F071F9002062
:102C300000F06EF926490988491EC1F30F2000F003
:102C400067F923490978491EC8B200F061F92049A3
:102C5000888900F063F9002000F05AF9002000F0A4
:102C600057F91B494988491EC1F30F2000F050F95C
:102C700017498978491EC8B200F04AF926E0082DA4
:102C80001CD2DFE805F004070A0D0F12151844F0F6
:102C9000300413E044F0100410E044F020040DE090
:102CA00000BF0BE044F0380408E044F0280405E0DD
:102CB00044F0180402E044F0080400BF00BF0327FA
:102CC00044F480542146384600F038F9BDE8F081DC
:102CD0002042002070B504460D462848808841F601
:102CE0006311884248D108F03BF924488079A8B99B
:102CF00022480088401E001B84B22049488900F009
:102D00000DF9201200F004F9E0B200F001F92012F0
:102D100000F0FEF8E0B200F0FBF816E01749488931
:102D200000F0FCF8201200F0F3F8E0B200F0F0F848
:102D300012490988491EC1F30F2000F0E9F80F4934
:102D40000978491EC8B200F0E3F80C49888900F000
:102D5000E5F8281200F0DCF8E8B200F0D9F80749ED
:102D60004988491EC1F30F2000F0D2F80349897841
:102D7000491EC8B200F0CCF870BD0000204200200F
:102D80002DE9F84F80460E4617461C46B3462046AE
:102D9000E31704EB5373DB1021464FEAE47C04EBAA
:102DA0005C7C4FEAEC0CA4EBCC0CBCF1000F02D025
:102DB0004FF0010C01E04FF0000C6344224604EB9D
:102DC000D27C4FEA6C0C03FB0CF3DBB2009308F0EF
:102DD000C7F8A7F12000C7B2002554E00C2C07D19A
:102DE00007EB47002A4901EB800010F8059013E03B
:102DF000102C05D1274800EB071010F805900BE0C8
:102E0000182C07D107EBC700234901EB800010F80D
:102E1000059001E0BDE8F88F4FF0000A2DE009F0C1
:102E2000800028B1314640460C9AFFF749FA06E087
:102E30000A9820B9314640460B9AFFF741FA4FEA0B
:102E400049604FEA1069701C86B214484088B0424D
:102E500000DCDFE7A6EB0B00A0420AD15E4608F1DA
:102E600001001FFA80F80D480088404500DCD1E7DA
:102E700006E00AF1010000F0FF0ABAF1080FCEDB0C
:102E800000BF681CC5B200988542A7DB00BFC1E740
:102E900010CB000884CF000874D500082042002021
:102EA0002DE9FF5F04460D46904699460EAE96E822
:102EB000C00CE0B2039008F053F808EB04001FFACE
:102EC00080F809EB05001FFA80F917E0444502DBA2
:102ED000039CA81985B24D4500DB15E000208DE864
:102EE000010C3A78334629462046FFF749FF304621
:102EF00006EBD07104EB61018CB27F1C38787E2820
:102F000002DC38782028E1DA00BFBDE8FF9F00002E
:102F100001490880704700000000026001490880F4
:102F200070470000FEFF01600248008902490880E6
:102F30007047000020420020FEFF0160024A10801E
:102F4000921C118070470000FEFF01601CB501213A
:102F5000084603F035FA0121022003F031FA01217D
:102F6000082003F02DFA0121102003F029FA41F680
:102F70000110009001208DF8040000208DF806005B
:102F800003208DF8050001208DF8070069461748D9
:102F9000FEF7CEF94FF43070009069461448FEF702
:102FA000C7F943F24C00009069461248FEF7C0F999
:102FB0001F20009069461048FEF7BAF941F601114A
:102FC0000A48FEF722FA4FF430710948FEF71DFA5D
:102FD00043F24C010748FEF718FA1F210648FEF796
:102FE00014FA0020054908601CBD000000000240E2
:102FF00000040240000C024000100240988240424F
:103000000020064908600649C1F8B00203490C31A6
:1030100008600449C1F8A40270470000A0024042C1
:1030200000004042008040420020064908600649F6
:10303000C1F88C020349103108600349C1F8B0029D
:103040007047000088824142008041422448007855
:10305000022809D10120234908604FF4FA70204961
:103060004880012008700BE01D480078012807D136
:103070001B48408820B900201A4908601849087088
:1030800017480079022806D14FF4FA701449C88015
:103090000120087109E012480079012805D1104883
:1030A000C08810B900200E4908710D48007A022826
:1030B00009D101200C4908604FF4FA700849488191
:1030C000012008720BE00648007A012807D1044865
:1030D000408920B9002004490860014908727047FE
:1030E000D80600208C024242B482414210B57B20B7
:1030F00003F044FA10B118A007F048FF7A2003F05B
:103100003DFA10B119A007F041FF7C2003F036FA18
:1031100010B11BA007F03AFF7D2003F02FFA10B189
:103120001CA007F033FF7E2003F028FA10B11EA088
:1031300007F02CFF7F2003F021FA10B11FA007F049
:1031400025FF792003F01AFA10B121A007F01EFF25
:1031500003F096F910BD00005243435F464C4147CF
:103160005F504F525253540D0A0000005243435FC8
:10317000464C41475F50494E5253540D0A000000DF
:103180005243435F464C41475F5346545253540D9C
:103190000A0000005243435F464C41475F49574491
:1031A000475253540D0A00005243435F464C414777
:1031B0005F575744475253540D0A00005243435F30
:1031C000464C41475F4C5057525253540D0A000031
:1031D0005243435F464C41475F424F525253540D56
:1031E0000A0000002DE9F04100250024002708F026
:1031F000F5FB0546002D77D0681E032190FBF1F00A
:10320000C4B2681E90FBF1F201FB1200C7B2002F9E
:103210006AD1242C68DA0B2C67D1F848807838B949
:10322000F7488078012801D002F0D0FCBDE8F08199
:10323000F2488078032810D1F1488078012805D021
:10324000EE4948780022114601F084FF0020ED4944
:1032500008600121EA488170E8E7FF20E749C8706B
:1032600001F0D4FFFFF7E0FEE548807801286BD13C
:10327000E548008918B149F64040E349088101203A
:1032800007F02CFB0220DD4981F8730108464078E5
:10329000012816D1DD4840680168DDA007F076FE00
:1032A000DA4840680068E549884206D90120E449C7
:1032B0000870E4A007F06AFE1BE00020E0490870F7
:1032C00017E0D24840680168E5A007F05FFECF48EC
:1032D00040680068ED49884208D90120D849087043
:1032E000EBA007F053FE04E066E23DE00020D44985
:1032F0000870D348007810B902F076F95CE2002635
:103300000020EA4908701CE007F02AFE08F0FAFCE9
:1033100006460B2E06D10120E54981F8BA0102F0DC
:1033200063F90FE00A2E04D10120E14981F8BA01C6
:1033300008E0DE48007820B90120DC49087007F079
:1033400045FAE1E700BFD9E7AD4880780128D5D03C
:10335000AA4948780022114601F0FCFE0020A94944
:10336000086002F033FCC9E70A2C2AD1A348807810
:103370000028C3D0FF20A149C87001F047FFFFF724
:1033800053FE9F48807858B902F01EF99B4948784F
:103390000022114601F0DEFE01209A490860ADE7E7
:1033A0009748807802280BD1C248006840F001009D
:1033B000C049086002F0F8F80020924908609DE7D3
:1033C0009CE7092C15D18D480078012803D10220F3
:1033D0008A49087002E0012088490870FF20874967
:1033E000C87001F013FFFFF71FFE01208649088116
:1033F00084E7182C1AD1FF208049C87001F006FF1D
:10340000FFF712FE7D48807800289CD17C488078A8
:10341000012898D107F062FA0220784981F87301F7
:1034200002F0E2F80220A449087067E7042C76D184
:10343000734880780128FAD17148007800F00200C2
:1034400028B16F48007820F002006D4908706C4880
:103450008078012801D002F0B9FB6848407808B9AB
:10346000012000E00020654948700220924908715F
:10347000FF206249C870FFF7C3FDFFF7D5FD0020AC
:103480005E4981F8700100215C4880F87211407833
:10349000012850D18948407820F0010087494870C0
:1034A0000846407840F001004870544890F8A80061
:1034B000524988710846807988708148007881492E
:1034C00008707F48801C026841684C488030C0E921
:1034D00004218038807830B101280CD0022814D023
:1034E000032826D11CE04548007A44494871012050
:1034F000754908601EE0414890F830003F49487126
:10350000012071491031086014E03C4890F85800DF
:103510003A49487101206C490C3108600AE0D9E051
:10352000364890F8800035494871012067490860A5
:1035300000E000BF4DE06148407820F001005F49A5
:103540004870002048702D4880792C4981F8A800E7
:10355000084690F8A8008870594840785949087082
:1035600057480A30016842685948C0E904122348A4
:10357000807830B101280DD0022815D0032826D13B
:103580001CE01E4890F8B0001C49487101204E49CB
:1035900008601DE0194890F8D800184948710120CA
:1035A00049491031086013E0144890F800011349AC
:1035B0004871012044490C31086009E00F4890F837
:1035C00028010E49487101204049086000E000BF11
:1035D00000BF3A48407800F001003849097801F00E
:1035E0000101884202D0012003F060FF0120304930
:1035F00081F8BA010449088180E6000048000020F3
:103600008402002084024242C8060020A00200205A
:1036100042544E5F53494E474C45545249474745E3
:1036200052204D6F646520566F6C746167652C4144
:103630006D706C3D25640D0A0000000000512502EC
:1036400040000020457863656564696E672073619A
:10365000666520766F6C746167650D0A0000000076
:1036600042544E5F53494E474C4554524947474593
:1036700052204D6F64652043757272656E742C41E3
:103680006D706C3D25640D0A000000008096980066
:10369000457863656564696E67207361666520635C
:1036A000757272656E740D0A000000004100002002
:1036B0000C050020003C0140D8060020E801002055
:1036C00048030020C0010020A0024042A4824042E2
:1036D000700100201F2C71D1FE48807801286DD127
:1036E000FD490860FD480078401CFC490870084608
:1036F0000078042801DB00200870F8480178F8A061
:1037000007F044FCF548007818B1F4480078012827
:1037100002D104F007FD01E004F040FDF4484078D8
:10372000012804D1ED480078F249087003E0EB4825
:103730000078F04948701622EE49E620FDF74FFA6E
:10374000E6480078022803D0E448007803282AD10C
:103750000120E749C87001F5A870D0E9043044F6AB
:1037600020629A1A70F100001AD244F620600021FB
:10377000E14AC2E904011046D0E90410DC4AD2F85B
:1037800054210832DA4BDB7802EBC302C2E90010A5
:10379000FF20D749C87001F039FD012007F09EF8DD
:1037A000FF20D349C870D34842780178D3A007F0EE
:1037B000EDFB0020C8490860E1E3FFE7A4BBC54872
:1037C0008078012803D0CA48807803284AD102F0C3
:1037D000FDF9D64800884FF6FE710840D3490880AD
:1037E0000020D249243108600120D149086000201E
:1037F000D049C1F88002FFF717FCBD48807808B3B4
:10380000FFF7FEFB0120CA49203108600020B849BB
:10381000887008464078012807D10846807888716A
:103820000846007A487109E01CE0B1488078B04948
:1038300081F8A800084690F8B00048710120BE4900
:1038400081F8BA010020BD4908600120BC49C1F8D7
:103850008002FF20A649C87001F0D8FC0120B949B8
:1038600008818CE3022C5AD19A488078012803D031
:103870009F488078032852D102F0A8F90121954889
:1038800081700020AC4981F8BA01A84800884FF641
:10389000FE710840A54908800020A4492431086031
:1038A0000120A34908600020A249C1F88002FFF767
:1038B000BBFB8F488078022821D0FFF7A1FB0120B5
:1038C0009B492C310860022089498870084640785D
:1038D000012807D1084680788871084690F858007A
:1038E000487108E082488078814981F8A80008463C
:1038F00090F80001487101208F4981F8BA01002039
:103900008E49086001208E49C1F88002FF20784965
:10391000C87001F07BFC01208A4908812FE3012C4B
:1039200059D16C488078012803D0714880780328E9
:1039300051D102F04BF901216648817000207E4987
:1039400081F8BA01794800884FF6FE71084077493E
:1039500008800020754924310860012074490860FE
:1039600000207449C1F88002FFF75EFB6048807850
:10397000012820D0FFF744FB01206D493031086059
:103980005B49887008464078012807D1084680784E
:103990008871084690F83000487108E054488078F3
:1039A000534981F8A800084690F8D80048710120D2
:1039B000614981F8BA01002060490860012060492E
:1039C000C1F88002FF204A49C87001F01FFC0120A5
:1039D0005C490881D3E2032C4FD13E48807801280E
:1039E0004BD1FFF721FB42488078032820D0FFF716
:1039F00007FB01205449086003203D4988700846B0
:103A00004078012807D1084680788871084690F8E8
:103A10008000487108E036488078354981F8A80070
:103A2000084690F8280148710120434981F8BA01FD
:103A30002A48007818B129480078012802D104F0FA
:103A400071FB01E004F0AAFB01203C4908600A2058
:103A5000FDF7C6F92648407830B94FF400403B499D
:103A600008800A20FDF7BCF9FF202149C87001F049
:103A7000CDFB01203349088181E2222C68D1154811
:103A80008078012864D108F065FC1948807858B125
:103A900017488078012807D015488078022803D07D
:103AA00013488078032895D1FFF7BEFA1048C078F4
:103AB00001285DD001200849283908600C4890F899
:103AC0007301022803D10120094981F87301012003
:103AD00007493EE084020020B4824142C001002038
:103AE000576176655F747970653D25640D0A000045
:103AF00048000020480300209801002073416464BE
:103B00006974696F6E616C446174612E565F5761B0
:103B100076655F747970653A25642C435F576176EA
:103B2000655F747970653A25640D0A0000040040F1
:103B300080024042000042420C050020B082424216
:103B400000004042C8060020A482404218140240EF
:103B50006DE0C870002102F079FF0120FE4981F874
:103B600070010021FC4880F8711180F872115BE04F
:103B7000F948C07801283DD1F848007818B1F748D5
:103B8000007801281CD1F648D0E9042042F21071D7
:103B9000511A70F1000005D242F210720021F04873
:103BA000C0E90421EE48D0E90410EB4AD2F85421D0
:103BB0000832E94BDB7802EBC302C2E9001019E0DE
:103BC000E748D0E9042044F62063D21A70F10000DF
:103BD00004D219460022E248C0E90412E049D1E9C2
:103BE0000401DD4AD2F854210832DB4BDB7802EBCA
:103BF000C30203C2D84890F8730101280AD10020FB
:103C0000D54981F87301012006F068FE0220D249EF
:103C100081F87301FF20D049C870002081F870013D
:103C20000021CD4880F8721101F0F0FAA7E1232CB1
:103C300045D1CC488078012841D108F08BFBFFF7B3
:103C4000F3F9C548C078E8B10120C7490860C24807
:103C500090F87301022803D10120BF4981F8730154
:103C60000020BD49C8700021012002F0EFFE0120B4
:103C7000B94981F870010021B74880F8711180F8C6
:103C8000721119E0B44890F8730101280AD100209C
:103C9000B14981F87301012006F020FE0220AE49EF
:103CA00081F87301FF20AC49C870002081F87001D1
:103CB0000021A94880F8721101F0A8FA5FE1212CD7
:103CC0006CD1A8488078012868D108F043FBA2484D
:103CD0008078012803D0A04880780228A6D1FFF779
:103CE000A3F99D48C07802281ED001209E491031BA
:103CF0000860994890F87301022803D10120964981
:103D000081F8730102209449C8700021012002F05B
:103D10009DFE0120904981F8700100218E4880F8B5
:103D2000711180F8721136E08B48C078022818D1E2
:103D30008B48D0E904208D4BD21A70F1000004D2D8
:103D40001A4600218648C0E904218549D1E90401C9
:103D5000814AD2F8542108327F4BDB7802EBC30250
:103D600003C27D4890F8730101280AD100207A49E6
:103D700081F87301012006F0B1FD0220764981F837
:103D80007301FF207449C870002081F87001002180
:103D9000714880F8721101F039FAF0E0202C69D1F5
:103DA00070488078012865D108F0D4FA6A48807894
:103DB00002285ED1FFF738F96748C07803281ED083
:103DC0000120694928310860634890F8730102288E
:103DD00003D10120604981F8730103205E49C87056
:103DE0000021012002F032FE01205B4981F87001C0
:103DF0000021594880F8711180F8721137E0564857
:103E0000C078032819D15648D0E90420584BD21A5B
:103E100070F1000004D21A4600205149C1E9042083
:103E20004F48D0E904104C4AD2F8542108324A4B8A
:103E3000DB7802EBC302C2E90010474890F8730137
:103E400001280AD10020444981F87301012006F0BD
:103E500045FD0220404981F87301FF203E49C870AA
:103E6000002081F8700100213B4880F8721101F0B8
:103E7000CDF984E0132C03D1002002F079FE7EE01E
:103E80001D2C03D1012002F073FE78E0172C03D122
:103E9000022002F06DFE72E0112C03D1032002F02B
:103EA00067FE6CE01C2C03D1042002F061FE66E08A
:103EB000162C03D1052002F05BFE60E0102C03D12C
:103EC000062002F055FE5AE01B2C03D1072002F019
:103ED0004FFE54E0152C03D1082002F049FE4EE0BD
:103EE0000F2C03D1092002F043FE48E0072C03D138
:103EF0000B2002F03DFE42E01E2C03D10C2002F00C
:103F000037FE3CE0192C08D1134890F8720188BBA9
:103F10000121114880F8721131E00D2C2FD1FFF7EB
:103F200083F808F017FAFF200B49C87001F06EF90A
:103F30000020094981F870010021074880F87211BA
:103F400090F8730101281AD10020034981F8730108
:103F5000012006F0C3FC0EE048000020C001002054
:103F6000980100208402002088824142400D030015
:103F7000A086010003E00220024981F8730100BF1E
:103F8000FFF754B94800002000BFFEE770B5DE22FD
:103F9000FC494FF40070FCF7E7FDFA4800787E28F2
:103FA00004D1F84890F8DD0045287DD0F6A006F051
:103FB000EDFF0020FE4908700120487003F076FAFA
:103FC000012007F067FDFB48007A40F00B00F9493B
:103FD0000872084690F8300040F00B0081F830007D
:103FE000084690F8580040F00B0081F85800084649
:103FF00090F8800040F00B0081F88000084690F8AF
:10400000B00040F01A0081F8B000084690F8D800DF
:1040100040F01A0081F8D800084690F8000140F0FE
:104020001A0081F80001084690F8280140F01A00B3
:1040300081F82801FF2088700846007A48717E20A8
:10404000D049087001204870D948407800F001003C
:1040500088700020C8700871D648007A4871002026
:104060008871C871D449C74A9160D060D348002193
:1040700010615161CF4890F8300011460876002059
:1040800048768876C876CC49D1611062CB48002149
:1040900050629162CA48D0621163C64890F85800D5
:1040A000114681F8340000E008E2002081F8350074
:1040B00081F8360081F8370081F83800BE480021C9
:1040C000393210605160BD48083210605160BC4800
:1040D000083210605160BB49002008321160506006
:1040E000B44890F88000A74981F85900002081F871
:1040F0005A00B24800210A3210605160AD4890F871
:10410000B000A04981F86300002081F8640081F8C4
:104110006500A94800210B32106051604110002059
:10412000083211605060A34890F8D800954981F892
:104130007600002081F8770081F8780081F8790016
:104140009D490C3211605060491008321160506076
:10415000083211605060974890F80001894981F851
:104160009200002081F8930081F8940081F8950076
:1041700081F8960090490D3211605060481000217E
:104180000832106051600832106051608D4808326A
:1041900010605160874890F828017A4981F8B7008B
:1041A000002081F8B80086490A32116050607549D4
:1041B00081F8C10081F8C20081F8C30081F8C40011
:1041C00081F8C50081F8C60081F8C70081F8C800F1
:1041D000002110321160516008321060506069494E
:1041E000C1F8D900452081F8DD00DE224FF40070CF
:1041F000FCF7F5FC02207449087048706E490020F5
:10420000714A921C11605060083211605060162291
:104210006D49E620FCF7E3FC5A484079654908728D
:1042200058488179634881725648C1796148417222
:1042300054488168C2685F48C0E90612514908695C
:1042400049695C4AC2E904014E48007E114681F882
:1042500030004C48417E104680F832104948817E3B
:10426000104680F831104748C17E104680F8331060
:104270004448C269016A4F48C0E910214148426A76
:10428000806A4C49C1E90E203E48C26A016B494828
:10429000C0E912213B4890F83400464981F85800A3
:1042A000384890F83510434880F85A10354890F84F
:1042B0003610404880F85910324890F837103D4881
:1042C00080F85B102F4890F838103A4880F85C105E
:1042D0002C483930016842683648C0E91A12294929
:1042E000413108684968334AC2E918012548493014
:1042F000016842682F48C0E91C1222485130016809
:1043000042682C48C0E91E121E4890F859002949FD
:1043100081F880001B4890F85A10264880F88110D8
:1043200018495B3108684968224A8032C2E90201B3
:10433000144890F863001F4981F8B000114890F8C4
:1043400064101C4880F8B2100E4890F865101948A7
:1043500080F8B1100B486630026841681548B030EB
:10436000C0E9042107486E30026841681148B03046
:10437000C0E90221034890F876000E4981F8D80080
:10438000004823E05E0300204C6F6164207061727E
:10439000206572726F722C73657420746F2064656F
:1043A0006661756C742076616C7565210D0A00007C
:1043B000E80100204800002080841E00C0E1E400E5
:1043C00040420F0080C3C9014803002090F87710D5
:1043D000FE4880F8DA10FE4890F87810FB4880F824
:1043E000D910FB4890F87910F84880F8DB10F848AD
:1043F0007A3002684168F548D830C0E90421F448B1
:10440000823001684068F14AD832C2E90210F048AF
:104410008A3001684268ED48D830C0E90612EC489D
:1044200090F89200E94981F80001E94890F893106A
:10443000E64880F80211E64890F89410E34880F8C6
:104440000111E34890F89510E04880F80311E04826
:1044500090F89610DD4880F80411DD489730016827
:104460004268DC48C0E90412D9489F3001684068BE
:10447000D84AC2E90210D648A73002684168D54838
:10448000C0E90621D248AF3001684268D148C0E98E
:104490000812CF4890F8B700CC4981F82801CC48E1
:1044A00090F8B810C94880F82911C948B930016896
:1044B0004068C84A2832C2E90210DCE2C4484078A9
:1044C000C2490870C24880784870C148C078887175
:1044D000BF48007981F8A800BD4840790872BC48FF
:1044E0008179BA488172BA48C179B8484172B848EE
:1044F0008168C268B548C0E90612B54802694169D9
:10450000B248C0E90421B248007EB04981F83000C9
:10451000AF48417EAD4880F83210AD48817EAB484F
:1045200080F83110AA48C17EA84880F83310A84806
:10453000C169026AA548C0E91012A549486A896A9A
:10454000A24AC2E90E01A248C26A016B9F48C0E9B3
:1045500012219F4890F834009C4981F858009C48EB
:1045600090F83510994880F85A10994890F836100C
:10457000964880F85910964890F83710934880F87C
:104580005B10934890F83810904880F85C10904881
:104590003930016842688D48C0E91A128C494131AE
:1045A00008684968894AC2E91801894849300168A0
:1045B00042688648C0E91C1285485130016842684B
:1045C0008248C0E91E12824890F859007F4981F85C
:1045D00080007F4890F85A107C4880F881107C4811
:1045E0005B300268406879498031C1E9022078482F
:1045F00090F86300803981F8B000754890F8641035
:10460000724880F8B210724890F865106F4880F8D0
:10461000B1106F486630016842686E485038C0E992
:1046200004126B486E30026840686A495039C1E92B
:104630000220674890F87600B03981F8D8006448C5
:1046400090F87710614880F8DA10614890F8781097
:104650005E4880F8D9105E4890F879105B4880F881
:10466000DB105B487A30026841685A482838C0E954
:104670000421574882300268406856492839C1E908
:10468000022053488A300168426852482838C0E9FD
:1046900006124F4890F892004C4981F800014C48AE
:1046A00090F89310494880F80211494890F8941006
:1046B000464880F80111464890F89510434880F824
:1046C0000311434890F89610404880F80411404880
:1046D0009730026841683F48C0E904213C489F3058
:1046E000016842683B48C0E902123948A7300168B6
:1046F00042683848C0E906123548AF300168426860
:104700003448C0E90812324890F8B7002F4981F8C0
:1047100028012F4890F8B8102C4880F829112C490E
:10472000B931086849682B4A2832C2E90201274892
:10473000D0E91A43224628A006F028FC2348D0E9F5
:104740001843224632A006F021FC2048D0E91C4341
:1047500022463DA006F01AFC1C48D0E91E43224622
:1047600047A006F013FC554A45231848183000F0BE
:10477000FDF9534A00231548103000F0F7F94F4A6D
:1047800045231248403000F0F1F94D4A00230F480C
:10479000383000F0EBF94B4A09230C48483000F060
:1047A000E5F9464A45230948683000F0DFF9444AF4
:1047B00000230648603000F0D9F9424A0923034833
:1047C000703000F0D3F9404A02237FE04800002017
:1047D0005E03002048010020557365724F706572BA
:1047E0006174696F6E2E565F4D6F646554726169B6
:1047F0006E2E506172616D5B554F5F504152414D5D
:104800005F50554C53455D3A256C6C640D0A0000B1
:10481000557365724F7065726174696F6E2E565F65
:104820004D6F6465547261696E2E506172616D5B8B
:10483000554F5F504152414D5F414D504C5D3A25BF
:104840006C6C640D0A000000557365724F706572E0
:104850006174696F6E2E565F4D6F64655472616945
:104860006E2E506172616D5B554F5F504152414DEC
:104870005F465245515D3A256C6C640D0A0000009C
:10488000557365724F7065726174696F6E2E565FF5
:104890004D6F6465547261696E2E506172616D5B1B
:1048A000554F5F504152414D5F4455524154494F1D
:1048B0004E5D3A256C6C640D0A00000000B864D9A6
:1048C000C095A90500902F500098D058864800F058
:1048D0004DF9864A00238448103000F047F9844A95
:1048E00045238148483000F041F9824A00237E4840
:1048F000403000F03BF97E4A45237B48703000F0A1
:1049000035F97C4A00237848683000F02FF97A4A5C
:1049100009237548783000F029F9754A4523724813
:10492000983000F023F9734A00236F48903000F06C
:104930001DF9714A09236C48A03000F017F96F4A3D
:1049400002236948A83000F011F96A4A002366483A
:10495000B83000F00BF96448B030D0E90243224689
:1049600067A006F013FB0020754908705E48783890
:1049700040784870012002F099FDFF205A497839AB
:10498000887008464078B0B3012873D10846807912
:1049900030B101280ED0022817D003282CD11FE0F7
:1049A00051487838007A504978394871012007F029
:1049B00071F822E04C48783890F830004A4978394C
:1049C0004871042007F066F817E04748783890F8F7
:1049D0005800454978394871072007F05BF80CE02A
:1049E0004148783890F880003F49783948710A206A
:1049F00007F050F801E002E000BF00BF3AE03A489B
:104A0000783890F8A80030B101280FD0022818D0CB
:104A100003282CD120E03448783890F8B00032498F
:104A200078394871012007F035F821E02E487838B0
:104A300090F8D8002C4978394871042007F02AF8FA
:104A400016E02948783890F80001274978394871EC
:104A5000072007F01FF80BE02348783890F828016A
:104A60002149783948710A2007F014F800E000BFA6
:104A700000BF00BF00BF16223249E620FCF774F8E1
:104A800030480078032802DD00202E4908702D48A8
:104A90004078032802DD00202A49487029484278DE
:104AA000017829A006F072FA0F487838407801287A
:104AB0000CD1244800782C4908702248801C0268D8
:104AC000416809480830C0E904210BE01D484078DE
:104AD000254908701B480A30016842680248B03016
:104AE000C0E9041270BD0000C0000020C095A905F7
:104AF00000B864D90048E80100902F500098D058C1
:104B0000526561643120557365724F7065726174CE
:104B1000696F6E2E435F4D6F6465457874426E63B6
:104B20002E506172616D5B554F5F504152414D5F38
:104B3000414D504C5D3A256C6C640D0A000000003C
:104B4000E801002048030020565F576176655F74D6
:104B50007970653A25642C435F576176655F747997
:104B600070653A25640D0A00C001002010B5D0E937
:104B70000041141B73EB010102D200240460446065
:104B800010BD000070B5BE4800894EF66021884215
:104B90007EDB7E20BB490870BB4800784870BA486D
:104BA00040788870B8488079C870B74890F8A800F5
:104BB0000871B548007A4871B348807A8871B24864
:104BC000407AC871B048D0E90610AE4A9160D06012
:104BD000AD49D1E9040110615161AB4890F8300052
:104BE00011460876A84890F832004876A64890F812
:104BF00031008876A44890F83300C876A248D0E9FE
:104C00001010D1611062A048D0E90E10516290627C
:104C10009D48D0E91210D16210639B4890F858006B
:104C2000114681F83400984890F85A0081F8350010
:104C3000954890F8590081F83600934890F85B0049
:104C400081F83700904890F85C0081F838008E4871
:104C5000D0E91A103932116050608B49D1E918013E
:104C60000832106051608848D0E91C100832116089
:104C7000506085496031D1E9060108321060516009
:104C8000814890F880007F4981F859007E4800E013
:104C9000F4E090F8810081F85A007B498031D1E935
:104CA00002010A3210605160774890F8B0007549EF
:104CB00081F86300744890F8B20081F8640072488B
:104CC00090F8B10081F865006F48B030D0E9041069
:104CD0000B32116050606C48B030D0E902100832DD
:104CE00011605060684890F8D800664981F87600F5
:104CF000654890F8DA0081F87700634890F8D900A9
:104D000081F87800604890F8DB0081F879005E490E
:104D1000E031D1E902010C32106051605A48D830BC
:104D2000D0E902100832116050605749E031D1E9F2
:104D30000401083210605160534890F80001514955
:104D400081F89200504890F8020181F893004E4893
:104D500090F8010181F894004B4890F8030181F824
:104D60009500494890F8040181F896004749D1E937
:104D700002010D321060516044480838D0E9021039
:104D800008321160506041480838D0E906100832F6
:104D9000116050603D49D1E9060108321060516050
:104DA000394890F82801374981F8B700364890F81B
:104DB000290181F8B80035492031D1E902010A32D0
:104DC0001060516000202F4981F8C10081F8C200B5
:104DD00081F8C30081F8C40081F8C50081F8C600DD
:104DE00081F8C70081F8C800C1F8D900452081F8D2
:104DF000DD0025496031D1E90243224624A006F0B6
:104E0000C5F82149D1E9184322462FA006F0BEF883
:104E10001D496031D1E90443224639A006F0B6F8B5
:104E200019496031D1E90643224643A006F0AEF8A5
:104E30001649D1E9024322464EA006F0A7F81348CE
:104E40000838D0E90243224658A006F09FF80F49DF
:104E5000D1E90443224663A006F098F80B49D1E952
:104E6000064322466DA006F091F8DE2205494FF474
:104E70000070FBF7B4FE00200149088170BD0000FE
:104E8000C80600205E0300204800002050010020DA
:104E9000557365724F7065726174696F6E2E565FDF
:104EA0004D6F6465547261696E2E506172616D5B05
:104EB000554F5F504152414D5F50554C53455D3AFF
:104EC000256C6C640D0A0000557365724F70657235
:104ED0006174696F6E2E565F4D6F646554726169BF
:104EE0006E2E506172616D5B554F5F504152414D66
:104EF0005F414D504C5D3A256C6C640D0A0000001A
:104F0000557365724F7065726174696F6E2E565F6E
:104F10004D6F6465547261696E2E506172616D5B94
:104F2000554F5F504152414D5F465245515D3A25C4
:104F30006C6C640D0A000000557365724F706572E9
:104F40006174696F6E2E565F4D6F6465547261694E
:104F50006E2E506172616D5B554F5F504152414DF5
:104F60005F4455524154494F4E5D3A256C6C640D77
:104F70000A000000557365724F7065726174696F45
:104F80006E2E435F4D6F6465547261696E2E506181
:104F900072616D5B554F5F504152414D5F50554CB2
:104FA00053455D3A256C6C640D0A000055736572BB
:104FB0004F7065726174696F6E2E435F4D6F6465EB
:104FC000547261696E2E506172616D5B554F5F5016
:104FD0004152414D5F414D504C5D3A256C6C640D22
:104FE0000A000000557365724F7065726174696FD5
:104FF0006E2E435F4D6F6465547261696E2E506111
:1050000072616D5B554F5F504152414D5F46524555
:10501000515D3A256C6C640D0A0000005573657291
:105020004F7065726174696F6E2E435F4D6F64657A
:10503000547261696E2E506172616D5B554F5F50A5
:105040004152414D5F4455524154494F4E5D3A25BE
:105050006C6C640D0A00000010B504460C4951F850
:1050600024104A000B4951F82400002107F068F988
:10507000094951F824200749083951F82400002132
:1050800007F05EF9012103480830015510BD00000A
:10509000F8CA0008F802002008CB0008704700009A
:1050A00070B5002100230F22C4781CB3174C24686C
:1050B00004F4E064C4F5E064C4F30721C1F104041E
:1050C000E3B20A4144789C40E1B284781440214321
:1050D0000C07210E0E4C05786155047804F01F056D
:1050E0000124AC4005786D11AD0005F1E025C5F84F
:1050F000004109E0047804F01F050124AC40054D8F
:105100000678761145F8264070BD00000CED00E0F1
:1051100000E400E080E100E002490143024A11603E
:10512000704700000000FA050CED00E010B5002803
:1051300007DA0A07140E054A00F00F031B1FD454A8
:1051400003E00A07130E024A135410BD18ED00E0E5
:1051500000E400E02DE9F04104460D461646012E1C
:1051600038D1012C16D126480078012808D146F202
:10517000A81095FBF0F739460120FBF750FC3DE005
:1051800046F2A81095FBF0F0474239460120FBF7A4
:1051900046FC33E094BB1A48007801280BD14FF449
:1051A0007A7095FBF0F7F81707EB5070C1100220EA
:1051B000FBF735FC22E04FF47A7095FBF0F7F81717
:1051C00007EB5070C010C0F1000841460220FBF709
:1051D00026FC13E096B9012C04D100210120FBF735
:1051E0001EFC04E01CB900210220FBF718FC012082
:1051F0000449086000200449C1F89402BDE8F08128
:1052000048000020800240420000434210B5504850
:1052100000794F49C97888424ED04D48007930B165
:10522000012813D0022821D003283FD12EE049A124
:10523000494805F0BBFE47A14748733005F0B6FE6C
:1052400044A14548E63005F0B1FE30E041A14248B6
:10525000163805F0ABFE3FA13F484B3005F0A6FEE7
:105260003CA13D48DC3005F0A1FE20E039A13A48E0
:10527000163005F09BFE37A137489B3005F096FEAF
:1052800034A13548F03005F091FE10E031A13248EC
:105290002C3005F08BFE2FA12F48C33005F086FE81
:1052A0002CA12D48FA3005F081FE00E000BF00BFC0
:1052B0002748C078264908712548C07830B10128B0
:1052C00013D0022821D003283FD12EE021A122486B
:1052D00005F06CFE1FA12048733005F067FE1DA18C
:1052E0001D48E63005F062FE30E01AA11A48163873
:1052F00005F05CFE17A118484B3005F057FE15A1CC
:105300001548DC3005F052FE20E012A1124816309C
:1053100005F04CFE0FA110489B3005F047FE0DA193
:105320000D48F03005F042FE10E00AA10A482C308A
:1053300005F03CFE07A10848C33005F037FE05A183
:105340000548FA3005F032FE00E000BF00BF10BD96
:105350004800002000000000C70500202DE9FF4F95
:1053600087B00D4614461F46DDE9176BDDE9158A47
:10537000DDF85090079809287ED2DFE800F07D051F
:105380002E475E879EC7EB0004EB090083B2E81945
:1053900082B2214628460096FCF7D2FF5046FAF723
:1053A0005CFF08EBD871491000FB117005EB500051
:1053B00080B2CDE90408A9EB0800CDE9026BCDE984
:1053C000008A069000EBD07004EB600081B24B467F
:1053D0003A460498FDF764FDD7E004EB090083B278
:1053E000E81982B2214628460096FCF7A9FF04F18D
:1053F000140291B205F1140290B24B463A46CDE93F
:10540000026BCDE9008AFDF74BFDBEE004EB09001D
:1054100083B2E81982B2214628460096FCF790FF35
:1054200004F1140081B24B463A462846CDE9026B9E
:10543000CDE9008AFDF734FDA7E044F22820009072
:1054400004EB090083B2E81982B221462846FCF732
:1054500077FF04EB09000A3883B2E819283882B2D2
:1054600004F10A0081B228460096FCF769FF04F1B6
:10547000140081B24B4600E086E03A462846CDE96A
:10548000026BCDE9008AFDF70BFD7EE004EB09001D
:1054900083B2E81982B2214628460096FCF750FFF5
:1054A00004F1140081B24B463A462846CDE9026B1E
:1054B000CDE9008AFDF7F4FC67E004EB090083B254
:1054C000E81982B2214628460096FCF739FF0020F1
:1054D00030A11022CDE901160092039004F11202CE
:1054E00091B26A1D90B24B463A46FDF7D9FC04F1E1
:1054F0000A0291B205F13C0290B24B463A46CDE920
:10550000026BCDE9008AFDF7CBFC3EE004EB09001D
:1055100083B2E81982B2214628460096FCF710FFB4
:105520005046FAF79AFE08EBD871491000FB11704B
:1055300005EB500080B2CDE9050804F10A0081B204
:105540004B463A46CDE9026BCDE9008A0598FDF756
:10555000A7FC1AE004EB090083B2E81982B22146E5
:1055600028460096FCF7ECFE0CA0102104F1120274
:10557000CDE9026BCDE9001091B26A1D90B24B46A5
:105580003A46FDF78DFC00E000BF00BF0BB0BDE860
:10559000F08F000054595045207C0000545950456C
:1055A0003A0000007047000010B500200449086070
:1055B0000121880702F095FA00210248817010BD90
:1055C000800240428402002010B501200449086096
:1055D0000021800702F085FA02210248817010BD87
:1055E00080024042840200202DE9F04F2DED068B11
:1055F00087B0FE48807800287ED104460546FB48E7
:10560000407801280AD1F948D0E90645F849611ADD
:1056100075F1000010D2F74804600DE0F3484078BF
:1056200050B9F248B030D0E90445F149611A75F13A
:10563000000001D2EF480460EF48007818B1EE484E
:10564000007801280BD142F21071611A75F1000047
:1056500005D2012007B0BDEC068BBDE8F08FE6480F
:105660000078022803D0E4480078032807D144F6E4
:105670002061611A75F1000001D20120EAE7DE48DD
:10568000007818B1DC48007801280ED1FA220023F6
:1056900020462946FAF79EFD401ED8490860084674
:1056A0000068A0F11C0008600DE0FA2200232046EB
:1056B0002946FAF78FFD401ED04908600846006869
:1056C000A0F1480008604FF00100CD4908604FF09C
:1056D0000000CC49C1F880024FF00A00FBF780FBC4
:1056E000C248407830B94FF40040C74908800A20CA
:1056F000FBF776FB002100E006E0C4488170BF485C
:105700000068FBF709FD3FE2B8488078012877D1AF
:1057100000200446054606460746B448407801285E
:105720000CD1B248D0E91045D0E91267B049611AEE
:1057300075F1000012D2AF4804600FE0AB4840782A
:1057400060B9AA48D830D0E90445D0E90667A8492D
:10575000611A75F1000001D2A6480460A6480078DD
:1057600018B1A5480078012807D142F21071611ADA
:1057700075F1000001D201206CE79F4800780228F3
:1057800003D09D480078032807D144F62061611AB0
:1057900075F1000001D201205CE79549711A77F19B
:1057A000000001D2012055E79348007818B19248D3
:1057B000007801280ED1FA22002320462946FAF764
:1057C00009FD401E8D49086008460068A0F11C00D4
:1057D00008600DE0FA22002320462946FAF7FAFC79
:1057E000401E8649086008460068A0F1480008602D
:1057F0008248006822462B46CDE90067029000E00F
:1058000060E083A005F0C2FB00BF00BF00BF4FF007
:1058100014094FF47A72002330463946FAF7DAFC5D
:1058200006460F4630463946FAF70CFF41EC190B95
:1058300053EC192B9FED800B51EC100BFAF753FE34
:1058400041EC180B9FED7E0B53EC102B51EC180B19
:10585000FAF749FE9FED7C0B53EC102BFAF7CBFDCA
:10586000FAF7FCFE804653EC182B79A0CDF80080A7
:1058700005F08CFB61480068404502D95F48C0F8DC
:10588000008001205E49086000205E49C1F8800266
:105890000A20FBF7A5FA5548407830B94FF400408C
:1058A000594908800A20FBF79BFA1FFA89F1404604
:1058B00002F01BFA0021554881700121880702F08F
:1058C00010F961E1494880780228FAD100210C469C
:1058D0000D460E460F4600208046814643484078DC
:1058E00001280ED14148D0E91A45D0E91C67D0E91A
:1058F0001E893F49611A75F1000016D23D480460C7
:1059000013E03A48407880B95648D0E90445D0E9D8
:1059100006673648D0F82491D0F820813449611ABE
:1059200075F1000001D2334804603348007818B1A3
:1059300031480078012807D142F21071611A75F1DF
:10594000000001D2012085E62B480078022803D010
:1059500029480078032807D144F62061611A75F1BF
:10596000000001D2012075E62149711A77F100008B
:1059700001D201206EE63C49B8EB010179F100004B
:1059800001D2012066E61C48007818B11A48007858
:1059900001280ED1FA22002320462946FAF71AFCE4
:1059A000401E1649086008460068A0F11C00086007
:1059B0000DE0FA22002320462946FAF70BFC401E90
:1059C0000E49086008460068A0F1480008600B48CE
:1059D000CDE90489006822462B46CDE90067029094
:1059E00022A005F0D3FA00BF00BF5BE04800002012
:1059F000400D030014030020C00100200803002014
:105A0000B08242420000404218140240840200204A
:105A100070756C73653D256C6C646E732C66726575
:105A2000713D256C6C646D687A2C74696D355F61AD
:105A300072723D25640D0A00000000A2941A6D42A6
:105A40000000000000406F40000000000000F03F38
:105A5000543D256C662C74696D325F6172723D2510
:105A6000640D0A0048010020A086010070756C7367
:105A7000653D256C6C646E732C667265713D256C9A
:105A80006C646D687A2C74696D355F6172723D2546
:105A9000642C6475726174696F6E3D256C6C640D65
:105AA0000A00000000BF142006904FF47A72002311
:105AB00030463946FAF78EFB06460F4630463946E1
:105AC000FAF7C0FD41EC190B53EC192B1FED260B17
:105AD00051EC100BFAF707FD41EC180B1FED280BEA
