:020000040800F2
:1000000088460020B1010008654F0008D51400089B
:10001000513E0008E10C00080FAD00080000000090
:10002000000000000000000000000000D56700088C
:10003000DD0D0008000000006D540008E1750008A7
:10004000CB010008CB010008CB010008CB01000860
:10005000CB010008CB010008390E0008CB010008D5
:10006000CB010008CB010008CB010008CB01000840
:10007000CB010008CB010008CB010008CB01000830
:10008000CB010008CB010008CB010008CB01000820
:10009000CB010008CB010008CB010008CB01000810
:1000A000CB010008CB010008CB010008CB01000800
:1000B000C176000819770008CB010008CB010008C1
:1000C000CB010008CB010008CB010008CB010008E0
:1000D000CB010008CB010008CB010008CB010008D0
:1000E000DD0F0008CB010008CB010008CB010008A0
:1000F000CB010008CB010008CB010008CB010008B0
:10010000CB010008CB010008F9770008CB010008FB
:10011000CB010008CB010008D5790008CB0100080D
:10012000CB010008CB010008CB010008CB0100087F
:10013000CB010008CB010008CB010008CB0100086F
:10014000CB010008CB010008CB010008CB0100085F
:10015000CB010008CB010008CB010008C9AA0008A8
:10016000CB010008CB010008CB010008CB0100083F
:10017000CB010008CB010008CB010008CB0100082F
:10018000CB010008CB010008DFF810D000F00AFC1A
:1001900000480047CDBE0008AFF30080884600202D
:1001A00030BF72B6704762B6704780F308887047F8
:1001B0000648804706480047FEE7FEE7FEE7FEE701
:1001C000FEE7FEE7FEE7FEE7FEE7FEE759760008FA
:1001D000890100082DE9F05F0546002092469B4604
:1001E00088460646814640241BE02846414647464D
:1001F000224600F0A0FA53465A46C01A914110D345
:1002000011461846224600F087FA2D1A67EB0108BE
:100210004F4622460120002100F07EFA17EB00092C
:100220004E41201EA4F10104DFDC484631462A4637
:100230004346BDE8F09FD2B201E000F8012B491E11
:10024000FBD270470022F6E710B513460A46044673
:100250001946FFF7F0FF204610BD421C10F8011BA5
:100260000029FBD1801A704710B5002200E0521C13
:10027000835C8C5CA34201D1002BF8D1D8B2E1B2EF
:10028000401A10BD034611F8012B00F8012B002A7B
:10029000F9D11846704730B505460020034600E006
:1002A0005B1C934205D2EC5CC85C201A01D1002C87
:1002B000F6D130BD2DE9FE4F804681EA0300C00F24
:1002C0000C46009021F0004123F00045B8EB0200FD
:1002D000A94105D24046214690461C460B4602469F
:1002E00023F00040104347D0270DC7F30A00C3F3A3
:1002F0000A510290401A019040286BDAC3F31300B0
:1003000040F4801B0098924620B10023D2EB030AF0
:1003100063EB0B0B01985946C0F14002504600F0C8
:10032000FBF906460D4650465946019A00F013FA6D
:1003300010EB08006141002487EA115284EAE77358
:100340001A4340D0009A62B3019A012A4FEA075239
:1003500015DC001B61EB02014FF0004202EA07527C
:10036000CDE90042001C41F5801132462B4600F0D9
:100370004AFA03B0BDE8F08F40462146F9E7001B7A
:1003800061EB0201001C41F5801300185B4120184D
:10039000A2F5001747EB030140EAD570B6196D418D
:1003A00011E06D084FEA360645EAC0754FEA07527C
:1003B000001B61EB0201001C41F5801149084FEA66
:1003C00030000019514132462B4603B0BDE8F04FD2
:1003D00000F00ABA0098012240000023D0EB02028C
:1003E00063EBE073009821464FEAE074B8EB00003D
:1003F00061EB0401E9E783F000435BE781F0004132
:1004000058E72DE9FE4F81EA030404F0004421F08F
:10041000004100944FF0000B23F0004350EA010428
:100420005ED052EA03045BD0C3F30A54C1F30A5509
:100430002C44A4F2F3340194A0FB0254C1F3130141
:1004400041F48011C3F3130343F4801301FB02440E
:1004500000FB034E840A970A44EA815447EA835713
:10046000A4FB076802958D0A05FB07854FEA932CCC
:1004700004FB0C542705029D4FEA065847EA16373D
:10048000B5EB08056EEB070C870E920E47EA811755
:1004900042EA8312A7FB0201B6EB0B0164EB0004F6
:1004A0002B0D43EA0C335E1844EB1C50DA465146E0
:1004B000E7FB0201C5F313044FEA0B3343EA14537D
:1004C0004FEA0432019C43EA0603A4F10C040294AF
:1004D000009CCDE900B400F096F903B0BDE8F08FC0
:1004E00000200146F9E72DE9F04D81EA030404F00C
:1004F000004B21F0004514464FF0000A23F0004164
:1005000050EA050220D054EA01021DD0C5F30A5773
:100510000246C5F31303C1F31300C1F30A5640F4B6
:10052000801543F48013A7EB0608101BD64608F28B
:10053000FD3873EB050002D308F1010801E09218C1
:100540005B41B8F1000F03DA00200146BDE8F08DF1
:1005500000204FF48011064684460EE0171B73EB13
:10056000050705D3121B63EB050306434CEA010C98
:1005700049084FEA300092185B4150EA0107EDD17B
:1005800052EA030012D082EA040083EA050108431C
:1005900005D0101BAB4106D20122002306E0002249
:1005A0004FF0004302E06FF0010253101AEB060017
:1005B0004CEB085110EB0A0041EB0B01BDE8F04D8C
:1005C00000F012B930B4044696230800214604D046
:1005D000B62330BC002200F0D9B820460021F8E74D
:1005E0000EB5C10F80EAE0700844CA07002140F24E
:1005F00033438DE80E000A460B4600F004F903B0C1
:1006000000BD0EB540F2334102910021CDE9001149
:100610000A460B4600F0F7F803B000BD3EB5CA1716
:10062000CB0F002450405140C0186141DA0740F21E
:1006300033430094CDE901232246234600F0E3F83A
:1006400003B030BD0EB540F2334202920022CDE934
:100650000022134600F0D7F803B000BDC1F30A52E0
:1006600010B5C1F3130140F2FF3341F480119A42F7
:1006700001DA002010BD40F233439A42A2F2334225
:1006800003DC524200F057F810BD904010BD00F05E
:10069000004230F000400AD0C10D01F56071C0F396
:1006A000160042EA0151C20840071143704700207A
:1006B0000146704701F0004330B421F0004150EA98
:1006C000010206D00A0DA2F56072C1F31301002ADF
:1006D00002DC30BC00207047440F44EAC104C10072
:1006E000E01830BC00EBC25000F047B830B50B4604
:1006F000014600202022012409E021FA02F59D4252
:1007000005D303FA02F5491B04FA02F52844151E25
:10071000A2F10102F1DC30BD202A04DB203A00FA0C
:1007200002F1002070479140C2F1200320FA03F348
:10073000194390407047202A04DB203A21FA02F046
:100740000021704721FA02F3D040C2F1200291400B
:10075000084319467047202A06DBCB17203A41FA96
:1007600002F043EAE07306E041FA02F3D040C2F13E
:10077000200291400843194670470029A8BF7047DE
:10078000401C490008BF20F00100704710B4B0FAC7
:1007900080FC00FA0CF050EA010404BF10BC704762
:1007A00049B1CCF1200421FA04F411FA0CF118BF7C
:1007B000012121430843A3EB0C01CB1D4FEA00614B
:1007C0004FEA102042BF002010BC704700EBC3501E
:1007D00010440029A4BF10BC7047401C490008BF4A
:1007E00020F0010010BC704710B5141E73F1000416
:1007F00008DA401C41F1000192185B411A4301D113
:1008000020F0010010BD2DE9F04D92469B4611B13C
:10081000B1FA81F202E0B0FA80F220329046FFF79E
:100820007BFF04460F4640EA0A0041EA0B015346AB
:100830005A46084313D0114653EA010019D0C8F1B3
:1008400040025046FFF777FF05460E465046594690
:100850004246FFF761FF084305D0012004E020462F
:100860003946BDE8F08D0020054346EAE0762C438A
:1008700037430A986305E40AA0EB08000022FD0A4A
:1008800044EA47540A3002D500200146E9E7010551
:1008900010196941DDE9084500196941BDE8F04DCD
:1008A000A2E72DE9F04D00231A461B1A8A4103DB0B
:1008B00000200146BDE8F08DC1F30A52C1F31301D7
:1008C00041F480154FF0000BD10702D100186D41A3
:1008D000521E0027044640F2FF11384601EB620A1F
:1008E0003E468046024600204FF48011FFF723FF6A
:1008F000C2197141BB1846EB0100B4EB030C75EB58
:10090000000C04D3E41A65EB000517460E462419C3
:1009100008F101006D4180463428E3DDF91946EB0A
:100920000600091BA84103D24FF0FF32134601E035
:10093000002213461BEB070046EB0A51BDE8F04DC1
:10094000FFF752BFC1F30A52C1F3130140F2FF3364
:1009500041F480119A4202DA00200146704740F2C9
:1009600033439A42A2F2334202DC5242FFF7E3BE23
:10097000FFF7D2BE30B5041E71F1000404DB4FF066
:100980000044404264EB0101141E73F1000405DBD6
:100990001C464FF00043524263EB0403994208BFE8
:1009A000904230BD064C074D06E0E06840F0010380
:1009B00094E8070098471034AC42F6D3FFF7E8FB01
:1009C00060E2000880E2000870B58C1810F8015B46
:1009D00015F0070301D110F8013B2A1106D110F8D8
:1009E000012B03E010F8016B01F8016B5B1EF9D1DC
:1009F0002B0705D40023521E0DD401F8013BFAE762
:100A000010F8013BCB1A921C03E013F8015B01F8CC
:100A1000015B521EF9D5A142D8D3002070BD70B53C
:100A200005460C46012D04D12046E11700F014F8CC
:100A300010E0022D04D12046E11700F04FF809E044
:100A4000032D07D12046E11700F006F82046E117F4
:100A500000F044F870BD000070B52DED088B054620
:100A60000E4628463146FFF7D9FD9FED150B53EC96
:100A7000102BFFF7C6FC9FED140B53EC102BFFF768
:100A800019FC9FED130B53EC102BFFF713FCFFF732
:100A9000E5FD84B210201049088304204883201209
:100AA00005F090FDE0B205F08DFD10200A49488365
:100AB0000420088308200883BDEC088B70BD00006B
:100AC0000000000000002040000000000000E03FA7
:100AD00000000000C0FFDF400000024070B52DEDB7
:100AE000088B05460E4628463146FFF797FD9FEDD9
:100AF000150B53EC102BFFF784FC9FED140B53ECFC
:100B0000102BFFF7D7FB9FED130B53EC102BFFF7C8
:100B1000D1FBFFF7A3FD84B2102010490883082001
:100B20004883201205F04EFDE0B205F04BFD102089
:100B30000A4948830420088308200883BDEC088BF9
:100B400070BD000000000000000020400000000018
:100B50000000E03F00000000C0FFDF400000024056
:100B600010B500F0E1FC10BD70B506460C46154608
:100B700008E03046721C96B200F007F804F8010B4A
:100B8000681E85B2002DF4D170BD70B504460026F4
:100B900000F07CFDA02000F045FD00F0C3FD201218
:100BA00000F040FD00F0BEFD2546E11704EB1161A9
:100BB0000912A4EB0121C8B200F034FD00F0B2FD2F
:100BC00000F064FDA12000F02DFD00F0ABFD002041
:100BD00000F0F6FC064600F07FFD304670BD70B5B3
:100BE00005460C46164606E02178284600F009F82E
:100BF000681C85B2641C301EA6F101018EB2F3D1CF
:100C000070BD70B504460E4600F040FDA02000F017
:100C100009FD00F087FD201200F004FD00F082FDC8
:100C20002546E11704EB11610912A4EB0121C8B2BA
:100C300000F0F8FC00F076FD304600F0F3FC00F028
:100C400071FD00F049FD0A2000F0CAF870BD0000F7
:100C50001CB50121202005F013FB0121402005F0E7
:100C60000FFB01208DF8040000208DF80600032002
:100C70008DF8050001208DF80700202000906946BE
:100C8000014800F057FB1CBD001802401CB50AF0DB
:100C90006DFE0121042005F0F3FA3F2000900020B2
:100CA0008DF8040001208DF8070069460B4800F01C
:100CB00041FB4FF47C60009001208DF8040000207F
:100CC0008DF8060003208DF8050001208DF807003F
:100CD0006946024800F02EFB1CBD000000080240DF
:100CE00000BFFEE770B502464FF6FF70002313E029
:100CF00012F8015B684000240AE000F0010525B10C
:100D00004AF2010585EA600000E04010651CECB283
:100D1000082CF2DB5D1CEBB28B42E9DB70BD0000FE
:100D200000B585B00121022005F0AAFA012188034F
:100D300005F0E6FA4FF46040039000208DF81000B3
:100D400001208DF8130003A9234800F0F3FA0D21C8
:100D5000012005F041FD0F21012005F03DFD4FF47C
:100D60000050009000208DF8040010208DF8050040
:100D700001208DF80600684600F086F928208DF8DD
:100D8000080003208DF809008DF80A0001208DF875
:100D90000B0002A804F0E8F84FF400400090002097
:100DA0008DF8040010208DF8050001208DF8060054
:100DB000684600F069F928208DF8080003208DF8B6
:100DC00009008DF80A0001208DF80B0002A804F03C
:100DD000CBF805B000BD00000004024070470000E1
:100DE00001B504490098086000BF02480068002867
:100DF000FBD108BD0C00002010B500210B4806F007
:100E000018FE002009492431086008492C31086087
:100E10004FF6FE7005491031088005488078032898
:100E200002D101210348817010BD0000000C004078
:100E3000480000208402002070B5012000F018F95D
:100E400000287DD05B48807803285ED15A4800781E
:100E500018B159480078012857D1564840780128E0
:100E600006D15448D0F8880054494968086008E021
:100E70005048407828B94F48D0F830014F49496868
:100E8000086002200BF0CDFD4D480068012828D1F4
:100E900000204C49086001204B49C1F88002002124
:100EA0004A48817001204A4908704A48008840F049
:100EB0000100484908804048007840B93F4A5268DC
:100EC00011683C4A5078012204F0A8F86EE03B4AD1
:100ED000526812685142374A5078012204F09EF855
:100EE00064E037480068002860D132494878012220
:100EF000002104F093F801203249086000203249B3
:100F0000C1F880023249087050E02A4880780328EE
:100F10004CD129480078022803D0274800780328BC
:100F200044D105200BF07DFD2548006801283DD106
:100F3000002400251F48407801280BD11D4800E0FF
:100F400037E0D0F888001D49496808601948D0F892
:100F500090500BE01748407840B91648D0F830015F
:100F60001649496808601348D0F83851EDB101209E
:100F700019490860FA20B5FBF0F0441E483C0020F7
:100F80001049086001201049C1F8800200210F4873
:100F9000817001200E4908700E48008840F0010061
:100FA0000C490880204600F0B9F800BF012000F08D
:100FB00059F870BD48000020C0010020A0020020A8
:100FC00000824042800240420000424284020020EF
:100FD000DC02002000040040EC01002010B51B489A
:100FE000006800F4005080B364200AF00FFD184838
:100FF00000681849D1F8381288420DD01648007898
:10100000401C154908701548007890B113480078C5
:10101000401E124908700CE010480078401C0F492F
:1010200008700D48007820B10B480078401E0A492E
:1010300008700B48408910B90120094948810348CC
:10104000006840F400500149086010BD143C0140A4
:101050003482404200804042E4020020E502002049
:10106000C80600200149086070470000143C014098
:1010700001460020034A12680A400AB1012000E03C
:1010800000207047143C0140002123498279002A46
:101090003AD00A46126803689A430B461A600A1D42
:1010A000126803689A430B1D1A60027911440A689A
:1010B00003681A430A60184A0832126803689A43A0
:1010C000154B08331A601A1D126803689A43124BB5
:1010D0000C331A604279102A0ED11A1F1268036865
:1010E0001A430D4B08331A601A1D126803681A431D
:1010F000094B0C331A600DE00749427911440A6824
:1011000003681A430A6005E0027911440A6803681B
:101110009A430A6070470000003C014070B50446E5
:1011200000252848007840B9274A52681168274AA4
:101130005078012203F072FF23E022480078012852
:1011400009D1214A526812685142204A507801223E
:1011500003F064FF15E01B480078022808D11A4A02
:1011600052681168194A5078012203F057FF08E0CD
:10117000154A526812685142144A5078012203F00D
:101180004DFF10480078012801DC651C01E0601C5F
:1011900045080F48056000200D49083908604FF6E2
:1011A000FE700B491C39088009482C38008840F033
:1011B000010007492C3908800120064908600649CA
:1011C000086070BDC0010020A0020020480000207F
:1011D0002C0C004084824042D002002051B1820099
:1011E000A2F1C042126842F001038200A2F1C042A3
:1011F000136009E08200A2F1C0421268034B1A405A
:101200008300A3F1C0431A6070470000FEFF0F0087
:1012100030B50021002200230468A400A4F1C044DA
:101220002168424C2140D0E901452C43C5682C433C
:1012300005692C4345692C4385692C43C5692C43BA
:10124000056A2C43456A2C43856A2C43C56A2C43A6
:10125000056B2C4321430468A400A4F1C044216021
:101260008468082C0BD10468A400A4F1C04424684D
:1012700044F040050468A400A4F1C044256004685B
:10128000641CA400A4F1C044226802F04042446BF4
:101290002468456B6D6844EA0514456BAD6844EA03
:1012A0000524456BAD8944EA0544456B2D8A44EA23
:1012B0000554456B2D7D44EA0564456BAD692C43AF
:1012C00022430468641CA400A4F1C0442260C46AE0
:1012D000B4F5804F20D10468A400A4F1C044D4F830
:1012E0000431134C2340846B2468856B6D6844EA99
:1012F0000514856BAD6844EA0524856BAD8944EA25
:101300000544856BAD692C4323430468A400A4F114
:10131000C044C4F8043107E06FF070450468A400CD
:10132000A4F1C044C4F8045130BD00008000F7FFB0
:101330000000F0CFF0B50A4600210023002400BFD2
:101340003DE0012505FA01F3156805EA03049C4216
:1013500034D105684F000326BE40B54305601579BA
:101360004E00B5400668354305601579012D02D061
:101370001579022D16D185684F000326BE40B5436E
:10138000856055794E00B54086683543856045686F
:1013900001268E40B5434560456896798E40B6B2C9
:1013A00035434560C5684F000326BE40B543C56060
:1013B000D5794E00B540C6683543C560491C102933
:1013C000BFD3F0BDF0B5002300244D07ED0E02FAA7
:1013D00005F3CE1000F1200555F826504E07F70E04
:1013E0000F26BE40B543CF1000F1200646F8275027
:1013F000CE1000F1200555F8265045EA0304CE1022
:1014000000F1200545F82640F0BD41837047018377
:101410007047000070B52DED088B054600249FED48
:101420001E0AB0EE408A0021284605F02FF8044637
:10143000B4F5004F11DA2046FFF7E3F841EC1A0B40
:101440009FED160B53EC102BFEF7DBFF41EC190B55
:10145000FFF730F908EE100A19E0E043401CFFF7EF
:10146000BFF841EC1B0B9FED0D0B53EC102BFEF75F
:10147000C8FF41EC1A0B9FED0B0B53EC102BFEF742
:10148000BDFF41EC190BFFF715F908EE100AB0EE9D
:10149000480ABDEC088B70BD000000000000000091
:1014A0000000803F000000000000000010B5162280
:1014B0000749E620FFF758FB0548D0F81200401C0A
:1014C0000349C1F812001622E620FFF788FB10BD81
:1014D0004803002000BFFEE710B500200F49086058
:1014E0000F48006820F440000D4908600846006875
:1014F00040F48000086000200A49C1F8AC020420D2
:101500000AF084FA01200549086004200AF07EFAF6
:1015100000200449C1F8A80210BD0000A882404282
:1015200000040240008040421CB50121022004F06A
:10153000A7FE4FF44060009001208DF804008DF864
:10154000060003208DF8050001208DF8070069468C
:101550000448FFF7EFFE0120034908600349C1F882
:10156000A8021CBD00040240AC8240420080404200
:1015700010B500200F4908600F48006820F44000B3
:101580000D4908600846006840F4800008600120AA
:101590000A49C1F8AC0204200AF038FA01200549D2
:1015A000086004200AF032FA00200449C1F8A802B9
:1015B00010BD0000A882404200040240008040426A
:1015C00070B5054600241448006820F44000124914
:1015D0000860002616E000201049086004200AF088
:1015E00015FA01200E49C1F8A8026006040E0B4846
:1015F0007C38006808B1601CC4B202200AF006FA08
:10160000701CC6B2082EE6DB15B9FFF7B1FF01E08A
:10161000FFF762FF204670BD00040240A8824042EE
:101620000080404270B504461548006820F4400030
:10163000134908600846006840F4800008600020F4
:1016400010490860002517E0E0090E49091D0860EF
:101650006006040E04200AF0D9F901200A49C1F8F5
:10166000A80204200AF0D2F90020064908600420EC
:101670000AF0CCF9681CC5B2082DE5DB70BD00008E
:1016800000040240A88240420080404210B50F484A
:10169000006820F440000D4908600846006840F4E6
:1016A0008000086001200A4908600A49C1F8A802C0
:1016B00008200AF0ABF900200549086008200AF06C
:1016C000A5F900200349C1F8A80210BD000402409A
:1016D000AC8240420080404210B50F48006820F4C0
:1016E00040000D4908600846006840F4800008602A
:1016F00000200A4908600A49C1F8AC0208200AF033
:1017000085F901200549086008200AF07FF90120C9
:101710000349C1F8AC0210BD00040240A882404257
:101720000080404210B500241248006820F44000B8
:101730001049086001201049086002200AF066F98B
:1017400001200E49C1F8A80202200AF05FF907E063
:10175000601CC4B2FA2C03DDFFF7BEFF012010BDF0
:101760000548803800680028F2D10349091F086045
:1017700000BFF4E700040240AC82404200804042D7
:101780001CB50121084604F07BFD0121022004F074
:1017900077FD0121022004F073FD0121082004F0EF
:1017A0006FFD0121102004F06BFD0121202004F0C9
:1017B00067FD0121402004F063FD4FF400406649BD
:1017C000088048F24000009001208DF804000020BD
:1017D0008DF8060003208DF8050001208DF8070024
:1017E00069465E48FFF7A6FD4020009001208DF875
:1017F000040000208DF8060003208DF8050001206C
:101800008DF8070069465648FFF794FD08200090C0
:10181000694651481A38FFF78DFD4FF40C4000908F
:1018200069465048FFF786FD0C214C48FFF7EFFD55
:101830004FF400414948FFF7E8FD41F601100090E0
:1018400001208DF8040000208DF8060003208DF89B
:10185000050001208DF8070069464048FFF76AFD42
:101860004FF43070009001208DF8040000208DF8B6
:10187000060003208DF8050001208DF80700694659
:101880003948FFF757FD43F24C00009001208DF8D6
:10189000040000208DF8060003208DF805000120CB
:1018A0008DF8070069463148FFF744FD4F2000904E
:1018B00001208DF8040000208DF8060003208DF82B
:1018C000050001208DF8070069462548FFF732FD25
:1018D00048F20100009001208DF8040000208DF8EE
:1018E000060003208DF8050001208DF807006946E9
:1018F00019481A38FFF71EFD00201D4908601D49D0
:10190000C1F880021A49091D086001201A490860BF
:10191000091D0860091D0860091D08601749086055
:1019200017490860164910310860091F08601049FE
:101930000C31086011492C390860091D08600F49F5
:101940001C3908600D49091F08600E490860C00372
:10195000014908801CBD00001A140240000002402A
:10196000001002400018024000040240000C024037
:10197000988240420000404280024242B48241428A
:10198000A0024042808242424CF6CC4001490860AD
:1019900070470000003000404AF6AA200149086064
:1019A0007047000000300040014948607047000067
:1019B000003000400149886070470000003000405E
:1019C0000149086070470000003000402DE9FC47E5
:1019D00000270020009001908046814600240025C9
:1019E0004FF4A06003F0FCFA00F036FA4FF47A618D
:1019F000052009F061FAFFF7C3FE4FF4E13009F06A
:101A000089F988A009F06AFA874809F067FA87A07F
:101A100009F064FA09F04CFA04200AF019F80AF007
:101A200073F801F0C7FA4FF4E13184A009F056FAD7
:101A30006420FFF7D5F909F03BFA08208A490880AD
:101A40008AA009F04BFA90A009F048FA4FF496707A
:101A5000FFF7C6F909F02CFA01F0DCF995A009F0BE
:101A60003DFAFFF7F5F897A009F038FAFFF71EFDE9
:101A70009848D0F8121098A009F030FA0AF0D4F87B
:101A800009F016FAFFF702F998A009F027FA04F016
:101A900029FD00210320FEF7C2FF98A009F01EFADD
:101AA000FFF73EF9A0A009F019FA09F001FA06F0D3
:101AB000E1FA06F057FBA1A009F010FA002003F0AC
:101AC0002FFA05F065FD09F0F3F90AF025F99FED0D
:101AD000A20A06F065F906F017FA00F03DFB09F0DE
:101AE000E7F99EA009F0FAF94FF41670FFF778F9BC
:101AF00009F0DEF900F056FC9C4881889CA009F0B2
:101B0000EDF94FF4FA70FFF76BF909F0D1F9FFF72F
:101B100027F89EA009F0E2F90AF020FF09F0C8F9C1
:101B20003220FFF75DF902F095F99DA009F0D6F992
:101B300009F0BEF908F0D2F809F0BAF940F2E7343A
:101B400053252946204606F0FDF899A009F0C6F96C
:101B50002A4621469BA009F0C1F9601C691C10FBB4
:101B600001F090FBF1F631469CA009F0B7F909F0BD
:101B70009FF9142142F20F7006F0B6F842F2CF013D
:101B8000601C06F083F83220FFF72AF909F090F97B
:101B90000020994908609948007818B19748007862
:101BA000012802D106F066FA01E006F09FFA09F07A
:101BB0007FF900209249086001209249C1F8800213
:101BC0008F49091D086000208F490860091D0860C1
:101BD000091D0860091D08608C4908608C4908606F
:101BE0008B4910310860091F086085490C31086075
:101BF00086492C390860091D086084491C39086031
:101C00008249091F08607C4930390860012303229A
:101C1000114680A009F062F985A009F05FF9BDE8DE
:101C2000FC8700000D0A00001CE200084D4355200F
:101C30005374617274210D0A0000000044656267EC
:101C4000755F5561727420696E6974204F4B212055
:101C50006261756420726174653D256420626974F7
:101C60002F730D0A0D0A000018140240416E676CB4
:101C70006F6720706F77657220686173206F706581
:101C80006E210D0A000000005761697420666F72B2
:101C900020616E616C6F6720706F77657220746F62
:101CA0002073746162696C697A652E2E2E2E2E2E39
:101CB000210D0A004C45445F496E6974204F4B2149
:101CC0000D0A0000426565705F496E6974204F4BD4
:101CD000210D0A00480300204D43555F504F525FCD
:101CE00054696D65733A25640D0A000042746E5F95
:101CF000496E6974204F4B210D0A0000414435356F
:101D000034325F496E6974204F4B2C536574204107
:101D10004435353432204F757470757420746F20DB
:101D20007A65726F210D0A00436F6465635F496EC7
:101D30006974204F4B210D0A00000000547269673E
:101D40006765724578494E31325F496E6974204F3C
:101D50004B210D0A00000000000000005265736571
:101D600074204C4344210D0A000000002042002052
:101D70004C4344204F4B21204C43444445565F493B
:101D8000443D307825780D0A00000000415432347B
:101D90004358585F496E6974204F4B210D0A00006B
:101DA00047657420506172204F4B0D0A00000000FF
:101DB000496E69742054696D657236204F4B210D50
:101DC0000A00000054696D657236204152523D256B
:101DD000642C5053433D25640D0A000054696D6521
:101DE0007236204F766572666C6F775F74696D65C9
:101DF0003D256475730D0A00B0824242C001002087
:101E0000988240420000404280024242B4824142F5
:101E1000A0024042736F6674776172655F76657287
:101E200073696F6E3A25642E25642E25640D0A00B1
:101E3000486172647761726520696E6974204F4BE6
:101E400021205379732072756E6E696E672E2E2E67
:101E50002E2E2E0D0A0D0A0010B5104800684FF402
:101E60007A71B0FBF1F4601EB0F1807F00D30FE017
:101E7000601E4FF0E02148610F214FF0FF3003F06A
:101E8000B9F800204FF0E02188610720086100BF09
:101E90000021481E03F0AEF810BD00003003002002
:101EA0000146062935DA0020A94A10600120A94A16
:101EB000C2F89C02A64A08321060121D1060121D62
:101EC0001060A44AC2F8AC02A1489838006808B96A
:101ED000002070479E489438006808B90120F8E750
:101EE0009B489038006808B90220F2E798488C387F
:101EF000006808B90320ECE795488838006808B9FD
:101F00000420E6E7924884380068002873D1052051
:101F1000DFE70C2936DA01208D4A106000208D4A57
:101F2000C2F89C0201208A4A08321060121D10601B
:101F3000121D1060874AC2F8AC02854898380068C4
:101F400008B90620C5E782489438006808B9072018
:101F5000BFE77F489038006808B90820B9E77C4897
:101F60008C38006808B90920B3E7794888380068D8
:101F700008B90A20ADE77648843800680028C5D142
:101F80000B20A6E7122937DA0120714A1060714A46
:101F9000C2F89C0200206E4A083210600120121D17
:101FA0001060121D10606B4AC2F8AC026848983885
:101FB000006808B90C208CE765489438006808B9B7
:101FC0000D2086E762489038006808B90E2080E747
:101FD0005F488C38006808B90F207AE75C48883879
:101FE000006808B9102074E7594884380068002850
:101FF0008CD111206DE7A1E0182936DA0120544A6E
:102000001060544AC2F89C02514A08321060002005
:10201000121D10600120121D10604E4AC2F8AC0261
:102020004B489838006808B9122052E7484894385D
:10203000006808B913204CE745489038006808B993
:10204000142046E742488C38006808B9152040E75C
:102050003F488838006808B916203AE73C48843879
:102060000068002871D1172033E71E2935DA0120D6
:10207000374A1060374AC2F89C02354A083210606D
:10208000121D10600020121D10600120314AC2F89C
:10209000AC022F489838006808B9182019E72C4876
:1020A0009438006808B9192013E729489038006867
:1020B00008B91A200DE726488C38006808B91B209B
:1020C00007E723488838006808B91C2001E7204842
:1020D0008438006890BB1D20FBE6242935DA0120F6
:1020E0001B4A10601B4AC2F89C02194A0832106051
:1020F000121D1060121D10600020164AC2F8AC02BA
:1021000013489838006808B91E20E2E61048943851
:10211000006808B91F20DCE60D489038006808B94F
:102120002020D6E60A488C38006808B92120D0E67D
:1021300007488838006810B92220CAE605E004483C
:102140008438006808B92320C3E6FF20C1E60000F8
:1021500098024142000041421CB50121402004F098
:102160008FF80820009001208DF8040000208DF8E1
:10217000060003208DF8050001208DF80700694650
:102180001248FFF7D7F808F093FE08200F491A31DC
:102190000880C820FEF724FE08200C49183108806A
:1021A00008F086FE4FF41670FEF71AFE08F080FE67
:1021B000082006491A310880C820FEF711FE0820C1
:1021C00002491831088008F073FE1CBD0018024057
:1021D00070B5044600261948058808F069FE1748BE
:1021E000408845431548808846F60401884216D148
:1021F00012488079012812D10020104988712A20C4
:1022000048812B2088810021084600F0C7FC01206E
:102210000A4988712B2048812A20888103E0002107
:10222000084600F0BBFC00F0E3FD002602E0044895
:102230000480761CAE42FAD370BD0000204200201C
:102240000000026010B5044608F032FEDCB9002040
:102250001C498871F02008804FF4A070488008461F
:10226000808841F66311884228D12C2015490881C5
:102270002B2048812A2088814FF4F07008804FF489
:10228000487048801AE001200E4988714FF4A07010
:102290000880F02048800846808841F66311884213
:1022A0000CD12C20074908812A2048812B208881C5
:1022B0004FF4F07008804FF488704880002000F0E0
:1022C000F3FA10BD2042002070B504460D461646B4
:1022D00008F0EEFD1A48808841F66311884227D144
:1022E0001748807920B916480088401E001B84B228
:1022F0001349488900F076FD201200F06DFDE0B230
:1023000000F06AFD201200F067FDE0B200F064FD0D
:102310000B49888900F066FD281200F05DFDE8B2E7
:1023200000F05AFD281200F057FDE8B200F054FD0D
:102330000348008903490880881C068070BD00009E
:1023400020420020FEFF01602DE9F05F05460E46A9
:1023500017469846DDF828A04FF0000B08F0A8FDBE
:10236000781B401C1FFA80FB344615E021462846A6
:1023700000F014FC00F03CFD4FF0000906E00848B6
:10238000A0F800A009F101001FFA80F9D945F6DB99
:1023900008F08EFD601C84B24445E7DDBDE8F09F87
:1023A000000002602DE9F041A2B0002500260027C0
:1023B000A8460121182003F063FF0121084603F01D
:1023C0006FFF4CF6B370209002208DF8840000203F
:1023D0008DF8860003208DF8850001208DF8870098
:1023E00020A9FE48FEF7A6FF4FF68070209002203D
:1023F0008DF8840000208DF8860003208DF885007C
:1024000001208DF8870020A9F548FEF793FF0C22E4
:102410000021F248FEF7D6FF0C220121EF48FEF71B
:10242000D1FF0C220421ED48FEF7CCFF0C22052140
:10243000EA48FEF7C7FF0C220821E848FEF7C2FF72
:102440000C220921E548FEF7BDFF0C220A21E348D2
:10245000FEF7B8FF0C220E21E048FEF7B3FF0C2276
:102460000F21DE48FEF7AEFF0C220721DC48FEF705
:10247000A9FF0C220821DA48FEF7A4FF0C2209214B
:10248000D748FEF79FFF0C220A21D548FEF79AFF96
:102490000C220B21D248FEF795FF0C221146D048A2
:1024A000FEF790FF0C220D21CD48FEF78BFF0C228A
:1024B0000E21CB48FEF786FF0C220F21C848FEF7FD
:1024C00081FF0C220721C548FEF77CFF0C220B215F
:1024D000C248FEF777FF10200A9000200B903C20A6
:1024E0000C9000200D9002200E9000200F90109074
:1024F00012200390002004901020059000200690E8
:102500000790089009901190129013901020149049
:102510000020159017901690189019904FF4805045
:102520001A9000201B904FF480401C9000201D90BA
:102530000AA81E9003A81F9011A8FEF769FE0121AA
:102540000020FEF74BFE08F0B3FC4FF44870FEF796
:1025500047FC08F0ADFC002000F068F9A149888034
:1025600008468188A0A008F0B9FC002001900290E4
:102570000024A12000F036FC052009F047FA00F005
:102580004BF9C0B28DF8040000F046F9C0B28DF8E6
:10259000050000F041F9C0B28DF8060000F03CF9EA
:1025A000C0B28DF8070000F037F9C0B28DF808000E
:1025B00092A008F093FC00BF06E001A8015D93A083
:1025C00008F08CFC601CC4B2052CF6DB91A008F06E
:1025D00085FCA12000F006FC00F01EF981498880EE
:1025E00000F01AF97F498880084680884FF6FF710D
:1025F00001EA00207B49888000F00EF9794989883A
:102600000843784988800846818877A008F066FCEE
:102610000A20FEF7E5FB08F04BFC41F66310714918
:1026200088800846808841F6631188427ED108F090
:102630003FFCE22000F0D6FB1D2000F0CDFB022085
:1026400000F0CAFB042000F0C7FB642009F0DEF9AB
:10265000E02000F0C7FB012000F0BEFB0A20FEF7DF
:10266000BFFBE02000F0BEFB032000F0B5FB0C2018
:10267000FEF7B6FB012000F0B5FB0A20FEF7B0FB29
:102680004FF44870FEF7ACFBE62000F0ABFB2F20C8
:1026900000F0A2FBFF2000F09FFBFF2000F09CFB5E
:1026A000B02000F09FFB102000F096FB002000F00F
:1026B00093FB08F0FDFB012000F08EFB40F2DF10E1
:1026C00000F08AFB012000F087FB40F20F1000F0C1
:1026D00083FB002000F080FBB42000F083FB02208D
:1026E00000F07AFB40F2DF2000F076FB002000F0E3
:1026F00073FB2E2000F070FB002000F06DFB00202B
:1027000000F06AFB002000F067FB002000F064FB93
:1027100008F0CEFBB62000F065FB012000F05CFB6A
:102720004FF49E7000F058FB002000E04BE000F0FA
:1027300053FB172000F050FB152000F04DFB00204C
:1027400000F04AFB002000F047FBF02000F04AFBBD
:10275000032000F041FB292000F044FBD02000F0D2
:1027600041FB002000F038FBBE2000F03BFB0520C1
:1027700000F032FBFE2000F02FFB012000F02CFBCC
:10278000002000F029FB002000F026FB002000F0D4
:1027900023FB08F08DFBB82000F024FB032000F0A1
:1027A0001BFB012000F018FBBA2000F01BFB0120EE
:1027B00000F012FB002000F045F8C820FEF710FBE7
:1027C000002000F03FF80120FFF73CFD42F204102A
:1027D000FFF7FEFC22B0BDE8F0810000000C0240D3
:1027E00000100240204200206C63646465762E690C
:1027F000643D307825780D0A000000006765745F3D
:102800006C63645F6D6F64653A000000203078256A
:10281000780000000D0A000008B503480088009009
:10282000BDF8000008BD00000000026010B50446BD
:10283000204600F0D7FA052009F0E8F8FFF7ECFF92
:1028400010BD000070B52DED048B044608F030FB80
:10285000BE2000F0C7FA052000F0BEFA2046FDF7C2
:10286000D0FE41EC190B9FED0E0B53EC102BFDF736
:10287000C8FD41EC180BFDF7F1FE85B2284600F0CB
:10288000ABFA012000F0A8FAFF2000F0A5FA002022
:1028900000F0A2FA002000F09FFABDEC048B70BD9E
:1028A00066666666666604402DE9F04105460024CA
:1028B000002708F0FDFAB848807901280BD1B64806
:1028C000808846F60401884205D0B348808841F6E6
:1028D0006311884208D1B0488079F0B9AE48808849
:1028E00041F66311884218D1082D15D2DFE805F0B2
:1028F0000406080A0C0E101206250DE007250BE051
:10290000042509E0052507E0012505E0002503E091
:10291000032501E0022500BF00BF9F48808849F2DF
:102920004131884217D09C48808846F6040188428D
:1029300011D09948808845F2103188420BD09648D2
:10294000808845F21051884205D09348808841F62E
:10295000631188427ED1082D1CD2DFE805F0040601
:10296000090C0F12151800BF14E044F0800411E0A8
:1029700044F040040EE044F0C0040BE044F02004B6
:1029800008E044F0600405E044F0A00402E044F0F4
:10299000E00400BF00BF8048808845F210518842A3
:1029A00002D14FF4585700E036277B48808845F223
:1029B000103188420DD07848808845F21051884205
:1029C00007D07548808841F66311884201D044F0F1
:1029D00008047148808846F60401884201D144F019
:1029E00002042146384600F00DFA6B48808841F613
:1029F000631188421DD004F0200068B16648008849
:102A000065494988884214DA6348068840886249E3
:102A10000880084646800CE05F4800885E49498887
:102A2000884206DD5C48068840885B490880084685
:102A300046805948808845F21051884254D1564901
:102A4000488900F0CFF9002000F0C6F952494989C1
:102A5000491C00E077E088B200F0C4F9002000F0E3
:102A6000BBF94D494989891C88B200F0BBF94A4934
:102A70000988491EC1F30F2000F0AEF94649498983
:102A8000C91C88B200F0AEF943490978491EC8B2A2
:102A900000F0A2F94049888900F0A4F9002000F074
:102AA0009BF93D498989491C88B200F09BF90020B7
:102AB00000F092F938498989891C88B200F092F9AE
:102AC00035494988491EC1F30F2000F085F9324984
:102AD0008989C91C88B200F085F92F498978491E77
:102AE000C8B200F079F955E02B49488900F07AF92D
:102AF000002000F071F9002000F06EF926490988E5
:102B0000491EC1F30F2000F067F923490978491ED7
:102B1000C8B200F061F92049888900F063F900200B
:102B200000F05AF9002000F057F91B494988491E66
:102B3000C1F30F2000F050F917498978491EC8B237
:102B400000F04AF926E0082D1CD2DFE805F0040762
:102B50000A0D0F12151844F0300413E044F010046D
:102B600010E044F020040DE000BF0BE044F0380416
:102B700008E044F0280405E044F0180402E044F0C2
:102B8000080400BF00BF032744F4805421463846A0
:102B900000F038F9BDE8F0812042002070B504460D
:102BA0000D462848808841F66311884248D108F0D4
:102BB0007FF924488079A8B922480088401E001B6C
:102BC00084B22049488900F00DF9201200F004F980
:102BD000E0B200F001F9201200F0FEF8E0B200F0DF
:102BE000FBF816E01749488900F0FCF8201200F0C5
:102BF000F3F8E0B200F0F0F812490988491EC1F379
:102C00000F2000F0E9F80F490978491EC8B200F01A
:102C1000E3F80C49888900F0E5F8281200F0DCF8A8
:102C2000E8B200F0D9F807494988491EC1F30F20DE
:102C300000F0D2F803498978491EC8B200F0CCF8F8
:102C400070BD0000204200202DE9F84F80460E465E
:102C500017461C46B3462046E31704EB5373DB10BC
:102C600021464FEAE47C04EB5C7C4FEAEC0CA4EBDD
:102C7000CC0CBCF1000F02D04FF0010C01E04FF082
:102C8000000C6344224604EBD27C4FEA6C0C03FB3D
:102C90000CF3DBB2009308F00BF9A7F12000C7B2E8
:102CA000002554E00C2C07D107EB47002A4901EB23
:102CB000800010F8059013E0102C05D1274800EB98
:102CC000071010F805900BE0182C07D107EBC70090
:102CD000234901EB800010F8059001E0BDE8F88F72
:102CE0004FF0000A2DE009F0800028B1314640463F
:102CF0000C9AFFF7E9FA06E00A9820B931464046F7
:102D00000B9AFFF7E1FA4FEA49604FEA1069701C2D
:102D100086B214484088B04200DCDFE7A6EB0B0027
:102D2000A0420AD15E4608F101001FFA80F80D4862
:102D30000088404500DCD1E706E00AF1010000F020
:102D4000FF0ABAF1080FCEDB00BF681CC5B20098BD
:102D50008542A7DB00BFC1E75CCA0008D0CE0008EF
:102D6000C0D40008204200202DE9FF5F04460D4634
:102D7000904699460EAE96E8C00CE0B2039008F07B
:102D800097F808EB04001FFA80F809EB05001FFA1A
:102D900080F917E0444502DB039CA81985B24D4534
:102DA00000DB15E000208DE8010C3A783346294617
:102DB0002046FFF749FF304606EBD07104EB610176
:102DC0008CB27F1C38787E2802DC38782028E1DA43
:102DD00000BFBDE8FF9F0000014908807047000068
:102DE000000002600149088070470000FEFF01609A
:102DF00002480089024908807047000020420020F4
:102E0000FEFF0160024A1080921C11807047000092
:102E1000FEFF01601CB50121084603F031FA0121D3
:102E2000022003F02DFA0121082003F029FA0121E4
:102E3000102003F025FA41F60110009001208DF8D2
:102E4000040000208DF8060003208DF80500012005
:102E50008DF8070069461748FEF76CFA4FF430709A
:102E6000009069461448FEF765FA43F24C00009062
:102E700069461248FEF75EFA1F2000906946104826
:102E8000FEF758FA41F601110A48FEF7C0FA4FF46E
:102E900030710948FEF7BBFA43F24C010748FEF7D0
:102EA000B6FA1F210648FEF7B2FA0020054908606D
:102EB0001CBD00000000024000040240000C024063
:102EC00000100240988240420020064908600649EE
:102ED000C1F8B00203490C3108600449C1F8A402EA
:102EE00070470000A0024042000040420080404283
:102EF0000020064908600649C1F88C0203491031D8
:102F000008600349C1F8B00270470000888241425E
:102F10000080414224480078022809D10120234939
:102F200008604FF4FA7020494880012008700BE0D7
:102F30001D480078012807D11B48408820B900208F
:102F40001A4908601849087017480079022806D104
:102F50004FF4FA701449C8800120087109E0124842
:102F60000079012805D11048C08810B900200E4909
:102F700008710D48007A022809D101200C49086027
:102F80004FF4FA7008494881012008720BE00648A6
:102F9000007A012807D10448408920B9002004495B
:102FA0000860014908727047D80600208C0242422E
:102FB000B482414210B57B2003F040FA10B118A052
:102FC00007F08CFF7A2003F039FA10B119A007F04E
:102FD00085FF7C2003F032FA10B11BA007F07EFFC2
:102FE0007D2003F02BFA10B11CA007F077FF7E20A4
:102FF00003F024FA10B11EA007F070FF7F2003F049
:103000001DFA10B11FA007F069FF792003F016FA2E
:1030100010B121A007F062FF03F092F910BD00008B
:103020005243435F464C41475F504F525253540DF9
:103030000A0000005243435F464C41475F50494EEF
:103040005253540D0A0000005243435F464C41471F
:103050005F5346545253540D0A0000005243435FDD
:10306000464C41475F495744475253540D0A0000AC
:103070005243435F464C41475F575744475253546E
:103080000D0A00005243435F464C41475F4C505786
:10309000525253540D0A00005243435F464C41477D
:1030A0005F424F525253540D0A0000002DE9F04187
:1030B00000250024002708F039FC0546002D77D0B4
:1030C000681E032190FBF1F0C4B2681E90FBF1F280
:1030D00001FB1200C7B2002F6AD1242C68DA0B2C36
:1030E00067D1F848807838B9F7488078012801D04E
:1030F00002F0D0FCBDE8F081F2488078032810D1BE
:10310000F1488078012805D0EE4948780022114620
:1031100001F084FF0020ED4908600121EA48817038
:10312000E8E7FF20E749C87001F0D4FFFFF7E0FEB1
:10313000E548807801286BD1E548008918B149F647
:103140004040E3490881012007F070FB0220DD497F
:1031500081F8730108464078012816D1DD4840689F
:103160000168DDA007F0BAFEDA4840680068E5496A
:10317000884206D90120E4490870E4A007F0AEFEB9
:103180001BE00020E049087017E0D2484068016861
:10319000E5A007F0A3FECF4840680068ED498842EB
:1031A00008D90120D8490870EBA007F097FE04E089
:1031B00066E23DE00020D4490870D348007810B999
:1031C00002F076F95CE200260020EA4908701CE073
:1031D00007F06EFE08F03EFD06460B2E06D10120DC
:1031E000E54981F8BA0102F063F90FE00A2E04D133
:1031F0000120E14981F8BA0108E0DE48007820B9F1
:103200000120DC49087007F089FAE1E700BFD9E73F
:10321000AD4880780128D5D0AA49487800221146C7
:1032200001F0FCFE0020A949086002F033FCC9E768
:103230000A2C2AD1A34880780028C3D0FF20A149B6
:10324000C87001F047FFFFF753FE9F48807858B9D8
:1032500002F01EF99B4948780022114601F0DEFE7B
:1032600001209A490860ADE79748807802280BD181
:10327000C248006840F00100C049086002F0F8F858
:103280000020924908609DE79CE7092C15D18D48E4
:103290000078012803D102208A49087002E0012049
:1032A00088490870FF208749C87001F013FFFFF7B5
:1032B0001FFE01208649088184E7182C1AD1FF20BF
:1032C0008049C87001F006FFFFF712FE7D48807844
:1032D00000289CD17C488078012898D107F0A6FA74
:1032E0000220784981F8730102F0E2F80220A44933
:1032F000087067E7042C76D1734880780128FAD1EA
:103300007148007800F0020028B16F48007820F082
:1033100002006D4908706C488078012801D002F0E5
:10332000B9FB6848407808B9012000E000206549F1
:103330004870022092490871FF206249C870FFF767
:10334000C3FDFFF7D5FD00205E4981F87001002123
:103350005C4880F872114078012850D18948407843
:1033600020F00100874948700846407840F001008D
:103370004870544890F8A8005249887108468079EE
:10338000887081480078814908707F48801C0268F5
:1033900041684C488030C0E904218038807830B1E1
:1033A00001280CD0022814D0032826D11CE045485F
:1033B000007A444948710120754908601EE041487F
:1033C00090F830003F494871012071491031086080
:1033D00014E03C4890F858003A49487101206C4983
:1033E0000C3108600AE0D9E0364890F88000354991
:1033F000487101206749086000E000BF4DE0614866
:10340000407820F001005F494870002048702D4846
:1034100080792C4981F8A800084690F8A8008870A7
:10342000594840785949087057480A30016842683D
:103430005948C0E904122348807830B101280DD0E2
:10344000022815D0032826D11CE01E4890F8B000B1
:103450001C49487101204E4908601DE0194890F848
:10346000D80018494871012049491031086013E01B
:10347000144890F8000113494871012044490C3167
:10348000086009E00F4890F828010E4948710120B2
:103490004049086000E000BF00BF3A48407800F0B3
:1034A00001003849097801F00101884202D0012069
:1034B00003F05CFF0120304981F8BA01044908811A
:1034C00080E600004800002084020020840242427E
:1034D000C8060020A002002042544E5F53494E47C8
:1034E0004C4554524947474552204D6F646520561C
:1034F0006F6C746167652C416D706C3D25640D0ABD
:10350000000000000051250240000020457863655E
:103510006564696E67207361666520766F6C74619F
:1035200067650D0A0000000042544E5F53494E4744
:103530004C4554524947474552204D6F64652043DE
:10354000757272656E742C416D706C3D25640D0A48
:103550000000000080969800457863656564696E98
:103560006720736166652063757272656E740D0AFB
:1035700000000000410000200C050020003C01403C
:10358000D8060020E801002048030020C0010020E8
:10359000A0024042A4824042700100201F2C71D141
:1035A000FE48807801286DD1FD490860FD4800780B
:1035B000401CFC49087008460078042801DB002004
:1035C0000870F8480178F8A007F088FCF548007802
:1035D00018B1F4480078012802D104F04BFD01E055
:1035E00004F084FDF4484078012804D1ED480078C7
:1035F000F249087003E0EB480078F0494870162261
:10360000EE49E620FDF7EBFAE6480078022803D001
:10361000E448007803282AD10120E749C87001F561
:10362000A870D0E9043044F620629A1A70F10000C4
:103630001AD244F620600021E14AC2E90401104692
:10364000D0E90410DC4AD2F854210832DA4BDB7896
:1036500002EBC302C2E90010FF20D749C87001F095
:1036600039FD012007F0E2F8FF20D349C870D348A4
:1036700042780178D3A007F031FC0020C8490860E7
:10368000E1E3FFE7A4BBC5488078012803D0CA481E
:10369000807803284AD102F0FDF9D64800884FF619
:1036A000FE710840D34908800020D24924310860C7
:1036B0000120D14908600020D049C1F88002FFF7FD
:1036C00017FCBD48807808B3FFF7FEFB0120CA490C
:1036D000203108600020B8498870084640780128E9
:1036E00007D10846807888710846007A487109E059
:1036F0001CE0B1488078B04981F8A800084690F8ED
:10370000B00048710120BE4981F8BA010020BD49CE
:1037100008600120BC49C1F88002FF20A649C8709A
:1037200001F0D8FC0120B94908818CE3022C5AD160
:103730009A488078012803D09F488078032852D186
:1037400002F0A8F90121954881700020AC4981F868
:10375000BA01A84800884FF6FE710840A5490880C4
:103760000020A449243108600120A34908600020FA
:10377000A249C1F88002FFF7BBFB8F48807802287E
:1037800021D0FFF7A1FB01209B492C3108600220CA
:103790008949887008464078012807D10846807812
:1037A0008871084690F85800487108E0824880788F
:1037B000814981F8A800084690F80001487101206D
:1037C0008F4981F8BA0100208E49086001208E4996
:1037D000C1F88002FF207849C87001F07BFC01200D
:1037E0008A4908812FE3012C59D16C48807801283F
:1037F00003D071488078032851D102F04BF90121A0
:103800006648817000207E4981F8BA0179480088B5
:103810004FF6FE7108407749088000207549243131
:10382000086001207449086000207449C1F88002D2
:10383000FFF75EFB60488078012820D0FFF744FB4B
:1038400001206D49303108605B4988700846407836
:10385000012807D1084680788871084690F8300022
:10386000487108E054488078534981F8A800084618
:1038700090F8D80048710120614981F8BA01002010
:103880006049086001206049C1F88002FF204A4970
:10389000C87001F01FFC01205C490881D3E2032CB1
:1038A0004FD13E48807801284BD1FFF721FB424899
:1038B0008078032820D0FFF707FB012054490860D7
:1038C00003203D49887008464078012807D1084602
:1038D00080788871084690F88000487108E0364882
:1038E0008078354981F8A800084690F82801487189
:1038F0000120434981F8BA012A48007818B12948C3
:103900000078012802D104F0B5FB01E004F0EEFBE1
:1039100001203C4908600A20FDF762FA26484078F9
:1039200030B94FF400403B4908800A20FDF758FAAF
:10393000FF202149C87001F0CDFB012033490881E7
:1039400081E2222C68D115488078012864D108F0E2
:10395000A7FC1948807858B117488078012807D00B
:1039600015488078022803D013488078032895D121
:10397000FFF7BEFA1048C07801285DD00120084941
:10398000283908600C4890F87301022803D10120FF
:10399000094981F87301012007493EE084020020B3
:1039A000B4824142C0010020576176655F7479702E
:1039B000653D25640D0A00004800002048030020F2
:1039C00098010020734164646974696F6E616C448E
:1039D0006174612E565F576176655F747970653AE0
:1039E00025642C435F576176655F747970653A256D
:1039F000640D0A0000040040800240420000424280
:103A00000C050020B082424200004042C80600205F
:103A1000A4824042181402406DE0C870002102F0F8
:103A200075FF0120FE4981F870010021FC4880F8F3
:103A3000711180F872115BE0F948C07801283DD11E
:103A4000F848007818B1F748007801281CD1F648EA
:103A5000D0E9042042F21071511A70F1000005D231
:103A600042F210720021F048C0E90421EE48D0E98A
:103A70000410EB4AD2F854210832E94BDB7802EB10
:103A8000C302C2E9001019E0E748D0E9042044F677
:103A90002063D21A70F1000004D219460022E248D5
:103AA000C0E90412E049D1E90401DD4AD2F8542109
:103AB0000832DB4BDB7802EBC30203C2D84890F834
:103AC000730101280AD10020D54981F87301012032
:103AD00006F0ACFE0220D24981F87301FF20D049E4
:103AE000C870002081F870010021CD4880F8721163
:103AF00001F0F0FAA7E1232C45D1CC4880780128C9
:103B000041D108F0CDFBFFF7F3F9C548C078E8B123
:103B10000120C7490860C24890F87301022803D108
:103B20000120BF4981F873010020BD49C870002100
:103B3000012002F0EBFE0120B94981F8700100215B
:103B4000B74880F8711180F8721119E0B44890F804
:103B5000730101280AD10020B14981F873010120C5
:103B600006F064FE0220AE4981F87301FF20AC49E3
:103B7000C870002081F870010021A94880F87211F6
:103B800001F0A8FA5FE1212C6CD1A84880780128C7
:103B900068D108F085FBA2488078012803D0A048AE
:103BA00080780228A6D1FFF7A3F99D48C0780228A3
:103BB0001ED001209E4910310860994890F8730189
:103BC000022803D10120964981F87301022094490B
:103BD000C8700021012002F099FE0120904981F86F
:103BE000700100218E4880F8711180F8721136E062
:103BF0008B48C078022818D18B48D0E904208D4B1F
:103C0000D21A70F1000004D21A4600218648C0E999
:103C100004218549D1E90401814AD2F854210832AE
:103C20007F4BDB7802EBC30203C27D4890F873013F
:103C300001280AD100207A4981F87301012006F099
:103C4000F5FD0220764981F87301FF207449C870A0
:103C5000002081F870010021714880F8721101F094
:103C600039FAF0E0202C69D170488078012865D1BC
:103C700008F016FB6A48807802285ED1FFF738F911
:103C80006748C07803281ED00120694928310860A0
:103C9000634890F87301022803D10120604981F83C
:103CA000730103205E49C8700021012002F02EFE3E
:103CB00001205B4981F870010021594880F8711199
:103CC00080F8721137E05648C078032819D1564859
:103CD000D0E90420584BD21A70F1000004D21A46E1
:103CE00000205149C1E904204F48D0E904104C4A52
:103CF000D2F8542108324A4BDB7802EBC302C2E906
:103D00000010474890F8730101280AD10020444967
:103D100081F87301012006F089FD0220404981F8F5
:103D20007301FF203E49C870002081F87001002116
:103D30003B4880F8721101F0CDF984E0132C03D1D7
:103D4000002002F075FE7EE01D2C03D1012002F060
:103D50006FFE78E0172C03D1022002F069FE72E0BA
:103D6000112C03D1032002F063FE6CE01C2C03D164
:103D7000042002F05DFE66E0162C03D1052002F05F
:103D800057FE60E0102C03D1062002F051FE5AE0ED
:103D90001B2C03D1072002F04BFE54E0152C03D15D
:103DA000082002F045FE4EE00F2C03D1092002F05E
:103DB0003FFE48E0072C03D10B2002F039FE42E021
:103DC0001E2C03D10C2002F033FE3CE0192C08D14C
:103DD000134890F8720188BB0121114880F87211D4
:103DE00031E00D2C2FD1FFF783F808F059FAFF20AE
:103DF0000B49C87001F06EF90020094981F8700183
:103E00000021074880F8721190F8730101281AD137
:103E10000020034981F87301012006F007FD0EE040
:103E200048000020C00100209801002084020020EA
:103E300088824142400D0300A086010003E0022079
:103E4000024981F8730100BFFFF754B94800002010
:103E500000BFFEE770B5DE22FC494FF40070FCF7AE
:103E600083FEFA4800787E2804D1F84890F8DD00F7
:103E700045287DD0F6A007F031F80020FE490870F3
:103E80000120487003F072FA012007F0ABFDFB48F7
:103E9000007A40F00B00F9490872084690F83000AB
:103EA00040F00B0081F83000084690F8580040F0D0
:103EB0000B0081F85800084690F8800040F00B0095
:103EC00081F88000084690F8B00040F01A0081F8B0
:103ED000B000084690F8D80040F01A0081F8D800E9
:103EE000084690F8000140F01A0081F800010846E9
:103EF00090F8280140F01A0081F82801FF2088700E
:103F00000846007A48717E20D04908700120487028
:103F1000D948407800F0010088700020C87008710E
:103F2000D648007A487100208871C871D449C74AC0
:103F30009160D060D348002110615161CF4890F862
:103F4000300011460876002048768876C876CC493D
:103F5000D1611062CB48002150629162CA48D062A0
:103F60001163C64890F85800114681F8340000E00B
:103F700008E2002081F8350081F8360081F837002A
:103F800081F83800BE480021393210605160BD48C8
:103F9000083210605160BC48083210605160BB4963
:103FA0000020083211605060B44890F88000A749A2
:103FB00081F85900002081F85A00B24800210A32E5
:103FC00010605160AD4890F8B000A04981F86300DE
:103FD000002081F8640081F86500A94800210B32B7
:103FE0001060516041100020083211605060A348F9
:103FF00090F8D800954981F87600002081F8770084
:1040000081F8780081F879009D490C321160506088
:1040100049100832116050600832116050609748B2
:1040200090F80001894981F89200002081F89300FE
:1040300081F8940081F8950081F8960090490D323E
:104040001160506048100021083210605160083241
:10405000106051608D48083210605160874890F8B8
:1040600028017A4981F8B700002081F8B800864914
:104070000A3211605060754981F8C10081F8C200B0
:1040800081F8C30081F8C40081F8C50081F8C6003A
:1040900081F8C70081F8C80000211032116051601A
:1040A0000832106050606949C1F8D900452081F894
:1040B000DD00DE224FF40070FCF791FD0220744910
:1040C000087048706E490020714A921C116050605F
:1040D00008321160506016226D49E620FCF77FFD22
:1040E0005A48407965490872584881796348817215
:1040F0005648C1796148417254488168C2685F4836
:10410000C0E906125149086949695C4AC2E90401DB
:104110004E48007E114681F830004C48417E1046E2
:1041200080F832104948817E104680F831104748A7
:10413000C17E104680F833104448C269016A4F4876
:10414000C0E910214148426A806A4C49C1E90E2009
:104150003E48C26A016B4948C0E912213B4890F8C9
:104160003400464981F85800384890F835104348E3
:1041700080F85A10354890F83610404880F85910A9
:10418000324890F837103D4880F85B102F4890F87F
:1041900038103A4880F85C102C4839300168426881
:1041A0003648C0E91A122949413108684968334A3A
:1041B000C2E9180125484930016842682F48C0E922
:1041C0001C1222485130016842682C48C0E91E1276
:1041D0001E4890F85900294981F880001B4890F842
:1041E0005A10264880F8811018495B3108684968E0
:1041F000224A8032C2E90201144890F863001F4944
:1042000081F8B000114890F864101C4880F8B21092
:104210000E4890F86510194880F8B1100B486630C8
:10422000026841681548B030C0E9042107486E3083
:10423000026841681148B030C0E90221034890F893
:1042400076000E4981F8D800004823E05E03002084
:104250004C6F616420706172206572726F722C7392
:10426000657420746F2064656661756C7420766176
:104270006C7565210D0A0000E8010020480000204F
:1042800080841E00C0E1E40040420F0080C3C901E9
:104290004803002090F87710FE4880F8DA10FE48B6
:1042A00090F87810FB4880F8D910FB4890F8791006
:1042B000F84880F8DB10F8487A3002684168F54821
:1042C000D830C0E90421F448823001684068F14ADE
:1042D000D832C2E90210F0488A3001684268ED48DD
:1042E000D830C0E90612EC4890F89200E94981F80C
:1042F0000001E94890F89310E64880F80211E6487A
:1043000090F89410E34880F80111E34890F8951074
:10431000E04880F80311E04890F89610DD4880F8F6
:104320000411DD48973001684268DC48C0E9041296
:10433000D9489F3001684068D84AC2E90210D6487F
:10434000A73002684168D548C0E90621D248AF309D
:1043500001684268D148C0E90812CF4890F8B70018
:10436000CC4981F82801CC4890F8B810C94880F8A9
:104370002911C948B93001684068C84A2832C2E9E1
:104380000210DCE2C4484078C2490870C248807814
:104390004870C148C0788871BF48007981F8A8008A
:1043A000BD4840790872BC488179BA488172BA48E0
:1043B000C179B8484172B8488168C268B548C0E957
:1043C0000612B54802694169B248C0E90421B24801
:1043D000007EB04981F83000AF48417EAD4880F89A
:1043E0003210AD48817EAB4880F83110AA48C17EBA
:1043F000A84880F83310A848C169026AA548C0E9F6
:104400001012A549486A896AA24AC2E90E01A24867
:10441000C26A016B9F48C0E912219F4890F834009E
:104420009C4981F858009C4890F83510994880F8CC
:104430005A10994890F83610964880F859109648C6
:1044400090F83710934880F85B10934890F8381034
:10445000904880F85C1090483930016842688D4877
:10446000C0E91A128C49413108684968894AC2E991
:10447000180189484930016842688648C0E91C1221
:1044800085485130016842688248C0E91E1282485E
:1044900090F859007F4981F880007F4890F85A10C1
:1044A0007C4880F881107C485B300268406879491C
:1044B0008031C1E90220784890F86300803981F8A2
:1044C000B000754890F86410724880F8B2107248D5
:1044D00090F865106F4880F8B1106F486630016839
:1044E00042686E485038C0E904126B486E3002686A
:1044F00040686A495039C1E90220674890F876005F
:10450000B03981F8D800644890F87710614880F895
:10451000DA10614890F878105E4880F8D9105E484B
:1045200090F879105B4880F8DB105B487A300268BD
:1045300041685A482838C0E9042157488230026847
:10454000406856492839C1E9022053488A30016839
:10455000426852482838C0E906124F4890F8920045
:104560004C4981F800014C4890F89310494880F874
:104570000211494890F89410464880F801114648C5
:1045800090F89510434880F80311434890F896102E
:10459000404880F8041140489730026841683F481D
:1045A000C0E904213C489F30016842683B48C0E9AB
:1045B00002123948A730016842683848C0E906123B
:1045C0003548AF30016842683448C0E908123248C3
:1045D00090F8B7002F4981F828012F4890F8B810BB
:1045E0002C4880F829112C49B931086849682B4AB0
:1045F0002832C2E902012748D0E91A43224628A0FE
:1046000006F06CFC2348D0E91843224632A006F09D
:1046100065FC2048D0E91C4322463DA006F05EFC24
:104620001C48D0E91E43224647A006F057FC554AD5
:1046300045231848183000F0FDF9534A0023154867
:10464000103000F0F7F94F4A45231248403000F08F
:10465000F1F94D4A00230F48383000F0EBF94B4A8E
:1046600009230C48483000F0E5F9464A452309483B
:10467000683000F0DFF9444A00230648603000F05B
:10468000D9F9424A09230348703000F0D3F9404A6F
:1046900002237FE0480000205E0300204801002044
:1046A000557365724F7065726174696F6E2E565FD7
:1046B0004D6F6465547261696E2E506172616D5BFD
:1046C000554F5F504152414D5F50554C53455D3AF7
:1046D000256C6C640D0A0000557365724F7065722D
:1046E0006174696F6E2E565F4D6F646554726169B7
:1046F0006E2E506172616D5B554F5F504152414D5E
:104700005F414D504C5D3A256C6C640D0A00000011
:10471000557365724F7065726174696F6E2E565F66
:104720004D6F6465547261696E2E506172616D5B8C
:10473000554F5F504152414D5F465245515D3A25BC
:104740006C6C640D0A000000557365724F706572E1
:104750006174696F6E2E565F4D6F64655472616946
:104760006E2E506172616D5B554F5F504152414DED
:104770005F4455524154494F4E5D3A256C6C640D6F
:104780000A00000000B864D9C095A90500902F5018
:104790000098D058864800F04DF9864A0023844896
:1047A000103000F047F9844A45238148483000F032
:1047B00041F9824A00237E48403000F03BF97E4AAE
:1047C00045237B48703000F035F97C4A0023784857
:1047D000683000F02FF97A4A09237548783000F0E4
:1047E00029F9754A45237248983000F023F9734A35
:1047F00000236F48903000F01DF9714A09236C487E
:10480000A03000F017F96F4A02236948A83000F081
:1048100011F96A4A00236648B83000F00BF9644881
:10482000B030D0E90243224667A006F057FB0020D3
:10483000754908705E48783840784870012002F069
:1048400095FDFF205A497839887008464078B0B302
:10485000012873D10846807930B101280ED0022892
:1048600017D003282CD11FE051487838007A5049DE
:1048700078394871012007F0B5F822E04C487838C3
:1048800090F830004A4978394871042007F0AAF8B6
:1048900017E04748783890F858004549783948710A
:1048A000072007F09FF80CE04148783890F8800026
:1048B0003F49783948710A2007F094F801E002E096
:1048C00000BF00BF3AE03A48783890F8A80030B10D
:1048D00001280FD0022818D003282CD120E034481A
:1048E000783890F8B000324978394871012007F0E3
:1048F00079F821E02E48783890F8D8002C4978399A
:104900004871042007F06EF816E02948783890F8CE
:104910000001274978394871072007F063F80BE058
:104920002348783890F828012149783948710A20BD
:1049300007F058F800E000BF00BF00BF00BF16221C
:104940003249E620FCF710F930480078032802DDF0
:1049500000202E4908702D484078032802DD0020F1
:104960002A49487029484278017829A006F0B6FA09
:104970000F487838407801280CD1244800782C4919
:1049800008702248801C0268416809480830C0E964
:1049900004210BE01D484078254908701B480A3067
:1049A000016842680248B030C0E9041270BD0000DE
:1049B000C0000020C095A90500B864D90048E801EE
:1049C00000902F500098D058526561643120557383
:1049D00065724F7065726174696F6E2E435F4D6FC3
:1049E0006465457874426E632E506172616D5B55EB
:1049F0004F5F504152414D5F414D504C5D3A256CE7
:104A00006C640D0A00000000E8010020480300204B
:104A1000565F576176655F747970653A25642C43FB
:104A20005F576176655F747970653A25640D0A0099
:104A3000C001002010B5D0E90041141B73EB010147
:104A400002D200240460446010BD000070B5BE486E
:104A500000894EF6602188427EDB7E20BB490870CB
:104A6000BB4800784870BA4840788870B848807968
:104A7000C870B74890F8A8000871B548007A487126
:104A8000B348807A8871B248407AC871B048D0E99A
:104A90000610AE4A9160D060AD49D1E904011061C1
:104AA0005161AB4890F8300011460876A84890F85C
:104AB00032004876A64890F831008876A44890F8ED
:104AC0003300C876A248D0E91010D1611062A04826
:104AD000D0E90E10516290629D48D0E91210D16267
:104AE00010639B4890F85800114681F834009848AC
:104AF00090F85A0081F83500954890F8590081F8EF
:104B00003600934890F85B0081F83700904890F8A1
:104B10005C0081F838008E48D0E91A1039321160F3
:104B200050608B49D1E91801083210605160884803
:104B3000D0E91C1008321160506085496031D1E91C
:104B40000601083210605160814890F880007F496A
:104B500081F859007E4800E0F4E090F8810081F887
:104B60005A007B498031D1E902010A32106051605C
:104B7000774890F8B000754981F86300744890F860
:104B8000B20081F86400724890F8B10081F86500C5
:104B90006F48B030D0E904100B32116050606C489F
:104BA000B030D0E90210083211605060684890F8C7
:104BB000D800664981F87600654890F8DA0081F8F7
:104BC0007700634890F8D90081F87800604890F841
:104BD000DB0081F879005E49E031D1E902010C3255
:104BE000106051605A48D830D0E902100832116084
:104BF00050605749E031D1E904010832106051603A
:104C0000534890F80001514981F89200504890F8BB
:104C1000020181F893004E4890F8010181F8940058
:104C20004B4890F8030181F89500494890F8040139
:104C300081F896004749D1E902010D3210605160B8
:104C400044480838D0E902100832116050604148E9
:104C50000838D0E906100832116050603D49D1E9AA
:104C60000601083210605160394890F82801374930
:104C700081F8B700364890F8290181F8B800354925
:104C80002031D1E902010A321060516000202F4921
:104C900081F8C10081F8C20081F8C30081F8C40026
:104CA00081F8C50081F8C60081F8C70081F8C80006
:104CB000C1F8D900452081F8DD0025496031D1E9EE
:104CC0000243224624A006F009F92149D1E91843FC
:104CD00022462FA006F002F91D496031D1E90443B4
:104CE000224639A006F0FAF819496031D1E90643A5
:104CF000224643A006F0F2F81649D1E902432246C3
:104D00004EA006F0EBF813480838D0E902432246DB
:104D100058A006F0E3F80F49D1E90443224663A006
:104D200006F0DCF80B49D1E9064322466DA006F0F7
:104D3000D5F8DE2205494FF40070FBF750FF002044
:104D40000149088170BD0000C80600205E030020F4
:104D50004800002050010020557365724F70657245
:104D60006174696F6E2E565F4D6F64655472616930
:104D70006E2E506172616D5B554F5F504152414DD7
:104D80005F50554C53455D3A256C6C640D0A00002C
:104D9000557365724F7065726174696F6E2E565FE0
:104DA0004D6F6465547261696E2E506172616D5B06
:104DB000554F5F504152414D5F414D504C5D3A253A
:104DC0006C6C640D0A000000557365724F7065725B
:104DD0006174696F6E2E565F4D6F646554726169C0
:104DE0006E2E506172616D5B554F5F504152414D67
:104DF0005F465245515D3A256C6C640D0A00000017
:104E0000557365724F7065726174696F6E2E565F6F
:104E10004D6F6465547261696E2E506172616D5B95
:104E2000554F5F504152414D5F4455524154494F97
:104E30004E5D3A256C6C640D0A0000005573657276
:104E40004F7065726174696F6E2E435F4D6F64655C
:104E5000547261696E2E506172616D5B554F5F5087
:104E60004152414D5F50554C53455D3A256C6C6441
:104E70000D0A0000557365724F7065726174696F39
:104E80006E2E435F4D6F6465547261696E2E506182
:104E900072616D5B554F5F504152414D5F414D50C6
:104EA0004C5D3A256C6C640D0A0000005573657208
:104EB0004F7065726174696F6E2E435F4D6F6465EC
:104EC000547261696E2E506172616D5B554F5F5017
:104ED0004152414D5F465245515D3A256C6C640D1F
:104EE0000A000000557365724F7065726174696FD6
:104EF0006E2E435F4D6F6465547261696E2E506112
:104F000072616D5B554F5F504152414D5F44555248
:104F10004154494F4E5D3A256C6C640D0A00000007
:104F200010B504460C4951F824104A000B4951F8B9
:104F30002400002107F0AAF9094951F82420074963
:104F4000083951F82400002107F0A0F90121034895
:104F50000830015510BD000044CA0008F8020020C6
:104F600054CA00087047000070B5002100230F22CA
:104F7000C4781CB3174C246804F4E064C4F5E064FE
:104F8000C4F30721C1F10404E3B20A4144789C4010
:104F9000E1B28478144021430C07210E0E4C0578B1
:104FA0006155047804F01F050124AC4005786D11AB
:104FB000AD0005F1E025C5F8004109E0047804F0F2
:104FC0001F050124AC40054D0678761145F82640B2
:104FD00070BD00000CED00E000E400E080E100E0C6
:104FE00002490143024A1160704700000000FA05BF
:104FF0000CED00E010B5002807DA0A07140E054A88
:1050000000F00F031B1FD45403E00A07130E024ADB
:10501000135410BD18ED00E000E400E02DE9F0416C
:1050200004460D461646012E38D1012C16D12648CD
:105030000078012808D146F2905095FBF0F73946E8
:105040000120FBF7ECFC3DE046F2905095FBF0F0C0
:10505000474239460120FBF7E2FC33E094BB1A4893
:10506000007801280BD14FF47A7095FBF0F7F81710
:1050700007EB5070C1100220FBF7D1FC22E04FF487
:105080007A7095FBF0F7F81707EB5070C010C0F17D
:10509000000841460220FBF7C2FC13E096B9012C40
:1050A00004D100210120FBF7BAFC04E01CB9002167
:1050B0000220FBF7B4FC01200449086000200449E9
:1050C000C1F89402BDE8F08148000020800240420F
:1050D0000000434210B5504800794F49C9788842D2
:1050E0004ED04D48007930B1012813D0022821D08C
:1050F00003283FD12EE049A1494805F0FFFE47A112
:105100004748733005F0FAFE44A14548E63005F003
:10511000F5FE30E041A14248163805F0EFFE3FA110
:105120003F484B3005F0EAFE3CA13D48DC3005F03D
:10513000E5FE20E039A13A48163005F0DFFE37A140
:1051400037489B3005F0DAFE34A13548F03005F0E1
:10515000D5FE10E031A132482C3005F0CFFE2FA152
:105160002F48C33005F0CAFE2CA12D48FA3005F0B7
:10517000C5FE00E000BF00BF2748C078264908717F
:105180002548C07830B1012813D0022821D0032847
:105190003FD12EE021A1224805F0B0FE1FA12048FA
:1051A000733005F0ABFE1DA11D48E63005F0A6FEEC
:1051B00030E01AA11A48163805F0A0FE17A11848C9
:1051C0004B3005F09BFE15A11548DC3005F096FE2E
:1051D00020E012A11248163005F090FE0FA11048F1
:1051E0009B3005F08BFE0DA10D48F03005F086FEDA
:1051F00010E00AA10A482C3005F080FE07A10848FB
:10520000C33005F07BFE05A10548FA3005F076FEB7
:1052100000E000BF00BF10BD4800002000000000FB
:10522000C70500202DE9FF4F87B00D4614461F46E5
:10523000DDE9176BDDE9158ADDF85090079809283C
:105240007ED2DFE800F07D052E475E879EC7EB002B
:1052500004EB090083B2E81982B221462846009681
:10526000FDF772F85046FAF7F8FF08EBD8714910CD
:1052700000FB117005EB500080B2CDE90408A9EBEA
:105280000800CDE9026BCDE9008A069000EBD070F2
:1052900004EB600081B24B463A460498FDF764FD8A
:1052A000D7E004EB090083B2E81982B22146284610
:1052B0000096FDF749F804F1140291B205F11402C9
:1052C00090B24B463A46CDE9026BCDE9008AFDF734
:1052D0004BFDBEE004EB090083B2E81982B221461F
:1052E00028460096FDF730F804F1140081B24B46D1
:1052F0003A462846CDE9026BCDE9008AFDF734FD38
:10530000A7E044F22820009004EB090083B2E819DA
:1053100082B221462846FDF717F804EB09000A3847
:1053200083B2E819283882B204F10A0081B2284613
:105330000096FDF709F804F1140081B24B4600E035
:1053400086E03A462846CDE9026BCDE9008AFDF7B2
:105350000BFD7EE004EB090083B2E81982B221461E
:1053600028460096FCF7F0FF04F1140081B24B468A
:105370003A462846CDE9026BCDE9008AFDF7F4FCF8
:1053800067E004EB090083B2E81982B2214628469F
:105390000096FCF7D9FF002030A11022CDE90116BC
:1053A0000092039004F1120291B26A1D90B24B4632
:1053B0003A46FDF7D9FC04F10A0291B205F13C022C
:1053C00090B24B463A46CDE9026BCDE9008AFDF733
:1053D000CBFC3EE004EB090083B2E81982B221461F
:1053E00028460096FCF7B0FF5046FAF736FF08EB68
:1053F000D871491000FB117005EB500080B2CDE967
:10540000050804F10A0081B24B463A46CDE9026B29
:10541000CDE9008A0598FDF7A7FC1AE004EB090026
:1054200083B2E81982B2214628460096FCF78CFF29
:105430000CA0102104F11202CDE9026BCDE900109D
:1054400091B26A1D90B24B463A46FDF78DFC00E0E2
:1054500000BF00BF0BB0BDE8F08F000054595045AD
:10546000207C0000545950453A000000704700006D
:1054700010B50020044908600121880702F0D9FA1C
:1054800000210248817010BD800240428402002049
:1054900010B50120044908600021800702F0C9FA14
:1054A00002210248817010BD800240428402002027
:1054B0002DE9F04F2DED068B87B0FE48807800284F
:1054C0007ED104460546FB48407801280AD1F948B8
:1054D000D0E90645F849611A75F1000010D2F74885
:1054E00004600DE0F348407850B9F248B030D0E99C
:1054F0000445F149611A75F1000001D2EF480460DA
:10550000EF48007818B1EE48007801280BD142F23C
:105510001071611A75F1000005D2012007B0BDECD1
:10552000068BBDE8F08FE6480078022803D0E448F7
:105530000078032807D144F62061611A75F1000054
:1055400001D20120EAE7DE48007818B1DC48007893
:1055500001280ED1FA22002320462946FAF73AFE06
:10556000401ED849086008460068A0F11C00086089
:105570000DE0FA22002320462946FAF72BFE401EB2
:10558000D049086008460068A0F1480008604FF064
:105590000100CD4908604FF00000CC49C1F88002FD
:1055A0004FF00A00FBF71CFCC248407830B94FF4BA
:1055B0000040C74908800A20FBF712FC002100E0E8
:1055C00006E0C4488170BF480068FBF7A7FD3FE2D2
:1055D000B8488078012877D1002004460546064661
:1055E0000746B448407801280CD1B248D0E91045AC
:1055F000D0E91267B049611A75F1000012D2AF48C4
:1056000004600FE0AB48407860B9AA48D830D0E9D0
:105610000445D0E90667A849611A75F1000001D276
:10562000A6480460A648007818B1A548007801286B
:1056300007D142F21071611A75F1000001D2012008
:105640006CE79F480078022803D09D480078032823
:1056500007D144F62061611A75F1000001D20120E2
:105660005CE79549711A77F1000001D2012055E7F6
:105670009348007818B19248007801280ED1FA2298
:10568000002320462946FAF7A5FD401E8D490860F3
:1056900008460068A0F11C0008600DE0FA22002313
:1056A00020462946FAF796FD401E864908600846BE
:1056B0000068A0F1480008608248006822462B4636
:1056C000CDE90067029000E060E083A005F006FCF1
:1056D00000BF00BF00BF4FF014094FF47A720023DF
:1056E00030463946FAF776FD06460F4630463946CB
:1056F000FAF7A8FF41EC190B53EC192B9FED800B27
:1057000051EC100BFAF7EFFE41EC180B9FED7E0BFE
:1057100053EC102B51EC180BFAF7E5FE9FED7C0BC8
:1057200053EC102BFAF767FEFAF798FF804653EC1C
:10573000182B79A0CDF8008005F0D0FB61480068F7
:10574000404502D95F48C0F8008001205E490860EA
:1057500000205E49C1F880020A20FBF741FB554852
:10576000407830B94FF40040594908800A20FBF7CF
:1057700037FB1FFA89F1404602F05FFA00215548D5
:1057800081700121880702F054F961E1494880786D
:105790000228FAD100210C460D460E460F46002085
:1057A000804681464348407801280ED14148D0E9DF
:1057B0001A45D0E91C67D0E91E893F49611A75F185
:1057C000000016D23D48046013E03A48407880B9A2
:1057D0005648D0E90445D0E906673648D0F8249108
:1057E000D0F820813449611A75F1000001D23348A4
:1057F00004603348007818B131480078012807D197
:1058000042F21071611A75F1000001D2012085E6A3
:105810002B480078022803D029480078032807D1B4
:1058200044F62061611A75F1000001D2012075E68D
:105830002149711A77F1000001D201206EE63C493E
:10584000B8EB010179F1000001D2012066E61C48A5
:10585000007818B11A48007801280ED1FA220023E6
:1058600020462946FAF7B6FC401E1649086008464D
:105870000068A0F11C0008600DE0FA220023204619
:105880002946FAF7A7FC401E0E4908600846006842
:10589000A0F1480008600B48CDE904890068224661
:1058A0002B46CDE90067029022A005F017FB00BF50
:1058B00000BF5BE048000020400D030014030020FF
:1058C000C001002008030020B08242420000404294
:1058D000181402408402002070756C73653D256CBD
:1058E0006C646E732C667265713D256C6C646D68BA
:1058F0007A2C74696D355F6172723D25640D0A0002
:10590000000000A2941A6D420000000000406F40A9
:10591000000000000000F03F543D256C662C7469C7
:105920006D325F6172723D25640D0A0048010020EE
:10593000A086010070756C73653D256C6C646E7398
:105940002C667265713D256C6C646D687A2C746987
:105950006D355F6172723D25642C64757261746986
:105960006F6E3D256C6C640D0A00000000BF1420B2
:1059700006904FF47A72002330463946FAF72AFC33
:1059800006460F4630463946FAF75CFE41EC190BE5
:1059900053EC192B1FED260B51EC100BFAF7A3FD5E
:1059A00041EC180B1FED280B53EC102B51EC180B8E
:1059B000FAF799FD1FED2A0B53EC102BFAF71BFD9C
:1059C000FAF74CFE824623480068504502D9214828
:1059D000C0F800A04FF47A700021A8FB002B09FB4F
:1059E00000B001FB08011046FAF72CFE53EC182B0F
:1059F000FAF779FDFAF732FE1749086008460068A1
:105A000053EC182BCDE900A014A005F067FA012093
:105A10001B49086000201B49C1F880020A20FBF7DF
:105A2000DFF91948407830B94FF400401749088031
:105A30000A20FBF7D5F9069881B2504602F0FDF82E
:105A40000021134881700121880701F0F2FF00BF97
:105A5000002063E50803002010030020543D256C5E
:105A6000662C74696D325F6172723D25642C7472AC
:105A700061696E5F61636F756E743D25640D0A0028
:105A8000B082424200004042480000201814024008
:105A90008402002010B5FBF7AFF900214FF08040E1
:105AA00001F0C7FF00204FF0804148620E48407867
:105AB00010B9C8130D49088000200D4908600D4930
:105AC000086001210C48817000210320FAF7A7FF2C
:105AD00000200A49086001200949C1F8800200201D
