:020000040800F2
:1000000008480020B1010008614F0008811900086C
:10001000F93E0008911200081DA60008000000002B
:100020000000000000000000000000005966000809
:100030008D13000800000000695400088173000857
:10004000CB010008CB010008CB010008CB01000860
:10005000CB010008CB010008DD130008CB0100082C
:10006000CB010008CB010008CB010008CB01000840
:10007000CB010008CB010008CB010008CB01000830
:10008000CB010008CB010008CB010008CB01000820
:10009000CB010008CB010008CB010008CB01000810
:1000A000CB010008CB010008CB010008CB01000800
:1000B00061740008CB010008CB010008CB010008E7
:1000C000CB010008CB010008CB010008CB010008E0
:1000D000CB01000845A20008CB010008CB010008B5
:1000E00045150008CB010008CB010008CB01000832
:1000F000CB010008CB010008CB010008CB010008B0
:10010000CB010008CB010008BD740008CB0100083A
:10011000CB010008CB0100083D760008CB010008A8
:10012000CB010008CB010008CB010008CB0100087F
:10013000CB010008CB010008CB010008CB0100086F
:10014000CB010008CB010008CB010008CB0100085F
:10015000CB010008CB010008CB01000815A3000863
:10016000CB010008CB010008CB010008CB0100083F
:10017000CB010008CB010008CB010008CB0100082F
:10018000CB010008CB010008DFF810D000F0FCFB29
:100190000048004761B50008AFF300800848002020
:1001A00030BF72B6704762B6704780F308887047F8
:1001B0000648804706480047FEE7FEE7FEE7FEE701
:1001C000FEE7FEE7FEE7FEE7FEE7FEE7F97300085D
:1001D000890100082DE9F05F0546002092469B4604
:1001E00088460646814640241BE02846414647464D
:1001F000224600F092FA53465A46C01A914110D353
:1002000011461846224600F079FA2D1A67EB0108CC
:100210004F4622460120002100F070FA17EB00093A
:100220004E41201EA4F10104DFDC484631462A4637
:100230004346BDE8F09FD2B201E000F8012B491E11
:10024000FBD270470022F6E710B513460A46044673
:100250001946FFF7F0FF204610BD421C10F8011BA5
:100260000029FBD1801A704710B5002200E0521C13
:10027000835C8C5CA34201D1002BF8D1D8B2E1B2EF
:10028000401A10BD034611F8012B00F8012B002A7B
:10029000F9D11846704730B505460020034600E006
:1002A0005B1C934205D2EC5CC85C201A01D1002C87
:1002B000F6D130BD2DE9FE4F804681EA0300C00F24
:1002C0000C46009021F0004123F00045B8EB0200FD
:1002D000A94105D24046214690461C460B4602469F
:1002E00023F00040104347D0270DC7F30A00C3F3A3
:1002F0000A510290401A019040286BDAC3F31300B0
:1003000040F4801B0098924620B10023D2EB030AF0
:1003100063EB0B0B01985946C0F14002504600F0C8
:10032000EDF906460D4650465946019A00F005FA89
:1003300010EB08006141002487EA115284EAE77358
:100340001A4340D0009A62B3019A012A4FEA075239
:1003500015DC001B61EB02014FF0004202EA07527C
:10036000CDE90042001C41F5801132462B4600F0D9
:100370003CFA03B0BDE8F08F40462146F9E7001B88
:1003800061EB0201001C41F5801300185B4120184D
:10039000A2F5001747EB030140EAD570B6196D418D
:1003A00011E06D084FEA360645EAC0754FEA07527C
:1003B000001B61EB0201001C41F5801149084FEA66
:1003C00030000019514132462B4603B0BDE8F04FD2
:1003D00000F0FCB90098012240000023D0EB02029B
:1003E00063EBE073009821464FEAE074B8EB00003D
:1003F00061EB0401E9E783F000435BE781F0004132
:1004000058E72DE9FE4F81EA030404F0004421F08F
:10041000004100944FF0000B23F0004350EA010428
:100420005ED052EA03045BD0C3F30A54C1F30A5509
:100430002C44A4F2F3340194A0FB0254C1F3130141
:1004400041F48011C3F3130343F4801301FB02440E
:1004500000FB034E840A970A44EA815447EA835713
:10046000A4FB076802958D0A05FB07854FEA932CCC
:1004700004FB0C542705029D4FEA065847EA16373D
:10048000B5EB08056EEB070C870E920E47EA811755
:1004900042EA8312A7FB0201B6EB0B0164EB0004F6
:1004A0002B0D43EA0C335E1844EB1C50DA465146E0
:1004B000E7FB0201C5F313044FEA0B3343EA14537D
:1004C0004FEA0432019C43EA0603A4F10C040294AF
:1004D000009CCDE900B400F088F903B0BDE8F08FCE
:1004E00000200146F9E72DE9F04D81EA030404F00C
:1004F000004B21F0004514464FF0000A23F0004164
:1005000050EA050220D054EA01021DD0C5F30A5773
:100510000246C5F31303C1F31300C1F30A5640F4B6
:10052000801543F48013A7EB0608101BD64608F28B
:10053000FD3873EB050002D308F1010801E09218C1
:100540005B41B8F1000F03DA00200146BDE8F08DF1
:1005500000204FF48011064684460EE0171B73EB13
:10056000050705D3121B63EB050306434CEA010C98
:1005700049084FEA300092185B4150EA0107EDD17B
:1005800052EA030012D082EA040083EA050108431C
:1005900005D0101BAB4106D20122002306E0002249
:1005A0004FF0004302E06FF0010253101AEB060017
:1005B0004CEB085110EB0A0041EB0B01BDE8F04D8C
:1005C00000F004B930B4044696230800214604D054
:1005D000B62330BC002200F0CBB820460021F8E75B
:1005E0000EB540F2334102910021CDE900110A46D7
:1005F0000B4600F0FAF803B000BD3EB5CA17CB0FAA
:10060000002450405140C0186141DA0740F23343A2
:100610000094CDE901232246234600F0E6F803B01A
:1006200030BD0EB540F2334202920022CDE90022E5
:10063000134600F0DAF803B000BD70B5C1F30A52FA
:1006400001F000450024C1F3130140F2FF3341F4EF
:1006500080119A4201DA002070BD40F233439A4281
:10066000A2F2334203DC524200F057F800E090401F
:100670002C43F1D0404270BDC1F30A5210B5C1F312
:10068000130140F2FF3341F480119A4201DA002055
:1006900010BD40F233439A42A2F2334203DC52428D
:1006A00000F03BF810BD904010BD00F0004230F06B
:1006B00000400AD0C10D01F56071C0F3160042EA96
:1006C0000151C2084007114370470020014670479E
:1006D00030B50B46014600202022012409E021FA12
:1006E00002F59D4205D303FA02F5491B04FA02F50F
:1006F0002844151EA2F10102F1DC30BD202A04DBE2
:10070000203A00FA02F1002070479140C2F1200324
:1007100020FA03F3194390407047202A04DB203A63
:1007200021FA02F00021704721FA02F3D040C2F111
:1007300020029140084319467047202A06DBCB1758
:10074000203A41FA02F043EAE07306E041FA02F38C
:10075000D040C2F120029140084319467047002959
:10076000A8BF7047401C490008BF20F00100704737
:1007700010B4B0FA80FC00FA0CF050EA010404BF97
:1007800010BC704749B1CCF1200421FA04F411FAED
:100790000CF118BF012121430843A3EB0C01CB1D31
:1007A0004FEA00614FEA102042BF002010BC7047A2
:1007B00000EBC35010440029A4BF10BC7047401C7C
:1007C000490008BF20F0010010BC704710B5141E8E
:1007D00073F1000408DA401C41F1000192185B41FA
:1007E0001A4301D120F0010010BD2DE9F04D9246D1
:1007F0009B4611B1B1FA81F202E0B0FA80F22032E8
:100800009046FFF77BFF04460F4640EA0A0041EAA4
:100810000B0153465A46084313D0114653EA0100D0
:1008200019D0C8F140025046FFF777FF05460E4643
:10083000504659464246FFF761FF084305D0012064
:1008400004E020463946BDE8F08D0020054346EA25
:10085000E0762C4337430A986305E40AA0EB0800CE
:100860000022FD0A44EA47540A3002D5002001461E
:10087000E9E7010510196941DDE9084500196941F9
:10088000BDE8F04DA2E72DE9F04D00231A461B1AF2
:100890008A4103DB00200146BDE8F08DC1F30A5216
:1008A000C1F3130141F480154FF0000BD10702D1C1
:1008B00000186D41521E0027044640F2FF113846D1
:1008C00001EB620A3E468046024600204FF480114A
:1008D000FFF723FFC2197141BB1846EB0100B4EBCF
:1008E000030C75EB000C04D3E41A65EB0005174606
:1008F0000E46241908F101006D4180463428E3DDDD
:10090000F91946EB0600091BA84103D24FF0FF324C
:10091000134601E0002213461BEB070046EB0A5189
:10092000BDE8F04DFFF752BFC1F30A52C1F3130106
:1009300040F2FF3341F480119A4202DA002001466E
:10094000704740F233439A42A2F2334202DC5242F1
:10095000FFF7E3BEFFF7D2BE30B5041E71F100040D
:1009600004DB4FF00044404264EB0101141E73F1BC
:10097000000405DB1C464FF00043524263EB0403C6
:10098000994208BF904230BD064C074D06E0E06832
:1009900040F0010394E8070098471034AC42F6D3C6
:1009A000FFF7F6FB94D60008B4D6000870B58C1893
:1009B00010F8015B15F0070301D110F8013B2A1173
:1009C00006D110F8012B03E010F8016B01F8016B60
:1009D0005B1EF9D12B0705D40023521E0DD401F85C
:1009E000013BFAE710F8013BCB1A921C03E013F825
:1009F000015B01F8015B521EF9D5A142D8D300205A
:100A000070BD000070B505460C4616480078A84237
:100A100008D11548D0E90010614080EAE470014334
:100A200000D170BD0F480570E0170F49C1E90040C3
:100A3000012D04D12046E11700F018F810E0022D36
:100A400004D12046E11700F04BF809E0032D07D14F
:100A50002046E11700F00AF82046E11700F040F8C0
:100A600000BFDEE7400300204803002070B52DEDF5
:100A7000068B05460E4628463146FFF7BEFD9FED24
:100A8000130B53EC102BFFF7BCFC9FED120B53EC38
:100A9000102BFFF70FFCFFF7D0FD47F6FF7108445E
:100AA00084B210200D49088304204883201205F0E9
:100AB000CBFCE0B205F0C8FC1020084948830420B4
:100AC000088308200883BDEC068B70BD0000000081
:100AD00000002040000000000000E03F0000024055
:100AE00070B52DED068B05460E4628463146FFF7BC
:100AF00084FD9FED130B53EC102BFFF782FC9FED51
:100B0000120B53EC102BFFF7D5FBFFF796FD47F6C2
:100B1000FF71084484B210200D49088308204883DF
:100B2000201205F091FCE0B205F08EFC102008497F
:100B300048830420088308200883BDEC068B70BD21
:100B40000000000000002040000000000000E03F26
:100B50000000024010B500F03DFF10BD70B5064624
:100B60000C46154608E03046721C96B200F007F8B5
:100B700004F8010B681E85B2002DF4D170BD70B56C
:100B80000446002600F0DAFFA02000F0A3FF01F0E9
:100B900021F8201200F09EFF01F01CF82546E11715
:100BA00004EB11610912A4EB0121C8B200F092FF1D
:100BB00001F010F800F0C2FFA12000F08BFF01F05F
:100BC00009F8002000F054FF064600F0DDFF304633
:100BD00070BD70B505460C46164606E021782846DD
:100BE00000F009F8681C85B2641C301EA6F10101F2
:100BF0008EB2F3D170BD70B504460E4600F09EFF74
:100C0000A02000F067FF00F0E5FF201200F062FF77
:100C100000F0E0FF2546E11704EB11610912A4EB97
:100C20000121C8B200F056FF00F0D4FF304600F0BA
:100C300051FF00F0CFFF00F0A7FF0A2000F0A8FB53
:100C400070BD00002DE9F04702460B460024204607
:100C50002146082B7ED19A4CA45C5D01A4FB05566D
:100C60004FF4807C0027A5FB0C4806FB0C8605FB97
:100C7000076C5E013D46A4FB06780CFB068604FB70
:100C800005655E014FF0000CA7FB064805FB0685D5
:100C900007FB0C564FF4807C00272546A5FB0C482B
:100CA00006FB0C8605FB076667464FF0000C2546E1
:100CB000A5FB074806FB078605FB0C654FF4807C07
:100CC00000272646A6FB0C4805FB0C8506FB0755AE
:100CD0007B4F561CBE5DA6FB0CC65F014FF00009A2
:100CE000ACFB078A06FB07A60CFB096C3E464F4689
:100CF000B146A8FB096A0CFB09AC08FB07C95F01F8
:100D00004FF0000CB0464E46E146A8FB07CA06FB72
:100D100007A608FB09674FF480794FF00008664684
:100D2000A6FB09CA07FB09A706FB0876C8464FF0D1
:100D30000009ACFB087A06FB08A60CFB0966A44672
:100D40002C4635461CEB07066C415D4F951C7D5DBE
:100D50005F0100E08FE0A5FB07574FF48078A5FB0B
:100D600008CA07FB08A705FB097900256746CC469A
:100D7000A946A7FB085A0CFB08AC07FB09C90027CA
:100D8000AC464D46B946ACFB087A05FB08A50CFB02
:100D900009590025BC464F46A946ACFB085A07FB3B
:100DA00008A70CFB097775197C41454FD61CBE5D21
:100DB000A6FB08C74FF00009ACFB086A07FB08A7B1
:100DC0000CFB09795F014FF0000CB0464E46E1463E
:100DD000A8FB07CA06FB07A608FB0969B846002658
:100DE0006746CC46B146A7FB086A0CFB08AC07FB7C
:100DF00009C7AD197C41324F161DBE5D5F01A6FBD0
:100E000007864FF0000CB946A8FB097A06FB09A635
:100E100008FB0C694FF4807C4FF000083E464F46BB
:100E2000E146A6FB09CA07FB09A706FB087615EBF6
:100E30000C057441224F561DBE5D5F01A6FB07687D
:100E4000BC464FF00009A6FB0C7A08FB0CAC06FB75
:100E500009C6ED1974411A4F961DBE5D5F01A6FBD0
:100E60000776EF1944EB0605154ED41D345D38198D
:100E700045EB090122E0042B10D1114CA45C25069E
:100E80000F4E541C345D05EB0445941C345D05EB9A
:100E90000425D41C345D2819C1170FE0022B08D19A
:100EA000074D541C2D5D064CA45C05EB0420C117B6
:100EB00004E0012B02D1024CA05C0021BDE8F087C8
:100EC000CA0300202DE9F04F89B0804614461D4624
:100ED000DDF84890B9F1080F7ED14FF480720023FD
:100EE00020462946FFF776F982464FF480720023A8
:100EF000FFF770F94FF480720023CDE90001FFF78E
:100F000069F94FF480720023CDE90201FFF762F91D
:100F10004FF480720023CDE90401FFF75BF9064628
:100F20004FF480720023FFF755F94FF480720023CD
:100F3000CDE90601FFF74EF9B04901F808004FF47A
:100F40008072002320462946FFF744F906464FF4F5
:100F500080720023FFF73EF94FF480720023CDE941
:100F60000001FFF737F94FF480720023CDE9020149
:100F7000FFF730F94FF480720023CDE90401FFF749
:100F800029F982464FF480720023FFF723F94FF4CA
:100F900080720023CDE90601FFF71CF9D1B2974A10
:100FA00008F1010011544FF48072002320462946B5
:100FB000FFF710F982464FF480720023FFF70AF919
:100FC00006464FF480720023FFF704F94FF4807255
:100FD0000023CDE9020100E090E0FFF7FBF84FF4B9
:100FE00080720023CDE90401FFF7F4F84FF480721A
:100FF0000023CDE90601FFF7EDF8D1B27F4A08F1F1
:10100000020011544FF48072002320462946FFF756
:10101000E1F84FF480720023CDE90401FFF7DAF81C
:101020004FF480720023CDE90601FFF7D3F806469E
:101030004FF480720023FFF7CDF882464FF48072A0
:101040000023FFF7C7F8D1B26C4A08F1030011542E
:101050004FF48072002320462946FFF7BBF84FF477
:1010600080720023CDE90601FFF7B4F806464FF47D
:1010700080720023FFF7AEF882464FF4807200239F
:10108000FFF7A8F8D1B25D4A08F1040011544FF4FB
:101090008072002320462946FFF79CF806464FF44D
:1010A00080720023FFF796F882464FF48072002387
:1010B000FFF790F8D1B2514A08F1050011544FF4EE
:1010C0008072002320462946FFF784F806464FF435
:1010D00080720023FFF77EF8D1B2484A08F106007B
:1010E00011544FF48072002320462946FFF772F80E
:1010F000D1B2424A08F1070011547CE0B9F1040F63
:101100004CD14FF48072002320462946FFF762F845
:1011100006464FF480720023FFF75CF882464FF4D6
:1011200080720023FFF756F8344901F808004FF4A5
:101130008072002320462946FFF74CF882464FF480
:1011400080720023FFF746F806464FF480720023B2
:10115000FFF740F8D1B2294A08F1010011544FF4C9
:101160008072002320462946FFF734F806464FF4E4
:1011700080720023FFF72EF8D1B2204A08F1020056
:1011800011544FF48072002320462946FFF722F8BD
:10119000D1B21A4A08F1030011542CE0B9F1020F40
:1011A0001CD14FF48072002320462946FFF712F825
:1011B00006464FF480720023FFF70CF80F4901F840
:1011C00008204FF48072002320462946FFF702F8DA
:1011D000D1B20A4A08F1010011540CE0B9F1010F33
:1011E00009D14FF48072002320462946FEF7F2FF12
:1011F000024901F8082009B0BDE8F08FCA030020B9
:101200001CB50121202004F0A9FF0121402004F099
:10121000A5FF01208DF8040000208DF806000320B2
:101220008DF8050001208DF80700C0030090694685
:10123000014800F021FB1CBD001802401CB50AF05B
:101240001BF80121042004F089FF3F2000900020BA
:101250008DF8040001208DF8070069460B4800F066
:101260000BFB4FF47C60009001208DF804000020FF
:101270008DF8060003208DF8050001208DF8070089
:101280006946024800F0F8FA1CBD00000008024060
:1012900000BFFEE770B502464FF6FF70002313E073
:1012A00012F8015B684000240AE000F0010525B156
:1012B0004AF2010585EA600000E04010651CECB2CE
:1012C000082CF2DB5D1CEBB28B42E9DB70BD000049
:1012D00000B585B00121022004F040FF0121880300
:1012E00004F07CFF4FF46040039000208DF8100064
:1012F00001208DF8130003A9234800F0BDFA0D2149
:10130000012005F0ABF90F21012005F0A7F94FF4FA
:101310000050009000208DF8040010208DF805008A
:1013200001208DF80600684600F050F928208DF85D
:10133000080003208DF809008DF80A0001208DF8BF
:101340000B0002A803F00EFE4FF4004000900020B6
:101350008DF8040010208DF8050001208DF806009E
:10136000684600F033F928208DF8080003208DF836
:1013700009008DF80A0001208DF80B0002A803F087
:10138000F1FD05B000BD0000000402407047000000
:1013900001B504490098086000BF024800680028B1
:1013A000FBD108BD0C000020094800884FF6FE71F3
:1013B0000840074908800020054924310860054895
:1013C0008078032802D10121034881707047000012
:1013D000000C004040000020E402002070B551489D
:1013E000006800F0010000286FD04F488078032883
:1013F0004BD14E48007818B14C480078012844D1B0
:1014000049484078012806D14748D0F88800484923
:101410004968086008E04448407828B94248D0F854
:1014200030014349496808604248006801281AD1E0
:101430003E48007840B93E4A526811683A4A5078AE
:10144000012203F0E9FD09E0394A5268126851426D
:10145000354A50784FF0010203F0DEFD0120354996
:101460008431086057E033480068002853D12E4982
:1014700048780122002103F0CFFD00202D4984315E
:10148000086001212C48817045E0274880780328B6
:1014900041D126480078022803D024480078032848
:1014A00039D100BF00BF00210C460D461E484078D0
:1014B00001280BD11C48D0F888001D4949680860F4
:1014C00019488030D0E904450CE02AE016484078FD
:1014D00040B91548D0F830011549496808601748E7
:1014E000D0E90445002184EA01006940084311D095
:1014F000012013490860FA22002320462946FEF7FE
:1015000069FE461E483E4FF000010B488170304690
:1015100000F0A6F800BF0348006840F00100014950
:10152000086070BD143C014040000020B80100205C
:101530000003002000824042E402002068010020F5
:10154000E401002010B51B48006800F4005080B38F
:10155000642009F0E1FE184800681849D1F83812F3
:1015600088420DD016480078401C1549087015486F
:10157000007890B113480078401E124908700CE0C2
:1015800010480078401C0F4908700D48007820B1C1
:101590000B480078401E0A4908700B48408910B972
:1015A0000120094948810348006840F4005001497E
:1015B000086010BD143C014034824042008040422B
:1015C0005003002051030020200700200021234960
:1015D0008279002A3AD00A46126803689A430B4679
:1015E0001A600A1D126803689A430B1D1A6002797B
:1015F00011440A6803681A430A60184A08321268DC
:1016000003689A43154B08331A601A1D1268036861
:101610009A43124B0C331A604279102A0ED11A1FCA
:10162000126803681A430D4B08331A601A1D1268BA
:1016300003681A43094B0C331A600DE007494279DD
:1016400011440A6803681A430A6005E002791144EC
:101650000A6803689A430A6070470000003C014032
:1016600010B5044628480078012803DC601C27498F
:10167000086003E0601C40082449086022480078A4
:1016800040B9234A52681168224A5078012203F077
:10169000C3FC23E01C480078012809D11C4A526889
:1016A000126851421B4A5078012203F0B5FC15E044
:1016B00015480078022808D1154A52681168154A61
:1016C0005078012203F0A8FC08E0114A5268126821
:1016D0005142104A5078012203F09EFC14200B491D
:1016E000091F08800020091F086008482C3800885E
:1016F00040F0010005492C390880012006490860A6
:101700000649086010BD0000B80100202C0C004004
:10171000000300204000002084824042300300206B
:1017200051B18200A2F1C042126842F0010382006E
:10173000A2F1C042136009E08200A2F1C042126827
:10174000034B1A408300A3F1C0431A6070470000A6
:10175000FEFF0F0030B50021002200230468A40022
:10176000A4F1C0442168424C2140D0E901452C43FA
:10177000C5682C4305692C4345692C4385692C4376
:10178000C5692C43056A2C43456A2C43856A2C4362
:10179000C56A2C43056B2C4321430468A400A4F1C3
:1017A000C04421608468082C0BD10468A400A4F113
:1017B000C044246844F040050468A400A4F1C04477
:1017C00025600468641CA400A4F1C044226802F0EF
:1017D0004042446B2468456B6D6844EA0514456BD0
:1017E000AD6844EA0524456BAD8944EA0544456B80
:1017F0002D8A44EA0554456B2D7D44EA0564456B0A
:10180000AD692C4322430468641CA400A4F1C044C5
:101810002260C46AB4F5804F20D10468A400A4F10A
:10182000C044D4F80431134C2340846B2468856B86
:101830006D6844EA0514856BAD6844EA0524856B40
:10184000AD8944EA0544856BAD692C4323430468A4
:10185000A400A4F1C044C4F8043107E06FF070455F
:101860000468A400A4F1C044C4F8045130BD0000D1
:101870008000F7FF0000F0CFF0B50A4600210023FA
:10188000002400BF3DE0012505FA01F3156805EAD3
:1018900003049C4234D105684F000326BE40B54383
:1018A000056015794E00B540066835430560157929
:1018B000012D02D01579022D16D185684F0003261F
:1018C000BE40B543856055794E00B54086683543C6
:1018D0008560456801268E40B54345604568967928
:1018E0008E40B6B235434560C5684F000326BE4002
:1018F000B543C560D5794E00B540C6683543C5606F
:10190000491C1029BFD3F0BDF0B5002300244D07BA
:10191000ED0E02FA05F3CE1000F1200555F8265021
:101920004E07F70E0F26BE40B543CF1000F120063C
:1019300046F82750CE1000F1200555F8265045EA0C
:101940000304CE1000F1200545F82640F0BD418388
:10195000704701837047000010B516220749E62042
:10196000FFF7FCF80548D0F81200401C0349C1F805
:1019700012001622E620FFF72CF910BDB403002058
:1019800000BFFEE710B500200F4908600F4800684F
:1019900020F440000D4908600846006840F48000CB
:1019A000086000200A49C1F8AC02042009F0B4FC28
:1019B000012005490860042009F0AEFC002004491C
:1019C000C1F8A80210BD0000A882404200040240F5
:1019D000008040421CB50121022004F0BFFB4FF4FF
:1019E0004060009001208DF8040000208DF8060072
:1019F00002208DF8050001208DF807006946054892
:101A0000FFF73AFF0120044908600449C1F8A80221
:101A10001CBD000000040240AC82404200804042F5
:101A200010B500200F4908600F48006820F44000FE
:101A30000D4908600846006840F4800008600120F5
:101A40000A49C1F8AC02042009F066FC01200549EE
:101A50000860042009F060FC00200449C1F8A802D5
:101A600010BD0000A88240420004024000804042B5
:101A700070B5054600241448006820F4400012495F
:101A80000860002616E0002010490860042009F0D4
:101A900043FC01200E49C1F8A8026006040E0B4861
:101AA0007C38006808B1601CC4B2022009F034FC24
:101AB000701CC6B2082EE6DB15B9FFF7B1FF01E0D6
:101AC000FFF760FF204670BD00040240A88240423C
:101AD0000080404270B504461548006820F440007C
:101AE000134908600846006840F480000860002040
:101AF00010490860002517E0E0090E49091D08603B
:101B00006006040E042009F007FC01200A49C1F810
:101B1000A802042009F000FC002006490860042007
:101B200009F0FAFB681CC5B2082DE5DB70BD0000AA
:101B300000040240A88240420080404210B50F4895
:101B4000006820F440000D4908600846006840F431
:101B50008000086001200A4908600A49C1F8A8020B
:101B6000082009F0D9FB002005490860082009F089
:101B7000D3FB00200349C1F8A80210BD00040240B5
:101B8000AC8240420080404210B50F48006820F40B
:101B900040000D4908600846006840F48000086075
:101BA00000200A4908600A49C1F8AC02082009F07F
:101BB000B3FB012005490860082009F0ADFB0120B6
:101BC0000349C1F8AC0210BD00040240A8824042A3
:101BD0000080404210B500241248006820F4400004
:101BE00010490860012010490860022009F094FBA8
:101BF00001200E49C1F8A802022009F08DFB07E080
:101C0000601CC4B2FA2C03DDFFF7BEFF012010BD3B
:101C10000548803800680028F2D10349091F086090
:101C200000BFF4E700040240AC8240420080404222
:101C30001CB50121084604F091FA0121102004F09E
:101C40008DFA0121202004F089FA0121402004F0BE
:101C500085FA48F24000009001208DF80400002031
:101C60008DF8060003208DF8050001208DF807008F
:101C700069461648FFF700FE4020009001208DF8CD
:101C8000040000208DF8060003208DF805000120D7
:101C90008DF8070069460E48FFF7EEFD082000901A
:101CA00069460C48FFF7E8FD4FF40C400090694688
:101CB0000948FFF7E1FD0C210448FFF74AFE4FF405
:101CC00000410248FFF743FE1CBD00000000024037
:101CD0000010024000140240001802404CF6CC40B4
:101CE0000149086070470000003000404AF6AA2011
:101CF0000149086070470000003000400149486019
:101D000070470000003000400149886070470000C3
:101D1000003000400149086070470000003000407A
:101D20002DE9FC4700270020009001908046814665
:101D3000002400254FF4A06003F050F900F0F2F900
:101D40004FF47A61052008F03DFDFFF771FF4FF475
:101D5000E13008F065FC65A008F046FD644808F035
:101D600043FD64A008F040FD042009F0F7FA09F0F3
:101D700051FB01F0CDF94FF4E13162A008F034FDE0
:101D80006420FFF705FB08206949088069A008F076
:101D90002BFD6FA008F028FD4FF49670FFF7F8FABE
:101DA00001F0E6F875A008F01FFDFFF729FA77A00B
:101DB00008F01AFDFFF70EFE78A008F015FDFEF7FB
:101DC000C9FE7AA008F010FDFFF7C6FD7C48D0F8E8
:101DD00012107CA008F008FD09F0ACFBFFF72EFA0A
:101DE0007DA008F001FD04F0BFFA00210320FEF7FA
:101DF00009FE7DA008F0F8FCFFF76AFA85A008F05C
:101E0000F3FC05F0BBFD05F04DFE87A008F0ECFCEF
:101E10004FF4165008F0A2FB4FF4165189A008F0B9
:101E2000E3FC002003F07AF805F082FA01208E49E5
:101E3000086008F0C3FC00F0F5FA8CA008F0D4FCB0
:101E40004FF41670FFF7A4FA08F0B8FC00F0EAFBB4
:101E50008A4881888AA008F0C7FC4FF4C870FFF751
:101E600097FA08F0ABFC02F049F88CA008F0BCFC33
:101E700007F094FB08F0A2FC40F2E7345325294612
:101E8000204605F017FD89A008F0AEFC2A46214641
:101E90008BA008F0A9FC601C691C10FB01F090FBF2
:101EA000F1F631468CA008F09FFC08F087FC292150
:101EB00042F20F7005F0B6FC3220FFF769FA0020FD
:101EC0008C49C1F8B0028C48007818B18A48007873
:101ED000012802D105F052FD01E005F099FD08F05E
:101EE0006DFC86A008F080FCBDE8FC870D0A0000B0
:101EF0000CD600084D4355205374617274210D0AAD
:101F00000000000044656267755F55617274206966
:101F10006E6974204F4B2120626175642072617478
:101F2000653D2564206269742F730D0A0D0A000057
:101F300018140240416E676C6F6720706F7765728E
:101F400020686173206F70656E210D0A000000002B
:101F50005761697420666F7220616E616C6F6720D3
:101F6000706F77657220746F2073746162696C6939
:101F70007A652E2E2E2E2E2E210D0A004C45445F02
:101F8000496E6974204F4B210D0A0000426565704F
:101F90005F496E6974204F4B210D0A004949435F28
:101FA000496E6974204F4B210D0A000041543234B0
:101FB0004358585F496E6974204F4B210D0A000049
:101FC000B40300204D43555F504F525F54696D6517
:101FD000733A25640D0A000042746E5F496E69749D
:101FE000204F4B210D0A00004144353534325F4902
:101FF0006E6974204F4B2C53657420414435353441
:1020000032204F757470757420746F207A65726F0A
:10201000210D0A00436F6465635F496E6974204F48
:102020004B210D0A00000000547269676765724514
:1020300078494E31325F496E6974204F4B210D0A49
:102040000000000055617274315F496E6974204F61
:102050004B21206261756420726174653D256420A6
:102060006269742F730D0A008002404252657365E5
:1020700074204C4344210D0A00000000A0430020BE
:102080004C4344204F4B21204C43444445565F4928
:10209000443D307825780D0A000000004765742023
:1020A000506172204F4B0D0A00000000496E6974A8
:1020B0002054696D657236204F4B210D0A000000D7
:1020C00054696D657236204152523D25642C50533F
:1020D000433D25640D0A000054696D657236204F3A
:1020E000766572666C6F775F74696D653D256475A2
:1020F000730D0A0000804242B801002048617264FA
:102100007761726520696E6974204F4B2120537985
:10211000732072756E6E696E672E2E2E2E2E2E0D0A
:102120000A0D0A0010B5104800684FF47A71B0FB30
:10213000F1F4601EB0F1807F00D30FE0601E4FF01D
:10214000E02148610F214FF0FF3002F051FF0020E5
:102150004FF0E02188610720086100BF0021481E80
:1021600002F046FF10BD00009C0300200146062936
:1021700035DA0020A94A10600120A94AC2F89C0261
:10218000A64A08321060121D1060121D1060A44A89
:10219000C2F8AC02A1489838006808B9002070471E
:1021A0009E489438006808B90120F8E79B489038A9
:1021B000006808B90220F2E798488C38006808B92E
:1021C0000320ECE795488838006808B90420E6E762
:1021D000924884380068002873D10520DFE70C2975
:1021E00036DA01208D4A106000208D4AC2F89C0228
:1021F00001208A4A08321060121D1060121D106002
:10220000874AC2F8AC0285489838006808B90620A9
:10221000C5E782489438006808B90720BFE77F48BF
:102220009038006808B90820B9E77C488C38006805
:1022300008B90920B3E779488838006808B90A2046
:10224000ADE77648843800680028C5D10B20A6E7A2
:10225000122937DA0120714A1060714AC2F89C02D3
:1022600000206E4A083210600120121D1060121DFD
:1022700010606B4AC2F8AC0268489838006808B928
:102280000C208CE765489438006808B90D2086E773
:1022900062489038006808B90E2080E75F488C38A3
:1022A000006808B90F207AE75C488838006808B9E8
:1022B000102074E759488438006800288CD1112018
:1022C0006DE7A1E0182936DA0120544A1060544A1B
:1022D000C2F89C02514A083210600020121D1060A2
:1022E0000120121D10604E4AC2F8AC024B489838CB
:1022F000006808B9122052E748489438006808B9C5
:1023000013204CE745489038006808B9142046E788
:1023100042488C38006808B9152040E73F488838A3
:10232000006808B916203AE73C488438006800285D
:1023300071D1172033E71E2935DA0120374A1060A2
:10234000374AC2F89C02354A08321060121D1060EC
:102350000020121D10600120314AC2F8AC022F4843
:102360009838006808B9182019E72C489438006894
:1023700008B9192013E729489038006808B91A20CD
:102380000DE726488C38006808B91B2007E723486A
:102390008838006808B91C2001E7204884380068A4
:1023A00090BB1D20FBE6242935DA01201B4A106072
:1023B0001B4AC2F89C02194A08321060121D1060B4
:1023C000121D10600020164AC2F8AC02134898385B
:1023D000006808B91E20E2E610489438006808B981
:1023E0001F20DCE60D489038006808B92020D6E6AA
:1023F0000A488C38006808B92120D0E60748883898
:10240000006810B92220CAE605E004488438006854
:1024100008B92320C3E6FF20C1E60000980241422C
:10242000000041421CB50121102003F097FE20203E
:10243000009001208DF8040000208DF80600032094
:102440008DF8050001208DF8070069460648FFF762
:1024500013FA202004494883C820FEF799FF202062
:10246000014908831CBD00000010024070B50446FD
:10247000002617480588408845431548808846F659
:102480000401884216D112488079012812D1002017
:102490000F4988712A2048812B2088810021084615
:1024A00000F030FC01200A4988712B2048812A2045
:1024B000888103E00021084600F024FC00F046FD7E
:1024C000002602E003480480761CAE42FAD370BDB9
:1024D000A04300200000026010B50446DCB90020D3
:1024E0001C498871F02008804FF4A070488008468D
:1024F000808841F66311884228D12C201549088133
:102500002B2048812A2088814FF4F07008804FF4F6
:10251000487048801AE001200E4988714FF4A0707D
:102520000880F02048800846808841F66311884280
:102530000CD12C20074908812A2048812B20888132
:102540004FF4F07008804FF488704880002000F04D
:1025500063FA10BDA043002010B503460C461A488C
:10256000808841F66311884227D11748807920B9C5
:1025700015480088401EC01A83B21349488900F0EC
:10258000DFFC181200F0D6FCD8B200F0D3FC181211
:1025900000F0D0FCD8B200F0CDFC0B49888900F0E7
:1025A000CFFC201200F0C6FCE0B200F0C3FC201209
:1025B00000F0C0FCE0B200F0BDFC03480089034914
:1025C0000880881C028010BDA0430020FEFF01602F
:1025D0002DE9F04F05460E4617469846DDF824A033
:1025E0004FF0000B781B401C1FFA80FB344613E0B1
:1025F0002146284600F086FB00F0A8FC4FF00009B9
:1026000006E00748A0F800A009F101001FFA80F9D0
:10261000D945F6DB601C84B24445E9DDBDE8F08FA6
:1026200000000260F0B59FB00024002500260027BE
:102630000121182003F092FD0121084603F09EFDC0
:102640004CF6B3701D9002208DF8780000208DF8B4
:102650007A0003208DF8790001208DF87B001DA9F8
:10266000C748FFF709F94FF680701D9002208DF8DA
:10267000780000208DF87A0003208DF87900012081
:102680008DF87B001DA9BF48FFF7F6F80C2200214A
:10269000BB48FFF739F90C220121B948FFF734F99B
:1026A0000C220421B648FFF72FF90C220521B4486B
:1026B000FFF72AF90C220821B148FFF725F90C226F
:1026C0000921AF48FFF720F90C220A21AC48FFF797
:1026D0001BF90C220E21AA48FFF716F90C220F2134
:1026E000A748FFF711F90C220721A648FFF70CF9BC
:1026F0000C220821A348FFF707F90C220921A14861
:10270000FFF702F90C220A219E48FFF7FDF80C2280
:102710000B219C48FFF7F8F80C2211469948FFF767
:10272000F3F80C220D219748FFF7EEF80C220E214A
:102730009448FFF7E9F80C220F219248FFF7E4F8DC
:102740000C2207218E48FFF7DFF80C220B218C4862
:10275000FFF7DAF808200790002008900F20099072
:1027600000200A9001200B9000200C900D90082072
:102770000090002001900920029000200390049016
:10278000059006900E900F90109010201190002050
:10279000129014901390159016904FF4805017904B
:1027A000002018904FF48040199000201A9007A83C
:1027B0001B90CDF870D00EA8FEF7CCFF01210020B1
:1027C000FEF7AEFF4FF44870FEF7E2FD002000F088
:1027D000E7F86D4988800A20FEF7DAFD41F66310BC
:1027E000694988800846808841F6631188427DD116
:1027F000E22000F0A5FB1D2000F09CFB022000F071
:1028000099FB042000F096FB642008F085FDE02091
:1028100000F096FB012000F08DFB0A20FEF7B8FDCA
:10282000E02000F08DFB032000F084FB0C20FEF77D
:10283000AFFD012000F084FB0A20FEF7A9FD4FF454
:102840004870FEF7A5FDE62000F07AFB2F2000F08F
:1028500071FBFF2000F06EFBFF2000F06BFBB0204F
:1028600000F06EFB102000F065FB002000F062FB22
:10287000012000F05FFB40F2DF1000F05BFB012065
:1028800000F058FB40F20F1000F054FB002000F065
:1028900051FBB42000F054FB022000F04BFB40F24F
:1028A000DF2000F047FB002000F044FB2E2000F06A
:1028B00041FB002000F03EFB002000F03BFB00202D
:1028C00000F038FB002000F035FBB62000F038FBAC
:1028D000012000F02FFB4FF49E7000F02BFB002036
:1028E00000F028FB172000F025FB00E03EE015205B
:1028F00000F020FB002000F01DFB002000F01AFB80
:10290000F02000F01DFB032000F014FB292000F054
:1029100017FBD02000F014FB002000F00BFBBE20C2
:1029200000F00EFB052000F005FBFE2000F002FB8E
:10293000012000F0FFFA002000F0FCFA002000F077
:10294000F9FA002000F0F6FAB82000F0F9FA0320B6
:1029500000F0F0FA012000F0EDFABA2000F0F0FAF1
:10296000012000F0E7FA002000F026F80120FFF730
:10297000B3FD42F20410FFF779FD1FB0F0BD000077
:10298000000C024000100240A043002008B503489C
:1029900000880090BDF8000008BD00000000026043
:1029A00010B50446204600F0CBFA052008F0B4FC30
:1029B000FFF7ECFF10BD000070B52DED048B044651
:1029C000BE2000F0BDFA052000F0B4FA2046FDF765
:1029D00007FE41EC190B9FED0E0B53EC102BFDF78E
:1029E00010FD41EC180BFDF747FE85B2284600F0BC
:1029F000A1FA012000F09EFAFF2000F09BFA0020CF
:102A000000F098FA002000F095FABDEC048B70BD40
:102A1000666666666666044070B504460023002656
:102A2000B748807901280BD1B548808846F6040163
:102A3000884205D0B248808841F66311884208D1A7
:102A4000AF488079F0B9AE48808841F6631188427A
:102A500018D1082C15D2DFE804F00406080A0C0E81
:102A6000101206240DE007240BE0042409E00524DD
:102A700007E0012405E0002403E0032401E0022430
:102A800000BF00BF9E48808849F24131884217D07C
:102A90009B48808846F60401884211D09848808877
:102AA00045F2103188420BD09548808845F210518C
:102AB000884205D09248808841F6631188427DD1D2
:102AC000082C1CD2DFE804F00406090C0F121518BC
:102AD00000BF14E043F0800311E043F040030EE038
:102AE00043F0C0030BE043F0200308E043F0600331
:102AF00005E043F0A00302E043F0E00300BF00BFA5
:102B00007F48808845F21051884202D14FF45856D0
:102B100000E036267A48808845F2103188420DD090
:102B20007748808845F21051884207D074488088E1
:102B300041F66311884201D043F008037048808851
:102B400046F60401884201D143F00203194630469B
:102B500000F006FA6A48808841F6631188421DD069
:102B600003F0200068B166480088654949888842BA
:102B700014DA634805884088614908800846458022
:102B80000CE05F4800885E494988884206DD5C4861
:102B9000058840885A4908800846458058488088FA
:102BA00045F21051884254D15549488900F0C8F97E
:102BB000002000F0BFF95249498900E078E0491C43
:102BC00088B200F0BDF9002000F0B4F94C49498901
:102BD000891C88B200F0B4F949490988491EC1F33B
:102BE0000F2000F0A7F946494989C91C88B200F0B6
:102BF000A7F943490978491EC8B200F09BF940493A
:102C0000888900F09DF9002000F094F93C498989F9
:102C1000491C88B200F094F9002000F08BF9384983
:102C20008989891C88B200F08BF935494988491E89
:102C3000C1F30F2000F07EF931498989C91C88B29F
:102C400000F07EF92E498978491EC8B200F072F969
:102C500055E02B49488900F073F9002000F06AF92B
:102C6000002000F067F926490988491EC1F30F20AA
:102C700000F060F922490978491EC8B200F05AF9FB
:102C80001F49888900F05CF9002000F053F900200A
:102C900000F050F91A494988491EC1F30F2000F08D
:102CA00049F917498978491EC8B200F043F926E06E
:102CB000082C1CD2DFE804F004070A0D0F121518C7
:102CC00043F0300313E043F0100310E043F020031F
:102CD0000DE000BF0BE043F0380308E043F02803A9
:102CE00005E043F0180302E043F0080300BF00BF13
:102CF000032643F480531946304600F031F970BD85
:102D0000A043002000B502460B462748808841F6C4
:102D10006311884246D124488079A8B922480088A6
:102D2000401E801A82B22049488900F009F9101229
:102D300000F000F9D0B200F0FDF8101200F0FAF83F
:102D4000D0B200F0F7F816E01749488900F0F8F81B
:102D5000101200F0EFF8D0B200F0ECF81249098838
:102D6000491EC1F30F2000F0E5F80F490978491E0C
:102D7000C8B200F0DFF80C49888900F0E1F81812B9
:102D800000F0D8F8D8B200F0D5F807494988491EB4
:102D9000C1F30F2000F0CEF803498978491EC8B26C
:102DA00000F0C8F800BD0000A04300202DE9F84F56
:102DB00080460E4617461C46B3462046E31704EBF2
:102DC0005373DB1021464FEAE47C04EB5C7C4FEA52
:102DD000EC0CA4EBCC0CBCF1000F02D04FF0010CBA
:102DE00001E04FF0000C6344224604EBD27C4FEA32
:102DF0006C0C03FB0CF3DBB20093A7F12000C7B20D
:102E0000002554E00C2C07D107EB47002A4901EBC1
:102E1000800010F8059013E0102C05D1274800EB36
:102E2000071010F805900BE0182C07D107EBC7002E
:102E3000234901EB800010F8059001E0BDE8F88F10
:102E40004FF0000A2DE009F0800028B131464046DD
:102E50000C9AFFF781FB06E00A9820B931464046FC
:102E60000B9AFFF779FB4FEA49604FEA1069701C33
:102E700086B214484088B04200DCDFE7A6EB0B00C6
:102E8000A0420AD15E4608F101001FFA80F80D4801
:102E90000088404500DCD1E706E00AF1010000F0BF
:102EA000FF0ABAF1080FCEDB00BF681CC5B200985C
:102EB0008542A7DB00BFC1E74CBE0008C0C20008C6
:102EC000B0C80008A04300202DE9FF5F04460D466E
:102ED000904699460EAE96E8C00CE0B2039008EB1F
:102EE00004001FFA80F809EB05001FFA80F917E0CB
:102EF000444502DB039CA81985B24D4500DB15E073
:102F000000208DE8010C3A78334629462046FFF729
:102F10004DFF304606EBD07104EB61018CB27F1C93
:102F200038787E2802DC38782028E1DA00BFBDE856
:102F3000FF9F000001490880704700000000026008
:102F40000149088070470000FEFF016002480089C7
:102F50000249088070470000A0430020FEFF016086
:102F6000024A1080921C118070470000FEFF016031
:102F70001CB50121084603F0F1F80121022003F0FD
:102F8000EDF80121082003F0E9F80121102003F0F9
:102F9000E5F841F60110009001208DF804000020B2
:102FA0008DF8060003208DF8050001208DF807003C
:102FB00069461748FEF760FC4FF430700090694690
:102FC0001448FEF759FC43F24C0000906946124841
:102FD000FEF752FC1F20009069461048FEF74CFC9B
:102FE00041F601110A48FEF7B4FC4FF4307109486C
:102FF000FEF7AFFC43F24C010748FEF7AAFC1F2185
:103000000648FEF7A6FC0020054908601CBD00002C
:103010000000024000040240000C02400010024088
:10302000988240420020064908600649C1F8B00273
:1030300003490C3108600449C1F8A402704700003C
:10304000A002404200004042008040420020064969
:1030500008600649C1F88C02034910310860034931
:10306000C1F8B002704700008882414200804142AE
:1030700024480078022809D10120234908604FF430
:10308000FA7020494880012008700BE01D48007844
:10309000012807D11B48408820B900201A49086040
:1030A0001849087017480079022806D14FF4FA70C1
:1030B0001449C8800120087109E0124800790128EC
:1030C00005D11048C08810B900200E4908710D487C
:1030D000007A022809D101200C4908604FF4FA70E7
:1030E00008494881012008720BE00648007A01284F
:1030F00007D10448408920B90020044908600149EB
:1031000008727047300700208C024242B48241426C
:1031100010B57B2003F000F910B118A007F064FB94
:103120007A2003F0F9F810B119A007F05DFB7C20BC
:1031300003F0F2F810B11BA007F056FB7D2003F05E
:10314000EBF810B11CA007F04FFB7E2003F0E4F871
:1031500010B11EA007F048FB7F2003F0DDF810B18E
:103160001FA007F041FB792003F0D6F810B121A091
:1031700007F03AFB03F052F810BD00005243435FE2
:10318000464C41475F504F525253540D0A000000C5
:103190005243435F464C41475F50494E5253540D92
:1031A0000A0000005243435F464C41475F53465478
:1031B0005253540D0A0000005243435F464C4147AE
:1031C0005F495744475253540D0A00005243435F2E
:1031D000464C41475F575744475253540D0A00002D
:1031E0005243435F464C41475F4C505752525354F1
:1031F0000D0A00005243435F464C41475F424F5225
:103200005253540D0A0000002DE9F041002500241E
:10321000A04608F011F80546002D58D0681E03217D
:1032200090FBF1F0C4B2681E90FBF1F201FB1200BA
:1032300000F0FF08B8F1000F49D1242C47DA0B2C1D
:1032400056D1FE48807890B9FD48007800F0020021
:1032500028B1FB48007820F00200F9490870F848CE
:103260008078012801D002F097FBBDE8F081F34897
:103270008078032810D1F2488078012805D0EF49E2
:1032800048780022114601F0C7FE0020ED49086091
:103290000121EB488170E8E7FF20E849C87001F0A0
:1032A00017FFFFF7D3FEE6488078012810D1E648E3
:1032B000008918B149F64040E3490881012006F031
:1032C0009FFE0220DD4981F8730102F0EFF883E2EE
:1032D000DB4880780128FAD0D84948780022114686
:1032E00001F09AFE0020D749086002F055FBEEE796
:1032F0000A2C26D1FF20D149C87001F0E9FEFFF762
:10330000A5FECF48807858B902F0C0F8CB4948787C
:103310000022114601F080FE0120CA490860D6E76C
:10332000C748807802280BD1C848006840F00100E7
:10333000C649086002F09AF80020C2490860C6E752
:10334000C5E7092C15D1BD480078012803D102201A
:10335000BA49087002E00120B8490870FF20B74957
:10336000C87001F0B5FEFFF771FE0120B649088173
:10337000ADE7182C17D1FF20B049C87001F0A8FEA6
:10338000FFF764FEAD4880780028A0D1012006F048
:1033900037FE0220A94981F8730102F087F8022064
:1033A000AB49087093E7042C72D1A548007800F06F
:1033B000020028B1A248007820F00200A04908705D
:1033C0009F488078012801D002F0E6FA9B484078B7
:1033D00008B9012000E000209849487002209C496B
:1033E0000871FF209549C870FFF71CFEFFF72EFEFD
:1033F0000020924981F870010021904880F87211F4
:103400004078012850D19348407820F0010091493C
:1034100048700846407840F001004870874890F8AE
:10342000A800864988710846807988708A480078A3
:103430008A4908708848801C026841687F4880304B
:10344000C0E904218038807830B101280CD00228EE
:1034500014D0032826D11CE07848007A77494871B7
:1034600001207F4908601EE0744890F830007349DD
:10347000487101207A491031086014E06F4890F8D3
:1034800058006E494871012075490C3108600AE006
:103490006CE06A4890F880006849487101207149E1
:1034A000086000E000BF4DE06A48407820F001006D
:1034B0006849487000204870604880795F4981F809
:1034C000A800084690F8A8008870634840786349CF
:1034D000087061480A30016842686348C0E9041214
:1034E0005648807830B101280DD0022815D0032825
:1034F00026D11CE0514890F8B00050494871012095
:10350000574908601DE04D4890F8D8004B49487174
:10351000012053491031086013E0484890F8000139
:103520004649487101204E490C31086009E0434882
:1035300090F828014149487101204A49086000E09B
:1035400000BF00BF4348407800F0010041490978BE
:1035500001F00101884202D0012003F049FE012060
:10356000424981F8BA0138490881B0E61F2C63D17D
:103570003A480078401C3949087008460078042809
:1035800001DB002008703548017839A007F02CF9DC
:103590003248007818B131480078012802D104F08F
:1035A000EDF901E004F034FA24484078012804D110
:1035B0002A4800782849087003E0284800782649FE
:1035C000487016222449E620FDF703FB01201B4921
:1035D000C87022480078022803D0204800780328C9
:1035E00077D121482830D0E9043044F620629A1A75
:1035F00070F100000DD244F6206100201A4A2832F2
:10360000C2E904101146D1E9046332461CA007F058
:10361000EBF815492831D1E90401084AD2F85421C0
:103620000832064BDB7802EBC30203C20348D0F832
:1036300054010830014A39E056E04AE040000020D9
:10364000E40200208402424220070020003C0140A6
:1036500030070020E0010020B4030020B801002062
:10366000A0024042A482404268010020620500207E
:10367000576176655F747970653D25640D0A0000B9
:1036800053657474696E672050554C534520746FB0
:103690002050554C53455F4C4F5745525F4C494D58
:1036A00049543A256C6C640D0A000000D27800EB96
:1036B000C200D0E90063ED48C1783246ECA007F0C3
:1036C00093F8FF20E949C87001F002FD012006F0DF
:1036D00097FCEF480178EFA007F086F8EC484178B6
:1036E000F5A007F081F8BDE3C4BBFC488078012851
:1036F00035D1FFF7ABFCDD488078F8B1FFF792FCDD
:103700000120F74908600020D849887008464078B1
:10371000012806D10846807888710846007A4871E9
:1037200008E0D2488078D14981F8A800084690F88E
:10373000B00048710120EB4981F8BA010020EA4944
:1037400008600120E949C1F88002FF20C749C8701C
:1037500001F0BEFC0120E649088183E3FFE7022C6B
:103760003BD1DE488078012837D1FFF76FFCBF4896
:103770008078022821D0FFF755FC0120D8490C3170
:1037800008600220B949887008464078012807D1AE
:10379000084680788871084690F85800487108E01B
:1037A000B2488078B14981F8A800084690F8000135
:1037B00048710120CB4981F8BA010020CA4908604C
:1037C0000120CA49C1F88002FF20A849C87001F051
:1037D0007FFC0120C649088144E3012C3AD1BF484F
:1037E0008078012836D1FFF731FCA0488078012885
:1037F00020D0FFF717FC0120B949103108609B4920
:10380000887008464078012807D10846807888717A
:10381000084690F83000487108E094488078934951
:1038200081F8A800084690F8D80048710120AD49F9
:1038300081F8BA010020AC4908600120AB49C1F809
:103840008002FF208949C87001F042FC0120A8498C
:10385000088107E3032C46D1A0488078012842D193
:10386000FFF7F4FB81488078032820D0FFF7DAFBCC
:103870000120A049086003207C49887008464078F0
:10388000012807D1084680788871084690F88000A2
:10389000487108E075488078744981F8A8000846A6
:1038A00090F82801487101208E4981F8BA019248A8
:1038B000007818B190480078012802D104F05EF831
:1038C00001E004F0A5F8012087490860002087493D
:1038D000C1F88002FF206549C87001F0F9FB0120A2
:1038E00083490881BEE2222C4ED16048807858B1CD
:1038F0005E488078012807D05C488078022803D091
:103900005A4880780328A4D1FFF7A0FB5748C07815
:1039100001281CD0012079490860544890F87301AF
:10392000022803D10120514981F8730101204F4938
:10393000C870002102F02CFF01204C4981F8700171
:1039400000214A4880F8711180F8721119E0474847
:1039500090F8730101280AD10020444981F87301CD
:10396000012006F04DFB0220404981F87301FF2041
:103970003E49C870002081F8700100213B4880F862
:10398000721101F0A5FB6DE2232C40D1FFF75EFB25
:103990003648C078F0B101205849091F0860334803
:1039A00090F87301022803D10120304981F8730196
:1039B00000202E49C8700021012002F0E9FE0120FC
:1039C0002A4981F870010021284880F8711180F897
:1039D000721119E0254890F8730101280AD10020DE
:1039E000224981F87301012006F00AFB02201F49D9
:1039F00081F87301FF201D49C870002081F8700113
:103A000000211A4880F8721101F062FB2AE2212C91
:103A100076D116488078012803D01448807802288F
:103A2000B1D1FFF713FB1148C07802286AD00120FA
:103A300032490C3108600D4890F87301022803D117
:103A400001200A4981F8730102200849C870002149
:103A5000012002F09DFE0120044981F8700100213F
:103A6000024880F8711180F8721165E04000002072
:103A7000456E74657230303030302C665061726142
:103A80006D547970653A25642C256C6C640D0A00C0
:103A9000B4030020734164646974696F6E616C449F
:103AA0006174612E565F576176655F747970653A0F
:103AB00025640D0A00000000734164646974696F35
:103AC0006E616C446174612E435F576176655F740B
:103AD0007970653A25640D0A00000000E4020020B8
:103AE000A002404262050020B082424200004042F3
:103AF00020070020A4824042B80100208C8241426D
:103B00001DE0FFE7D94890F8730101280AD1002091
:103B1000D64981F87301012006F072FA0220D349D8
:103B200081F87301FF20D149C870002081F870012D
:103B30000021CE4880F8721101F0CAFA92E1202CDF
:103B400044D1CA4880780228F8D1FFF77FFAC748E5
:103B5000C07803281DD00120C5490860C34890F8EB
:103B60007301022803D10120C04981F873010320A9
:103B7000BE49C8700021012002F00AFE0120BB49A5
:103B800081F870010021B94880F8711180F8721134
:103B900019E0B64890F8730101280AD10020B34912
:103BA00081F87301012006F02BFA0220AF4981F859
:103BB0007301FF20AD49C870002081F87001002119
:103BC000AA4880F8721101F083FA4BE1132C03D15B
:103BD000002002F06FFE45E11D2C03D1012002F010
:103BE00069FE3FE1172C03D1022002F063FE39E1A8
:103BF000112C03D1032002F05DFE33E11C2C03D114
:103C0000042002F057FE2DE1162C03D1052002F00E
:103C100051FE27E1102C03D1062002F04BFE21E1DA
:103C20001B2C03D1072002F045FE1BE1152C03D10C
:103C3000082002F03FFE15E10F2C03D1092002F00D
:103C400039FE0FE1072C03D10B2002F033FE09E10E
:103C50001E2C03D10C2002F02DFE03E1192C09D1FA
:103C6000824890F872010028AFD101217F4880F886
:103C70007211F7E00D2CA8D1FFF7E8F97B48C07866
:103C8000012869D17B48007818B17A48007801286A
:103C900032D17948D0E9042042F21073D21A70F17F
:103CA00000000BD21A4600207349C1E904200846DF
:103CB000D0E90463324671A006F096FD6E48D0E963
:103CC00004106A4AD2F854210832684BDB7802EBC0
:103CD000C302C2E900106548D0F854010830634AB5
:103CE000D27800EBC200D0E900636048C178324668
:103CF0006DA006F079FD2FE05F48D0E9041044F68E
:103D00002063C91A70F100000AD2194600225A48ED
:103D1000C0E90412D0E90463324658A006F064FDFD
:103D20005549D1E90401514AD2F8542108324F4B88
:103D3000DB7802EBC30203C24C48D0F854010830D0
:103D40004A4AD27800EBC200D0E900634748C17804
:103D5000324655A006F048FD4448C078022830D1CC
:103D60004548D0E90420584BD21A70F100000BD21C
:103D7000194600224048C0E904120146D1E9046313
:103D8000324652A006F030FD3B49D1E90401374AE2
:103D9000D2F854210832354BDB7802EBC30203C260
:103DA0003248D0F854010830304AD27800EBC202D1
:103DB0002E48C178D2E900633246AFF24C3006F0AB
:103DC00013FD2A48C078032830D12B48D0E90410CD
:103DD000484BC91A70F100000AD21A460020264941
:103DE000C1E90420D1E90463324638A006F0FCFCA6
:103DF0002148D0E904101D4AD2F8542108321B4B47
:103E0000DB7802EBC302C2E900101848D0F8540175
:103E10000830164AD27800EBC2021448C178D2E9C1
:103E200000633246AFF2B83006F0DEFCFF200F49E7
:103E3000C87001F04DF900200C4981F87001002193
:103E40000A4880F8721190F8730101280AD1002005
:103E5000064981F87301012006F0D2F802200349D7
:103E600081F8730100BFFFF700BA00004000002096
:103E7000B0824142B8010020900100205365747463
:103E8000696E672050554C534520746F2050554C37
:103E900053455F4C4F5745525F4C494D4954A3BA67
:103EA000256C6C640D0A0000456E74657231313109
:103EB000312C66506172616D547970653A25642CBD
:103EC000256C6C640D0A0000400D0300536574748A
:103ED000696E67204652455120746F204652455105
:103EE0005F4C4F5745525F4C494D49543A256C6CD5
:103EF000640D0A00A086010000BFFEE71FB5C822BE
:103F0000FE490020FCF72AFEFC48007805287DD0F9
:103F10000020FB4908700120487003F069F9012076
:103F200007F0E6F9F748007A40F00B00F54908720F
:103F3000084690F8300040F00B0081F83000084649
:103F400090F8580040F00B0081F85800084690F8AF
:103F5000800040F00B0081F88000084690F8B00027
:103F600040F01A0081F8B000084690F8D80040F000
:103F70001A0081F8D800084690F8000140F01A00B5
:103F800081F80001084690F8280140F01A0081F8F5
:103F9000280101200870DA48407800F001004870DC
:103FA0000020887181F8A800FF2088700846007AF8
:103FB000487101200522002300901846FCF782FF7B
:103FC00001200090CF480078024600230390102083
:103FD000FCF778FF01200090CA4840780246002391
:103FE00003901120FCF76EFF01200090C5488079F6
:103FF0000246002303901220FCF764FF012000908A
:10400000C04890F8A8000246002300E03FE2039079
:104010001320FCF757FF01200090BA48007A0246AF
:10402000002303901420FCF74DFF01200090B548B9
:10403000807A0246002303901520FCF743FF0120FD
:104040000090B048407A0246002303901620FCF707
:1040500039FF0820AB4910310090D1E90201024636
:104060000B46CDE902011720FCF72CFF0820A549DB
:104070000090D1E9040102460B46CDE902011F2060
:10408000FCF720FF012000909E4890F83000024687
:10409000002303902720FCF715FF0120009099488A
:1040A00090F832000246002303902820FCF70AFF14
:1040B00001200090934890F83100024600230390BD
:1040C0002920FCF7FFFE012000908E4890F8330075
:1040D0000246002303902A20FCF7F4FE08208949B9
:1040E00038310090D1E9020102460B46CDE90201C8
:1040F0002B20FCF7E7FE082082490090D1E90E0151
:1041000002460B46CDE902013320FCF7DBFE082016
:104110007C4938310090D1E9040102460B46CDE9D3
:1041200002013B20FCF7CEFE01200090754890F87C
:1041300058000246002303904320FCF7C3FE0120F1
:104140000090704890F85A000246002303904420E3
:10415000FCF7B8FE012000906A4890F8590002462A
:10416000002303904520FCF7ADFE01200090654838
:1041700090F85B000246002303904620FCF7A2FE65
:10418000012000905F4890F85C00024600230390F5
:104190004720FCF797FE08205A4960310090D1E98A
:1041A000020102460B46CDE902014820FCF78AFED7
:1041B000082000905348416E006E02460B46CDE940
:1041C00002015020FCF77EFE082000904D48416F10
:1041D000006F02460B46CDE902015820FCF772FE43
:1041E0000820484960310090D1E9060102460B469B
:1041F000CDE902016020FCF765FE012000904148F6
:1042000090F880000246002303906820FCF75AFED5
:10421000012000903B4890F8810002460023039063
:104220006920FCF74FFE0820364980310090D1E923
:10423000020102460B46CDE902016A20FCF742FE6C
:10424000012000902F4890F8B00002460023039010
:104250007220FCF737FE012000902A4890F8B20047
:104260000246002303907320FCF72CFE01200090EF
:10427000244890F8B1000246002303907420FCF714
:1042800021FE082000901F48B030416900690246B5
:104290000B46CDE902017520FCF714FE08200090C2
:1042A0001848B030C168806802460B46CDE902016B
:1042B0007D20FCF707FE01200090124890F8D800FE
:1042C0000246002303908520FCF7FCFD01200090AE
:1042D0000C4890F8DA000246002303908620FCF791
:1042E000F1FD01200090074890F8D9000246002314
:1042F00003908720FCF7E6FD012005E0CA030020BB
:10430000E0010020400000200090FE4890F8DB0013
:104310000246002303908820FCF7D4FD082000907B
:10432000F848D8304169006902460B46CDE90201E0
:104330008920FCF7C7FD08200090F248D830C168FA
:10434000806802460B46CDE902019120FCF7BAFDD8
:104350000820EC49E0310090D1E9040102460B4607
:10436000CDE902019920FCF7ADFD01200090E54860
:1043700090F80001024600230390A120FCF7A2FD63
:1043800001200090DF4890F80201024600230390CC
:10439000A220FCF797FD01200090DA4890F8010177
:1043A000024600230390A320FCF78CFD012000901F
:1043B000D44890F80301024600230390A420FCF7A0
:1043C00081FD01200090CF4890F8040102460023AF
:1043D0000390A520FCF776FD08200090CA484169AB
:1043E000006902460B46CDE90201A620FCF76AFDF2
:1043F0000820C5490090D1E9020102460B46CDE9EB
:104400000201AE20FCF75EFD0820BF490831009094
:10441000D1E9040102460B46CDE90201B620FCF7C2
:1044200051FD0820B84908310090D1E90601024643
:104430000B46CDE90201BE20FCF744FD01200090AF
:10444000B04890F82801024600230390C620FCF7EC
:1044500039FD01200090AB4890F829010246002365
:104460000390C720FCF72EFD0820A74928310090B3
:10447000D1E9020102460B46CDE90201C820FCF752
:1044800021FDC822A1490020FCF7A3FB74E2012111
:104490001020FCF7D7FB9B49087001211120FCF785
:1044A000D1FB9849487001211220FCF7CBFB9549BC
:1044B000887101211320FCF7C5FB924981F8A800FF
:1044C00001211420FCF7BEFB8E4908720121152042
:1044D000FCF7B8FBC1B28B48817201211620FCF7B2
:1044E000B1FBC1B28748417208211720FCF7AAFB33
:1044F000844AC2E9060108211F20FCF7A3FB814A78
:10450000C2E9040101212720FCF79CFB7D4981F8C9
:10451000300001212820FCF795FBC1B2794880F8D2
:10452000321001212920FCF78DFBC1B2754880F8BB
:10453000311001212A20FCF785FBC1B2714880F8B7
:10454000331008212B20FCF77DFB6E4AC2E91001D5
:1045500008213320FCF776FB6A4AC2E90E010821E4
:104560003B20FCF76FFB674AC2E91201012143209F
:10457000FCF768FB634981F8580001214420FCF7EF
:1045800061FBC1B25F4880F85A1001214520FCF759
:1045900059FBC1B25B4880F8591001214620FCF755
:1045A00051FBC1B2574880F85B1001214720FCF74E
:1045B00049FBC1B2534880F85C1008214820FCF741
:1045C00041FB504AC2E91A0108215020FCF73AFB8E
:1045D0004C4AC2E9180108215820FCF733FB494A2C
:1045E000C2E91C0108216020FCF72CFB454AC2E906
:1045F0001E0101216820FCF725FB424981F880005B
:1046000001216920FCF71EFBC1B23E4880F88110F1
:1046100008216A20FCF716FB3A4A8032C2E90201FF
:1046200001217220FCF70EFB364981F8B000012110
:104630007320FCF707FBC1B2324880F8B2100121A9
:104640007420FCF7FFFAC1B22E4880F8B11008219F
:104650007520FCF7F7FA2C4A503AC2E90401082108
:104660007D20FCF7EFFA284A503AC2E90201012105
:104670008520FCF7E7FA234981F8D800012186203C
:10468000FCF7E0FAC1B21F4880F8DA100121872058
:10469000FCF7D8FAC1B21B4880F8D9100121882054
:1046A000FCF7D0FAC1B2174880F8DB100821892046
:1046B000FCF7C8FA144A283AC2E9040108219120FB
:1046C000FCF7C0FA104A283AC2E9020108219920F1
:1046D000FCF7B8FA0C4A283AC2E906010121A120E8
:1046E000FCF7B0FA074981F800010121A220FCF78C
:1046F000A9FAC1B2034880F802110121A320FCF7F6
:10470000A1FA05E04000002040010020CA0300207B
:10471000C1B2B24880F801110121A420FCF792FA3D
:10472000C1B2AE4880F803110121A520FCF78AFA36
:10473000C1B2AA4880F804110821A620FCF782FA29
:10474000A74AC2E904010821AE20FCF77BFAA44A7B
:10475000C2E902010821B620FCF774FAA04AC2E9B6
:1047600006010821BE20FCF76DFA9D4AC2E9080146
:104770000121C620FCF766FA984981F82801012139
:10478000C720FCF75FFAC1B2944880F829110821CC
:10479000C820FCF757FA924A2832C2E90201914A2E
:1047A00045238E48183000F02DF98F4A00238B489E
:1047B000103000F027F98B4A45238848403000F03C
:1047C00021F9894A00238548383000F01BF9874ACF
:1047D00009238248483000F015F9824A45237F4872
:1047E000683000F00FF9804A00237C48603000F008
:1047F00009F97E4A09237948703000F003F97C4AB0
:1048000002237648783000F0FDF8774A0023744898
:10481000783800F0F7F8734A45237148403800F0C3
:10482000F1F8744A00236E48483800F0EBF86D4AFE
:1048300045236B48183800F0E5F86E4A00236848B5
:10484000203800F0DFF8694A09236548103800F085
:10485000D9F8644A45236248103000F0D3F8654A1D
:1048600000235F48083000F0CDF8604A09235C4817
:10487000183000F0C7F85E4A02235948203000F093
:10488000C1F85C4A00235648303000F0BBF80020E5
:1048900059490870514840784870012002F0A8FC3E
:1048A000FF204E4988700846407870B3012862D1D5
:1048B0000846807930B101280CD0022813D0032893
:1048C00024D119E04548007A44494871012006F096
:1048D0000FFD1CE0414890F8300040494871042029
:1048E00006F006FD13E03D4890F858003B4948713A
:1048F000072006F0FDFC0AE0384890F880003749B0
:1049000048710A2006F0F4FC01E002E000BF00BF9D
:1049100031E0324890F8A80030B101280DD00228CB
:1049200014D0032824D11AE02C4890F8B0002B4969
:104930004871012006F0DCFC1BE0284890F8D80004
:1049400026494871042006F0D3FC12E0234890F871
:10495000000122494871072006F0CAFC09E01F48FF
:1049600090F828011D4948710A2006F0C1FC00E0BA
:1049700000BF00BF00BF00BF16222049E620FCF7A1
:10498000EDF81E480078032802DD00201B4908705E
:104990001A484078032802DD0020184948700F4863
:1049A000407801280CD11548007815490870134843
:1049B000801C0168426809488030C0E904120BE09D
:1049C0000E4840780E4908700C480A300268416869
:1049D00003482830C0E904211FBD0000400000202A
:1049E0004001002000B864D900B4C40400902F50E6
:1049F0000098D0580048E801E0010020B4030020EE
:104A0000B801002010B5D0E90041141B73EB01017F
:104A100002D200240460446010BD00001FB5FE48AF
:104A200000894EF6602188427EDB012005220023AA
:104A300000901846FCF746FA01200090F7480078ED
:104A40000246002303901020FCF73CFA012000905E
:104A5000F24840780246002303901120FCF732FA16
:104A600001200090ED488079024600230390122037
:104A7000FCF728FA01200090E84890F8A8000246C8
:104A8000002303901320FCF71DFA01200090E34857
:104A9000007A0246002303901420FCF713FA012049
:104AA0000090DE48807A0246002303901520FCF730
:104AB00009FA01200090D948407A02460023039069
:104AC0001620FCF7FFF90820D44910310090D1E9F5
:104AD000020102460B46CDE902011720FCF7F2F96C
:104AE0000820CE490090D1E9040102460B46CDE9E9
:104AF00002011F20FCF7E6F901200090C74890F85A
:104B000030000246002303902720FCF7DBF9012048
:104B10000090C24890F832000246002303902820FB
:104B2000FCF7D0F9012000E0EEE10090BB4890F8DE
:104B300031000246002303902920FCF7C3F901202D
:104B40000090B64890F833000246002303902A20D4
:104B5000FCF7B8F90820B14938310090D1E90201D9
:104B600002460B46CDE902012B20FCF7ABF90820E9
:104B7000AA490090D1E90E0102460B46CDE9020197
:104B80003320FCF79FF90820A44938310090D1E97F
:104B9000040102460B46CDE902013B20FCF792F9E5
:104BA000012000909D4890F8580002460023039091
:104BB0004320FCF787F901200090984890F85A00AC
:104BC0000246002303904420FCF77CF9012000906A
:104BD000924890F859000246002303904520FCF7C4
:104BE00071F9012000908D4890F85B000246002387
:104BF00003904620FCF766F901200090874890F862
:104C00005C000246002303904720FCF75BF9082074
:104C1000824960310090D1E9020102460B46CDE99C
:104C200002014820FCF74EF908207C490090D1E9A8
:104C3000180102460B46CDE902015020FCF742F96B
:104C40000820764960310090D1E9040102460B4604
:104C5000CDE902015820FCF735F908206F49603191
:104C60000090D1E9060102460B46CDE90201602021
:104C7000FCF728F901200090684890F8800002466F
:104C8000002303906820FCF71DF901200090634881
:104C900090F881000246002303906920FCF712F986
:104CA00008205E4980310090D1E9020102460B469E
:104CB000CDE902016A20FCF705F901200090574870
:104CC00090F8B0000246002303907220FCF7FAF837
:104CD00001200090514890F8B20002460023039052
:104CE0007320FCF7EFF8012000904C4890F8B100D9
:104CF0000246002303907420FCF7E4F8082047499B
:104D0000B8310090D1E9020102460B46CDE902011B
:104D10007520FCF7D7F808204049B0310090D1E960
:104D2000020102460B46CDE902017D20FCF7CAF8DC
:104D300001200090394890F8D800024600230390E3
:104D40008520FCF7BFF801200090344890F8DA0085
:104D50000246002303908620FCF7B4F8012000905F
:104D60002E4890F8D9000246002303908720FCF7D4
:104D7000A9F801200090294890F8DB0002460023A2
:104D800003908820FCF79EF808202449E031009029
:104D9000D1E9020102460B46CDE902018920FCF768
:104DA00091F808201D49D8310090D1E9020102464E
:104DB0000B46CDE902019120FCF784F80820174941
:104DC000E0310090D1E9040102460B46CDE9020131
:104DD0009920FCF777F801200090104890F8000126
:104DE000024600230390A120FCF76CF801200090FC
:104DF0000A4890F80201024600230390A220FCF723
:104E000061F801200090054890F801010246002356
:104E10000390A32004E000002007002040000020B1
:104E2000FCF750F801200090384890F80301024642
:104E300000230390A420FCF745F80120009033489C
:104E400090F80401024600230390A520FCF73AF8ED
:104E500008202F490090D1E9020102460B46CDE916
:104E60000201A620FCF72EF80820294908390090F5
:104E7000D1E9020102460B46CDE90201AE20FCF762
:104E800021F8082022490090D1E9040102460B468E
:104E9000CDE90201B620FCF715F808201C49009066
:104EA000D1E9060102460B46CDE90201BE20FCF71E
:104EB00009F801200090154890F8280102460023C7
:104EC0000390C620FBF7FEFF012000900F4890F8EA
:104ED0002901024600230390C720FBF7F3FF0820B7
:104EE0000B4920310090D1E9020102460B46CDE981
:104EF0000201C820FBF7E6FFC82206490020FBF7A5
:104F000068FE0020044908811FBD00004000002009
:104F100048010020CA0300202007002010B50446E5
:104F20000C4951F824104A000B4951F82400002183
:104F300006F090FC094951F824200749083951F836
:104F40002400002106F086FC0121034808300155A9
:104F500010BD000034BE00086403002044BE0008F9
:104F60007047000070B5002100230F22C4781CB3E5
:104F7000174C246804F4E064C4F5E064C4F307212A
:104F8000C1F10404E3B20A4144789C40E1B2847860
:104F9000144021430C07210E0E4C0578615504780E
:104FA00004F01F050124AC4005786D11AD0005F13A
:104FB000E025C5F8004109E0047804F01F0501244C
:104FC000AC40054D0678761145F8264070BD0000CE
:104FD0000CED00E000E400E080E100E00249014364
:104FE000024A1160704700000000FA050CED00E075
:104FF00010B5002807DA0A07140E054A00F00F035F
:105000001B1FD45403E00A07130E024A135410BDA9
:1050100018ED00E000E400E02DE9F04104460D4603
:105020001646012E38D1012C16D1264800780128C9
:1050300008D146F2A81095FBF0F739460120FBF79E
:10504000E1FC3DE046F2A81095FBF0F047423946FE
:105050000120FBF7D7FC33E094BB1A480078012805
:105060000BD14FF47A7095FBF0F7F81707EB5070FF
:10507000C1100220FBF7C6FC22E04FF47A7095FBCA
:10508000F0F7F81707EB5070C010C0F10008414668
:105090000220FBF7B7FC13E096B9012C04D10021E4
:1050A0000120FBF7AFFC04E01CB900210220FBF754
:1050B000A9FC01200449086000200449C1F89402B9
:1050C000BDE8F08140000020800240420080404264
:1050D00010B5504800794F49C97888424ED04D48A4
:1050E000007930B1012813D0022821D003283FD104
:1050F0002EE049A1494805F087FB47A14748733096
:1051000005F082FB44A14548E63005F07DFB30E028
:1051100041A14248163805F077FB3FA13F484B308C
:1051200005F072FB3CA13D48DC3005F06DFB20E052
:1051300039A13A48163005F067FB37A137489B3054
:1051400005F062FB34A13548F03005F05DFB10E05E
:1051500031A132482C3005F057FB2FA12F48C33026
:1051600005F052FB2CA12D48FA3005F04DFB00E074
:1051700000BF00BF2748C078264908712548C0787D
:1051800030B1012813D0022821D003283FD12EE0CE
:1051900021A1224805F038FB1FA12048733005F0FB
:1051A00033FB1DA11D48E63005F02EFB30E01AA1AF
:1051B0001A48163805F028FB17A118484B3005F09F
:1051C00023FB15A11548DC3005F01EFB20E012A1E1
:1051D0001248163005F018FB0FA110489B3005F05F
:1051E00013FB0DA10D48F03005F00EFB10E00AA1F5
:1051F0000A482C3005F008FB07A10848C33005F029
:1052000003FB05A10548FA3005F0FEFA00E000BFF7
:1052100000BF10BD40000020000000001D0600205F
:105220002DE9FF4F87B00D4614461F46DDE9176B89
:10523000DDE9158ADDF85090079809287ED2DFE86D
:1052400000F07D052E475E879EC7EB0004EB09004A
:1052500083B2E81982B2214628460096FDF7B8F9D4
:105260005046FAF7FAFF08EBD871491000FB1170AD
:1052700005EB500080B2CDE90408A9EB0800CDE9A8
:10528000026BCDE9008A069000EBD07004EB600061
:1052900081B24B463A460498FDF716FED7E004EB80
:1052A000090083B2E81982B2214628460096FDF72C
:1052B0008FF904F1140291B205F1140290B24B4639
:1052C0003A46CDE9026BCDE9008AFDF7FDFDBEE06F
:1052D00004EB090083B2E81982B221462846009601
:1052E000FDF776F904F1140081B24B463A462846A0
:1052F000CDE9026BCDE9008AFDF7E6FDA7E044F2B7
:105300002820009004EB090083B2E81982B22146FC
:105310002846FDF75DF904EB09000A3883B2E81965
:10532000283882B204F10A0081B228460096FDF7BF
:105330004FF904F1140081B24B4600E086E03A4692
:105340002846CDE9026BCDE9008AFDF7BDFD7EE080
:1053500004EB090083B2E81982B221462846009680
:10536000FDF736F904F1140081B24B463A4628465F
:10537000CDE9026BCDE9008AFDF7A6FD67E004EBFD
:10538000090083B2E81982B2214628460096FDF74B
:105390001FF9002030A11022CDE9011600920390E0
:1053A00004F1120291B26A1D90B24B463A46FDF7E3
:1053B0008BFD04F10A0291B205F13C0290B24B461A
:1053C0003A46CDE9026BCDE9008AFDF77DFD3EE06E
:1053D00004EB090083B2E81982B221462846009600
:1053E000FDF7F6F85046FAF738FF08EBD871491088
:1053F00000FB117005EB500080B2CDE9050804F107
:105400000A0081B24B463A46CDE9026BCDE9008AEB
:105410000598FDF759FD1AE004EB090083B2E8197D
:1054200082B2214628460096FDF7D2F80CA0102142
:1054300004F11202CDE9026BCDE9001091B26A1DB0
:1054400090B24B463A46FDF73FFD00E000BF00BF7B
:105450000BB0BDE8F08F000054595045207C00008F
:10546000545950453A0000007047000010B5002024
:10547000044908600121880702F003F9002102486D
:10548000817010BD80024042E402002010B501206E
:10549000044908600021800702F0F3F80221024865
:1054A000817010BD80024042E40200202DE9F04FDF
:1054B0002DED068B87B0E4488078002851D100217B
:1054C0000C460D46E0484078012803D1DE48D0E97B
:1054D000064506E0DC48407818B9DB48B030D0E932
:1054E0000445DA48007818B1D848007801280ED170
:1054F000FA22002320462946FAF76CFE401ED449C2
:10550000086008460068A0F11C0008600DE0FA225F
:10551000002320462946FAF75DFE401ECC4908606C
:1055200008460068A0F1480008604FF00100C94932
:1055300008604FF00000C849C1F880024FF00F002A
:10554000FBF726FFC2480268C0480178C3A005F0F7
:105550004BF90021D1488170BD480068FCF780F804
:105560006DE1B9488078012877D1002006460746CA
:1055700004460546B4484078012805D1B248D0E930
:105580001067D0E9124508E0AF48407828B9AE4826
:10559000D830D0E90467D0E90645AC48007818B1A6
:1055A000AA48007801280ED1FA2200233046394655
:1055B000FAF710FE401EA649086008460068A0F1F0
:1055C0001C0008600DE0FA22002330463946FAF745
:1055D00001FE401E9E49086008460068A0F1480090
:1055E00008609B48006832463B46CDE90045029082
:1055F000ABA005F0F9F800BF00BF00BF4FF01409E1
:105600004FF47A72002320462946FAF7E3FD044658
:105610000D4620462946FBF704F841EC190B53ECE4
:10562000192B9FEDA90B51EC100BFAF75CFF41EC25
:10563000180B9FEDA70B53EC102B51EC180BFAF73E
:1056400052FF9FEDA50B53EC102BFAF7D4FEFBF79E
:1056500013F8804653EC182B00E029E0A0A0CDF809
:10566000008005F0C1F87A480068404502D97848C2
:10567000C0F8008001207749086000207649C1F811
:1056800080020F20FBF784FE714802686F480178A2
:10569000984805F0A9F81FFA89F1404602F099F8F8
:1056A00000217E4881700121880701F0EAFFC6E0F1
:1056B000654880780228FAD1002080468146044659
:1056C000054600210E460F465F484078012807D165
:1056D0005D48D0E91A89D0E91C45D0E91E670DE084
:1056E0005948407850B95848D0F81491D0F81081F2
:1056F00000F58070D0E90645D0E908675348007886
:1057000018B15248007801280ED1FA2200234046F1
:105710004946FAF75FFD401E4D490860084600689B
:10572000A0F11C0008600DE0FA2200234046494623
:10573000FAF750FD401E4649086008460068A0F18F
:10574000480008604248CDE90467006842464B467D
:10575000CDE90045029068A005F046F800BF00BF03
:1057600000BF142006904FF47A7200232046294689
:10577000FAF730FD04460D4620462946FAF751FF58
:1057800041EC190B53EC192B9FED4F0B51EC100B07
:10579000FAF7A9FE41EC180B9FED4D0B53EC102BC3
:1057A00051EC180BFAF79FFE9FED4B0B53EC102BAF
:1057B000FAF721FEFAF760FF824625480068504557
:1057C00002D92348C0F800A04FF47A700021A6FB4C
:1057D000002B07FB00B001FB06011046FAF721FF82
:1057E00053EC182BFAF77FFEFAF746FF5049086092
:1057F0000846006853EC182BCDE900A04DA004F03A
:10580000F3FF01201349086000201349C1F880020A
:105810000F20FBF7BDFD0E4802680C4801784EA032
:1058200004F0E2FF069881B2504601F0D2FF002159
:105830001A4881700121880701F023FF00BF07B0DB
:10584000BDEC068BBDE8F08F40000020B8010020C1
:1058500078030020B08242420000404253494E4744
:105860004C4554524947474552204D6F64652C536F
:10587000575F43565F4F5554505554203D20312CAF
:10588000576176655F747970653D25642C74696D28
:10589000355F6172723D25640D0A0000E40200204C
:1058A00070756C73653D256C6C646E732C667265E7
:1058B000713D256C6C646D687A2C74696D355F611F
:1058C00072723D25640D0A00000000A2941A6D4218
:1058D0000000000000406F40000000000000F03FAA
:1058E000543D256C662C74696D325F6172723D2582
:1058F000640D0A0050D6000870756C73653D256C08
:105900006C646E732C667265713D256C6C646D6899
:105910007A2C74696D355F6172723D25642C6475F3
:10592000726174696F6E3D256C6C640D0A00000035
:1059300080030020543D256C662C74696D325F61D4
:1059400072723D25642C747261696E5F61636F755C
:105950006E743D25640D0A00554F5F4D4F44455F01
:10596000545241494E204D6F64652C53575F435646
:105970005F4F5554505554203D20312C576176656A
:105980005F747970653D25642C74696D355F617253
:10599000723D25640D0A000010B5FBF705FD0021DE
:1059A0004FF0804001F06DFE00204FF080414862D2
:1059B00001210848817000210320FBF723F8002013
:1059C0000549086001200549C1F88002002004490A
:1059D000086010BDE4020020B08242420000404254
:1059E000300300202DE9F0472DED028B04464FF0E7
:1059F00000099FED4C0AB0EE408AE06818B1E168FA
:105A0000002005F001FF48480078401C00EB8000B2
:105A10004100002005F00AFFE060E06820B90520A1
:105A2000BDEC028BBDE8F0873F484078012829D1C2
:105A30003D48806B20603C493831D1E904714FF416
:105A40007A7200233846FAF7C5FB0546FAF7BAFD25
:105A500008EE100A34493831D1E902211046FAF72C
:105A6000B1FD00EE100A20EE080ADFED300A20EE4C
:105A7000200ADFED2F0A80EE201ABCEEC10A10EEDC
:105A8000109A29E02848D0F8E00020602649E0314B
:105A9000D1E904514FF47A7200232846FAF79AFBB1
:105AA0000746FAF78FFD08EE100A1F49E031D1E9E9
:105AB00002211046FAF786FD00EE100A20EE080AD1
:105AC000DFED1A0A20EE200ADFED190A80EE201A17
:105AD000BCEEC10A10EE109A206808B901209FE7B9
