:020000040800F2
:1000000088460020B1010008915100082D15000814
:1000100041400008E90C0008BBAE000800000000E9
:10002000000000000000000000000000096A000855
:10003000E50D00080000000099560008E977000867
:10004000CB010008CB010008CB010008CB01000860
:10005000CB010008CB010008290E0008CB010008E5
:10006000CB010008CB010008CB010008CB01000840
:10007000CB010008CB010008CB010008CB01000830
:10008000CB010008CB010008CB010008CB01000820
:10009000CB010008CB010008CB010008CB01000810
:1000A000CB010008CB010008CB010008CB01000800
:1000B000C978000821790008CB010008CB010008AD
:1000C000CB010008CB010008CB010008CB010008E0
:1000D000CB010008CB010008CB010008CB010008D0
:1000E00005100008CB010008CB010008CB01000877
:1000F000CB010008CB010008CB010008CB010008B0
:10010000CB010008CB01000871790008CB01000881
:10011000CB010008CB0100085D7B0008CB01000883
:10012000CB010008CB010008CB010008CB0100087F
:10013000CB010008CB010008CB010008CB0100086F
:10014000CB010008CB010008CB010008CB0100085F
:10015000CB010008CB010008CB01000875AC0008FA
:10016000CB010008CB010008CB010008CB0100083F
:10017000CB010008CB010008CB010008CB0100082F
:10018000CB010008CB010008DFF810D000F00AFC1A
:100190000048004765C00008AFF300808846002093
:1001A00030BF72B6704762B6704780F308887047F8
:1001B0000648804706480047FEE7FEE7FEE7FEE701
:1001C000FEE7FEE7FEE7FEE7FEE7FEE761780008F0
:1001D000890100082DE9F05F0546002092469B4604
:1001E00088460646814640241BE02846414647464D
:1001F000224600F0A0FA53465A46C01A914110D345
:1002000011461846224600F087FA2D1A67EB0108BE
:100210004F4622460120002100F07EFA17EB00092C
:100220004E41201EA4F10104DFDC484631462A4637
:100230004346BDE8F09FD2B201E000F8012B491E11
:10024000FBD270470022F6E710B513460A46044673
:100250001946FFF7F0FF204610BD421C10F8011BA5
:100260000029FBD1801A704710B5002200E0521C13
:10027000835C8C5CA34201D1002BF8D1D8B2E1B2EF
:10028000401A10BD034611F8012B00F8012B002A7B
:10029000F9D11846704730B505460020034600E006
:1002A0005B1C934205D2EC5CC85C201A01D1002C87
:1002B000F6D130BD2DE9FE4F804681EA0300C00F24
:1002C0000C46009021F0004123F00045B8EB0200FD
:1002D000A94105D24046214690461C460B4602469F
:1002E00023F00040104347D0270DC7F30A00C3F3A3
:1002F0000A510290401A019040286BDAC3F31300B0
:1003000040F4801B0098924620B10023D2EB030AF0
:1003100063EB0B0B01985946C0F14002504600F0C8
:10032000FBF906460D4650465946019A00F013FA6D
:1003300010EB08006141002487EA115284EAE77358
:100340001A4340D0009A62B3019A012A4FEA075239
:1003500015DC001B61EB02014FF0004202EA07527C
:10036000CDE90042001C41F5801132462B4600F0D9
:100370004AFA03B0BDE8F08F40462146F9E7001B7A
:1003800061EB0201001C41F5801300185B4120184D
:10039000A2F5001747EB030140EAD570B6196D418D
:1003A00011E06D084FEA360645EAC0754FEA07527C
:1003B000001B61EB0201001C41F5801149084FEA66
:1003C00030000019514132462B4603B0BDE8F04FD2
:1003D00000F00ABA0098012240000023D0EB02028C
:1003E00063EBE073009821464FEAE074B8EB00003D
:1003F00061EB0401E9E783F000435BE781F0004132
:1004000058E72DE9FE4F81EA030404F0004421F08F
:10041000004100944FF0000B23F0004350EA010428
:100420005ED052EA03045BD0C3F30A54C1F30A5509
:100430002C44A4F2F3340194A0FB0254C1F3130141
:1004400041F48011C3F3130343F4801301FB02440E
:1004500000FB034E840A970A44EA815447EA835713
:10046000A4FB076802958D0A05FB07854FEA932CCC
:1004700004FB0C542705029D4FEA065847EA16373D
:10048000B5EB08056EEB070C870E920E47EA811755
:1004900042EA8312A7FB0201B6EB0B0164EB0004F6
:1004A0002B0D43EA0C335E1844EB1C50DA465146E0
:1004B000E7FB0201C5F313044FEA0B3343EA14537D
:1004C0004FEA0432019C43EA0603A4F10C040294AF
:1004D000009CCDE900B400F096F903B0BDE8F08FC0
:1004E00000200146F9E72DE9F04D81EA030404F00C
:1004F000004B21F0004514464FF0000A23F0004164
:1005000050EA050220D054EA01021DD0C5F30A5773
:100510000246C5F31303C1F31300C1F30A5640F4B6
:10052000801543F48013A7EB0608101BD64608F28B
:10053000FD3873EB050002D308F1010801E09218C1
:100540005B41B8F1000F03DA00200146BDE8F08DF1
:1005500000204FF48011064684460EE0171B73EB13
:10056000050705D3121B63EB050306434CEA010C98
:1005700049084FEA300092185B4150EA0107EDD17B
:1005800052EA030012D082EA040083EA050108431C
:1005900005D0101BAB4106D20122002306E0002249
:1005A0004FF0004302E06FF0010253101AEB060017
:1005B0004CEB085110EB0A0041EB0B01BDE8F04D8C
:1005C00000F012B930B4044696230800214604D046
:1005D000B62330BC002200F0D9B820460021F8E74D
:1005E0000EB5C10F80EAE0700844CA07002140F24E
:1005F00033438DE80E000A460B4600F004F903B0C1
:1006000000BD0EB540F2334102910021CDE9001149
:100610000A460B4600F0F7F803B000BD3EB5CA1716
:10062000CB0F002450405140C0186141DA0740F21E
:1006300033430094CDE901232246234600F0E3F83A
:1006400003B030BD0EB540F2334202920022CDE934
:100650000022134600F0D7F803B000BDC1F30A52E0
:1006600010B5C1F3130140F2FF3341F480119A42F7
:1006700001DA002010BD40F233439A42A2F2334225
:1006800003DC524200F057F810BD904010BD00F05E
:10069000004230F000400AD0C10D01F56071C0F396
:1006A000160042EA0151C20840071143704700207A
:1006B0000146704701F0004330B421F0004150EA98
:1006C000010206D00A0DA2F56072C1F31301002ADF
:1006D00002DC30BC00207047440F44EAC104C10072
:1006E000E01830BC00EBC25000F047B830B50B4604
:1006F000014600202022012409E021FA02F59D4252
:1007000005D303FA02F5491B04FA02F52844151E25
:10071000A2F10102F1DC30BD202A04DB203A00FA0C
:1007200002F1002070479140C2F1200320FA03F348
:10073000194390407047202A04DB203A21FA02F046
:100740000021704721FA02F3D040C2F1200291400B
:10075000084319467047202A06DBCB17203A41FA96
:1007600002F043EAE07306E041FA02F3D040C2F13E
:10077000200291400843194670470029A8BF7047DE
:10078000401C490008BF20F00100704710B4B0FAC7
:1007900080FC00FA0CF050EA010404BF10BC704762
:1007A00049B1CCF1200421FA04F411FA0CF118BF7C
:1007B000012121430843A3EB0C01CB1D4FEA00614B
:1007C0004FEA102042BF002010BC704700EBC3501E
:1007D00010440029A4BF10BC7047401C490008BF4A
:1007E00020F0010010BC704710B5141E73F1000416
:1007F00008DA401C41F1000192185B411A4301D113
:1008000020F0010010BD2DE9F04D92469B4611B13C
:10081000B1FA81F202E0B0FA80F220329046FFF79E
:100820007BFF04460F4640EA0A0041EA0B015346AB
:100830005A46084313D0114653EA010019D0C8F1B3
:1008400040025046FFF777FF05460E465046594690
:100850004246FFF761FF084305D0012004E020462F
:100860003946BDE8F08D0020054346EAE0762C438A
:1008700037430A986305E40AA0EB08000022FD0A4A
:1008800044EA47540A3002D500200146E9E7010551
:1008900010196941DDE9084500196941BDE8F04DCD
:1008A000A2E72DE9F04D00231A461B1A8A4103DB0B
:1008B00000200146BDE8F08DC1F30A52C1F31301D7
:1008C00041F480154FF0000BD10702D100186D41A3
:1008D000521E0027044640F2FF11384601EB620A1F
:1008E0003E468046024600204FF48011FFF723FF6A
:1008F000C2197141BB1846EB0100B4EB030C75EB58
:10090000000C04D3E41A65EB000517460E462419C3
:1009100008F101006D4180463428E3DDF91946EB0A
:100920000600091BA84103D24FF0FF32134601E035
:10093000002213461BEB070046EB0A51BDE8F04DC1
:10094000FFF752BFC1F30A52C1F3130140F2FF3364
:1009500041F480119A4202DA00200146704740F2C9
:1009600033439A42A2F2334202DC5242FFF7E3BE23
:10097000FFF7D2BE30B5041E71F1000404DB4FF066
:100980000044404264EB0101141E73F1000405DBD6
:100990001C464FF00043524263EB0403994208BFE8
:1009A000904230BD064C074D06E0E06840F0010380
:1009B00094E8070098471034AC42F6D3FFF7E8FB01
:1009C00088E30008A8E3000870B58C1810F8015BF4
:1009D00015F0070301D110F8013B2A1106D110F8D8
:1009E000012B03E010F8016B01F8016B5B1EF9D1DC
:1009F0002B0705D40023521E0DD401F8013BFAE762
:100A000010F8013BCB1A921C03E013F8015B01F8CC
:100A1000015B521EF9D5A142D8D3002070BD70B53C
:100A200005460C46012D04D12046E11700F014F8CC
:100A300010E0022D04D12046E11700F04FF809E044
:100A4000032D07D12046E11700F006F82046E117F4
:100A500000F044F870BD000070B52DED088B054620
:100A60000E4628463146FFF7D9FD9FED150B53EC96
:100A7000102BFFF7C6FC9FED140B53EC102BFFF768
:100A800019FC9FED130B53EC102BFFF713FCFFF732
:100A9000E5FD84B210201049088304204883201209
:100AA00005F0AAFEE0B205F0A7FE10200A4948832F
:100AB0000420088308200883BDEC088B70BD00006B
:100AC0000000000000002040000000000000E03FA7
:100AD00000000000C0FFDF400000024070B52DEDB7
:100AE000088B05460E4628463146FFF797FD9FEDD9
:100AF000150B53EC102BFFF784FC9FED140B53ECFC
:100B0000102BFFF7D7FB9FED130B53EC102BFFF7C8
:100B1000D1FBFFF7A3FD84B2102010490883082001
:100B20004883201205F068FEE0B205F065FE102053
:100B30000A4948830420088308200883BDEC088BF9
:100B400070BD000000000000000020400000000018
:100B50000000E03F00000000C0FFDF400000024056
:100B600010B500F00DFD10BD70B506460C461546DB
:100B70000AE00AF073FA3046721C96B200F007F8E9
:100B800004F8010B681E85B2002DF2D170BD70B55E
:100B90000446002600F0A6FDA02000F06FFD00F046
:100BA000EDFD201200F06AFD00F0E8FD2546E1179A
:100BB00004EB11610912A4EB0121C8B200F05EFD43
:100BC00000F0DCFD00F08EFDA12000F057FD00F0EC
:100BD000D5FD002000F020FD064600F0A9FD3046BE
:100BE00070BD70B505460C46164608E00AF036FAA8
:100BF0002178284600F009F8681C85B2641C301E74
:100C0000A6F101018EB2F1D170BD70B504460E4659
:100C100000F068FDA02000F031FD00F0AFFD2012D3
:100C200000F02CFD00F0AAFD2546E11704EB116150
:100C30000912A4EB0121C8B200F020FD00F09EFDD6
:100C4000304600F01BFD00F099FD00F071FD0A2018
:100C500000F0CAF870BD00001CB50121202005F08D
:100C600029FC0121402005F025FC01208DF804001D
:100C700000208DF8060003208DF8050001208DF876
:100C80000700202000906946014800F075FB1CBD5C
:100C9000001802401CB50AF033FF0121042005F0C2
:100CA00009FC3F20009000208DF8040001208DF801
:100CB000070069460B4800F05FFB4FF47C60009032
:100CC00001208DF8040000208DF8060003208DF827
:100CD000050001208DF807006946024800F04CFB32
:100CE0001CBD00000008024000BFFEE770B50246D0
:100CF0004FF6FF70002313E012F8015B68400024F8
:100D00000AE000F0010525B14AF2010585EA60001C
:100D100000E04010651CECB2082CF2DB5D1CEBB26D
:100D20008B42E9DB70BD000000B585B001210220D7
:100D300005F0C0FB0121880305F0FCFB4FF4604087
:100D4000039000208DF8100001208DF8130003A9F6
:100D5000234800F011FB0D21012005F057FE0F2163
:100D6000012005F053FE4FF40050009000208DF854
:100D7000040010208DF8050001208DF8060068465B
:100D800000F096F928208DF8080003208DF809005E
:100D90008DF80A0001208DF80B0002A804F0FAF982
:100DA0004FF40040009000208DF8040010208DF8D2
:100DB000050001208DF80600684600F079F928202A
:100DC0008DF8080003208DF809008DF80A00012035
:100DD0008DF80B0002A804F0DDF905B000BD00009D
:100DE000000402407047000001B504490098086003
:100DF00000BF024800680028FBD108BD0C0000209D
:100E000010B50021074806F0D8FE0020054924311E
:100E1000086004492C3108604FF6FE70014910311A
:100E2000088010BD000C004070B5012000F034F9BE
:100E3000002877D068488078032875D16748007803
:100E400018B16648007801286ED1634840780128BF
:100E500006D16148D0F8880061494968086008E017
:100E60005D48407828B95C48D0F830015C49496851
:100E7000086002200BF069FE5A480068012835D14D
:100E800000205949086001205849C1F8800200211A
:100E90005748817001205749087000205649086062
:100EA00055482438008840F001005349243908800F
:100EB0004A48007840B94A4A52681168464A507810
:100EC000012204F0C1F908E0454A52681268514213
:100ED000414A5078012204F0B7F93F484078002891
:100EE00076D14FF400404549088071E03D480068E4
:100EF00000286DD13848407820B94FF400403F4970
:100F0000891C0880344948780122002104F09CF9AA
:100F100001203549086000203449C1F88002354974
:100F2000087055E057E0FFE72B48807803284FD141
:100F30002A480078022803D028480078032847D19F
:100F400005200BF002FE27480068012840D100244C
:100F5000002521484078012809D11F48D0F8880091
:100F60001F49496808601C48D0F890500BE01A48A7
:100F7000407840B91848D0F83001194949680860EC
:100F80001548D0F8385115B301201D490860FA20E2
:100F9000B5FBF0F0441E483C0020134908600120D6
:100FA0001249C1F8800200211148817001201149C5
:100FB00008700020104908600F482438008840F06D
:100FC00001000D4924390880204600F0BBF800BF1D
:100FD000012000F05BF870BD48000020C001002037
:100FE000A0020020008240428002404200004242B3
:100FF00084020020DC020020240400401814024077
:10100000EC01002010B51B48006800F4005080B3CC
:1010100064200AF0C5FD184800681849D1F8381254
:1010200088420DD016480078401C154908701548B4
:10103000007890B113480078401E124908700CE007
:1010400010480078401C0F4908700D48007820B106
:101050000B480078401E0A4908700B48408910B9B7
:101060000120094948810348006840F400500149C3
:10107000086010BD143C0140348240420080404270
:10108000E4020020E5020020C806002001490860B3
:1010900070470000143C014001460020034A1268DA
:1010A0000A400AB1012000E000207047143C0140D2
:1010B000002123498279002A3AD00A46126803683F
:1010C0009A430B461A600A1D126803689A430B1D67
:1010D0001A60027911440A6803681A430A60184AC0
:1010E0000832126803689A43154B08331A601A1DB8
:1010F000126803689A43124B0C331A604279102A23
:101100000ED11A1F126803681A430D4B08331A6078
:101110001A1D126803681A43094B0C331A600DE05C
:101120000749427911440A6803681A430A6005E0D6
:10113000027911440A6803689A430A607047000004
:10114000003C014070B5044600252E48007840B9A7
:101150002D4A526811682D4A5078012204F074F823
:1011600023E028480078012809D1274A52681268EC
:101170005142264A5078012204F066F815E02148D1
:101180000078022808D1204A526811681F4A507816
:10119000012204F059F808E01B4A526812685142D3
:1011A0001A4A5078012204F04FF81848407838B9AC
:1011B00016488078032803D14FF400401449088072
:1011C00010480078012801DC651C01E0601C45081E
:1011D0001048056000200F49083908604FF6FE707E
:1011E0000C491C3908800B482C38008840F001005D
:1011F00008492C3908800120074908600749086020
:1012000070BD0000C0010020A002002048000020A6
:10121000181402402C0C004084824042D00200206E
:1012200051B18200A2F1C042126842F00103820073
:10123000A2F1C042136009E08200A2F1C04212682C
:10124000034B1A408300A3F1C0431A6070470000AB
:10125000FEFF0F0030B50021002200230468A40027
:10126000A4F1C0442168424C2140D0E901452C43FF
:10127000C5682C4305692C4345692C4385692C437B
:10128000C5692C43056A2C43456A2C43856A2C4367
:10129000C56A2C43056B2C4321430468A400A4F1C8
:1012A000C04421608468082C0BD10468A400A4F118
:1012B000C044246844F040050468A400A4F1C0447C
:1012C00025600468641CA400A4F1C044226802F0F4
:1012D0004042446B2468456B6D6844EA0514456BD5
:1012E000AD6844EA0524456BAD8944EA0544456B85
:1012F0002D8A44EA0554456B2D7D44EA0564456B0F
:10130000AD692C4322430468641CA400A4F1C044CA
:101310002260C46AB4F5804F20D10468A400A4F10F
:10132000C044D4F80431134C2340846B2468856B8B
:101330006D6844EA0514856BAD6844EA0524856B45
:10134000AD8944EA0544856BAD692C4323430468A9
:10135000A400A4F1C044C4F8043107E06FF0704564
:101360000468A400A4F1C044C4F8045130BD0000D6
:101370008000F7FF0000F0CFF0B50A4600210023FF
:10138000002400BF3DE0012505FA01F3156805EAD8
:1013900003049C4234D105684F000326BE40B54388
:1013A000056015794E00B54006683543056015792E
:1013B000012D02D01579022D16D185684F00032624
:1013C000BE40B543856055794E00B54086683543CB
:1013D0008560456801268E40B5434560456896792D
:1013E0008E40B6B235434560C5684F000326BE4007
:1013F000B543C560D5794E00B540C6683543C56074
:10140000491C1029BFD3F0BDF0B5002300244D07BF
:10141000ED0E02FA05F3CE1000F1200555F8265026
:101420004E07F70E0F26BE40B543CF1000F1200641
:1014300046F82750CE1000F1200555F8265045EA11
:101440000304CE1000F1200545F82640F0BD41838D
:1014500070470183704742694A404261704700000B
:1014600070B52DED088B054600249FED1E0AB0EEE9
:10147000408A0021284605F023F90446B4F5004FC0
:1014800011DA2046FFF7BDF841EC1A0B9FED160B61
:1014900053EC102BFEF7B5FF41EC190BFFF70AF9DF
:1014A00008EE100A19E0E043401CFFF799F841EC00
:1014B0001B0B9FED0D0B53EC102BFEF7A2FF41EC25
:1014C0001A0B9FED0B0B53EC102BFEF797FF41EC23
:1014D000190BFFF7EFF808EE100AB0EE480ABDEC62
:1014E000088B70BD00000000000000000000803F7D
:1014F000000000000000000010B509F0AFFD16224A
:101500000949E620FFF730FB09F0A8FD0648D0F8AE
:101510001200401C0449C1F812001622E620FFF711
:1015200060FB09F09BFD10BD4803002000BFFEE7F3
:1015300010B500200F4908600F48006820F44000F3
:101540000D4908600846006840F4800008600020EB
:101550000A49C1F8AC0204200AF022FB0120054927
:10156000086004200AF01CFB00200449C1F8A8020E
:1015700010BD0000A88240420004024000804042AA
:101580001CB50121022004F095FF4FF4406000904B
:1015900001208DF804008DF8060003208DF8050069
:1015A00001208DF8070069460448FFF7E5FE012099
:1015B000034908600349C1F8A8021CBD00040240A9
:1015C000AC8240420080404210B500200F490860C4
:1015D0000F48006820F440000D4908600846006884
:1015E00040F48000086001200A49C1F8AC020420E0
:1015F0000AF0D6FA01200549086004200AF0D0FA62
:1016000000200449C1F8A80210BD0000A882404291
:10161000000402400080404270B505460024144892
:10162000006820F4400012490860002616E00020FF
:101630001049086004200AF0B3FA01200E49C1F8ED
:10164000A8026006040E0B487C38006808B1601CD4
:10165000C4B202200AF0A4FA701CC6B2082EE6DB5F
:1016600015B9FFF7B1FF01E0FFF762FF204670BD3B
:1016700000040240A88240420080404270B5044607
:101680001548006820F440001349086008460068C7
:1016900040F480000860002010490860002517E031
:1016A000E0090E49091D08606006040E04200AF0D6
:1016B00077FA01200A49C1F8A80204200AF070FA5A
:1016C00000200649086004200AF06AFA681CC5B2C6
:1016D000082DE5DB70BD000000040240A8824042F6
:1016E0000080404210B50F48006820F440000D49CA
:1016F00008600846006840F48000086001200A493C
:1017000008600A49C1F8A80208200AF049FA002036
:101710000549086008200AF043FA00200349C1F88F
:10172000A80210BD00040240AC824042008040424A
:1017300010B50F48006820F440000D4908600846C5
:10174000006840F48000086000200A4908600A49E7
:10175000C1F8AC0208200AF023FA0120054908600C
:1017600008200AF01DFA01200349C1F8AC0210BD9F
:1017700000040240A88240420080404210B500248C
:101780001248006820F44000104908600120104908
:10179000086002200AF004FA01200E49C1F8A802EC
:1017A00002200AF0FDF907E0601CC4B2FA2C03DD48
:1017B000FFF7BEFF012010BD0548803800680028F3
:1017C000F2D10349091F086000BFF4E7000402409A
:1017D000AC824042008040421CB50121084604F022
:1017E00069FE0121022004F065FE0121042004F0BD
:1017F00061FE0121082004F05DFE0121102004F0AB
:1018000059FE0121202004F055FE0121402004F062
:1018100051FE4FF400406F49088048F240000090AC
:1018200001208DF8040000208DF8060003208DF8BB
:10183000050001208DF8070069466748FFF79CFD09
:101840004020009001208DF8040000208DF8060053
:1018500003208DF8050001208DF8070069465F48D8
:10186000FFF78AFD0820009069465A481A38FFF7AA
:1018700083FD4FF40C40009069465948FFF77CFD0A
:101880000C215548FFF7E5FD4FF400415248FFF7A2
:10189000DEFD41F60110009001208DF804000020CB
:1018A0008DF8060003208DF8050001208DF8070053
:1018B00069464948FFF760FD4FF430700090012001
:1018C0008DF8040000208DF8060003208DF8050037
:1018D00001208DF8070069464248FFF74DFD4FF49F
:1018E0008050009001208DF8040000208DF8060043
:1018F00003208DF8050001208DF8070069463A485D
:10190000FFF73AFD43F24C00009001208DF80400EF
:1019100000208DF8060003208DF8050001208DF8C9
:10192000070069463148FFF727FD4F20009001204E
:101930008DF8040000208DF8060003208DF80500C6
:1019400001208DF8070069462448FFF715FD48F28D
:101950000100009001208DF8040000208DF80600A1
:1019600003208DF8050001208DF80700694619480D
:101970001A38FFF701FD00201D4908601D49C1F814
:1019800080021B49091D086001201B490860091DD0
:101990000860091D0860091D086018490860184999
:1019A0000860174910310860091F086010490C31A0
:1019B000086012492C390860091D08600F491C395C
:1019C00008600E49091F08600E490860C0030149FC
:1019D00008801CBD1A1402400000024000100240A2
:1019E000001802400004024000080240000C0240BF
:1019F000988240420000404280024242B48241420A
:101A0000A0024042808242422DE9FC47002700208C
:101A10000090019080468146002400254FF4A0608C
:101A200003F0F4FB00F032FAFFF7D6FE4FF4E1309A
:101A300009F046FA09F012FB87A009F019FB874864
:101A400009F016FB86A009F013FB09F007FB042040
:101A50000AF0C8F80AF022F901F084FB4FF4E131F2
:101A600083A009F005FB0520FFF7BEF909F0F6FA9F
:101A700008208A4908808AA009F0FAFA8FA009F0A4
:101A8000F7FA9620FFF7B0F909F0E8FA01F09AFAB0
:101A900095A009F0EDFAFFF7DFF897A009F0E8FA52
:101AA000FFF72AFD9848D0F8121098A009F0E0FA44
:101AB0000AF084F909F0D2FAFFF7ECF898A009F0DF
:101AC000D7FA04F029FE00210320FEF7A8FF98A012
:101AD00009F0CEFAFFF728F9A0A009F0C9FA09F039
:101AE000BDFA06F08BFB06F001FCA1A009F0C0FADC
:101AF000002003F02BFB05F04FFE09F0AFFA0AF0CF
:101B0000D7F99FEDA20A06F00FFA06F0C1FA00F02D
:101B10003DFB09F0A3FA9EA009F0AAFA4FF4FA706F
:101B2000FFF762F909F09AFA00F056FC9C488188A8
:101B30009CA009F09DFA4FF4FA70FFF755F909F0EF
:101B40008DFAFFF70DF89EA009F092FA0AF096FFC1
:101B500009F084FA3220FFF747F902F073FA9DA0EA
:101B600009F086FA09F07AFA08F07CF909F076FAB9
:101B700040F2E73453252946204606F0A7F999A0FC
:101B800009F076FA2A4621469BA009F071FA601CFA
:101B9000691C10FB01F090FBF1F631469CA009F0A6
:101BA00067FA09F05BFA142142F20F7006F060F94F
:101BB00042F2CF01204606F02DF93220FFF714F94A
:101BC00009F04CFA0020994908609948007818B14A
:101BD00097480078012802D106F010FB01E006F0DA
:101BE00049FB09F03BFA0020924908600120924924
:101BF000C1F880028F49091D086000208F490860E4
:101C0000091D0860091D0860091D08608C490860ED
:101C10008C4908608B4910310860091F08608549AC
:101C20000C31086086492C390860091D0860844918
:101C30001C3908608249091F08607C4930390860F6
:101C400002230322114680A009F012FA85A009F0B0
:101C50000FFABDE8FC8700000D0A000044E300080D
:101C60004D4355205374617274210D0A0000000029
:101C700044656267755F5561727420696E6974208E
:101C80004F4B21206261756420726174653D25644B
:101C9000206269742F730D0A0D0A000018140240A7
:101CA000416E676C6F6720706F7765722068617333
:101CB000206F70656E210D0A000000005761697485
:101CC00020666F7220616E616C6F6720706F776540
:101CD0007220746F2073746162696C697A652E2E4C
:101CE0002E2E2E2E210D0A004C45445F496E69743C
:101CF000204F4B210D0A0000426565705F496E69F7
:101D000074204F4B210D0A00480300204D43555FBE
:101D1000504F525F54696D65733A25640D0A000097
:101D200042746E5F496E6974204F4B210D0A0000AA
:101D30004144353534325F496E6974204F4B2C5322
:101D4000657420414435353432204F757470757494
:101D500020746F207A65726F210D0A00436F6465ED
:101D6000635F496E6974204F4B210D0A000000002B
:101D7000547269676765724578494E31325F496EC2
:101D80006974204F4B210D0A000000000000000084
:101D90005265736574204C4344210D0A0000000015
:101DA000204200204C4344204F4B21204C434444CC
:101DB00045565F49443D307825780D0A0000000003
:101DC000415432344358585F496E6974204F4B2157
:101DD0000D0A000047657420506172204F4B0D0AB8
:101DE00000000000496E69742054696D65723620E8
:101DF0004F4B210D0A00000054696D657236204179
:101E000052523D25642C5053433D25640D0A000079
:101E100054696D657236204F766572666C6F775FB8
:101E200074696D653D256475730D0A00B082424288
:101E3000C00100209882404200004042800242429D
:101E4000B4824142A0024042736F6674776172654A
:101E50005F76657273696F6E3A25642E25642E2550
:101E6000640D0A00486172647761726520696E6969
:101E700074204F4B21205379732072756E6E696EFA
:101E8000672E2E2E2E2E2E0D0A0D0A0010B510488C
:101E900000684FF47A71B0FBF1F4601EB0F1807FFE
:101EA00000D30FE0601E4FF0E02148610F214FF09A
:101EB000FF3003F0B5F900204FF0E02188610720E2
:101EC000086100BF0021481E03F0AAF910BD000000
:101ED000300300200146062935DA0020A94A1060A7
:101EE0000120A94AC2F89C02A64A08321060121DBD
:101EF0001060121D1060A44AC2F8AC02A1489838C4
:101F0000006808B9002070479E489438006808B9F6
:101F10000120F8E79B489038006808B90220F2E7F2
:101F200098488C38006808B90320ECE79548883851
:101F3000006808B90420E6E7924884380068002861
:101F400073D10520DFE70C2936DA01208D4A1060B5
:101F500000208D4AC2F89C0201208A4A0832106093
:101F6000121D1060121D1060874AC2F8AC0285482D
:101F70009838006808B90620C5E782489438006898
:101F800008B90720BFE77F489038006808B90820E3
:101F9000B9E77C488C38006808B90920B3E779486C
:101FA0008838006808B90A20ADE7764884380068A8
:101FB0000028C5D10B20A6E7122937DA0120714A83
:101FC0001060714AC2F89C0200206E4A083210600C
:101FD0000120121D1060121D10606B4AC2F8AC0285
:101FE00068489838006808B90C208CE76548943830
:101FF000006808B90D2086E762489038006808B983
:102000000E2080E75F488C38006808B90F207AE717
:102010005C488838006808B9102074E7594884384B
:10202000006800288CD111206DE7A1E0182936DA6C
:102030000120544A1060544AC2F89C02514A0832A6
:1020400010600020121D10600120121D10604E4A09
:10205000C2F8AC024B489838006808B9122052E721
:1020600048489438006808B913204CE74548903830
:10207000006808B9142046E742488C38006808B95F
:10208000152040E73F488838006808B916203AE72D
:102090003C4884380068002871D1172033E71E2996
:1020A00035DA0120374A1060374AC2F89C02354AB7
:1020B00008321060121D10600020121D10600120F7
:1020C000314AC2F8AC022F489838006808B9182085
:1020D00019E72C489438006808B9192013E72948F3
:1020E0009038006808B91A200DE726488C38006837
:1020F00008B91B2007E723488838006808B91C2066
:1021000001E720488438006890BB1D20FBE62429A5
:1021100035DA01201B4A10601B4AC2F89C02194A9A
:1021200008321060121D1060121D10600020164A47
:10213000C2F8AC0213489838006808B91E20E2E6DD
:1021400010489438006808B91F20DCE60D48903824
:10215000006808B92020D6E60A488C38006808B91B
:102160002120D0E607488838006810B92220CAE646
:1021700005E004488438006808B92320C3E6FF203E
:10218000C1E6000098024142000041421CB5012115
:10219000402004F08FF90820009001208DF8040001
:1021A00000208DF8060003208DF8050001208DF831
:1021B000070069461248FFF7DFF808F04FFF0820D4
:1021C0000F491A310880C820FEF70EFE08200C497E
:1021D0001831088008F042FF4FF41670FEF704FE35
:1021E00008F03CFF082006491A310880C820FEF795
:1021F000FBFD082002491831088008F02FFF1CBDA4
:102200000018024070B5044600261948058808F0F9
:1022100025FF1748408845431548808846F6040145
:10222000884216D112488079012812D10020104925
:1022300088712A2048812B2088810021084600F0DF
:1022400085FD01200A4988712B2048812A20888138
:1022500003E00021084600F079FD00F0A1FE002611
:1022600002E004480480761CAE42FAD370BD000040
:10227000204200200000026010B5044608F0EEFE87
:10228000DCB900201C498871F02008804FF4A07050
:1022900048800846808841F66311884228D12C2066
:1022A000154908812B2048812A2088814FF4F0703D
:1022B00008804FF4487048801AE001200E49887168
:1022C0004FF4A0700880F02048800846808841F6CE
:1022D000631188420CD12C20074908812A204881AB
:1022E0002B2088814FF4F07008804FF4887048806C
:1022F000002000F0B1FB10BD2042002070B5044664
:102300000D46164608F0AAFE1A48808841F6631169
:10231000884227D11748807920B916480088401E86
:10232000001B84B21349488900F034FE201200F0EB
:102330002BFEE0B200F028FE201200F025FEE0B2F5
:1023400000F022FE0B49888900F024FE281200F0DC
:102350001BFEE8B200F018FE281200F015FEE8B2ED
:1023600000F012FE0348008903490880881C06809B
:1023700070BD000020420020FEFF01602DE9F05FEB
:1023800005460E4617469846DDF828A04FF0000B8C
:1023900008F064FE781B401C1FFA80FB344615E0F1
:1023A0002146284600F0D2FC00F0FAFD4FF000096B
:1023B00006E00848A0F800A009F101001FFA80F922
:1023C000D945F6DB08F04AFE601C84B24445E7DDDF
:1023D000BDE8F09F000002602DE9F043A1B00026A7
:1023E0000027B046B1460121182004F063F801210E
:1023F000084604F06FF808F031FE4CF6B3701F90F9
:1024000002208DF8800000208DF8820003208DF8D6
:10241000810001208DF883001FA9FE48FEF7ACFF64
:102420004FF680701F9002208DF8800000208DF8FC
:10243000820003208DF8810001208DF883001FA900
:10244000F548FEF799FF0C220021F248FEF7DCFF69
:102450000C220121EF48FEF7D7FF0C220421ED48A2
:10246000FEF7D2FF0C220521EA48FEF7CDFF0C2231
:102470000821E848FEF7C8FF0C220921E548FEF7CD
:10248000C3FF0C220A21E348FEF7BEFF0C220E21F7
:10249000E048FEF7B9FF0C220F21DE48FEF7B4FF3B
:1024A0000C220721DC48FEF7AFFF0C220821DA4896
:1024B000FEF7AAFF0C220921D748FEF7A5FF0C2240
:1024C0000A21D548FEF7A0FF0C220B21D248FEF7C7
:1024D0009BFF0C221146D048FEF796FF0C220D21DF
:1024E000CD48FEF791FF0C220E21CB48FEF78CFF62
:1024F0000C220F21C848FEF787FF0C220721C54890
:10250000FEF782FF0C220B21C248FEF77DFF08F088
:10251000A5FD1020099000200A903C200B9000207F
:102520000C9002200D9000200E900F90122002902F
:102530000020039010200490002005900690079042
:10254000089008F08BFD0020109011901290102040
:1025500013900020149016901590179018904FF437
:102560008050199000201A904FF480401B9000205A
:102570001C9009A81D9002A81E9010A8FEF76AFEE4
:1025800001210020FEF74CFE08F068FD4FF4C870F2
:10259000FEF72AFC08F062FD4FF4C870FEF724FC39
:1025A00008F05CFD002000F019FA9C49888008467C
:1025B00081889BA008F05CFD002000900190002421
:1025C000A12000F0E7FC052009F0EAFA00F0FCF990
:1025D000C0B28DF8000000F0F7F9C0B28DF801002C
:1025E00000F0F2F9C0B28DF8020000F0EDF9C0B2CF
:1025F0008DF8030000F0E8F9C0B28DF804008DA05A
:1026000008F036FD00BF06E01DF804108DA008F0AC
:102610002FFD601CC4B2052CF6DB8CA008F028FD51
:10262000A12000F0B7FC00F0CFF97C49888000F0D1
:10263000CBF97A498880084680884FF6FF7101EA15
:1026400000207649888000F0BFF9744989880843E2
:10265000724988800846818871A008F009FD0A2027
:10266000FEF7C2FB08F0FAFC41F663106B49888064
:102670000846808841F6631188427DD108F0EEFC5F
:10268000E22000F087FC1D2000F07EFC022000F01C
:102690007BFC042000F078FC642009F081FAE02043
:1026A00000F078FC012000F06FFC0A20FEF79CFB94
:1026B00008F0D4FCE02000F06DFC032000F064FC86
:1026C0000C20FEF791FB012000F064FC0A20FEF7CD
:1026D0008BFB4FF4C870FEF787FB08F0BFFC4FF48C
:1026E000C870FEF781FB08F0B9FCE62000F052FC50
:1026F0002F2000F049FCFF2000F046FCFF2000F0F6
:1027000043FCB02000F046FC102000F03DFC00200F
:1027100000F03AFC08F0A2FC012000F035FC40F289
:10272000DF1000F031FC012000F02EFC40F20F1011
:1027300000F02AFC002000F027FCB42000F02AFC66
:10274000022000F021FC40F2DF2000F01DFC002000
:1027500000F01AFC2E2000F017FC002000F014FC02
:10276000002000F011FC002000F00EFC002000F022
:102770000BFC08F073FC00E079E0B62000F00AFCE6
:10278000012000F001FC4FF49E7000F0FDFB0020E2
:1027900000F0FAFB172000F0F7FB152000F0F4FB27
:1027A000002000F0F1FB002000F0EEFBF02000F034
:1027B000F1FB032000F0E8FB292000F0EBFBD02028
:1027C00000F0E8FB002000F0DFFBBE2000F0E2FBA1
:1027D000052000F0D9FBFE2000F0D6FB012000F020
:1027E000D3FB002000F0D0FB002000F0CDFB002048
:1027F00000F0CAFB08F032FCB82000F0CBFB03204D
:1028000000F0C2FB012000F0BFFBBA2000F0C2FBC9
:1028100001201DE0000C0240001002402042002078
:102820006C63646465762E69643D307825780D0AA2
:10283000000000006765745F6C63645F6D6F6465C2
:102840003A00000020307825780000000D0A0000D2
:1028500000F09AFB002000F0CDF808F0FFFBC82044
:10286000FEF7C2FA08F0FAFB002000F0C3F80120DE
:10287000FFF702FD42F20410FFF7C4FC0024002021
:1028800000900190002500F0A9F8044621463CA0E4
:1028900008F0EEFB08F0E2FBA12000F07BFB052036
:1028A00009F07EF900F090F8C0B28DF8000000F059
:1028B0008BF8C0B28DF8010000F086F8C0B28DF838
:1028C000020000F081F8C0B28DF8030000F07CF83F
:1028D000C0B28DF80400AFF2A40008F0C9FB00BF3D
:1028E00007E01DF80510AFF2A40008F0C1FB681C5A
:1028F000C5B2052DF5DBAFF2AC0008F0B9FBA120A5
:1029000000F048FB00F060F8044600F05DF8044673
:102910004FF6FF7000EA042400F056F80443214605
:1029200017A008F0A5FB45F26170844225D018A0DD
:1029300008F09EFB08F092FB6420FEF755FA00BFFA
:1029400000BF00BF00BF00BFBFF34F8F00BF00BF7D
:1029500000BF1B48006800F4E0601A490843001DEE
:102960001749086000BF00BF00BFBFF34F8F00BF13
:1029700000BF00BF00E000BFFDE721B0BDE8F0836D
:102980006C63645F69643D307825780D0A0000004F
:102990004C434420696E6974206661696C2C5468EC
:1029A000652073797374656D2077696C6C2062653E
:1029B00020726573746172746564210D0A000000F1
:1029C0000CED00E00000FA0508B50348008800900F
:1029D000BDF8000008BD00000000026010B504460C
:1029E000204600F0D7FA052009F0DAF8FFF7ECFFEF
:1029F00010BD000070B52DED048B044608F02EFBD1
:102A0000BE2000F0C7FA052000F0BEFA2046FDF710
:102A1000F8FD41EC190B9FED0E0B53EC102BFDF75D
:102A2000F0FC41EC180BFDF719FE85B2284600F0CA
:102A3000ABFA012000F0A8FAFF2000F0A5FA002070
:102A400000F0A2FA002000F09FFABDEC048B70BDEC
:102A500066666666666604402DE9F0410546002418
:102A6000002708F0FBFAB848807901280BD1B64856
:102A7000808846F60401884205D0B348808841F634
:102A80006311884208D1B0488079F0B9AE48808897
:102A900041F66311884218D1082D15D2DFE805F000
:102AA0000406080A0C0E101206250DE007250BE09F
:102AB000042509E0052507E0012505E0002503E0E0
:102AC000032501E0022500BF00BF9F48808849F22E
:102AD0004131884217D09C48808846F604018842DC
:102AE00011D09948808845F2103188420BD0964821
:102AF000808845F21051884205D09348808841F67D
:102B0000631188427ED1082D1CD2DFE805F004064F
:102B1000090C0F12151800BF14E044F0800411E0F6
:102B200044F040040EE044F0C0040BE044F0200404
:102B300008E044F0600405E044F0A00402E044F042
:102B4000E00400BF00BF8048808845F210518842F1
:102B500002D14FF4585700E036277B48808845F271
:102B6000103188420DD07848808845F21051884253
:102B700007D07548808841F66311884201D044F03F
:102B800008047148808846F60401884201D144F067
:102B900002042146384600F00DFA6B48808841F661
:102BA000631188421DD004F0200068B16648008897
:102BB00065494988884214DA634806884088624932
:102BC0000880084646800CE05F4800885E494988D6
:102BD000884206DD5C48068840885B4908800846D4
:102BE00046805948808845F21051884254D1564950
:102BF000488900F0CFF9002000F0C6F95249498910
:102C0000491C00E077E088B200F0C4F9002000F031
:102C1000BBF94D494989891C88B200F0BBF94A4982
:102C20000988491EC1F30F2000F0AEF946494989D1
:102C3000C91C88B200F0AEF943490978491EC8B2F0
:102C400000F0A2F94049888900F0A4F9002000F0C2
:102C50009BF93D498989491C88B200F09BF9002005
:102C600000F092F938498989891C88B200F092F9FC
:102C700035494988491EC1F30F2000F085F93249D2
:102C80008989C91C88B200F085F92F498978491EC5
:102C9000C8B200F079F955E02B49488900F07AF97B
:102CA000002000F071F9002000F06EF92649098833
:102CB000491EC1F30F2000F067F923490978491E26
:102CC000C8B200F061F92049888900F063F900205A
:102CD00000F05AF9002000F057F91B494988491EB5
:102CE000C1F30F2000F050F917498978491EC8B286
:102CF00000F04AF926E0082D1CD2DFE805F00407B1
:102D00000A0D0F12151844F0300413E044F01004BB
:102D100010E044F020040DE000BF0BE044F0380464
:102D200008E044F0280405E044F0180402E044F010
:102D3000080400BF00BF032744F4805421463846EE
:102D400000F038F9BDE8F0812042002070B504465B
:102D50000D462848808841F66311884248D108F022
:102D60007DF924488079A8B922480088401E001BBC
:102D700084B22049488900F00DF9201200F004F9CE
:102D8000E0B200F001F9201200F0FEF8E0B200F02D
:102D9000FBF816E01749488900F0FCF8201200F013
:102DA000F3F8E0B200F0F0F812490988491EC1F3C7
:102DB0000F2000F0E9F80F490978491EC8B200F069
:102DC000E3F80C49888900F0E5F8281200F0DCF8F7
:102DD000E8B200F0D9F807494988491EC1F30F202D
:102DE00000F0D2F803498978491EC8B200F0CCF847
:102DF00070BD0000204200202DE9F84F80460E46AD
:102E000017461C46B3462046E31704EB5373DB100A
:102E100021464FEAE47C04EB5C7C4FEAEC0CA4EB2B
:102E2000CC0CBCF1000F02D04FF0010C01E04FF0D0
:102E3000000C6344224604EBD27C4FEA6C0C03FB8B
:102E40000CF3DBB2009308F009F9A7F12000C7B238
:102E5000002554E00C2C07D107EB47002A4901EB71
:102E6000800010F8059013E0102C05D1274800EBE6
:102E7000071010F805900BE0182C07D107EBC700DE
:102E8000234901EB800010F8059001E0BDE8F88FC0
:102E90004FF0000A2DE009F0800028B1314640468D
:102EA0000C9AFFF72BFA06E00A9820B93146404603
:102EB0000B9AFFF723FA4FEA49604FEA1069701C3A
:102EC00086B214484088B04200DCDFE7A6EB0B0076
:102ED000A0420AD15E4608F101001FFA80F80D48B1
:102EE0000088404500DCD1E706E00AF1010000F06F
:102EF000FF0ABAF1080FCEDB00BF681CC5B200980C
:102F00008542A7DB00BFC1E784CB0008F8CF0008EB
:102F1000E8D50008204200202DE9FF5F04460D4659
:102F2000904699460EAE96E8C00CE0B2039008F0C9
:102F300095F808EB04001FFA80F809EB05001FFA6A
:102F400080F917E0444502DB039CA81985B24D4582
:102F500000DB15E000208DE8010C3A783346294665
:102F60002046FFF749FF304606EBD07104EB6101C4
:102F70008CB27F1C38787E2802DC38782028E1DA91
:102F800000BFBDE8FF9F00000149088070470000B6
:102F9000000002600149088070470000FEFF0160E8
:102FA0000248008902490880704700002042002042
:102FB000FEFF0160024A1080921C118070470000E1
:102FC000FEFF01601CB50121084603F073FA0121E0
:102FD000022003F06FFA0121082003F06BFA0121AF
:102FE000102003F067FA41F60110009001208DF8DF
:102FF000040000208DF8060003208DF80500012054
:103000008DF8070069461748FEF7B6F94FF430709F
:10301000009069461448FEF7AFF943F24C00009067
:1030200069461248FEF7A8F91F200090694610482B
:10303000FEF7A2F941F601110A48FEF70AFA4FF429
:1030400030710948FEF705FA43F24C010748FEF7D4
:1030500000FA1F210648FEF7FCF900200549086028
:103060001CBD00000000024000040240000C0240B1
:10307000001002409882404200200649086006493C
:10308000C1F8B00203490C3108600449C1F8A40238
:1030900070470000A00240420000404200804042D1
:1030A0000020064908600649C1F88C020349103126
:1030B00008600349C1F8B0027047000088824142AD
:1030C0000080414224480078022809D10120234988
:1030D00008604FF4FA7020494880012008700BE026
:1030E0001D480078012807D11B48408820B90020DE
:1030F0001A4908601849087017480079022806D153
:103100004FF4FA701449C8800120087109E0124890
:103110000079012805D11048C08810B900200E4957
:1031200008710D48007A022809D101200C49086075
:103130004FF4FA7008494881012008720BE00648F4
:10314000007A012807D10448408920B900200449A9
:103150000860014908727047D80600208C0242427C
:10316000B482414210B57B2003F082FA10B118A05E
:1031700007F07EFF7A2003F07BFA10B119A007F068
:1031800077FF7C2003F074FA10B11BA007F070FFEA
:103190007D2003F06DFA10B11CA007F069FF7E20BE
:1031A00003F066FA10B11EA007F062FF7F2003F063
:1031B0005FFA10B11FA007F05BFF792003F058FA07
:1031C00010B121A007F054FF03F0D4F910BD0000A6
:1031D0005243435F464C41475F504F525253540D48
:1031E0000A0000005243435F464C41475F50494E3E
:1031F0005253540D0A0000005243435F464C41476E
:103200005F5346545253540D0A0000005243435F2B
:10321000464C41475F495744475253540D0A0000FA
:103220005243435F464C41475F57574447525354BC
:103230000D0A00005243435F464C41475F4C5057D4
:10324000525253540D0A00005243435F464C4147CB
:103250005F424F525253540D0A0000002DE9F041D5
:1032600000250024002708F02BFC054607F0F6FE99
:10327000002D6ED0681E032190FBF1F0C4B2681ED1
:1032800090FBF1F201FB1200C7B2002F61D1242C98
:103290005FDA0B2C71D1F948807848B9F84880780A
:1032A000012803D007F0DAFE02F00AFDBDE8F08144
:1032B000F2488078032812D1F1488078012807D09D
:1032C00007F0CCFEED4948780022114601F0BCFF22
:1032D0000020EC4908600121E9488170E6E7FF2001
:1032E000E649C87002F00CF807F0B8FEFFF7D8FE08
:1032F000E3488078012872D1E348008918B149F683
:103300004040E149088107F0A9FE012007F062FB77
:1033100007F0A4FE0220D94981F8730108464078DD
:10332000012817D1D94840680168D9A007F0A0FE4C
:10333000D64840680068E149884206D90120E04942
:103340000870E0A007F094FE1BE00020DC49087044
:1033500017E093E2CD4840680168E1A007F088FEDD
:10336000CA4840680068E949884207D90120D44921
:103370000870E7A007F07CFE03E040E00020D049A1
:103380000870CF48007820B907F068FE02F0A6F96F
:1033900074E200260020E54908701CE007F05EFE9C
:1033A00008F022FD06460B2E06D10120E04981F8E7
:1033B000BA0102F093F910E00A2E04D10120DC4991
:1033C00081F8BA0109E0D948007820B90120D7492D
:1033D000087007F06BFAE1E701E000BFD8E7A84802
:1033E00080780128D4D0A54948780022114601F000
:1033F0002BFF0020A349086002F062FCC8E70A2CFA
:103400002ED19E4880780028C2D0FF209B49C870EA
:1034100001F076FF07F022FEFFF742FE9848807821
:1034200058B902F04BF9954948780022114601F04D
:103430000BFF012093490860AAE791488078022891
:103440000DD1BC48006840F00100BA49086007F09F
:1034500005FE02F023F900208A49086098E797E703
:10346000092C17D185480078012803D1022083490F
:10347000087002E001208149087007F0EFFDFF208D
:103480007E49C87001F03CFFFFF70AFE01207E492B
:1034900008817DE7182C1FD1FF207849C87001F002
:1034A0002FFF07F0DBFDFFF7FBFD74488078002855
:1034B00094D173488078012890D107F0CFFD012086
:1034C00007F088FA02206D4981F8730102F006F9CD
:1034D0000220994908705BE7042C70D16848807815
:1034E0000128FAD16648007800F0020028B164484B
:1034F000007820F002006249087061488078012855
:1035000001D002F0DDFB5D48407808B9012000E001
:1035100000205A494870022087490871FF20574906
:10352000C870FFF7A9FDFFF7BBFD0020534981F8E4
:1035300070010021514880F872114078012854D15F
:103540007E48407820F001007C4948700846407869
:1035500040F001004870494890F8A8004749887138
:1035600008468079887076480078764908707448F3
:10357000801C0268416841488030C0E904214FF452
:103580000040714908803D48807830B101280CD056
:10359000022815D0032826D11CE03848007A374984
:1035A00048710120694908601EE0344890F83000F5
:1035B00032494871012065491031086014E0EAE0A1
:1035C0002E4890F858002D49487101205F490C3170
:1035D000086009E0294890F88000284948710120D6
:1035E0005B49086000E000BFC1E05448407820F02B
:1035F00001005249487000204870204880791F49D6
:1036000081F8A800084690F8A80088704C484078D7
:103610004C4908704A480A30026841684D48C0E980
:1036200004214FF40040484908801448807830B1A4
:1036300001280DD0022815D003281DD18CE00F4899
:1036400090F8B0000D4948710120404908608DE0B4
:103650000A4890F8D8000949487101203B491031C7
:10366000086083E0054890F8000104494871012092
:1036700036490C31086079E077E00000480000200E
:103680008402002084024242C8060020A0020020DA
:1036900042544E5F53494E474C4554524947474563
:1036A00052204D6F646520566F6C746167652C41C4
:1036B0006D706C3D25640D0A00000000005125026C
:1036C00040000020457863656564696E672073611A
:1036D000666520766F6C746167650D0A00000000F6
:1036E00042544E5F53494E474C4554524947474513
:1036F00052204D6F64652043757272656E742C4163
:103700006D706C3D25640D0A0000000080969800E5
:10371000457863656564696E6720736166652063DB
:10372000757272656E740D0A000000004100002081
:103730000C050020003C0140D8060020E8010020D4
:1037400048030020C00100201A140240A002404299
:10375000A482404270010020FE4890F82801FD49F3
:1037600048710120FC49086000E000BF00BFFB4831
:10377000407800F00100F949097801F00101884220
:1037800002D0012003F00CFF0120F54981F8BA01B5
:10379000F4490881FCE51F2C71D1F3488078012899
:1037A0006DD1F2490860F2480078401CF049087079
:1037B00008460078042801DB00200870EC480178F6
:1037C000ECA007F055FCEA48007818B1E84800780A
:1037D000012802D104F012FD01E004F04BFDDD48A8
:1037E0004078012804D1E2480078E649087003E0F7
:1037F000DF480078E34948701622E249E620FDF7E9
:10380000F0F9DB480078022803D0D9480078032873
:1038100029D10120CF49C87001F5A870D0E9043042
:1038200044F620629A1A70F1000019D244F6206121
:103830000020D54AC2E904101146D1E90401C54A65
:10384000D2F854210832C34BDB7802EBC30203C227
:10385000FF20C049C87001F053FD012007F0BAF8FD
:10386000FF20BC49C870C7484278017800E006E0F4
:10387000C6A007F0FDFB0020BC490860DBE3A4BB49
:10388000B9488078012803D0B248807803284AD10B
:1038900002F016FAC94800884FF6FE710840C74981
:1038A00008800020C549243108600120C44908600F
:1038B0000020C449C1F88002FFF7F2FBA5488078D8
:1038C00008B3FFF7D9FB0120BD4920310860002073
:1038D000A049887008464078012807D108468078BA
:1038E00088710846007A487109E01CE099488078A0
:1038F000984981F8A800084690F8B0004871012066
:10390000974981F8BA010020AF4908600120AF490A
:10391000C1F88002FF208F49C87001F0F1FC01203E
:103920009049088187E3022C5AD18F48807801287A
:1039300003D088488078032852D102F0C1F90121D0
:10394000894881700020864981F8BA019B48008827
:103950004FF6FE71084099490880002097492431AC
:10396000086001209649086000209649C1F880024D
:10397000FFF796FB77488078022821D0FFF77CFB81
:1039800001208F492C310860022072498870084656
:103990004078012807D1084680788871084690F859
:1039A0005800487108E06B4880786A4981F8A8009F
:1039B000084690F8000148710120694981F8BA0170
:1039C00000208149086001208049C1F88002FF2061
:1039D0006049C87001F094FC0120624908812AE323
:1039E000012C59D160488078012803D0594880784B
:1039F000032851D102F064F901215B488170002055
:103A0000574981F8BA016D4800884FF6FE710840A9
:103A10006A4908800020694924310860012068490A
:103A2000086000206749C1F88002FFF739FB494868
:103A30008078012820D0FFF71FFB0120604930313A
:103A400008604449887008464078012807D1084634
:103A500080788871084690F83000487108E03D4849
:103A600080783C4981F8A800084690F8D800487151
:103A700001203B4981F8BA01002053490860012028
:103A80005249C1F88002FF203249C87001F038FC69
:103A9000012034490881CEE2032C49D13248807894
:103AA000012845D1FFF7FCFA4FF40040484908804F
:103AB00028488078032820D0FFF7DEFA0120264925
:103AC000086003202349887008464078012807D100
:103AD000084680788871084690F88000487108E0B0
:103AE0001C4880781B4981F8A800084690F82801F6
:103AF000487101201A4981F8BA011D48007818B1AF
:103B00001B480078012802D104F078FB01E004F0A2
:103B1000B1FB01202C4908600A20FDF765F9FF2060
:103B20000C49C87001F0ECFB01200E49088182E2CB
:103B3000222C7AD10C488078012876D108F040FCFC
:103B40000448807820B10348807801284AD041E0B9
:103B500048E0000048000020A4824042E801002024
:103B60000C050020C806002084020020B4824142D7
:103B7000C0010020576176655F747970653D2564EA
:103B80000D0A00004803002098010020734164647E
:103B90006974696F6E616C446174612E565F576120
:103BA00076655F747970653A25642C435F5761765A
:103BB000655F747970653A25640D0A000004004061
:103BC0008002404200004242B08242420000404235
:103BD0001A140240F7488078022803D0F54880780C
:103BE0000328A4D1FFF75CFAF248C07801281DD061
:103BF0000120F1490860EF4890F87301022803D1D1
:103C00000120EC4981F873010120EA49C8700021C4
:103C100002F096FF0120E74981F870010021E54894
:103C200080F8711180F872115BE05DE0E148C078C6
:103C300001283CD1E148007818B1E048007801281B
:103C40001BD1DF48D0E9042042F21073D21A70F180
:103C5000000004D21A460020D949C1E90420D848FE
:103C6000D0E90410D34AD2F854210832D14BDB7882
:103C700002EBC302C2E9001019E0D148D0E90420E8
:103C800044F62063D21A70F1000004D21A460021D3
:103C9000CB48C0E90421CA49D1E90401C54AD2F898
:103CA00054210832C34BDB7802EBC30203C2C14884
:103CB00090F8730101280AD10020BE4981F87301F0
:103CC000012006F087FE0220BA4981F87301FF2027
:103CD000B849C870002081F870010021B54880F80B
:103CE000721101F00DFBA6E1232C46D1B548807876
:103CF000012842D108F064FBFFF7D2F9AD48C07843
:103D0000F0B10120AC49091F0860AA4890F873017E
:103D1000022803D10120A74981F873010020A54999
:103D2000C8700021012002F00BFF0120A14981F899
:103D3000700100219F4880F8711180F8721119E01C
:103D40009C4890F8730101280AD10020994981F814
:103D50007301012006F03EFE0220964981F87301AE
:103D6000FF209449C870002081F87001002191481B
:103D700080F8721101F0C4FA5DE1212C6CD19148F8
:103D80008078012868D108F01BFB8A4880780128D8
:103D900003D0884880780228A5D1FFF781F98548AB
:103DA000C07802281ED0012083490C310860814868
:103DB00090F87301022803D101207E4981F8730134
:103DC00002207C49C8700021012002F0B9FE0120C8
:103DD000784981F870010021764880F8711180F8E7
:103DE000721136E07348C078022818D17448D0E9BF
:103DF0000430754A9A1A70F1000004D2724A002009
:103E00006F49C1E904206E49D1E90401694AD2F839
:103E100054210832674BDB7802EBC30203C26548CA
:103E200090F8730101280AD10020624981F87301DA
:103E3000012006F0CFFD02205E4981F87301FF20CA
:103E40005C49C870002081F870010021594880F851
:103E5000721101F055FAEEE0202C68D159488078B3
:103E6000012864D108F0ACFA5248807802285DD16C
:103E7000FFF716F94F48C07803281ED001204E499D
:103E8000243108604B4890F87301022803D10120C7
:103E9000484981F8730103204649C8700021012078
:103EA00002F04EFE0120434981F870010021414893
:103EB00080F8711180F8721136E03E48C07803280E
:103EC00018D13F48D0E90410404A891A70F1000027
:103ED00004D2114600223A48C0E904123849D1E917
:103EE0000401344AD2F854210832324BDB7802EB19
:103EF000C30203C22F4890F8730101280AD10020A1
:103F00002C4981F87301012006F064FD0220294943
:103F100081F87301FF202749C870002081F87001E3
:103F20000021244880F8721101F0EAF983E0132C93
:103F300003D1002002F096FE7DE01D2C03D101206C
:103F400002F090FE77E0172C03D1022002F08AFEE7
:103F500071E0112C03D1032002F084FE6BE01C2CD5
:103F600003D1042002F07EFE65E0162C03D105206B
:103F700002F078FE5FE0102C03D1062002F072FE02
:103F800059E01B2C03D1072002F06CFE53E0152CE6
:103F900003D1082002F066FE4DE00F2C03D109206A
:103FA00002F060FE47E0072C12D10B2002F05AFE0F
:103FB00041E00000480000208C824142C001002006
:103FC0009801002084020020400D0300A08601001B
:103FD0001E2C03D10C2002F045FE2CE0192C08D138
:103FE000164890F8720130BB0121144880F8721114
:103FF00021E00D2C1FD1FFF753F808F0E1F9FF2065
:104000000E49C87001F07CF900200C4981F870015C
:1040100000210A4880F8721190F8730101280AD132
:104020000020064981F87301012006F0D3FC02202C
:10403000024981F8730100BFFFF738B9480000203A
:1040400000BFFEE770B507F009F8DE22FD494FF426
:104050000070FCF789FD07F001F8FA4800787E2827
:1040600004D1F84890F8DD0045287DD0F6A006F090
:10407000FFFF0020FE4908700120487003F090FA0D
:10408000012007F079FDFB48007A40F00B00F94968
:104090000872084690F8300040F00B0081F83000BC
:1040A000084690F8580040F00B0081F85800084688
:1040B00090F8800040F00B0081F88000084690F8EE
:1040C000B00040F01A0081F8B000084690F8D8001F
:1040D00040F01A0081F8D800084690F8000140F03E
:1040E0001A0081F80001084690F8280140F01A00F3
:1040F00081F82801FF2088700846007A48717E20E8
:10410000D049087001204870D948407800F001007B
:1041100088700020C8700871D648007A4871002065
:104120008871C871D449C74A9160D060D3480021D2
:1041300010615161CF4890F8300011460876002098
:1041400048768876C876CC49D1611062CB48002188
:1041500050629162CA48D0621163C64890F8580014
:10416000114681F8340000E011E2002081F83500AA
:1041700081F8360081F8370081F83800BE48002108
:10418000393210605160BD48083210605160BC483F
:10419000083210605160BB49002008321160506045
:1041A000B44890F88000A74981F85900002081F8B0
:1041B0005A00B24800210A3210605160AD4890F8B0
:1041C000B000A04981F86300002081F8640081F804
:1041D0006500A94800210B32106051604110002099
:1041E000083211605060A34890F8D800954981F8D2
:1041F0007600002081F8770081F8780081F8790056
:104200009D490C32116050604910083211605060B5
:10421000083211605060974890F80001894981F890
:104220009200002081F8930081F8940081F89500B5
:1042300081F8960090490D321160506048100021BD
:104240000832106051600832106051608D480832A9
:1042500010605160874890F828017A4981F8B700CA
:10426000002081F8B80086490A3211605060754913
:1042700081F8C10081F8C20081F8C30081F8C40050
:1042800081F8C50081F8C60081F8C70081F8C80030
:10429000002110321160516008321060506069498D
:1042A000C1F8D900452081F8DD0006F0D7FEDE22F6
:1042B00064494FF40070FCF794FC06F0CFFE022036
:1042C0007149087048706C4900206F4A921C116057
:1042D000506008321160506006F0C0FE16226A4934
:1042E000E620FCF77EFC06F0B9FE564840796149AD
:1042F0000872544881795F4881725248C1795D489B
:10430000417250488168C2685A48C0E906124D4956
:1043100008694969574AC2E904014A48007E1146C2
:1043200081F830004748417E104680F832104548F9
:10433000817E104680F831104248C17E104680F8D8
:1043400033104048C269016A4A48C0E910213D481B
:10435000426A806A4749C1E90E203A48C26A016B45
:104360004448C0E91221374890F83400414981F8A7
:104370005800344890F835103E4880F85A103148BB
:1043800090F836103B4880F859102E4890F83710B6
:10439000384880F85B102B4890F83810354880F882
:1043A0005C1028483930016842683248C0E91A1266
:1043B00024494131086849682E4AC2E91801214858
:1043C0004930016842682B48C0E91C121D48513031
:1043D000016842682748C0E91E121A4890F859003F
:1043E000244981F88000174890F85A10214880F835
:1043F000811014495B31086849681E4A8032C2E95D
:104400000201104890F863001A4981F8B0000D4885
:1044100090F86410174880F8B2100A4890F86510B8
:10442000144880F8B11007486630026841681148A6
:10443000B030C0E9042103486E30026841680D487D
:10444000B03023E05E0300204C6F61642070617225
:10445000206572726F722C73657420746F206465AE
:104460006661756C742076616C7565210D0A0000BB
:10447000E80100204800002080841E00C0E1E40024
:1044800040420F0080C3C90148030020C0E9022157
:10449000FE4890F87600FE4981F8D800FB4890F875
:1044A0007710FB4880F8DA10F84890F87810F84850
:1044B00080F8D910F54890F87910F54880F8DB10AD
:1044C000F2487A3002684168F148D830C0E90421E6
:1044D000EE48823001684068ED4AD832C2E90210E5
:1044E000EA488A3001684268E948D830C0E90612D3
:1044F000E64890F89200E64981F80001E34890F818
:104500009310E34880F80211E04890F89410E048D6
:1045100080F80111DD4890F89510DD4880F803110E
:10452000DA4890F89610DA4880F80411D7489730A6
:1045300001684268D748C0E90412D4489F30016836
:104540004068D44AC2E90210D048A73002684168E6
:10455000D048C0E90621CD48AF3001684268CD4857
:10456000C0E90812C94890F8B700C94981F8280184
:10457000C64890F8B810C64880F82911C348B93029
:1045800001684068C34A2832C2E90210E0E2BF482D
:104590004078BF490870BD4880784870BB48C078F3
:1045A0008871BA48007981F8A800B8484079087243
:1045B000B6488179B6488172B448C179B44841722D
:1045C000B2488168C268B248C0E90612AF480269C1
:1045D0004169AF48C0E90421AC48007EAC4981F88C
:1045E0003000AA48417EAA4880F83210A748817E50
:1045F000A74880F83110A548C17EA54880F833103F
:10460000A248C169026AA248C0E910129F49486ADB
:10461000896A9F4AC2E90E019C48C26A016B9C48A4
:10462000C0E91221994890F83400994981F858005E
:10463000964890F83510964880F85A10934890F8AC
:104640003610934880F85910904890F837109048E9
:1046500080F85B108D4890F838108D4880F85C1019
:104660008A483930016842688948C0E91A12874986
:10467000413108684968864AC2E9180183484930CF
:10468000016842688248C0E91C12804851300168C4
:1046900042687F48C0E91E127C4890F859007C4966
:1046A00081F88000794890F85A10794880F8811094
:1046B00076485B300268406875498031C1E9022064
:1046C000724890F86300803981F8B0006F4890F824
:1046D00064106F4880F8B2106C4890F865106C4810
:1046E00080F8B110694866300168426869485038FE
:1046F000C0E9041265486E30026840686549503967
:10470000C1E90220614890F87600B03981F8D800FC
:104710005E4890F877105E4880F8DA105B4890F8B1
:1047200078105B4880F8D910584890F879105848AC
:1047300080F8DB1055487A300268416855482838BF
:10474000C0E9042151488230026840685149283943
:10475000C1E902204D488A30016842684D48283836
:10476000C0E90612494890F89200494981F80001D1
:10477000464890F89310464880F80211434890F854
:104780009410434880F80111404890F89510404833
:1047900080F803113D4890F896103D4880F80411C8
:1047A0003A489730026841683A48C0E904213748DE
:1047B0009F30016842683748C0E902123348A73089
:1047C000016842683348C0E906123048AF300168DA
:1047D00042683048C0E908122C4890F8B7002C49CC
:1047E00081F82801294890F8B810294880F8291143
:1047F0002649B93108684968264A2832C2E90201C7
:1048000006F02CFC2248D0E91A43224622A006F0EA
:104810002FFC1F48D0E9184322462DA006F028FCA3
:104820001B48D0E91C43224637A006F021FC18485B
:10483000D0E91E43224642A006F01AFC06F00EFC08
:104840004E4A45231248183000F004FA4C4A00231F
:104850000F48103000F0FEF9484A45230C4840301C
:1048600000F0F8F9464A00230948383000F0F2F920
:10487000444A09230648483000F0ECF93F4A4523F2
:104880000348683000F0E6F93D4A7DE05E03002011
:104890004800002048010020557365724F70657212
:1048A0006174696F6E2E565F4D6F646554726169F5
:1048B0006E2E506172616D5B554F5F504152414D9C
:1048C0005F50554C53455D3A256C6C640D0A0000F1
:1048D000557365724F7065726174696F6E2E565FA5
:1048E0004D6F6465547261696E2E506172616D5BCB
:1048F000554F5F504152414D5F414D504C5D3A25FF
:104900006C6C640D0A000000557365724F7065721F
:104910006174696F6E2E565F4D6F64655472616984
:104920006E2E506172616D5B554F5F504152414D2B
:104930005F465245515D3A256C6C640D0A000000DB
:10494000557365724F7065726174696F6E2E565F34
:104950004D6F6465547261696E2E506172616D5B5A
:10496000554F5F504152414D5F4455524154494F5C
:104970004E5D3A256C6C640D0A00000000B864D9E5
:10498000804A5D0500902F500023914800F062F9A5
:10499000904A09238E48103000F05CF98E4A0223B9
:1049A0008B48183000F056F98C4A0023884828308C
:1049B00000F050F98A4A45238548603000F04AF9F2
:1049C000884A00238248583000F044F9844A45233D
:1049D0007F48883000F03EF9824A00237C488030CE
:1049E00000F038F97B4A09237948903000F032F919
:1049F0007B4A45237648B03000F02CF9794A0023F1
:104A00007348A83000F026F9724A09237048B8307C
:104A100000F020F9704A02236D48C03000F01AF906
:104A2000704A00236A48D03000F014F96848C83052
:104A3000D0E9024322466CA006F01AFB00207A4916
:104A400008706348603840784870012002F0A8FD83
:104A500006F004FBFF205E49603988700846407804
:104A6000B0B3012873D10846807930B101280ED047
:104A7000022817D003282CD11FE055486038007A4F
:104A8000534960394871012007F076F822E0504818
:104A9000603890F830004E4960394871042007F0C2
:104AA0006BF817E04A48603890F858004849603978
:104AB0004871072007F060F80CE04548603890F82E
:104AC00080004349603948710A2007F055F801E039
:104AD00002E000BF00BF3AE03D48603890F8A8000F
:104AE00030B101280FD0022818D003282CD120E0A3
:104AF0003748603890F8B000354960394871012076
:104B000007F03AF821E03248603890F8D800304990
:104B100060394871042007F02FF816E02C486038FF
:104B200090F800012A4960394871072007F024F8FD
:104B30000BE02748603890F8280125496039487112
:104B40000A2007F019F800E000BF00BF00BF00BF57
:104B500006F084FA16223549E620FCF705F806F03F
:104B60007DFA32480078032802DD00202F490870C2
:104B70002E484078032802DD00202C4948702B483D
:104B8000427801782AA006F073FA06F067FA104816
:104B90006038407801280CD1244800782C490870EE
:104BA0002248801C0268416809482030C0E904217D
:104BB0000BE01E484078264908701C480A300168FE
:104BC00042680348C830C0E9041206F047FA70BDD5
:104BD000A800002000902F500098D058804A5D0512
:104BE00000B864D90048E80152656164312055730A
:104BF00065724F7065726174696F6E2E435F4D6FA1
:104C00006465457874426E632E506172616D5B55C8
:104C10004F5F504152414D5F414D504C5D3A256CC4
:104C20006C640D0A00000000E80100204803002029
:104C3000565F576176655F747970653A25642C43D9
:104C40005F576176655F747970653A25640D0A0077
:104C5000C001002010B5D0E90041141B73EB010125
:104C600002D200240460446010BD000070B5C14849
:104C700000894EF6602188427EDB7E20BE490870A6
:104C8000BE4800784870BD4840788870BB4880793D
:104C9000C870BA4890F8A8000871B848007A4871FE
:104CA000B648807A8871B548407AC871B348D0E96F
:104CB0000610B14A9160D060B049D1E90401106199
:104CC0005161AE4890F8300011460876AB4890F834
:104CD00032004876A94890F831008876A74890F8C5
:104CE0003300C876A548D0E91010D1611062A348FE
:104CF000D0E90E1051629062A048D0E91210D16242
:104D000010639E4890F85800114681F834009B4883
:104D100090F85A0081F83500984890F8590081F8C9
:104D20003600964890F85B0081F83700934890F879
:104D30005C0081F838009148D0E91A1039321160CE
:104D400050608E49D1E918010832106051608B48DB
:104D5000D0E91C1008321160506088496031D1E9F7
:104D60000601083210605160844890F88000824942
:104D700081F85900814800E0FAE090F8810081F85C
:104D80005A007E498031D1E902010A321060516037
:104D90007A4890F8B000784981F86300774890F835
:104DA000B20081F86400754890F8B10081F86500A0
:104DB0007248B030D0E904100B32116050606F4877
:104DC000B030D0E902100832116050606B4890F8A2
:104DD000D800694981F87600684890F8DA0081F8CF
:104DE0007700664890F8D90081F87800634890F819
:104DF000DB0081F879006149E031D1E902010C3230
:104E0000106051605D48D830D0E90210083211605E
:104E100050605A49E031D1E9040108321060516014
:104E2000564890F80001544981F89200534890F890
:104E3000020181F89300514890F8010181F8940033
:104E40004E4890F8030181F895004C4890F8040111
:104E500081F896004A49D1E902010D321060516093
:104E600047480838D0E902100832116050604448C1
:104E70000838D0E906100832116050604049D1E985
:104E800006010832106051603C4890F828013A4908
:104E900081F8B700394890F8290181F8B8003849FD
:104EA0002031D1E902010A321060516000203249FC
:104EB00081F8C10081F8C20081F8C30081F8C40004
:104EC00081F8C50081F8C60081F8C70081F8C800E4
:104ED000C1F8D900452081F8DD0006F0BFF8274968
:104EE0006031D1E90243224626A006F0C1F82349E9
:104EF000D1E91843224631A006F0BAF81F496031C3
:104F0000D1E9044322463BA006F0B2F81B496031C8
:104F1000D1E90643224645A006F0AAF81849D1E98E
:104F20000243224650A006F0A3F815480838D0E9FD
:104F3000024322465AA006F09BF81149D1E90443E6
:104F4000224665A006F094F80D49D1E906432246B1
:104F50006FA006F08DF806F081F8DE2206494FF4C6
:104F60000070FBF73EFE06F079F800200149088149
:104F700070BD0000C80600205E030020480000202D
:104F800050010020557365724F7065726174696FCE
:104F90006E2E565F4D6F6465547261696E2E50615E
:104FA00072616D5B554F5F504152414D5F50554CA2
:104FB00053455D3A256C6C640D0A000055736572AB
:104FC0004F7065726174696F6E2E565F4D6F6465C8
:104FD000547261696E2E506172616D5B554F5F5006
:104FE0004152414D5F414D504C5D3A256C6C640D12
:104FF0000A000000557365724F7065726174696FC5
:105000006E2E565F4D6F6465547261696E2E5061ED
:1050100072616D5B554F5F504152414D5F46524545
:10502000515D3A256C6C640D0A0000005573657281
:105030004F7065726174696F6E2E565F4D6F646557
:10504000547261696E2E506172616D5B554F5F5095
:105050004152414D5F4455524154494F4E5D3A25AE
:105060006C6C640D0A000000557365724F706572B8
:105070006174696F6E2E435F4D6F64655472616930
:105080006E2E506172616D5B554F5F504152414DC4
:105090005F50554C53455D3A256C6C640D0A000019
:1050A000557365724F7065726174696F6E2E435FE0
:1050B0004D6F6465547261696E2E506172616D5BF3
:1050C000554F5F504152414D5F414D504C5D3A2527
:1050D0006C6C640D0A000000557365724F70657248
:1050E0006174696F6E2E435F4D6F646554726169C0
:1050F0006E2E506172616D5B554F5F504152414D54
:105100005F465245515D3A256C6C640D0A00000003
:10511000557365724F7065726174696F6E2E435F6F
:105120004D6F6465547261696E2E506172616D5B82
:10513000554F5F504152414D5F4455524154494F84
:105140004E5D3A256C6C640D0A00000010B50446F3
:105150000C4951F824104A000B4951F82400002151
:1051600007F024F9094951F824200749083951F872
:105170002400002107F01AF90121034808300155E5
:1051800010BD00006CCB0008F80200207CCB0008AA
:105190007047000070B5002100230F22C4781CB3B3
:1051A000174C246804F4E064C4F5E064C4F30721F8
:1051B000C1F10404E3B20A4144789C40E1B284782E
:1051C000144021430C07210E0E4C057861550478DC
:1051D00004F01F050124AC4005786D11AD0005F108
:1051E000E025C5F8004109E0047804F01F0501241A
:1051F000AC40054D0678761145F8264070BD00009C
:105200000CED00E000E400E080E100E00249014331
:10521000024A1160704700000000FA050CED00E042
:1052200010B5002807DA0A07140E054A00F00F032C
:105230001B1FD45403E00A07130E024A135410BD77
:1052400018ED00E000E400E02DE9F04104460D46D1
:105250001646012E38D1012C16D126480078012897
:1052600008D146F2A81095FBF0F739460120FBF76C
:10527000D6FB3DE046F2A81095FBF0F047423946D8
:105280000120FBF7CCFB33E094BB1A4800780128DF
:105290000BD14FF47A7095FBF0F7F81707EB5070CD
:1052A000C1100220FBF7BBFB22E04FF47A7095FBA4
:1052B000F0F7F81707EB5070C010C0F10008414636
:1052C0000220FBF7ACFB13E096B9012C04D10021BE
:1052D0000120FBF7A4FB04E01CB900210220FBF72E
:1052E0009EFB01200449086000200449C1F8940293
:1052F000BDE8F081480000208002404200004342A7
:1053000010B5504800794F49C97888424ED04D4871
:10531000007930B1012813D0022821D003283FD1D1
:105320002EE049A1494805F0B3FE47A14748733034
:1053300005F0AEFE44A14548E63005F0A9FE30E098
:1053400041A14248163805F0A3FE3FA13F484B302B
:1053500005F09EFE3CA13D48DC3005F099FE20E0C2
:1053600039A13A48163005F093FE37A137489B30F3
:1053700005F08EFE34A13548F03005F089FE10E0CE
:1053800031A132482C3005F083FE2FA12F48C330C5
:1053900005F07EFE2CA12D48FA3005F079FE00E0E4
:1053A00000BF00BF2748C078264908712548C0784B
:1053B00030B1012813D0022821D003283FD12EE09C
:1053C00021A1224805F064FE1FA12048733005F09A
:1053D0005FFE1DA11D48E63005F05AFE30E01AA11F
:1053E0001A48163805F054FE17A118484B3005F03E
:1053F0004FFE15A11548DC3005F04AFE20E012A151
:105400001248163005F044FE0FA110489B3005F0FD
:105410003FFE0DA10D48F03005F03AFE10E00AA164
:105420000A482C3005F034FE07A10848C33005F0C7
:105430002FFE05A10548FA3005F02AFE00E000BF66
:1054400000BF10BD4800002000000000C70500207C
:105450002DE9FF4F87B00D4614461F46DDE9176B57
:10546000DDE9158ADDF85090079809287ED2DFE83B
:1054700000F07D052E475E879EC7EB0004EB090018
:1054800083B2E81982B2214628460096FCF776FFDF
:105490005046FAF7E2FE08EBD871491000FB117094
:1054A00005EB500080B2CDE90408A9EB0800CDE976
:1054B000026BCDE9008A069000EBD07004EB60002F
:1054C00081B24B463A460498FDF726FDD7E004EB3F
:1054D000090083B2E81982B2214628460096FCF7FB
:1054E0004DFF04F1140291B205F1140290B24B4643
:1054F0003A46CDE9026BCDE9008AFDF70DFDBEE02D
:1055000004EB090083B2E81982B2214628460096CE
:10551000FCF734FF04F1140081B24B463A462846AA
:10552000CDE9026BCDE9008AFDF7F6FCA7E044F275
:105530002820009004EB090083B2E81982B22146CA
:105540002846FCF71BFF04EB09000A3883B2E81970
:10555000283882B204F10A0081B228460096FCF78E
:105560000DFF04F1140081B24B4600E086E03A469C
:105570002846CDE9026BCDE9008AFDF7CDFC7EE03F
:1055800004EB090083B2E81982B22146284600964E
:10559000FCF7F4FE04F1140081B24B463A4628466B
:1055A000CDE9026BCDE9008AFDF7B6FC67E004EBBC
:1055B000090083B2E81982B2214628460096FCF71A
:1055C000DDFE002030A11022CDE9011600920390EB
:1055D00004F1120291B26A1D90B24B463A46FDF7B1
:1055E0009BFC04F10A0291B205F13C0290B24B46D9
:1055F0003A46CDE9026BCDE9008AFDF78DFC3EE02D
:1056000004EB090083B2E81982B2214628460096CD
:10561000FCF7B4FE5046FAF720FE08EBD8714910AB
:1056200000FB117005EB500080B2CDE9050804F1D4
:105630000A0081B24B463A46CDE9026BCDE9008AB9
:105640000598FDF769FC1AE004EB090083B2E8193C
:1056500082B2214628460096FCF790FE0CA010214D
:1056600004F11202CDE9026BCDE9001091B26A1D7E
:1056700090B24B463A46FDF74FFC00E000BF00BF3A
:105680000BB0BDE8F08F000054595045207C00005D
:10569000545950453A0000007047000010B50020F2
:1056A000044908600121880702F087FA00210248B6
:1056B000817010BD800240428402002010B501209C
:1056C000044908600021800702F077FA02210248AD
:1056D000817010BD80024042840200202DE9F04F0D
:1056E0002DED068B87B0FE48807800287ED10446D9
:1056F0000546FB48407801280AD1F948D0E906451B
:10570000F849611A75F1000010D2F74804600DE005
:10571000F348407850B9F248B030D0E90445F14937
:10572000611A75F1000001D2EF480460EF4800787B
:1057300018B1EE48007801280BD142F21071611ABD
:1057400075F1000005D2012007B0BDEC068BBDE865
:10575000F08FE6480078022803D0E4480078032858
:1057600007D144F62061611A75F1000001D20120D1
:10577000EAE7DE48007818B1DC48007801280ED14D
:10578000FA22002320462946FAF724FD401ED84974
:10579000086008460068A0F11C0008600DE0FA22CD
:1057A000002320462946FAF715FD401ED04908601F
:1057B00008460068A0F1480008604FF00100CD499C
:1057C00008604FF00000CC49C1F880024FF00A0099
:1057D000FBF70AFBC248407830B94FF40040C74994
:1057E00008800A20FBF700FB002100E006E0C44827
:1057F0008170BF480068FBF7A5FC3FE2B84880789D
:10580000012877D100200446054606460746B448DD
:10581000407801280CD1B248D0E91045D0E9126790
:10582000B049611A75F1000012D2AF4804600FE070
:10583000AB48407860B9AA48D830D0E90445D0E9EF
:105840000667A849611A75F1000001D2A6480460F4
:10585000A648007818B1A5480078012807D142F27F
:105860001071611A75F1000001D201206CE79F48A8
:105870000078022803D09D480078032807D144F619
:105880002061611A75F1000001D201205CE79549A1
:10589000711A77F1000001D2012055E79348007892
:1058A00018B19248007801280ED1FA220023204630
:1058B0002946FAF78FFC401E8D49086008460068AB
:1058C000A0F11C0008600DE0FA22002320462946C2
:1058D000FAF780FC401E8649086008460068A0F17F
:1058E000480008608248006822462B46CDE90067E0
:1058F000029000E060E083A005F0BAFB00BF00BFAB
:1059000000BF4FF014094FF47A7200233046394635
:10591000FAF760FC06460F4630463946FAF792FE23
:1059200041EC190B53EC192B9FED800B51EC100B34
:10593000FAF7D9FD41EC180B9FED7E0B53EC102BC1
:1059400051EC180BFAF7CFFD9FED7C0B53EC102BAD
:10595000FAF751FDFAF782FE804653EC182B79A036
:10596000CDF8008005F084FB61480068404502D90D
:105970005F48C0F8008001205E49086000205E4951
:10598000C1F880020A20FBF72FFA5548407830B959
:105990004FF40040594908800A20FBF725FA1FFA06
:1059A00089F1404602F00DFA00215548817001212D
:1059B000880702F002F961E1494880780228FAD1AB
:1059C00000210C460D460E460F46002080468146BB
:1059D0004348407801280ED14148D0E91A45D0E922
:1059E0001C67D0E91E893F49611A75F1000016D283
:1059F0003D48046013E03A48407880B95648D0E901
:105A00000445D0E906673648D0F82491D0F82081C3
:105A10003449611A75F1000001D2334804603348FB
:105A2000007818B131480078012807D142F210718E
:105A3000611A75F1000001D2012085E62B4800783B
:105A4000022803D029480078032807D144F62061B2
:105A5000611A75F1000001D2012075E62149711A21
:105A600077F1000001D201206EE63C49B8EB01015C
:105A700079F1000001D2012066E61C48007818B1D7
:105A80001A48007801280ED1FA2200232046294620
:105A9000FAF7A0FB401E1649086008460068A0F10E
:105AA0001C0008600DE0FA22002320462946FAF780
:105AB00091FB401E0E49086008460068A0F14800AE
:105AC00008600B48CDE90489006822462B46CDE9E1
:105AD0000067029022A005F0CBFA00BF00BF5BE098
